{"abi":[{"type":"constructor","inputs":[],"stateMutability":"nonpayable"},{"type":"function","name":"networks","inputs":[{"name":"enumValue","type":"uint8","internalType":"enum Helper.SupportedNetworks"}],"outputs":[{"name":"humanReadableName","type":"string","internalType":"string"}],"stateMutability":"view"}],"bytecode":{"object":"0x60806040523480156200001157600080fd5b506040518060400160405280601081526020017f457468657265756d205365706f6c69610000000000000000000000000000000081525060008080600a811115620000615762000060620005ac565b5b600a811115620000765762000075620005ac565b5b8152602001908152602001600020908162000092919062000855565b506040518060400160405280600e81526020017f4176616c616e6368652046756a690000000000000000000000000000000000008152506000806001600a811115620000e357620000e2620005ac565b5b600a811115620000f857620000f7620005ac565b5b8152602001908152602001600020908162000114919062000855565b506040518060400160405280601081526020017f417262697472756d205365706f6c6961000000000000000000000000000000008152506000806002600a811115620001655762000164620005ac565b5b600a8111156200017a5762000179620005ac565b5b8152602001908152602001600020908162000196919062000855565b506040518060400160405280600e81526020017f506f6c79676f6e204d756d6261690000000000000000000000000000000000008152506000806003600a811115620001e757620001e6620005ac565b5b600a811115620001fc57620001fb620005ac565b5b8152602001908152602001600020908162000218919062000855565b506040518060400160405280601181526020017f424e4220436861696e20546573746e65740000000000000000000000000000008152506000806004600a811115620002695762000268620005ac565b5b600a8111156200027e576200027d620005ac565b5b815260200190815260200160002090816200029a919062000855565b506040518060400160405280601081526020017f4f7074696d69736d205365706f6c6961000000000000000000000000000000008152506000806005600a811115620002eb57620002ea620005ac565b5b600a8111156200030057620002ff620005ac565b5b815260200190815260200160002090816200031c919062000855565b506040518060400160405280600c81526020017f42617365205365706f6c696100000000000000000000000000000000000000008152506000806006600a8111156200036d576200036c620005ac565b5b600a811115620003825762000381620005ac565b5b815260200190815260200160002090816200039e919062000855565b506040518060400160405280600d81526020017f57656d697820546573746e6574000000000000000000000000000000000000008152506000806007600a811115620003ef57620003ee620005ac565b5b600a811115620004045762000403620005ac565b5b8152602001908152602001600020908162000420919062000855565b506040518060400160405280601581526020017f4b726f6d61205365706f6c696120546573746e657400000000000000000000008152506000806008600a811115620004715762000470620005ac565b5b600a811115620004865762000485620005ac565b5b81526020019081526020016000209081620004a2919062000855565b506040518060400160405280600d81526020017f4d65746973205365706f6c6961000000000000000000000000000000000000008152506000806009600a811115620004f357620004f2620005ac565b5b600a811115620005085762000507620005ac565b5b8152602001908152602001600020908162000524919062000855565b506040518060400160405280600e81526020017f7a6b53796e63205365706f6c6961000000000000000000000000000000000000815250600080600a80811115620005745762000573620005ac565b5b600a811115620005895762000588620005ac565b5b81526020019081526020016000209081620005a5919062000855565b506200093c565b7f4e487b7100000000000000000000000000000000000000000000000000000000600052602160045260246000fd5b600081519050919050565b7f4e487b7100000000000000000000000000000000000000000000000000000000600052604160045260246000fd5b7f4e487b7100000000000000000000000000000000000000000000000000000000600052602260045260246000fd5b600060028204905060018216806200065d57607f821691505b60208210810362000673576200067262000615565b5b50919050565b60008190508160005260206000209050919050565b60006020601f8301049050919050565b600082821b905092915050565b600060088302620006dd7fffffffffffffffffffffffffffffffffffffffffffffffffffffffffffffffff826200069e565b620006e986836200069e565b95508019841693508086168417925050509392505050565b6000819050919050565b6000819050919050565b600062000736620007306200072a8462000701565b6200070b565b62000701565b9050919050565b6000819050919050565b620007528362000715565b6200076a62000761826200073d565b848454620006ab565b825550505050565b600090565b6200078162000772565b6200078e81848462000747565b505050565b5b81811015620007b657620007aa60008262000777565b60018101905062000794565b5050565b601f8211156200080557620007cf8162000679565b620007da846200068e565b81016020851015620007ea578190505b62000802620007f9856200068e565b83018262000793565b50505b505050565b600082821c905092915050565b60006200082a600019846008026200080a565b1980831691505092915050565b600062000845838362000817565b9150826002028217905092915050565b6200086082620005db565b67ffffffffffffffff8111156200087c576200087b620005e6565b5b62000888825462000644565b62000895828285620007ba565b600060209050601f831160018114620008cd5760008415620008b8578287015190505b620008c4858262000837565b86555062000934565b601f198416620008dd8662000679565b60005b828110156200090757848901518255600182019150602085019450602081019050620008e0565b8683101562000927578489015162000923601f89168262000817565b8355505b6001600288020188555050505b505050505050565b61029f806200094c6000396000f3fe608060405234801561001057600080fd5b506004361061002b5760003560e01c80638a21e63914610030575b600080fd5b61004a6004803603810190610045919061012a565b610060565b60405161005791906101e7565b60405180910390f35b6000602052806000526040600020600091509050805461007f90610238565b80601f01602080910402602001604051908101604052809291908181526020018280546100ab90610238565b80156100f85780601f106100cd576101008083540402835291602001916100f8565b820191906000526020600020905b8154815290600101906020018083116100db57829003601f168201915b505050505081565b600080fd5b600b811061011257600080fd5b50565b60008135905061012481610105565b92915050565b6000602082840312156101405761013f610100565b5b600061014e84828501610115565b91505092915050565b600081519050919050565b600082825260208201905092915050565b60005b83811015610191578082015181840152602081019050610176565b60008484015250505050565b6000601f19601f8301169050919050565b60006101b982610157565b6101c38185610162565b93506101d3818560208601610173565b6101dc8161019d565b840191505092915050565b6000602082019050818103600083015261020181846101ae565b905092915050565b7f4e487b7100000000000000000000000000000000000000000000000000000000600052602260045260246000fd5b6000600282049050600182168061025057607f821691505b60208210810361026357610262610209565b5b5091905056fea264697066735822122050660344ae53ec34e463b51d7d59a8cdca06544970137563ab3bce31c6e700bf64736f6c63430008130033","linkReferences":{}},"methodIdentifiers":{"networks(uint8)":"8a21e639"},"id":81}