{"abi":[{"type":"constructor","inputs":[{"name":"_initialPrice","type":"int256","internalType":"int256"},{"name":"_decimals","type":"uint8","internalType":"uint8"},{"name":"_description","type":"string","internalType":"string"}],"stateMutability":"nonpayable"},{"type":"function","name":"decimals","inputs":[],"outputs":[{"name":"","type":"uint8","internalType":"uint8"}],"stateMutability":"view"},{"type":"function","name":"description","inputs":[],"outputs":[{"name":"","type":"string","internalType":"string"}],"stateMutability":"view"},{"type":"function","name":"getRoundData","inputs":[{"name":"_roundId","type":"uint80","internalType":"uint80"}],"outputs":[{"name":"","type":"uint80","internalType":"uint80"},{"name":"","type":"int256","internalType":"int256"},{"name":"","type":"uint256","internalType":"uint256"},{"name":"","type":"uint256","internalType":"uint256"},{"name":"","type":"uint80","internalType":"uint80"}],"stateMutability":"view"},{"type":"function","name":"latestRoundData","inputs":[],"outputs":[{"name":"","type":"uint80","internalType":"uint80"},{"name":"","type":"int256","internalType":"int256"},{"name":"","type":"uint256","internalType":"uint256"},{"name":"","type":"uint256","internalType":"uint256"},{"name":"","type":"uint80","internalType":"uint80"}],"stateMutability":"view"},{"type":"function","name":"updatePrice","inputs":[{"name":"_price","type":"int256","internalType":"int256"}],"outputs":[],"stateMutability":"nonpayable"},{"type":"function","name":"version","inputs":[],"outputs":[{"name":"","type":"uint256","internalType":"uint256"}],"stateMutability":"view"}],"bytecode":{"object":"0x608060405260016003556001600460006101000a81548169ffffffffffffffffffff021916908369ffffffffffffffffffff16021790555042600555426006556001600760006101000a81548169ffffffffffffffffffff021916908369ffffffffffffffffffff1602179055503480156200007a57600080fd5b5060405162000d1738038062000d178339818101604052810190620000a09190620002e9565b8260008190555081600160006101000a81548160ff021916908360ff1602179055508060029081620000d39190620005af565b5050505062000696565b6000604051905090565b600080fd5b600080fd5b6000819050919050565b6200010681620000f1565b81146200011257600080fd5b50565b6000815190506200012681620000fb565b92915050565b600060ff82169050919050565b62000144816200012c565b81146200015057600080fd5b50565b600081519050620001648162000139565b92915050565b600080fd5b600080fd5b6000601f19601f8301169050919050565b7f4e487b7100000000000000000000000000000000000000000000000000000000600052604160045260246000fd5b620001bf8262000174565b810181811067ffffffffffffffff82111715620001e157620001e062000185565b5b80604052505050565b6000620001f6620000dd565b9050620002048282620001b4565b919050565b600067ffffffffffffffff82111562000227576200022662000185565b5b620002328262000174565b9050602081019050919050565b60005b838110156200025f57808201518184015260208101905062000242565b60008484015250505050565b6000620002826200027c8462000209565b620001ea565b905082815260208101848484011115620002a157620002a06200016f565b5b620002ae8482856200023f565b509392505050565b600082601f830112620002ce57620002cd6200016a565b5b8151620002e08482602086016200026b565b91505092915050565b600080600060608486031215620003055762000304620000e7565b5b6000620003158682870162000115565b9350506020620003288682870162000153565b925050604084015167ffffffffffffffff8111156200034c576200034b620000ec565b5b6200035a86828701620002b6565b9150509250925092565b600081519050919050565b7f4e487b7100000000000000000000000000000000000000000000000000000000600052602260045260246000fd5b60006002820490506001821680620003b757607f821691505b602082108103620003cd57620003cc6200036f565b5b50919050565b60008190508160005260206000209050919050565b60006020601f8301049050919050565b600082821b905092915050565b600060088302620004377fffffffffffffffffffffffffffffffffffffffffffffffffffffffffffffffff82620003f8565b620004438683620003f8565b95508019841693508086168417925050509392505050565b6000819050919050565b6000819050919050565b6000620004906200048a62000484846200045b565b62000465565b6200045b565b9050919050565b6000819050919050565b620004ac836200046f565b620004c4620004bb8262000497565b84845462000405565b825550505050565b600090565b620004db620004cc565b620004e8818484620004a1565b505050565b5b81811015620005105762000504600082620004d1565b600181019050620004ee565b5050565b601f8211156200055f576200052981620003d3565b6200053484620003e8565b8101602085101562000544578190505b6200055c6200055385620003e8565b830182620004ed565b50505b505050565b600082821c905092915050565b6000620005846000198460080262000564565b1980831691505092915050565b60006200059f838362000571565b9150826002028217905092915050565b620005ba8262000364565b67ffffffffffffffff811115620005d657620005d562000185565b5b620005e282546200039e565b620005ef82828562000514565b600060209050601f83116001811462000627576000841562000612578287015190505b6200061e858262000591565b8655506200068e565b601f1984166200063786620003d3565b60005b8281101562000661578489015182556001820191506020850194506020810190506200063a565b868310156200068157848901516200067d601f89168262000571565b8355505b6001600288020188555050505b505050505050565b61067180620006a66000396000f3fe608060405234801561001057600080fd5b50600436106100625760003560e01c8063313ce5671461006757806354fd4d50146100855780637284e416146100a35780639a6fc8f5146100c1578063d4c19bda146100f5578063feaf968c14610111575b600080fd5b61006f610133565b60405161007c9190610331565b60405180910390f35b61008d610146565b60405161009a9190610365565b60405180910390f35b6100ab61014c565b6040516100b89190610410565b60405180910390f35b6100db60048036038101906100d69190610479565b6101da565b6040516100ec9594939291906104ce565b60405180910390f35b61010f600480360381019061010a919061054d565b610218565b005b6101196102c1565b60405161012a9594939291906104ce565b60405180910390f35b600160009054906101000a900460ff1681565b60035481565b60028054610159906105a9565b80601f0160208091040260200160405190810160405280929190818152602001828054610185906105a9565b80156101d25780601f106101a7576101008083540402835291602001916101d2565b820191906000526020600020905b8154815290600101906020018083116101b557829003601f168201915b505050505081565b600080600080600085600054600554600654600760009054906101000a900469ffffffffffffffffffff169450945094509450945091939590929450565b80600081905550426006819055506004600081819054906101000a900469ffffffffffffffffffff168092919061024e90610609565b91906101000a81548169ffffffffffffffffffff021916908369ffffffffffffffffffff16021790555050600460009054906101000a900469ffffffffffffffffffff16600760006101000a81548169ffffffffffffffffffff021916908369ffffffffffffffffffff16021790555050565b6000806000806000600460009054906101000a900469ffffffffffffffffffff16600054600554600654600760009054906101000a900469ffffffffffffffffffff16945094509450945094509091929394565b600060ff82169050919050565b61032b81610315565b82525050565b60006020820190506103466000830184610322565b92915050565b6000819050919050565b61035f8161034c565b82525050565b600060208201905061037a6000830184610356565b92915050565b600081519050919050565b600082825260208201905092915050565b60005b838110156103ba57808201518184015260208101905061039f565b60008484015250505050565b6000601f19601f8301169050919050565b60006103e282610380565b6103ec818561038b565b93506103fc81856020860161039c565b610405816103c6565b840191505092915050565b6000602082019050818103600083015261042a81846103d7565b905092915050565b600080fd5b600069ffffffffffffffffffff82169050919050565b61045681610437565b811461046157600080fd5b50565b6000813590506104738161044d565b92915050565b60006020828403121561048f5761048e610432565b5b600061049d84828501610464565b91505092915050565b6104af81610437565b82525050565b6000819050919050565b6104c8816104b5565b82525050565b600060a0820190506104e360008301886104a6565b6104f060208301876104bf565b6104fd6040830186610356565b61050a6060830185610356565b61051760808301846104a6565b9695505050505050565b61052a816104b5565b811461053557600080fd5b50565b60008135905061054781610521565b92915050565b60006020828403121561056357610562610432565b5b600061057184828501610538565b91505092915050565b7f4e487b7100000000000000000000000000000000000000000000000000000000600052602260045260246000fd5b600060028204905060018216806105c157607f821691505b6020821081036105d4576105d361057a565b5b50919050565b7f4e487b7100000000000000000000000000000000000000000000000000000000600052601160045260246000fd5b600061061482610437565b915069ffffffffffffffffffff82036106305761062f6105da565b5b60018201905091905056fea2646970667358221220965365893714b20ff75c8d986d10adf98fc1d8b2f12e5c5abfc82521ec6be70164736f6c63430008130033","linkReferences":{}},"methodIdentifiers":{"decimals()":"313ce567","description()":"7284e416","getRoundData(uint80)":"9a6fc8f5","latestRoundData()":"feaf968c","updatePrice(int256)":"d4c19bda","version()":"54fd4d50"},"id":51}