{"abi":[{"type":"constructor","inputs":[{"name":"router","type":"address","internalType":"address"}],"stateMutability":"nonpayable"},{"type":"function","name":"acceptOwnership","inputs":[],"outputs":[],"stateMutability":"nonpayable"},{"type":"function","name":"ccipReceive","inputs":[{"name":"message","type":"tuple","internalType":"struct Client.Any2EVMMessage","components":[{"name":"messageId","type":"bytes32","internalType":"bytes32"},{"name":"sourceChainSelector","type":"uint64","internalType":"uint64"},{"name":"sender","type":"bytes","internalType":"bytes"},{"name":"data","type":"bytes","internalType":"bytes"},{"name":"destTokenAmounts","type":"tuple[]","internalType":"struct Client.EVMTokenAmount[]","components":[{"name":"token","type":"address","internalType":"address"},{"name":"amount","type":"uint256","internalType":"uint256"}]}]}],"outputs":[],"stateMutability":"nonpayable"},{"type":"function","name":"getLatestMessageDetails","inputs":[],"outputs":[{"name":"","type":"bytes32","internalType":"bytes32"},{"name":"","type":"uint64","internalType":"uint64"},{"name":"","type":"address","internalType":"address"},{"name":"","type":"string","internalType":"string"}],"stateMutability":"view"},{"type":"function","name":"getRouter","inputs":[],"outputs":[{"name":"","type":"address","internalType":"address"}],"stateMutability":"view"},{"type":"function","name":"owner","inputs":[],"outputs":[{"name":"","type":"address","internalType":"address"}],"stateMutability":"view"},{"type":"function","name":"supportsInterface","inputs":[{"name":"interfaceId","type":"bytes4","internalType":"bytes4"}],"outputs":[{"name":"","type":"bool","internalType":"bool"}],"stateMutability":"pure"},{"type":"function","name":"transferOwnership","inputs":[{"name":"to","type":"address","internalType":"address"}],"outputs":[],"stateMutability":"nonpayable"},{"type":"function","name":"withdraw","inputs":[{"name":"beneficiary","type":"address","internalType":"address"}],"outputs":[],"stateMutability":"nonpayable"},{"type":"function","name":"withdrawToken","inputs":[{"name":"beneficiary","type":"address","internalType":"address"},{"name":"token","type":"address","internalType":"address"}],"outputs":[],"stateMutability":"nonpayable"},{"type":"event","name":"MessageReceived","inputs":[{"name":"latestMessageId","type":"bytes32","indexed":false,"internalType":"bytes32"},{"name":"latestSourceChainSelector","type":"uint64","indexed":false,"internalType":"uint64"},{"name":"latestSender","type":"address","indexed":false,"internalType":"address"},{"name":"latestMessage","type":"string","indexed":false,"internalType":"string"}],"anonymous":false},{"type":"event","name":"OwnershipTransferRequested","inputs":[{"name":"from","type":"address","indexed":true,"internalType":"address"},{"name":"to","type":"address","indexed":true,"internalType":"address"}],"anonymous":false},{"type":"event","name":"OwnershipTransferred","inputs":[{"name":"from","type":"address","indexed":true,"internalType":"address"},{"name":"to","type":"address","indexed":true,"internalType":"address"}],"anonymous":false},{"type":"error","name":"FailedToWithdrawEth","inputs":[{"name":"owner","type":"address","internalType":"address"},{"name":"target","type":"address","internalType":"address"},{"name":"value","type":"uint256","internalType":"uint256"}]},{"type":"error","name":"InvalidRouter","inputs":[{"name":"router","type":"address","internalType":"address"}]}],"bytecode":{"object":"0x60a06040523480156200001157600080fd5b506040516200235f3803806200235f833981810160405281019062000037919062000382565b3380600083600073ffffffffffffffffffffffffffffffffffffffff168173ffffffffffffffffffffffffffffffffffffffff1603620000b15760006040517fd7f73334000000000000000000000000000000000000000000000000000000008152600401620000a89190620003c5565b60405180910390fd5b8073ffffffffffffffffffffffffffffffffffffffff1660808173ffffffffffffffffffffffffffffffffffffffff168152505050600073ffffffffffffffffffffffffffffffffffffffff168273ffffffffffffffffffffffffffffffffffffffff160362000158576040517f08c379a00000000000000000000000000000000000000000000000000000000081526004016200014f9062000443565b60405180910390fd5b816000806101000a81548173ffffffffffffffffffffffffffffffffffffffff021916908373ffffffffffffffffffffffffffffffffffffffff160217905550600073ffffffffffffffffffffffffffffffffffffffff168173ffffffffffffffffffffffffffffffffffffffff1614620001df57620001de81620001e960201b60201c565b5b50505050620004d7565b3373ffffffffffffffffffffffffffffffffffffffff168173ffffffffffffffffffffffffffffffffffffffff16036200025a576040517f08c379a00000000000000000000000000000000000000000000000000000000081526004016200025190620004b5565b60405180910390fd5b80600160006101000a81548173ffffffffffffffffffffffffffffffffffffffff021916908373ffffffffffffffffffffffffffffffffffffffff1602179055508073ffffffffffffffffffffffffffffffffffffffff1660008054906101000a900473ffffffffffffffffffffffffffffffffffffffff1673ffffffffffffffffffffffffffffffffffffffff167fed8889f560326eb138920d842192f0eb3dd22b4f139c87a2c57538e05bae127860405160405180910390a350565b600080fd5b600073ffffffffffffffffffffffffffffffffffffffff82169050919050565b60006200034a826200031d565b9050919050565b6200035c816200033d565b81146200036857600080fd5b50565b6000815190506200037c8162000351565b92915050565b6000602082840312156200039b576200039a62000318565b5b6000620003ab848285016200036b565b91505092915050565b620003bf816200033d565b82525050565b6000602082019050620003dc6000830184620003b4565b92915050565b600082825260208201905092915050565b7f43616e6e6f7420736574206f776e657220746f207a65726f0000000000000000600082015250565b60006200042b601883620003e2565b91506200043882620003f3565b602082019050919050565b600060208201905081810360008301526200045e816200041c565b9050919050565b7f43616e6e6f74207472616e7366657220746f2073656c66000000000000000000600082015250565b60006200049d601783620003e2565b9150620004aa8262000465565b602082019050919050565b60006020820190508181036000830152620004d0816200048e565b9050919050565b608051611e65620004fa6000396000818161066201526107320152611e656000f3fe608060405234801561001057600080fd5b50600436106100935760003560e01c806379ba50971161006657806379ba50971461012157806385572ffb1461012b5780638da5cb5b14610147578063b0f479a114610165578063f2fde38b1461018357610093565b806301ffc9a7146100985780633394e6f4146100c85780633aeac4e1146100e957806351cff8d914610105575b600080fd5b6100b260048036038101906100ad9190610dde565b61019f565b6040516100bf9190610e26565b60405180910390f35b6100d0610271565b6040516100e09493929190610f4e565b60405180910390f35b61010360048036038101906100fe9190610fc6565b610351565b005b61011f600480360381019061011a9190611006565b610407565b005b6101296104cb565b005b61014560048036038101906101409190611057565b610660565b005b61014f610705565b60405161015c91906110a0565b60405180910390f35b61016d61072e565b60405161017a91906110a0565b60405180910390f35b61019d60048036038101906101989190611006565b610756565b005b60007f85572ffb000000000000000000000000000000000000000000000000000000007bffffffffffffffffffffffffffffffffffffffffffffffffffffffff1916827bffffffffffffffffffffffffffffffffffffffffffffffffffffffff1916148061026a57507f01ffc9a7000000000000000000000000000000000000000000000000000000007bffffffffffffffffffffffffffffffffffffffffffffffffffffffff1916827bffffffffffffffffffffffffffffffffffffffffffffffffffffffff1916145b9050919050565b60008060006060600254600360009054906101000a900467ffffffffffffffff16600360089054906101000a900473ffffffffffffffffffffffffffffffffffffffff1660048080546102c3906110ea565b80601f01602080910402602001604051908101604052809291908181526020018280546102ef906110ea565b801561033c5780601f106103115761010080835404028352916020019161033c565b820191906000526020600020905b81548152906001019060200180831161031f57829003601f168201915b50505050509050935093509350935090919293565b61035961076a565b60008173ffffffffffffffffffffffffffffffffffffffff166370a08231306040518263ffffffff1660e01b815260040161039491906110a0565b602060405180830381865afa1580156103b1573d6000803e3d6000fd5b505050506040513d601f19601f820116820180604052508101906103d59190611151565b905061040283828473ffffffffffffffffffffffffffffffffffffffff166107fa9092919063ffffffff16565b505050565b61040f61076a565b600047905060008273ffffffffffffffffffffffffffffffffffffffff168260405161043a906111af565b60006040518083038185875af1925050503d8060008114610477576040519150601f19603f3d011682016040523d82523d6000602084013e61047c565b606091505b50509050806104c6573383836040517f9d11f5630000000000000000000000000000000000000000000000000000000081526004016104bd939291906111d3565b60405180910390fd5b505050565b600160009054906101000a900473ffffffffffffffffffffffffffffffffffffffff1673ffffffffffffffffffffffffffffffffffffffff163373ffffffffffffffffffffffffffffffffffffffff161461055b576040517f08c379a000000000000000000000000000000000000000000000000000000000815260040161055290611256565b60405180910390fd5b60008060009054906101000a900473ffffffffffffffffffffffffffffffffffffffff169050336000806101000a81548173ffffffffffffffffffffffffffffffffffffffff021916908373ffffffffffffffffffffffffffffffffffffffff1602179055506000600160006101000a81548173ffffffffffffffffffffffffffffffffffffffff021916908373ffffffffffffffffffffffffffffffffffffffff1602179055503373ffffffffffffffffffffffffffffffffffffffff168173ffffffffffffffffffffffffffffffffffffffff167f8be0079c531659141344cd1fd0a4f28419497f9722a3daafe3b4186f6b6457e060405160405180910390a350565b7f000000000000000000000000000000000000000000000000000000000000000073ffffffffffffffffffffffffffffffffffffffff163373ffffffffffffffffffffffffffffffffffffffff16146106f057336040517fd7f733340000000000000000000000000000000000000000000000000000000081526004016106e791906110a0565b60405180910390fd5b610702816106fd9061161a565b610880565b50565b60008060009054906101000a900473ffffffffffffffffffffffffffffffffffffffff16905090565b60007f0000000000000000000000000000000000000000000000000000000000000000905090565b61075e61076a565b610767816109b2565b50565b60008054906101000a900473ffffffffffffffffffffffffffffffffffffffff1673ffffffffffffffffffffffffffffffffffffffff163373ffffffffffffffffffffffffffffffffffffffff16146107f8576040517f08c379a00000000000000000000000000000000000000000000000000000000081526004016107ef90611679565b60405180910390fd5b565b61087b8363a9059cbb60e01b8484604051602401610819929190611699565b604051602081830303815290604052907bffffffffffffffffffffffffffffffffffffffffffffffffffffffff19166020820180517bffffffffffffffffffffffffffffffffffffffffffffffffffffffff8381831617835250505050610ade565b505050565b80600001516002819055508060200151600360006101000a81548167ffffffffffffffff021916908367ffffffffffffffff16021790555080604001518060200190518101906108d09190611700565b600360086101000a81548173ffffffffffffffffffffffffffffffffffffffff021916908373ffffffffffffffffffffffffffffffffffffffff160217905550806060015180602001905181019061092891906117ce565b6004908161093691906119c3565b507fb1e312a29937cc11967b0e4a346fef1ae132424ebaba9dc6d90249dba053e87c600254600360009054906101000a900467ffffffffffffffff16600360089054906101000a900473ffffffffffffffffffffffffffffffffffffffff1660046040516109a79493929190611b19565b60405180910390a150565b3373ffffffffffffffffffffffffffffffffffffffff168173ffffffffffffffffffffffffffffffffffffffff1603610a20576040517f08c379a0000000000000000000000000000000000000000000000000000000008152600401610a1790611bb1565b60405180910390fd5b80600160006101000a81548173ffffffffffffffffffffffffffffffffffffffff021916908373ffffffffffffffffffffffffffffffffffffffff1602179055508073ffffffffffffffffffffffffffffffffffffffff1660008054906101000a900473ffffffffffffffffffffffffffffffffffffffff1673ffffffffffffffffffffffffffffffffffffffff167fed8889f560326eb138920d842192f0eb3dd22b4f139c87a2c57538e05bae127860405160405180910390a350565b6000610b40826040518060400160405280602081526020017f5361666545524332303a206c6f772d6c6576656c2063616c6c206661696c65648152508573ffffffffffffffffffffffffffffffffffffffff16610ba59092919063ffffffff16565b9050600081511115610ba05780806020019051810190610b609190611bfd565b610b9f576040517f08c379a0000000000000000000000000000000000000000000000000000000008152600401610b9690611c9c565b60405180910390fd5b5b505050565b6060610bb48484600085610bbd565b90509392505050565b606082471015610c02576040517f08c379a0000000000000000000000000000000000000000000000000000000008152600401610bf990611d2e565b60405180910390fd5b6000808673ffffffffffffffffffffffffffffffffffffffff168587604051610c2b9190611d8a565b60006040518083038185875af1925050503d8060008114610c68576040519150601f19603f3d011682016040523d82523d6000602084013e610c6d565b606091505b5091509150610c7e87838387610c8a565b92505050949350505050565b60608315610cec576000835103610ce457610ca485610cff565b610ce3576040517f08c379a0000000000000000000000000000000000000000000000000000000008152600401610cda90611ded565b60405180910390fd5b5b829050610cf7565b610cf68383610d22565b5b949350505050565b6000808273ffffffffffffffffffffffffffffffffffffffff163b119050919050565b600082511115610d355781518083602001fd5b806040517f08c379a0000000000000000000000000000000000000000000000000000000008152600401610d699190611e0d565b60405180910390fd5b6000604051905090565b600080fd5b600080fd5b60007fffffffff0000000000000000000000000000000000000000000000000000000082169050919050565b610dbb81610d86565b8114610dc657600080fd5b50565b600081359050610dd881610db2565b92915050565b600060208284031215610df457610df3610d7c565b5b6000610e0284828501610dc9565b91505092915050565b60008115159050919050565b610e2081610e0b565b82525050565b6000602082019050610e3b6000830184610e17565b92915050565b6000819050919050565b610e5481610e41565b82525050565b600067ffffffffffffffff82169050919050565b610e7781610e5a565b82525050565b600073ffffffffffffffffffffffffffffffffffffffff82169050919050565b6000610ea882610e7d565b9050919050565b610eb881610e9d565b82525050565b600081519050919050565b600082825260208201905092915050565b60005b83811015610ef8578082015181840152602081019050610edd565b60008484015250505050565b6000601f19601f8301169050919050565b6000610f2082610ebe565b610f2a8185610ec9565b9350610f3a818560208601610eda565b610f4381610f04565b840191505092915050565b6000608082019050610f636000830187610e4b565b610f706020830186610e6e565b610f7d6040830185610eaf565b8181036060830152610f8f8184610f15565b905095945050505050565b610fa381610e9d565b8114610fae57600080fd5b50565b600081359050610fc081610f9a565b92915050565b60008060408385031215610fdd57610fdc610d7c565b5b6000610feb85828601610fb1565b9250506020610ffc85828601610fb1565b9150509250929050565b60006020828403121561101c5761101b610d7c565b5b600061102a84828501610fb1565b91505092915050565b600080fd5b600060a0828403121561104e5761104d611033565b5b81905092915050565b60006020828403121561106d5761106c610d7c565b5b600082013567ffffffffffffffff81111561108b5761108a610d81565b5b61109784828501611038565b91505092915050565b60006020820190506110b56000830184610eaf565b92915050565b7f4e487b7100000000000000000000000000000000000000000000000000000000600052602260045260246000fd5b6000600282049050600182168061110257607f821691505b602082108103611115576111146110bb565b5b50919050565b6000819050919050565b61112e8161111b565b811461113957600080fd5b50565b60008151905061114b81611125565b92915050565b60006020828403121561116757611166610d7c565b5b60006111758482850161113c565b91505092915050565b600081905092915050565b50565b600061119960008361117e565b91506111a482611189565b600082019050919050565b60006111ba8261118c565b9150819050919050565b6111cd8161111b565b82525050565b60006060820190506111e86000830186610eaf565b6111f56020830185610eaf565b61120260408301846111c4565b949350505050565b7f4d7573742062652070726f706f736564206f776e657200000000000000000000600082015250565b6000611240601683610ec9565b915061124b8261120a565b602082019050919050565b6000602082019050818103600083015261126f81611233565b9050919050565b600080fd5b7f4e487b7100000000000000000000000000000000000000000000000000000000600052604160045260246000fd5b6112b382610f04565b810181811067ffffffffffffffff821117156112d2576112d161127b565b5b80604052505050565b60006112e5610d72565b90506112f182826112aa565b919050565b600080fd5b61130481610e41565b811461130f57600080fd5b50565b600081359050611321816112fb565b92915050565b61133081610e5a565b811461133b57600080fd5b50565b60008135905061134d81611327565b92915050565b600080fd5b600080fd5b600067ffffffffffffffff8211156113785761137761127b565b5b61138182610f04565b9050602081019050919050565b82818337600083830152505050565b60006113b06113ab8461135d565b6112db565b9050828152602081018484840111156113cc576113cb611358565b5b6113d784828561138e565b509392505050565b600082601f8301126113f4576113f3611353565b5b813561140484826020860161139d565b91505092915050565b600067ffffffffffffffff8211156114285761142761127b565b5b602082029050602081019050919050565b600080fd5b60008135905061144d81611125565b92915050565b60006040828403121561146957611468611276565b5b61147360406112db565b9050600061148384828501610fb1565b60008301525060206114978482850161143e565b60208301525092915050565b60006114b66114b18461140d565b6112db565b905080838252602082019050604084028301858111156114d9576114d8611439565b5b835b8181101561150257806114ee8882611453565b8452602084019350506040810190506114db565b5050509392505050565b600082601f83011261152157611520611353565b5b81356115318482602086016114a3565b91505092915050565b600060a082840312156115505761154f611276565b5b61155a60a06112db565b9050600061156a84828501611312565b600083015250602061157e8482850161133e565b602083015250604082013567ffffffffffffffff8111156115a2576115a16112f6565b5b6115ae848285016113df565b604083015250606082013567ffffffffffffffff8111156115d2576115d16112f6565b5b6115de848285016113df565b606083015250608082013567ffffffffffffffff811115611602576116016112f6565b5b61160e8482850161150c565b60808301525092915050565b6000611626368361153a565b9050919050565b7f4f6e6c792063616c6c61626c65206279206f776e657200000000000000000000600082015250565b6000611663601683610ec9565b915061166e8261162d565b602082019050919050565b6000602082019050818103600083015261169281611656565b9050919050565b60006040820190506116ae6000830185610eaf565b6116bb60208301846111c4565b9392505050565b60006116cd82610e7d565b9050919050565b6116dd816116c2565b81146116e857600080fd5b50565b6000815190506116fa816116d4565b92915050565b60006020828403121561171657611715610d7c565b5b6000611724848285016116eb565b91505092915050565b600067ffffffffffffffff8211156117485761174761127b565b5b61175182610f04565b9050602081019050919050565b600061177161176c8461172d565b6112db565b90508281526020810184848401111561178d5761178c611358565b5b611798848285610eda565b509392505050565b600082601f8301126117b5576117b4611353565b5b81516117c584826020860161175e565b91505092915050565b6000602082840312156117e4576117e3610d7c565b5b600082015167ffffffffffffffff81111561180257611801610d81565b5b61180e848285016117a0565b91505092915050565b60008190508160005260206000209050919050565b60006020601f8301049050919050565b600082821b905092915050565b6000600883026118797fffffffffffffffffffffffffffffffffffffffffffffffffffffffffffffffff8261183c565b611883868361183c565b95508019841693508086168417925050509392505050565b6000819050919050565b60006118c06118bb6118b68461111b565b61189b565b61111b565b9050919050565b6000819050919050565b6118da836118a5565b6118ee6118e6826118c7565b848454611849565b825550505050565b600090565b6119036118f6565b61190e8184846118d1565b505050565b5b81811015611932576119276000826118fb565b600181019050611914565b5050565b601f8211156119775761194881611817565b6119518461182c565b81016020851015611960578190505b61197461196c8561182c565b830182611913565b50505b505050565b600082821c905092915050565b600061199a6000198460080261197c565b1980831691505092915050565b60006119b38383611989565b9150826002028217905092915050565b6119cc82610ebe565b67ffffffffffffffff8111156119e5576119e461127b565b5b6119ef82546110ea565b6119fa828285611936565b600060209050601f831160018114611a2d5760008415611a1b578287015190505b611a2585826119a7565b865550611a8d565b601f198416611a3b86611817565b60005b82811015611a6357848901518255600182019150602085019450602081019050611a3e565b86831015611a805784890151611a7c601f891682611989565b8355505b6001600288020188555050505b505050505050565b60008154611aa2816110ea565b611aac8186610ec9565b94506001821660008114611ac75760018114611add57611b10565b60ff198316865281151560200286019350611b10565b611ae685611817565b60005b83811015611b0857815481890152600182019150602081019050611ae9565b808801955050505b50505092915050565b6000608082019050611b2e6000830187610e4b565b611b3b6020830186610e6e565b611b486040830185610eaf565b8181036060830152611b5a8184611a95565b905095945050505050565b7f43616e6e6f74207472616e7366657220746f2073656c66000000000000000000600082015250565b6000611b9b601783610ec9565b9150611ba682611b65565b602082019050919050565b60006020820190508181036000830152611bca81611b8e565b9050919050565b611bda81610e0b565b8114611be557600080fd5b50565b600081519050611bf781611bd1565b92915050565b600060208284031215611c1357611c12610d7c565b5b6000611c2184828501611be8565b91505092915050565b7f5361666545524332303a204552433230206f7065726174696f6e20646964206e60008201527f6f74207375636365656400000000000000000000000000000000000000000000602082015250565b6000611c86602a83610ec9565b9150611c9182611c2a565b604082019050919050565b60006020820190508181036000830152611cb581611c79565b9050919050565b7f416464726573733a20696e73756666696369656e742062616c616e636520666f60008201527f722063616c6c0000000000000000000000000000000000000000000000000000602082015250565b6000611d18602683610ec9565b9150611d2382611cbc565b604082019050919050565b60006020820190508181036000830152611d4781611d0b565b9050919050565b600081519050919050565b6000611d6482611d4e565b611d6e818561117e565b9350611d7e818560208601610eda565b80840191505092915050565b6000611d968284611d59565b915081905092915050565b7f416464726573733a2063616c6c20746f206e6f6e2d636f6e7472616374000000600082015250565b6000611dd7601d83610ec9565b9150611de282611da1565b602082019050919050565b60006020820190508181036000830152611e0681611dca565b9050919050565b60006020820190508181036000830152611e278184610f15565b90509291505056fea26469706673582212208c27bd548966c1cee8ee14b150b35755f8ab38e0e8c11bed145f0fb2f3eed39764736f6c63430008130033","linkReferences":{}},"methodIdentifiers":{"acceptOwnership()":"79ba5097","ccipReceive((bytes32,uint64,bytes,bytes,(address,uint256)[]))":"85572ffb","getLatestMessageDetails()":"3394e6f4","getRouter()":"b0f479a1","owner()":"8da5cb5b","supportsInterface(bytes4)":"01ffc9a7","transferOwnership(address)":"f2fde38b","withdraw(address)":"51cff8d9","withdrawToken(address,address)":"3aeac4e1"},"id":48}