{"abi":[{"type":"constructor","inputs":[{"name":"initialSupply","type":"uint256","internalType":"uint256"},{"name":"router","type":"address","internalType":"address"},{"name":"link","type":"address","internalType":"address"}],"stateMutability":"nonpayable"},{"type":"function","name":"allowance","inputs":[{"name":"owner","type":"address","internalType":"address"},{"name":"spender","type":"address","internalType":"address"}],"outputs":[{"name":"","type":"uint256","internalType":"uint256"}],"stateMutability":"view"},{"type":"function","name":"approve","inputs":[{"name":"spender","type":"address","internalType":"address"},{"name":"amount","type":"uint256","internalType":"uint256"}],"outputs":[{"name":"","type":"bool","internalType":"bool"}],"stateMutability":"nonpayable"},{"type":"function","name":"balanceOf","inputs":[{"name":"account","type":"address","internalType":"address"}],"outputs":[{"name":"","type":"uint256","internalType":"uint256"}],"stateMutability":"view"},{"type":"function","name":"burnTokens","inputs":[{"name":"amount","type":"uint256","internalType":"uint256"},{"name":"sourceChain","type":"uint64","internalType":"uint64"}],"outputs":[],"stateMutability":"nonpayable"},{"type":"function","name":"ccipReceive","inputs":[{"name":"message","type":"tuple","internalType":"struct Client.Any2EVMMessage","components":[{"name":"messageId","type":"bytes32","internalType":"bytes32"},{"name":"sourceChainSelector","type":"uint64","internalType":"uint64"},{"name":"sender","type":"bytes","internalType":"bytes"},{"name":"data","type":"bytes","internalType":"bytes"},{"name":"destTokenAmounts","type":"tuple[]","internalType":"struct Client.EVMTokenAmount[]","components":[{"name":"token","type":"address","internalType":"address"},{"name":"amount","type":"uint256","internalType":"uint256"}]}]}],"outputs":[],"stateMutability":"nonpayable"},{"type":"function","name":"decimals","inputs":[],"outputs":[{"name":"","type":"uint8","internalType":"uint8"}],"stateMutability":"view"},{"type":"function","name":"decreaseAllowance","inputs":[{"name":"spender","type":"address","internalType":"address"},{"name":"subtractedValue","type":"uint256","internalType":"uint256"}],"outputs":[{"name":"","type":"bool","internalType":"bool"}],"stateMutability":"nonpayable"},{"type":"function","name":"getLockedBalance","inputs":[{"name":"account","type":"address","internalType":"address"}],"outputs":[{"name":"","type":"uint256","internalType":"uint256"}],"stateMutability":"view"},{"type":"function","name":"getParallelTokenAddress","inputs":[{"name":"chainId","type":"uint64","internalType":"uint64"}],"outputs":[{"name":"","type":"address","internalType":"address"}],"stateMutability":"view"},{"type":"function","name":"getRequiredFee","inputs":[{"name":"destinationChain","type":"uint64","internalType":"uint64"},{"name":"amount","type":"uint256","internalType":"uint256"}],"outputs":[{"name":"fees","type":"uint256","internalType":"uint256"}],"stateMutability":"view"},{"type":"function","name":"getRouter","inputs":[],"outputs":[{"name":"","type":"address","internalType":"address"}],"stateMutability":"view"},{"type":"function","name":"increaseAllowance","inputs":[{"name":"spender","type":"address","internalType":"address"},{"name":"addedValue","type":"uint256","internalType":"uint256"}],"outputs":[{"name":"","type":"bool","internalType":"bool"}],"stateMutability":"nonpayable"},{"type":"function","name":"linkToken","inputs":[],"outputs":[{"name":"","type":"address","internalType":"contract LinkTokenInterface"}],"stateMutability":"view"},{"type":"function","name":"lockTokens","inputs":[{"name":"destinationChain","type":"uint64","internalType":"uint64"},{"name":"amount","type":"uint256","internalType":"uint256"}],"outputs":[],"stateMutability":"nonpayable"},{"type":"function","name":"lockedBalances","inputs":[{"name":"","type":"address","internalType":"address"}],"outputs":[{"name":"","type":"uint256","internalType":"uint256"}],"stateMutability":"view"},{"type":"function","name":"name","inputs":[],"outputs":[{"name":"","type":"string","internalType":"string"}],"stateMutability":"view"},{"type":"function","name":"owner","inputs":[],"outputs":[{"name":"","type":"address","internalType":"address"}],"stateMutability":"view"},{"type":"function","name":"parallelTokenAddresses","inputs":[{"name":"","type":"uint64","internalType":"uint64"}],"outputs":[{"name":"","type":"address","internalType":"address"}],"stateMutability":"view"},{"type":"function","name":"renounceOwnership","inputs":[],"outputs":[],"stateMutability":"nonpayable"},{"type":"function","name":"setParallelTokenAddress","inputs":[{"name":"chainId","type":"uint64","internalType":"uint64"},{"name":"_parallelTokenAddress","type":"address","internalType":"address"}],"outputs":[],"stateMutability":"nonpayable"},{"type":"function","name":"supportsInterface","inputs":[{"name":"interfaceId","type":"bytes4","internalType":"bytes4"}],"outputs":[{"name":"","type":"bool","internalType":"bool"}],"stateMutability":"pure"},{"type":"function","name":"symbol","inputs":[],"outputs":[{"name":"","type":"string","internalType":"string"}],"stateMutability":"view"},{"type":"function","name":"totalSupply","inputs":[],"outputs":[{"name":"","type":"uint256","internalType":"uint256"}],"stateMutability":"view"},{"type":"function","name":"transfer","inputs":[{"name":"to","type":"address","internalType":"address"},{"name":"amount","type":"uint256","internalType":"uint256"}],"outputs":[{"name":"","type":"bool","internalType":"bool"}],"stateMutability":"nonpayable"},{"type":"function","name":"transferFrom","inputs":[{"name":"from","type":"address","internalType":"address"},{"name":"to","type":"address","internalType":"address"},{"name":"amount","type":"uint256","internalType":"uint256"}],"outputs":[{"name":"","type":"bool","internalType":"bool"}],"stateMutability":"nonpayable"},{"type":"function","name":"transferOwnership","inputs":[{"name":"newOwner","type":"address","internalType":"address"}],"outputs":[],"stateMutability":"nonpayable"},{"type":"function","name":"withdrawLink","inputs":[{"name":"amount","type":"uint256","internalType":"uint256"}],"outputs":[],"stateMutability":"nonpayable"},{"type":"event","name":"Approval","inputs":[{"name":"owner","type":"address","indexed":true,"internalType":"address"},{"name":"spender","type":"address","indexed":true,"internalType":"address"},{"name":"value","type":"uint256","indexed":false,"internalType":"uint256"}],"anonymous":false},{"type":"event","name":"CrossChainTransfer","inputs":[{"name":"sender","type":"address","indexed":true,"internalType":"address"},{"name":"destinationChain","type":"uint64","indexed":false,"internalType":"uint64"},{"name":"amount","type":"uint256","indexed":false,"internalType":"uint256"}],"anonymous":false},{"type":"event","name":"OwnershipTransferred","inputs":[{"name":"previousOwner","type":"address","indexed":true,"internalType":"address"},{"name":"newOwner","type":"address","indexed":true,"internalType":"address"}],"anonymous":false},{"type":"event","name":"ParallelTokenAddressSet","inputs":[{"name":"chainId","type":"uint64","indexed":true,"internalType":"uint64"},{"name":"newParallelTokenAddress","type":"address","indexed":true,"internalType":"address"}],"anonymous":false},{"type":"event","name":"Transfer","inputs":[{"name":"from","type":"address","indexed":true,"internalType":"address"},{"name":"to","type":"address","indexed":true,"internalType":"address"},{"name":"value","type":"uint256","indexed":false,"internalType":"uint256"}],"anonymous":false},{"type":"error","name":"InvalidRouter","inputs":[{"name":"router","type":"address","internalType":"address"}]}],"bytecode":{"object":"0x60a06040523480156200001157600080fd5b5060405162004058380380620040588339818101604052810190620000379190620004da565b816040518060400160405280600f81526020017f536f6c69636861696e20546f6b656e00000000000000000000000000000000008152506040518060400160405280600381526020017f53435400000000000000000000000000000000000000000000000000000000008152508160039081620000b59190620007a6565b508060049081620000c79190620007a6565b505050600073ffffffffffffffffffffffffffffffffffffffff168173ffffffffffffffffffffffffffffffffffffffff16036200013f5760006040517fd7f733340000000000000000000000000000000000000000000000000000000081526004016200013691906200089e565b60405180910390fd5b8073ffffffffffffffffffffffffffffffffffffffff1660808173ffffffffffffffffffffffffffffffffffffffff1681525050506200019462000188620001f060201b60201c565b620001f860201b60201c565b620001a63384620002be60201b60201c565b80600860006101000a81548173ffffffffffffffffffffffffffffffffffffffff021916908373ffffffffffffffffffffffffffffffffffffffff160217905550505050620009d6565b600033905090565b6000600560009054906101000a900473ffffffffffffffffffffffffffffffffffffffff16905081600560006101000a81548173ffffffffffffffffffffffffffffffffffffffff021916908373ffffffffffffffffffffffffffffffffffffffff1602179055508173ffffffffffffffffffffffffffffffffffffffff168173ffffffffffffffffffffffffffffffffffffffff167f8be0079c531659141344cd1fd0a4f28419497f9722a3daafe3b4186f6b6457e060405160405180910390a35050565b600073ffffffffffffffffffffffffffffffffffffffff168273ffffffffffffffffffffffffffffffffffffffff160362000330576040517f08c379a000000000000000000000000000000000000000000000000000000000815260040162000327906200091c565b60405180910390fd5b62000344600083836200042b60201b60201c565b80600260008282546200035891906200096d565b92505081905550806000808473ffffffffffffffffffffffffffffffffffffffff1673ffffffffffffffffffffffffffffffffffffffff168152602001908152602001600020600082825401925050819055508173ffffffffffffffffffffffffffffffffffffffff16600073ffffffffffffffffffffffffffffffffffffffff167fddf252ad1be2c89b69c2b068fc378daa952ba7f163c4a11628f55a4df523b3ef836040516200040b9190620009b9565b60405180910390a362000427600083836200043060201b60201c565b5050565b505050565b505050565b600080fd5b6000819050919050565b6200044f816200043a565b81146200045b57600080fd5b50565b6000815190506200046f8162000444565b92915050565b600073ffffffffffffffffffffffffffffffffffffffff82169050919050565b6000620004a28262000475565b9050919050565b620004b48162000495565b8114620004c057600080fd5b50565b600081519050620004d481620004a9565b92915050565b600080600060608486031215620004f657620004f562000435565b5b600062000506868287016200045e565b93505060206200051986828701620004c3565b92505060406200052c86828701620004c3565b9150509250925092565b600081519050919050565b7f4e487b7100000000000000000000000000000000000000000000000000000000600052604160045260246000fd5b7f4e487b7100000000000000000000000000000000000000000000000000000000600052602260045260246000fd5b60006002820490506001821680620005b857607f821691505b602082108103620005ce57620005cd62000570565b5b50919050565b60008190508160005260206000209050919050565b60006020601f8301049050919050565b600082821b905092915050565b600060088302620006387fffffffffffffffffffffffffffffffffffffffffffffffffffffffffffffffff82620005f9565b620006448683620005f9565b95508019841693508086168417925050509392505050565b6000819050919050565b600062000687620006816200067b846200043a565b6200065c565b6200043a565b9050919050565b6000819050919050565b620006a38362000666565b620006bb620006b2826200068e565b84845462000606565b825550505050565b600090565b620006d2620006c3565b620006df81848462000698565b505050565b5b818110156200070757620006fb600082620006c8565b600181019050620006e5565b5050565b601f82111562000756576200072081620005d4565b6200072b84620005e9565b810160208510156200073b578190505b620007536200074a85620005e9565b830182620006e4565b50505b505050565b600082821c905092915050565b60006200077b600019846008026200075b565b1980831691505092915050565b600062000796838362000768565b9150826002028217905092915050565b620007b18262000536565b67ffffffffffffffff811115620007cd57620007cc62000541565b5b620007d982546200059f565b620007e68282856200070b565b600060209050601f8311600181146200081e576000841562000809578287015190505b62000815858262000788565b86555062000885565b601f1984166200082e86620005d4565b60005b82811015620008585784890151825560018201915060208501945060208101905062000831565b8683101562000878578489015162000874601f89168262000768565b8355505b6001600288020188555050505b505050505050565b620008988162000495565b82525050565b6000602082019050620008b560008301846200088d565b92915050565b600082825260208201905092915050565b7f45524332303a206d696e7420746f20746865207a65726f206164647265737300600082015250565b600062000904601f83620008bb565b91506200091182620008cc565b602082019050919050565b600060208201905081810360008301526200093781620008f5565b9050919050565b7f4e487b7100000000000000000000000000000000000000000000000000000000600052601160045260246000fd5b60006200097a826200043a565b915062000987836200043a565b9250828201905080821115620009a257620009a16200093e565b5b92915050565b620009b3816200043a565b82525050565b6000602082019050620009d06000830184620009a8565b92915050565b60805161365f620009f960003960008181610cb9015261118f015261365f6000f3fe608060405234801561001057600080fd5b50600436106101a95760003560e01c8063749c5e04116100f9578063a9059cbb11610097578063c408689311610071578063c4086893146104f6578063dd62ed3e14610526578063e474c9ec14610556578063f2fde38b14610586576101a9565b8063a9059cbb1461048c578063aac9b1d6146104bc578063b0f479a1146104d8576101a9565b80638da5cb5b116100d35780638da5cb5b14610404578063901841dd1461042257806395d89b411461043e578063a457c2d71461045c576101a9565b8063749c5e041461039c5780637a8042bd146103cc57806385572ffb146103e8576101a9565b8063212ad5cc116101665780633950935111610140578063395093511461031457806357970e931461034457806370a0823114610362578063715018a614610392576101a9565b8063212ad5cc146102aa57806323b872dd146102c6578063313ce567146102f6576101a9565b806301ffc9a7146101ae5780630483a7f6146101de57806306fdde031461020e578063095ea7b31461022c578063150a665c1461025c57806318160ddd1461028c575b600080fd5b6101c860048036038101906101c39190612047565b6105a2565b6040516101d5919061208f565b60405180910390f35b6101f860048036038101906101f39190612108565b610674565b604051610205919061214e565b60405180910390f35b61021661068c565b60405161022391906121f9565b60405180910390f35b61024660048036038101906102419190612247565b61071e565b604051610253919061208f565b60405180910390f35b610276600480360381019061027191906122c7565b610741565b604051610283919061214e565b60405180910390f35b610294610921565b6040516102a1919061214e565b60405180910390f35b6102c460048036038101906102bf9190612307565b61092b565b005b6102e060048036038101906102db9190612347565b6109eb565b6040516102ed919061208f565b60405180910390f35b6102fe610a1a565b60405161030b91906123b6565b60405180910390f35b61032e60048036038101906103299190612247565b610a23565b60405161033b919061208f565b60405180910390f35b61034c610a5a565b6040516103599190612430565b60405180910390f35b61037c60048036038101906103779190612108565b610a80565b604051610389919061214e565b60405180910390f35b61039a610ac8565b005b6103b660048036038101906103b1919061244b565b610adc565b6040516103c39190612487565b60405180910390f35b6103e660048036038101906103e191906124a2565b610b2d565b005b61040260048036038101906103fd91906124f3565b610cb7565b005b61040c610d5c565b6040516104199190612487565b60405180910390f35b61043c600480360381019061043791906122c7565b610d86565b005b610446610f46565b60405161045391906121f9565b60405180910390f35b61047660048036038101906104719190612247565b610fd8565b604051610483919061208f565b60405180910390f35b6104a660048036038101906104a19190612247565b61104f565b6040516104b3919061208f565b60405180910390f35b6104d660048036038101906104d1919061253c565b611072565b005b6104e061118b565b6040516104ed9190612487565b60405180910390f35b610510600480360381019061050b9190612108565b6111b3565b60405161051d919061214e565b60405180910390f35b610540600480360381019061053b919061257c565b6111fc565b60405161054d919061214e565b60405180910390f35b610570600480360381019061056b919061244b565b611283565b60405161057d9190612487565b60405180910390f35b6105a0600480360381019061059b9190612108565b6112b6565b005b60007f85572ffb000000000000000000000000000000000000000000000000000000007bffffffffffffffffffffffffffffffffffffffffffffffffffffffff1916827bffffffffffffffffffffffffffffffffffffffffffffffffffffffff1916148061066d57507f01ffc9a7000000000000000000000000000000000000000000000000000000007bffffffffffffffffffffffffffffffffffffffffffffffffffffffff1916827bffffffffffffffffffffffffffffffffffffffffffffffffffffffff1916145b9050919050565b60066020528060005260406000206000915090505481565b60606003805461069b906125eb565b80601f01602080910402602001604051908101604052809291908181526020018280546106c7906125eb565b80156107145780601f106106e957610100808354040283529160200191610714565b820191906000526020600020905b8154815290600101906020018083116106f757829003601f168201915b5050505050905090565b600080610729611339565b9050610736818585611341565b600191505092915050565b6000806040518060a00160405280600760008767ffffffffffffffff1667ffffffffffffffff16815260200190815260200160002060009054906101000a900473ffffffffffffffffffffffffffffffffffffffff166040516020016107a79190612487565b604051602081830303815290604052815260200133856040516020016107ce92919061261c565b6040516020818303038152906040528152602001600067ffffffffffffffff8111156107fd576107fc612645565b5b60405190808252806020026020018201604052801561083657816020015b610823611fab565b81526020019060019003908161081b5790505b508152602001600860009054906101000a900473ffffffffffffffffffffffffffffffffffffffff1673ffffffffffffffffffffffffffffffffffffffff168152602001604051806020016040528060008152508152509050600061089961118b565b90508073ffffffffffffffffffffffffffffffffffffffff166320487ded86846040518363ffffffff1660e01b81526004016108d692919061285f565b602060405180830381865afa1580156108f3573d6000803e3d6000fd5b505050506040513d601f19601f8201168201806040525081019061091791906128a4565b9250505092915050565b6000600254905090565b61093361150a565b80600760008467ffffffffffffffff1667ffffffffffffffff16815260200190815260200160002060006101000a81548173ffffffffffffffffffffffffffffffffffffffff021916908373ffffffffffffffffffffffffffffffffffffffff1602179055508073ffffffffffffffffffffffffffffffffffffffff168267ffffffffffffffff167fe960263884fe9f7a6a06ccd886f423d053f7f1bffeadfc3453885722296c48f160405160405180910390a35050565b6000806109f6611339565b9050610a03858285611588565b610a0e858585611614565b60019150509392505050565b60006012905090565b600080610a2e611339565b9050610a4f818585610a4085896111fc565b610a4a9190612900565b611341565b600191505092915050565b600860009054906101000a900473ffffffffffffffffffffffffffffffffffffffff1681565b60008060008373ffffffffffffffffffffffffffffffffffffffff1673ffffffffffffffffffffffffffffffffffffffff168152602001908152602001600020549050919050565b610ad061150a565b610ada600061188a565b565b6000600760008367ffffffffffffffff1667ffffffffffffffff16815260200190815260200160002060009054906101000a900473ffffffffffffffffffffffffffffffffffffffff169050919050565b610b3561150a565b80600860009054906101000a900473ffffffffffffffffffffffffffffffffffffffff1673ffffffffffffffffffffffffffffffffffffffff166370a08231306040518263ffffffff1660e01b8152600401610b919190612487565b602060405180830381865afa158015610bae573d6000803e3d6000fd5b505050506040513d601f19601f82011682018060405250810190610bd291906128a4565b1015610c13576040517f08c379a0000000000000000000000000000000000000000000000000000000008152600401610c0a90612980565b60405180910390fd5b600860009054906101000a900473ffffffffffffffffffffffffffffffffffffffff1673ffffffffffffffffffffffffffffffffffffffff1663a9059cbb33836040518363ffffffff1660e01b8152600401610c7092919061261c565b6020604051808303816000875af1158015610c8f573d6000803e3d6000fd5b505050506040513d601f19601f82011682018060405250810190610cb391906129cc565b5050565b7f000000000000000000000000000000000000000000000000000000000000000073ffffffffffffffffffffffffffffffffffffffff163373ffffffffffffffffffffffffffffffffffffffff1614610d4757336040517fd7f73334000000000000000000000000000000000000000000000000000000008152600401610d3e9190612487565b60405180910390fd5b610d5981610d5490612d37565b611950565b50565b6000600560009054906101000a900473ffffffffffffffffffffffffffffffffffffffff16905090565b80610d9033610a80565b1015610dd1576040517f08c379a0000000000000000000000000000000000000000000000000000000008152600401610dc890612d96565b60405180910390fd5b600073ffffffffffffffffffffffffffffffffffffffff16600760008467ffffffffffffffff1667ffffffffffffffff16815260200190815260200160002060009054906101000a900473ffffffffffffffffffffffffffffffffffffffff1673ffffffffffffffffffffffffffffffffffffffff1603610e87576040517f08c379a0000000000000000000000000000000000000000000000000000000008152600401610e7e90612e28565b60405180910390fd5b610e92333083611614565b80600660003373ffffffffffffffffffffffffffffffffffffffff1673ffffffffffffffffffffffffffffffffffffffff1681526020019081526020016000206000828254610ee19190612900565b92505081905550610ef2828261197e565b3373ffffffffffffffffffffffffffffffffffffffff167ff688a84312134179f6ba47151770d3f7f8ed763a50a3a91df21248d66e24e2e48383604051610f3a929190612e48565b60405180910390a25050565b606060048054610f55906125eb565b80601f0160208091040260200160405190810160405280929190818152602001828054610f81906125eb565b8015610fce5780601f10610fa357610100808354040283529160200191610fce565b820191906000526020600020905b815481529060010190602001808311610fb157829003601f168201915b5050505050905090565b600080610fe3611339565b90506000610ff182866111fc565b905083811015611036576040517f08c379a000000000000000000000000000000000000000000000000000000000815260040161102d90612ee3565b60405180910390fd5b6110438286868403611341565b60019250505092915050565b60008061105a611339565b9050611067818585611614565b600191505092915050565b8161107c33610a80565b10156110bd576040517f08c379a00000000000000000000000000000000000000000000000000000000081526004016110b490612d96565b60405180910390fd5b600073ffffffffffffffffffffffffffffffffffffffff16600760008367ffffffffffffffff1667ffffffffffffffff16815260200190815260200160002060009054906101000a900473ffffffffffffffffffffffffffffffffffffffff1673ffffffffffffffffffffffffffffffffffffffff1603611173576040517f08c379a000000000000000000000000000000000000000000000000000000000815260040161116a90612f75565b60405180910390fd5b61117d3383611c7e565b611187818361197e565b5050565b60007f0000000000000000000000000000000000000000000000000000000000000000905090565b6000600660008373ffffffffffffffffffffffffffffffffffffffff1673ffffffffffffffffffffffffffffffffffffffff168152602001908152602001600020549050919050565b6000600160008473ffffffffffffffffffffffffffffffffffffffff1673ffffffffffffffffffffffffffffffffffffffff16815260200190815260200160002060008373ffffffffffffffffffffffffffffffffffffffff1673ffffffffffffffffffffffffffffffffffffffff16815260200190815260200160002054905092915050565b60076020528060005260406000206000915054906101000a900473ffffffffffffffffffffffffffffffffffffffff1681565b6112be61150a565b600073ffffffffffffffffffffffffffffffffffffffff168173ffffffffffffffffffffffffffffffffffffffff160361132d576040517f08c379a000000000000000000000000000000000000000000000000000000000815260040161132490613007565b60405180910390fd5b6113368161188a565b50565b600033905090565b600073ffffffffffffffffffffffffffffffffffffffff168373ffffffffffffffffffffffffffffffffffffffff16036113b0576040517f08c379a00000000000000000000000000000000000000000000000000000000081526004016113a790613099565b60405180910390fd5b600073ffffffffffffffffffffffffffffffffffffffff168273ffffffffffffffffffffffffffffffffffffffff160361141f576040517f08c379a00000000000000000000000000000000000000000000000000000000081526004016114169061312b565b60405180910390fd5b80600160008573ffffffffffffffffffffffffffffffffffffffff1673ffffffffffffffffffffffffffffffffffffffff16815260200190815260200160002060008473ffffffffffffffffffffffffffffffffffffffff1673ffffffffffffffffffffffffffffffffffffffff168152602001908152602001600020819055508173ffffffffffffffffffffffffffffffffffffffff168373ffffffffffffffffffffffffffffffffffffffff167f8c5be1e5ebec7d5bd14f71427d1e84f3dd0314c0f7b2291e5b200ac8c7c3b925836040516114fd919061214e565b60405180910390a3505050565b611512611339565b73ffffffffffffffffffffffffffffffffffffffff16611530610d5c565b73ffffffffffffffffffffffffffffffffffffffff1614611586576040517f08c379a000000000000000000000000000000000000000000000000000000000815260040161157d90613197565b60405180910390fd5b565b600061159484846111fc565b90507fffffffffffffffffffffffffffffffffffffffffffffffffffffffffffffffff811461160e5781811015611600576040517f08c379a00000000000000000000000000000000000000000000000000000000081526004016115f790613203565b60405180910390fd5b61160d8484848403611341565b5b50505050565b600073ffffffffffffffffffffffffffffffffffffffff168373ffffffffffffffffffffffffffffffffffffffff1603611683576040517f08c379a000000000000000000000000000000000000000000000000000000000815260040161167a90613295565b60405180910390fd5b600073ffffffffffffffffffffffffffffffffffffffff168273ffffffffffffffffffffffffffffffffffffffff16036116f2576040517f08c379a00000000000000000000000000000000000000000000000000000000081526004016116e990613327565b60405180910390fd5b6116fd838383611e4b565b60008060008573ffffffffffffffffffffffffffffffffffffffff1673ffffffffffffffffffffffffffffffffffffffff16815260200190815260200160002054905081811015611783576040517f08c379a000000000000000000000000000000000000000000000000000000000815260040161177a906133b9565b60405180910390fd5b8181036000808673ffffffffffffffffffffffffffffffffffffffff1673ffffffffffffffffffffffffffffffffffffffff16815260200190815260200160002081905550816000808573ffffffffffffffffffffffffffffffffffffffff1673ffffffffffffffffffffffffffffffffffffffff168152602001908152602001600020600082825401925050819055508273ffffffffffffffffffffffffffffffffffffffff168473ffffffffffffffffffffffffffffffffffffffff167fddf252ad1be2c89b69c2b068fc378daa952ba7f163c4a11628f55a4df523b3ef84604051611871919061214e565b60405180910390a3611884848484611e50565b50505050565b6000600560009054906101000a900473ffffffffffffffffffffffffffffffffffffffff16905081600560006101000a81548173ffffffffffffffffffffffffffffffffffffffff021916908373ffffffffffffffffffffffffffffffffffffffff1602179055508173ffffffffffffffffffffffffffffffffffffffff168173ffffffffffffffffffffffffffffffffffffffff167f8be0079c531659141344cd1fd0a4f28419497f9722a3daafe3b4186f6b6457e060405160405180910390a35050565b600080826060015180602001905181019061196b9190613417565b915091506119798282611e55565b505050565b60006040518060a00160405280600760008667ffffffffffffffff1667ffffffffffffffff16815260200190815260200160002060009054906101000a900473ffffffffffffffffffffffffffffffffffffffff166040516020016119e39190612487565b60405160208183030381529060405281526020013384604051602001611a0a92919061261c565b6040516020818303038152906040528152602001600067ffffffffffffffff811115611a3957611a38612645565b5b604051908082528060200260200182016040528015611a7257816020015b611a5f611fab565b815260200190600190039081611a575790505b508152602001600860009054906101000a900473ffffffffffffffffffffffffffffffffffffffff1673ffffffffffffffffffffffffffffffffffffffff1681526020016040518060200160405280600081525081525090506000611ad561118b565b905060008173ffffffffffffffffffffffffffffffffffffffff166320487ded86856040518363ffffffff1660e01b8152600401611b1492919061285f565b602060405180830381865afa158015611b31573d6000803e3d6000fd5b505050506040513d601f19601f82011682018060405250810190611b5591906128a4565b9050600860009054906101000a900473ffffffffffffffffffffffffffffffffffffffff1673ffffffffffffffffffffffffffffffffffffffff1663095ea7b383836040518363ffffffff1660e01b8152600401611bb492919061261c565b6020604051808303816000875af1158015611bd3573d6000803e3d6000fd5b505050506040513d601f19601f82011682018060405250810190611bf791906129cc565b508173ffffffffffffffffffffffffffffffffffffffff166396f4e9f986856040518363ffffffff1660e01b8152600401611c3392919061285f565b6020604051808303816000875af1158015611c52573d6000803e3d6000fd5b505050506040513d601f19601f82011682018060405250810190611c76919061346c565b505050505050565b600073ffffffffffffffffffffffffffffffffffffffff168273ffffffffffffffffffffffffffffffffffffffff1603611ced576040517f08c379a0000000000000000000000000000000000000000000000000000000008152600401611ce49061350b565b60405180910390fd5b611cf982600083611e4b565b60008060008473ffffffffffffffffffffffffffffffffffffffff1673ffffffffffffffffffffffffffffffffffffffff16815260200190815260200160002054905081811015611d7f576040517f08c379a0000000000000000000000000000000000000000000000000000000008152600401611d769061359d565b60405180910390fd5b8181036000808573ffffffffffffffffffffffffffffffffffffffff1673ffffffffffffffffffffffffffffffffffffffff1681526020019081526020016000208190555081600260008282540392505081905550600073ffffffffffffffffffffffffffffffffffffffff168373ffffffffffffffffffffffffffffffffffffffff167fddf252ad1be2c89b69c2b068fc378daa952ba7f163c4a11628f55a4df523b3ef84604051611e32919061214e565b60405180910390a3611e4683600084611e50565b505050565b505050565b505050565b600073ffffffffffffffffffffffffffffffffffffffff168273ffffffffffffffffffffffffffffffffffffffff1603611ec4576040517f08c379a0000000000000000000000000000000000000000000000000000000008152600401611ebb90613609565b60405180910390fd5b611ed060008383611e4b565b8060026000828254611ee29190612900565b92505081905550806000808473ffffffffffffffffffffffffffffffffffffffff1673ffffffffffffffffffffffffffffffffffffffff168152602001908152602001600020600082825401925050819055508173ffffffffffffffffffffffffffffffffffffffff16600073ffffffffffffffffffffffffffffffffffffffff167fddf252ad1be2c89b69c2b068fc378daa952ba7f163c4a11628f55a4df523b3ef83604051611f93919061214e565b60405180910390a3611fa760008383611e50565b5050565b6040518060400160405280600073ffffffffffffffffffffffffffffffffffffffff168152602001600081525090565b6000604051905090565b600080fd5b600080fd5b60007fffffffff0000000000000000000000000000000000000000000000000000000082169050919050565b61202481611fef565b811461202f57600080fd5b50565b6000813590506120418161201b565b92915050565b60006020828403121561205d5761205c611fe5565b5b600061206b84828501612032565b91505092915050565b60008115159050919050565b61208981612074565b82525050565b60006020820190506120a46000830184612080565b92915050565b600073ffffffffffffffffffffffffffffffffffffffff82169050919050565b60006120d5826120aa565b9050919050565b6120e5816120ca565b81146120f057600080fd5b50565b600081359050612102816120dc565b92915050565b60006020828403121561211e5761211d611fe5565b5b600061212c848285016120f3565b91505092915050565b6000819050919050565b61214881612135565b82525050565b6000602082019050612163600083018461213f565b92915050565b600081519050919050565b600082825260208201905092915050565b60005b838110156121a3578082015181840152602081019050612188565b60008484015250505050565b6000601f19601f8301169050919050565b60006121cb82612169565b6121d58185612174565b93506121e5818560208601612185565b6121ee816121af565b840191505092915050565b6000602082019050818103600083015261221381846121c0565b905092915050565b61222481612135565b811461222f57600080fd5b50565b6000813590506122418161221b565b92915050565b6000806040838503121561225e5761225d611fe5565b5b600061226c858286016120f3565b925050602061227d85828601612232565b9150509250929050565b600067ffffffffffffffff82169050919050565b6122a481612287565b81146122af57600080fd5b50565b6000813590506122c18161229b565b92915050565b600080604083850312156122de576122dd611fe5565b5b60006122ec858286016122b2565b92505060206122fd85828601612232565b9150509250929050565b6000806040838503121561231e5761231d611fe5565b5b600061232c858286016122b2565b925050602061233d858286016120f3565b9150509250929050565b6000806000606084860312156123605761235f611fe5565b5b600061236e868287016120f3565b935050602061237f868287016120f3565b925050604061239086828701612232565b9150509250925092565b600060ff82169050919050565b6123b08161239a565b82525050565b60006020820190506123cb60008301846123a7565b92915050565b6000819050919050565b60006123f66123f16123ec846120aa565b6123d1565b6120aa565b9050919050565b6000612408826123db565b9050919050565b600061241a826123fd565b9050919050565b61242a8161240f565b82525050565b60006020820190506124456000830184612421565b92915050565b60006020828403121561246157612460611fe5565b5b600061246f848285016122b2565b91505092915050565b612481816120ca565b82525050565b600060208201905061249c6000830184612478565b92915050565b6000602082840312156124b8576124b7611fe5565b5b60006124c684828501612232565b91505092915050565b600080fd5b600060a082840312156124ea576124e96124cf565b5b81905092915050565b60006020828403121561250957612508611fe5565b5b600082013567ffffffffffffffff81111561252757612526611fea565b5b612533848285016124d4565b91505092915050565b6000806040838503121561255357612552611fe5565b5b600061256185828601612232565b9250506020612572858286016122b2565b9150509250929050565b6000806040838503121561259357612592611fe5565b5b60006125a1858286016120f3565b92505060206125b2858286016120f3565b9150509250929050565b7f4e487b7100000000000000000000000000000000000000000000000000000000600052602260045260246000fd5b6000600282049050600182168061260357607f821691505b602082108103612616576126156125bc565b5b50919050565b60006040820190506126316000830185612478565b61263e602083018461213f565b9392505050565b7f4e487b7100000000000000000000000000000000000000000000000000000000600052604160045260246000fd5b61267d81612287565b82525050565b600081519050919050565b600082825260208201905092915050565b60006126aa82612683565b6126b4818561268e565b93506126c4818560208601612185565b6126cd816121af565b840191505092915050565b600081519050919050565b600082825260208201905092915050565b6000819050602082019050919050565b61270d816120ca565b82525050565b61271c81612135565b82525050565b6040820160008201516127386000850182612704565b50602082015161274b6020850182612713565b50505050565b600061275d8383612722565b60408301905092915050565b6000602082019050919050565b6000612781826126d8565b61278b81856126e3565b9350612796836126f4565b8060005b838110156127c75781516127ae8882612751565b97506127b983612769565b92505060018101905061279a565b5085935050505092915050565b600060a08301600083015184820360008601526127f1828261269f565b9150506020830151848203602086015261280b828261269f565b915050604083015184820360408601526128258282612776565b915050606083015161283a6060860182612704565b5060808301518482036080860152612852828261269f565b9150508091505092915050565b60006040820190506128746000830185612674565b818103602083015261288681846127d4565b90509392505050565b60008151905061289e8161221b565b92915050565b6000602082840312156128ba576128b9611fe5565b5b60006128c88482850161288f565b91505092915050565b7f4e487b7100000000000000000000000000000000000000000000000000000000600052601160045260246000fd5b600061290b82612135565b915061291683612135565b925082820190508082111561292e5761292d6128d1565b5b92915050565b7f4e6f7420656e6f756768204c494e4b20746f6b656e7300000000000000000000600082015250565b600061296a601683612174565b915061297582612934565b602082019050919050565b600060208201905081810360008301526129998161295d565b9050919050565b6129a981612074565b81146129b457600080fd5b50565b6000815190506129c6816129a0565b92915050565b6000602082840312156129e2576129e1611fe5565b5b60006129f0848285016129b7565b91505092915050565b600080fd5b612a07826121af565b810181811067ffffffffffffffff82111715612a2657612a25612645565b5b80604052505050565b6000612a39611fdb565b9050612a4582826129fe565b919050565b600080fd5b6000819050919050565b612a6281612a4f565b8114612a6d57600080fd5b50565b600081359050612a7f81612a59565b92915050565b600080fd5b600080fd5b600067ffffffffffffffff821115612aaa57612aa9612645565b5b612ab3826121af565b9050602081019050919050565b82818337600083830152505050565b6000612ae2612add84612a8f565b612a2f565b905082815260208101848484011115612afe57612afd612a8a565b5b612b09848285612ac0565b509392505050565b600082601f830112612b2657612b25612a85565b5b8135612b36848260208601612acf565b91505092915050565b600067ffffffffffffffff821115612b5a57612b59612645565b5b602082029050602081019050919050565b600080fd5b600060408284031215612b8657612b856129f9565b5b612b906040612a2f565b90506000612ba0848285016120f3565b6000830152506020612bb484828501612232565b60208301525092915050565b6000612bd3612bce84612b3f565b612a2f565b90508083825260208201905060408402830185811115612bf657612bf5612b6b565b5b835b81811015612c1f5780612c0b8882612b70565b845260208401935050604081019050612bf8565b5050509392505050565b600082601f830112612c3e57612c3d612a85565b5b8135612c4e848260208601612bc0565b91505092915050565b600060a08284031215612c6d57612c6c6129f9565b5b612c7760a0612a2f565b90506000612c8784828501612a70565b6000830152506020612c9b848285016122b2565b602083015250604082013567ffffffffffffffff811115612cbf57612cbe612a4a565b5b612ccb84828501612b11565b604083015250606082013567ffffffffffffffff811115612cef57612cee612a4a565b5b612cfb84828501612b11565b606083015250608082013567ffffffffffffffff811115612d1f57612d1e612a4a565b5b612d2b84828501612c29565b60808301525092915050565b6000612d433683612c57565b9050919050565b7f4e6f7420656e6f75676820746f6b656e73000000000000000000000000000000600082015250565b6000612d80601183612174565b9150612d8b82612d4a565b602082019050919050565b60006020820190508181036000830152612daf81612d73565b9050919050565b7f506172616c6c656c20746f6b656e2061646472657373206e6f7420736574206660008201527f6f722064657374696e6174696f6e20636861696e000000000000000000000000602082015250565b6000612e12603483612174565b9150612e1d82612db6565b604082019050919050565b60006020820190508181036000830152612e4181612e05565b9050919050565b6000604082019050612e5d6000830185612674565b612e6a602083018461213f565b9392505050565b7f45524332303a2064656372656173656420616c6c6f77616e63652062656c6f7760008201527f207a65726f000000000000000000000000000000000000000000000000000000602082015250565b6000612ecd602583612174565b9150612ed882612e71565b604082019050919050565b60006020820190508181036000830152612efc81612ec0565b9050919050565b7f506172616c6c656c20746f6b656e2061646472657373206e6f7420736574206660008201527f6f7220736f7572636520636861696e0000000000000000000000000000000000602082015250565b6000612f5f602f83612174565b9150612f6a82612f03565b604082019050919050565b60006020820190508181036000830152612f8e81612f52565b9050919050565b7f4f776e61626c653a206e6577206f776e657220697320746865207a65726f206160008201527f6464726573730000000000000000000000000000000000000000000000000000602082015250565b6000612ff1602683612174565b9150612ffc82612f95565b604082019050919050565b6000602082019050818103600083015261302081612fe4565b9050919050565b7f45524332303a20617070726f76652066726f6d20746865207a65726f2061646460008201527f7265737300000000000000000000000000000000000000000000000000000000602082015250565b6000613083602483612174565b915061308e82613027565b604082019050919050565b600060208201905081810360008301526130b281613076565b9050919050565b7f45524332303a20617070726f766520746f20746865207a65726f20616464726560008201527f7373000000000000000000000000000000000000000000000000000000000000602082015250565b6000613115602283612174565b9150613120826130b9565b604082019050919050565b6000602082019050818103600083015261314481613108565b9050919050565b7f4f776e61626c653a2063616c6c6572206973206e6f7420746865206f776e6572600082015250565b6000613181602083612174565b915061318c8261314b565b602082019050919050565b600060208201905081810360008301526131b081613174565b9050919050565b7f45524332303a20696e73756666696369656e7420616c6c6f77616e6365000000600082015250565b60006131ed601d83612174565b91506131f8826131b7565b602082019050919050565b6000602082019050818103600083015261321c816131e0565b9050919050565b7f45524332303a207472616e736665722066726f6d20746865207a65726f20616460008201527f6472657373000000000000000000000000000000000000000000000000000000602082015250565b600061327f602583612174565b915061328a82613223565b604082019050919050565b600060208201905081810360008301526132ae81613272565b9050919050565b7f45524332303a207472616e7366657220746f20746865207a65726f206164647260008201527f6573730000000000000000000000000000000000000000000000000000000000602082015250565b6000613311602383612174565b915061331c826132b5565b604082019050919050565b6000602082019050818103600083015261334081613304565b9050919050565b7f45524332303a207472616e7366657220616d6f756e742065786365656473206260008201527f616c616e63650000000000000000000000000000000000000000000000000000602082015250565b60006133a3602683612174565b91506133ae82613347565b604082019050919050565b600060208201905081810360008301526133d281613396565b9050919050565b60006133e4826120aa565b9050919050565b6133f4816133d9565b81146133ff57600080fd5b50565b600081519050613411816133eb565b92915050565b6000806040838503121561342e5761342d611fe5565b5b600061343c85828601613402565b925050602061344d8582860161288f565b9150509250929050565b60008151905061346681612a59565b92915050565b60006020828403121561348257613481611fe5565b5b600061349084828501613457565b91505092915050565b7f45524332303a206275726e2066726f6d20746865207a65726f2061646472657360008201527f7300000000000000000000000000000000000000000000000000000000000000602082015250565b60006134f5602183612174565b915061350082613499565b604082019050919050565b60006020820190508181036000830152613524816134e8565b9050919050565b7f45524332303a206275726e20616d6f756e7420657863656564732062616c616e60008201527f6365000000000000000000000000000000000000000000000000000000000000602082015250565b6000613587602283612174565b91506135928261352b565b604082019050919050565b600060208201905081810360008301526135b68161357a565b9050919050565b7f45524332303a206d696e7420746f20746865207a65726f206164647265737300600082015250565b60006135f3601f83612174565b91506135fe826135bd565b602082019050919050565b60006020820190508181036000830152613622816135e6565b905091905056fea2646970667358221220051e7b6879150ffae85e8d60f7860a5aea38184d0b8f7b9665ac80db612caafe64736f6c63430008130033","linkReferences":{}},"methodIdentifiers":{"allowance(address,address)":"dd62ed3e","approve(address,uint256)":"095ea7b3","balanceOf(address)":"70a08231","burnTokens(uint256,uint64)":"aac9b1d6","ccipReceive((bytes32,uint64,bytes,bytes,(address,uint256)[]))":"85572ffb","decimals()":"313ce567","decreaseAllowance(address,uint256)":"a457c2d7","getLockedBalance(address)":"c4086893","getParallelTokenAddress(uint64)":"749c5e04","getRequiredFee(uint64,uint256)":"150a665c","getRouter()":"b0f479a1","increaseAllowance(address,uint256)":"39509351","linkToken()":"57970e93","lockTokens(uint64,uint256)":"901841dd","lockedBalances(address)":"0483a7f6","name()":"06fdde03","owner()":"8da5cb5b","parallelTokenAddresses(uint64)":"e474c9ec","renounceOwnership()":"715018a6","setParallelTokenAddress(uint64,address)":"212ad5cc","supportsInterface(bytes4)":"01ffc9a7","symbol()":"95d89b41","totalSupply()":"18160ddd","transfer(address,uint256)":"a9059cbb","transferFrom(address,address,uint256)":"23b872dd","transferOwnership(address)":"f2fde38b","withdrawLink(uint256)":"7a8042bd"},"id":24}