{"abi":[{"type":"constructor","inputs":[{"name":"name","type":"string","internalType":"string"},{"name":"symbol","type":"string","internalType":"string"},{"name":"decimals_","type":"uint8","internalType":"uint8"},{"name":"maxSupply_","type":"uint256","internalType":"uint256"}],"stateMutability":"nonpayable"},{"type":"function","name":"acceptOwnership","inputs":[],"outputs":[],"stateMutability":"nonpayable"},{"type":"function","name":"allowance","inputs":[{"name":"owner","type":"address","internalType":"address"},{"name":"spender","type":"address","internalType":"address"}],"outputs":[{"name":"","type":"uint256","internalType":"uint256"}],"stateMutability":"view"},{"type":"function","name":"approve","inputs":[{"name":"spender","type":"address","internalType":"address"},{"name":"amount","type":"uint256","internalType":"uint256"}],"outputs":[{"name":"","type":"bool","internalType":"bool"}],"stateMutability":"nonpayable"},{"type":"function","name":"balanceOf","inputs":[{"name":"account","type":"address","internalType":"address"}],"outputs":[{"name":"","type":"uint256","internalType":"uint256"}],"stateMutability":"view"},{"type":"function","name":"burn","inputs":[{"name":"amount","type":"uint256","internalType":"uint256"}],"outputs":[],"stateMutability":"nonpayable"},{"type":"function","name":"burn","inputs":[{"name":"account","type":"address","internalType":"address"},{"name":"amount","type":"uint256","internalType":"uint256"}],"outputs":[],"stateMutability":"nonpayable"},{"type":"function","name":"burnFrom","inputs":[{"name":"account","type":"address","internalType":"address"},{"name":"amount","type":"uint256","internalType":"uint256"}],"outputs":[],"stateMutability":"nonpayable"},{"type":"function","name":"decimals","inputs":[],"outputs":[{"name":"","type":"uint8","internalType":"uint8"}],"stateMutability":"view"},{"type":"function","name":"decreaseAllowance","inputs":[{"name":"spender","type":"address","internalType":"address"},{"name":"subtractedValue","type":"uint256","internalType":"uint256"}],"outputs":[{"name":"","type":"bool","internalType":"bool"}],"stateMutability":"nonpayable"},{"type":"function","name":"decreaseApproval","inputs":[{"name":"spender","type":"address","internalType":"address"},{"name":"subtractedValue","type":"uint256","internalType":"uint256"}],"outputs":[{"name":"success","type":"bool","internalType":"bool"}],"stateMutability":"nonpayable"},{"type":"function","name":"getBurners","inputs":[],"outputs":[{"name":"","type":"address[]","internalType":"address[]"}],"stateMutability":"view"},{"type":"function","name":"getMinters","inputs":[],"outputs":[{"name":"","type":"address[]","internalType":"address[]"}],"stateMutability":"view"},{"type":"function","name":"grantBurnRole","inputs":[{"name":"burner","type":"address","internalType":"address"}],"outputs":[],"stateMutability":"nonpayable"},{"type":"function","name":"grantMintAndBurnRoles","inputs":[{"name":"burnAndMinter","type":"address","internalType":"address"}],"outputs":[],"stateMutability":"nonpayable"},{"type":"function","name":"grantMintRole","inputs":[{"name":"minter","type":"address","internalType":"address"}],"outputs":[],"stateMutability":"nonpayable"},{"type":"function","name":"increaseAllowance","inputs":[{"name":"spender","type":"address","internalType":"address"},{"name":"addedValue","type":"uint256","internalType":"uint256"}],"outputs":[{"name":"","type":"bool","internalType":"bool"}],"stateMutability":"nonpayable"},{"type":"function","name":"increaseApproval","inputs":[{"name":"spender","type":"address","internalType":"address"},{"name":"addedValue","type":"uint256","internalType":"uint256"}],"outputs":[],"stateMutability":"nonpayable"},{"type":"function","name":"isBurner","inputs":[{"name":"burner","type":"address","internalType":"address"}],"outputs":[{"name":"","type":"bool","internalType":"bool"}],"stateMutability":"view"},{"type":"function","name":"isMinter","inputs":[{"name":"minter","type":"address","internalType":"address"}],"outputs":[{"name":"","type":"bool","internalType":"bool"}],"stateMutability":"view"},{"type":"function","name":"maxSupply","inputs":[],"outputs":[{"name":"","type":"uint256","internalType":"uint256"}],"stateMutability":"view"},{"type":"function","name":"mint","inputs":[{"name":"account","type":"address","internalType":"address"},{"name":"amount","type":"uint256","internalType":"uint256"}],"outputs":[],"stateMutability":"nonpayable"},{"type":"function","name":"name","inputs":[],"outputs":[{"name":"","type":"string","internalType":"string"}],"stateMutability":"view"},{"type":"function","name":"owner","inputs":[],"outputs":[{"name":"","type":"address","internalType":"address"}],"stateMutability":"view"},{"type":"function","name":"revokeBurnRole","inputs":[{"name":"burner","type":"address","internalType":"address"}],"outputs":[],"stateMutability":"nonpayable"},{"type":"function","name":"revokeMintRole","inputs":[{"name":"minter","type":"address","internalType":"address"}],"outputs":[],"stateMutability":"nonpayable"},{"type":"function","name":"supportsInterface","inputs":[{"name":"interfaceId","type":"bytes4","internalType":"bytes4"}],"outputs":[{"name":"","type":"bool","internalType":"bool"}],"stateMutability":"pure"},{"type":"function","name":"symbol","inputs":[],"outputs":[{"name":"","type":"string","internalType":"string"}],"stateMutability":"view"},{"type":"function","name":"totalSupply","inputs":[],"outputs":[{"name":"","type":"uint256","internalType":"uint256"}],"stateMutability":"view"},{"type":"function","name":"transfer","inputs":[{"name":"to","type":"address","internalType":"address"},{"name":"amount","type":"uint256","internalType":"uint256"}],"outputs":[{"name":"","type":"bool","internalType":"bool"}],"stateMutability":"nonpayable"},{"type":"function","name":"transferAndCall","inputs":[{"name":"to","type":"address","internalType":"address"},{"name":"amount","type":"uint256","internalType":"uint256"},{"name":"data","type":"bytes","internalType":"bytes"}],"outputs":[{"name":"success","type":"bool","internalType":"bool"}],"stateMutability":"nonpayable"},{"type":"function","name":"transferFrom","inputs":[{"name":"from","type":"address","internalType":"address"},{"name":"to","type":"address","internalType":"address"},{"name":"amount","type":"uint256","internalType":"uint256"}],"outputs":[{"name":"","type":"bool","internalType":"bool"}],"stateMutability":"nonpayable"},{"type":"function","name":"transferOwnership","inputs":[{"name":"to","type":"address","internalType":"address"}],"outputs":[],"stateMutability":"nonpayable"},{"type":"event","name":"Approval","inputs":[{"name":"owner","type":"address","indexed":true,"internalType":"address"},{"name":"spender","type":"address","indexed":true,"internalType":"address"},{"name":"value","type":"uint256","indexed":false,"internalType":"uint256"}],"anonymous":false},{"type":"event","name":"BurnAccessGranted","inputs":[{"name":"burner","type":"address","indexed":true,"internalType":"address"}],"anonymous":false},{"type":"event","name":"BurnAccessRevoked","inputs":[{"name":"burner","type":"address","indexed":true,"internalType":"address"}],"anonymous":false},{"type":"event","name":"MintAccessGranted","inputs":[{"name":"minter","type":"address","indexed":true,"internalType":"address"}],"anonymous":false},{"type":"event","name":"MintAccessRevoked","inputs":[{"name":"minter","type":"address","indexed":true,"internalType":"address"}],"anonymous":false},{"type":"event","name":"OwnershipTransferRequested","inputs":[{"name":"from","type":"address","indexed":true,"internalType":"address"},{"name":"to","type":"address","indexed":true,"internalType":"address"}],"anonymous":false},{"type":"event","name":"OwnershipTransferred","inputs":[{"name":"from","type":"address","indexed":true,"internalType":"address"},{"name":"to","type":"address","indexed":true,"internalType":"address"}],"anonymous":false},{"type":"event","name":"Transfer","inputs":[{"name":"from","type":"address","indexed":true,"internalType":"address"},{"name":"to","type":"address","indexed":true,"internalType":"address"},{"name":"value","type":"uint256","indexed":false,"internalType":"uint256"}],"anonymous":false},{"type":"event","name":"Transfer","inputs":[{"name":"from","type":"address","indexed":true,"internalType":"address"},{"name":"to","type":"address","indexed":true,"internalType":"address"},{"name":"value","type":"uint256","indexed":false,"internalType":"uint256"},{"name":"data","type":"bytes","indexed":false,"internalType":"bytes"}],"anonymous":false},{"type":"error","name":"MaxSupplyExceeded","inputs":[{"name":"supplyAfterMint","type":"uint256","internalType":"uint256"}]},{"type":"error","name":"SenderNotBurner","inputs":[{"name":"sender","type":"address","internalType":"address"}]},{"type":"error","name":"SenderNotMinter","inputs":[{"name":"sender","type":"address","internalType":"address"}]}],"bytecode":{"object":"0x60c06040523480156200001157600080fd5b5060405162003901380380620039018339818101604052810190620000379190620004c1565b33806000868681818160039081620000509190620007b2565b508060049081620000629190620007b2565b5050505050600073ffffffffffffffffffffffffffffffffffffffff168273ffffffffffffffffffffffffffffffffffffffff1603620000d9576040517f08c379a0000000000000000000000000000000000000000000000000000000008152600401620000d090620008fa565b60405180910390fd5b81600560006101000a81548173ffffffffffffffffffffffffffffffffffffffff021916908373ffffffffffffffffffffffffffffffffffffffff160217905550600073ffffffffffffffffffffffffffffffffffffffff168173ffffffffffffffffffffffffffffffffffffffff1614620001615762000160816200018460201b60201c565b5b5050508160ff1660808160ff16815250508060a08181525050505050506200098e565b3373ffffffffffffffffffffffffffffffffffffffff168173ffffffffffffffffffffffffffffffffffffffff1603620001f5576040517f08c379a0000000000000000000000000000000000000000000000000000000008152600401620001ec906200096c565b60405180910390fd5b80600660006101000a81548173ffffffffffffffffffffffffffffffffffffffff021916908373ffffffffffffffffffffffffffffffffffffffff1602179055508073ffffffffffffffffffffffffffffffffffffffff16600560009054906101000a900473ffffffffffffffffffffffffffffffffffffffff1673ffffffffffffffffffffffffffffffffffffffff167fed8889f560326eb138920d842192f0eb3dd22b4f139c87a2c57538e05bae127860405160405180910390a350565b6000604051905090565b600080fd5b600080fd5b600080fd5b600080fd5b6000601f19601f8301169050919050565b7f4e487b7100000000000000000000000000000000000000000000000000000000600052604160045260246000fd5b6200031e82620002d3565b810181811067ffffffffffffffff8211171562000340576200033f620002e4565b5b80604052505050565b600062000355620002b5565b905062000363828262000313565b919050565b600067ffffffffffffffff821115620003865762000385620002e4565b5b6200039182620002d3565b9050602081019050919050565b60005b83811015620003be578082015181840152602081019050620003a1565b60008484015250505050565b6000620003e1620003db8462000368565b62000349565b9050828152602081018484840111156200040057620003ff620002ce565b5b6200040d8482856200039e565b509392505050565b600082601f8301126200042d576200042c620002c9565b5b81516200043f848260208601620003ca565b91505092915050565b600060ff82169050919050565b620004608162000448565b81146200046c57600080fd5b50565b600081519050620004808162000455565b92915050565b6000819050919050565b6200049b8162000486565b8114620004a757600080fd5b50565b600081519050620004bb8162000490565b92915050565b60008060008060808587031215620004de57620004dd620002bf565b5b600085015167ffffffffffffffff811115620004ff57620004fe620002c4565b5b6200050d8782880162000415565b945050602085015167ffffffffffffffff811115620005315762000530620002c4565b5b6200053f8782880162000415565b935050604062000552878288016200046f565b92505060606200056587828801620004aa565b91505092959194509250565b600081519050919050565b7f4e487b7100000000000000000000000000000000000000000000000000000000600052602260045260246000fd5b60006002820490506001821680620005c457607f821691505b602082108103620005da57620005d96200057c565b5b50919050565b60008190508160005260206000209050919050565b60006020601f8301049050919050565b600082821b905092915050565b600060088302620006447fffffffffffffffffffffffffffffffffffffffffffffffffffffffffffffffff8262000605565b62000650868362000605565b95508019841693508086168417925050509392505050565b6000819050919050565b6000620006936200068d620006878462000486565b62000668565b62000486565b9050919050565b6000819050919050565b620006af8362000672565b620006c7620006be826200069a565b84845462000612565b825550505050565b600090565b620006de620006cf565b620006eb818484620006a4565b505050565b5b81811015620007135762000707600082620006d4565b600181019050620006f1565b5050565b601f82111562000762576200072c81620005e0565b6200073784620005f5565b8101602085101562000747578190505b6200075f6200075685620005f5565b830182620006f0565b50505b505050565b600082821c905092915050565b6000620007876000198460080262000767565b1980831691505092915050565b6000620007a2838362000774565b9150826002028217905092915050565b620007bd8262000571565b67ffffffffffffffff811115620007d957620007d8620002e4565b5b620007e58254620005ab565b620007f282828562000717565b600060209050601f8311600181146200082a576000841562000815578287015190505b62000821858262000794565b86555062000891565b601f1984166200083a86620005e0565b60005b8281101562000864578489015182556001820191506020850194506020810190506200083d565b8683101562000884578489015162000880601f89168262000774565b8355505b6001600288020188555050505b505050505050565b600082825260208201905092915050565b7f43616e6e6f7420736574206f776e657220746f207a65726f0000000000000000600082015250565b6000620008e260188362000899565b9150620008ef82620008aa565b602082019050919050565b600060208201905081810360008301526200091581620008d3565b9050919050565b7f43616e6e6f74207472616e7366657220746f2073656c66000000000000000000600082015250565b60006200095460178362000899565b915062000961826200091c565b602082019050919050565b60006020820190508181036000830152620009878162000945565b9050919050565b60805160a051612f3f620009c260003960008181610aec01528181610b16015261115f015260006108f70152612f3f6000f3fe608060405234801561001057600080fd5b50600436106101f05760003560e01c806379cc67901161010f578063c2e3273d116100a2578063d73dd62311610071578063d73dd623146105df578063dd62ed3e146105fb578063f2fde38b1461062b578063f81094f314610647576101f0565b8063c2e3273d1461056d578063c630948d14610589578063c64d0ebc146105a5578063d5abeb01146105c1576101f0565b80639dc29fac116100de5780639dc29fac146104c1578063a457c2d7146104dd578063a9059cbb1461050d578063aa271e1a1461053d576101f0565b806379cc67901461044b57806386fe8b43146104675780638da5cb5b1461048557806395d89b41146104a3576101f0565b806340c10f1911610187578063661884631161015657806366188463146103c35780636b32810b146103f357806370a082311461041157806379ba509714610441576101f0565b806340c10f191461033f57806342966c681461035b5780634334614a146103775780634f5632f8146103a7576101f0565b806323b872dd116101c357806323b872dd14610291578063313ce567146102c157806339509351146102df5780634000aea01461030f576101f0565b806301ffc9a7146101f557806306fdde0314610225578063095ea7b31461024357806318160ddd14610273575b600080fd5b61020f600480360381019061020a9190612060565b610663565b60405161021c91906120a8565b60405180910390f35b61022d610805565b60405161023a9190612153565b60405180910390f35b61025d60048036038101906102589190612209565b610897565b60405161026a91906120a8565b60405180910390f35b61027b6108ba565b6040516102889190612258565b60405180910390f35b6102ab60048036038101906102a69190612273565b6108c4565b6040516102b891906120a8565b60405180910390f35b6102c96108f3565b6040516102d691906122e2565b60405180910390f35b6102f960048036038101906102f49190612209565b61091b565b60405161030691906120a8565b60405180910390f35b61032960048036038101906103249190612432565b610952565b60405161033691906120a8565b60405180910390f35b61035960048036038101906103549190612209565b610a65565b005b610375600480360381019061037091906124a1565b610bad565b005b610391600480360381019061038c91906124ce565b610c03565b60405161039e91906120a8565b60405180910390f35b6103c160048036038101906103bc91906124ce565b610c20565b005b6103dd60048036038101906103d89190612209565b610c88565b6040516103ea91906120a8565b60405180910390f35b6103fb610c9c565b60405161040891906125b9565b60405180910390f35b61042b600480360381019061042691906124ce565b610cad565b6040516104389190612258565b60405180910390f35b610449610cf5565b005b61046560048036038101906104609190612209565b610e8c565b005b61046f610ee4565b60405161047c91906125b9565b60405180910390f35b61048d610ef5565b60405161049a91906125ea565b60405180910390f35b6104ab610f1f565b6040516104b89190612153565b60405180910390f35b6104db60048036038101906104d69190612209565b610fb1565b005b6104f760048036038101906104f29190612209565b610fbf565b60405161050491906120a8565b60405180910390f35b61052760048036038101906105229190612209565b611036565b60405161053491906120a8565b60405180910390f35b610557600480360381019061055291906124ce565b611059565b60405161056491906120a8565b60405180910390f35b610587600480360381019061058291906124ce565b611076565b005b6105a3600480360381019061059e91906124ce565b6110de565b005b6105bf60048036038101906105ba91906124ce565b6110f3565b005b6105c961115b565b6040516105d69190612258565b60405180910390f35b6105f960048036038101906105f49190612209565b611183565b005b61061560048036038101906106109190612605565b611192565b6040516106229190612258565b60405180910390f35b610645600480360381019061064091906124ce565b611219565b005b610661600480360381019061065c91906124ce565b61122d565b005b60007f36372b07000000000000000000000000000000000000000000000000000000007bffffffffffffffffffffffffffffffffffffffffffffffffffffffff1916827bffffffffffffffffffffffffffffffffffffffffffffffffffffffff1916148061072e57507f4000aea0000000000000000000000000000000000000000000000000000000007bffffffffffffffffffffffffffffffffffffffffffffffffffffffff1916827bffffffffffffffffffffffffffffffffffffffffffffffffffffffff1916145b8061079657507fe6599b4d000000000000000000000000000000000000000000000000000000007bffffffffffffffffffffffffffffffffffffffffffffffffffffffff1916827bffffffffffffffffffffffffffffffffffffffffffffffffffffffff1916145b806107fe57507f01ffc9a7000000000000000000000000000000000000000000000000000000007bffffffffffffffffffffffffffffffffffffffffffffffffffffffff1916827bffffffffffffffffffffffffffffffffffffffffffffffffffffffff1916145b9050919050565b60606003805461081490612674565b80601f016020809104026020016040519081016040528092919081815260200182805461084090612674565b801561088d5780601f106108625761010080835404028352916020019161088d565b820191906000526020600020905b81548152906001019060200180831161087057829003601f168201915b5050505050905090565b6000806108a2611295565b90506108af81858561129d565b600191505092915050565b6000600254905090565b6000806108cf611295565b90506108dc8582856112e7565b6108e7858585611373565b60019150509392505050565b60007f0000000000000000000000000000000000000000000000000000000000000000905090565b600080610926611295565b90506109478185856109388589611192565b61094291906126d4565b61129d565b600191505092915050565b600061095e8484611036565b508373ffffffffffffffffffffffffffffffffffffffff163373ffffffffffffffffffffffffffffffffffffffff167fe19260aff97b920c7df27010903aeb9c8d2be5d310a2c67824cf3f15396e4c1685856040516109be92919061275d565b60405180910390a36109e58473ffffffffffffffffffffffffffffffffffffffff166113bd565b15610a5a578373ffffffffffffffffffffffffffffffffffffffff1663a4c0ed363385856040518463ffffffff1660e01b8152600401610a279392919061278d565b600060405180830381600087803b158015610a4157600080fd5b505af1158015610a55573d6000803e3d6000fd5b505050505b600190509392505050565b610a6e33611059565b610aaf57336040517fe2c8c9d5000000000000000000000000000000000000000000000000000000008152600401610aa691906125ea565b60405180910390fd5b813073ffffffffffffffffffffffffffffffffffffffff168173ffffffffffffffffffffffffffffffffffffffff1603610ae857600080fd5b60007f000000000000000000000000000000000000000000000000000000000000000014158015610b4a57507f000000000000000000000000000000000000000000000000000000000000000082610b3e6108ba565b610b4891906126d4565b115b15610b9e5781610b586108ba565b610b6291906126d4565b6040517fcbbf1113000000000000000000000000000000000000000000000000000000008152600401610b959190612258565b60405180910390fd5b610ba883836113e0565b505050565b610bb633610c03565b610bf757336040517fc820b10b000000000000000000000000000000000000000000000000000000008152600401610bee91906125ea565b60405180910390fd5b610c0081611536565b50565b6000610c1982600961154a90919063ffffffff16565b9050919050565b610c2861157a565b610c3c81600961160c90919063ffffffff16565b15610c85578073ffffffffffffffffffffffffffffffffffffffff167f0a675452746933cefe3d74182e78db7afe57ba60eaa4234b5d85e9aa41b0610c60405160405180910390a25b50565b6000610c948383610fbf565b905092915050565b6060610ca8600761163c565b905090565b60008060008373ffffffffffffffffffffffffffffffffffffffff1673ffffffffffffffffffffffffffffffffffffffff168152602001908152602001600020549050919050565b600660009054906101000a900473ffffffffffffffffffffffffffffffffffffffff1673ffffffffffffffffffffffffffffffffffffffff163373ffffffffffffffffffffffffffffffffffffffff1614610d85576040517f08c379a0000000000000000000000000000000000000000000000000000000008152600401610d7c90612817565b60405180910390fd5b6000600560009054906101000a900473ffffffffffffffffffffffffffffffffffffffff16905033600560006101000a81548173ffffffffffffffffffffffffffffffffffffffff021916908373ffffffffffffffffffffffffffffffffffffffff1602179055506000600660006101000a81548173ffffffffffffffffffffffffffffffffffffffff021916908373ffffffffffffffffffffffffffffffffffffffff1602179055503373ffffffffffffffffffffffffffffffffffffffff168173ffffffffffffffffffffffffffffffffffffffff167f8be0079c531659141344cd1fd0a4f28419497f9722a3daafe3b4186f6b6457e060405160405180910390a350565b610e9533610c03565b610ed657336040517fc820b10b000000000000000000000000000000000000000000000000000000008152600401610ecd91906125ea565b60405180910390fd5b610ee0828261165d565b5050565b6060610ef0600961163c565b905090565b6000600560009054906101000a900473ffffffffffffffffffffffffffffffffffffffff16905090565b606060048054610f2e90612674565b80601f0160208091040260200160405190810160405280929190818152602001828054610f5a90612674565b8015610fa75780601f10610f7c57610100808354040283529160200191610fa7565b820191906000526020600020905b815481529060010190602001808311610f8a57829003601f168201915b5050505050905090565b610fbb8282610e8c565b5050565b600080610fca611295565b90506000610fd88286611192565b90508381101561101d576040517f08c379a0000000000000000000000000000000000000000000000000000000008152600401611014906128a9565b60405180910390fd5b61102a828686840361129d565b60019250505092915050565b600080611041611295565b905061104e818585611373565b600191505092915050565b600061106f82600761154a90919063ffffffff16565b9050919050565b61107e61157a565b61109281600761167d90919063ffffffff16565b156110db578073ffffffffffffffffffffffffffffffffffffffff167fe46fef8bbff1389d9010703cf8ebb363fb3daf5bf56edc27080b67bc8d9251ea60405160405180910390a25b50565b6110e781611076565b6110f0816110f3565b50565b6110fb61157a565b61110f81600961167d90919063ffffffff16565b15611158578073ffffffffffffffffffffffffffffffffffffffff167f92308bb7573b2a3d17ddb868b39d8ebec433f3194421abc22d084f89658c9bad60405160405180910390a25b50565b60007f0000000000000000000000000000000000000000000000000000000000000000905090565b61118d828261091b565b505050565b6000600160008473ffffffffffffffffffffffffffffffffffffffff1673ffffffffffffffffffffffffffffffffffffffff16815260200190815260200160002060008373ffffffffffffffffffffffffffffffffffffffff1673ffffffffffffffffffffffffffffffffffffffff16815260200190815260200160002054905092915050565b61122161157a565b61122a816116ad565b50565b61123561157a565b61124981600761160c90919063ffffffff16565b15611292578073ffffffffffffffffffffffffffffffffffffffff167fed998b960f6340d045f620c119730f7aa7995e7425c2401d3a5b64ff998a59e960405160405180910390a25b50565b600033905090565b813073ffffffffffffffffffffffffffffffffffffffff168173ffffffffffffffffffffffffffffffffffffffff16036112d657600080fd5b6112e18484846117db565b50505050565b60006112f38484611192565b90507fffffffffffffffffffffffffffffffffffffffffffffffffffffffffffffffff811461136d578181101561135f576040517f08c379a000000000000000000000000000000000000000000000000000000000815260040161135690612915565b60405180910390fd5b61136c848484840361129d565b5b50505050565b813073ffffffffffffffffffffffffffffffffffffffff168173ffffffffffffffffffffffffffffffffffffffff16036113ac57600080fd5b6113b78484846119a4565b50505050565b6000808273ffffffffffffffffffffffffffffffffffffffff163b119050919050565b600073ffffffffffffffffffffffffffffffffffffffff168273ffffffffffffffffffffffffffffffffffffffff160361144f576040517f08c379a000000000000000000000000000000000000000000000000000000000815260040161144690612981565b60405180910390fd5b61145b60008383611c1a565b806002600082825461146d91906126d4565b92505081905550806000808473ffffffffffffffffffffffffffffffffffffffff1673ffffffffffffffffffffffffffffffffffffffff168152602001908152602001600020600082825401925050819055508173ffffffffffffffffffffffffffffffffffffffff16600073ffffffffffffffffffffffffffffffffffffffff167fddf252ad1be2c89b69c2b068fc378daa952ba7f163c4a11628f55a4df523b3ef8360405161151e9190612258565b60405180910390a361153260008383611c1f565b5050565b611547611541611295565b82611c24565b50565b6000611572836000018373ffffffffffffffffffffffffffffffffffffffff1660001b611df1565b905092915050565b600560009054906101000a900473ffffffffffffffffffffffffffffffffffffffff1673ffffffffffffffffffffffffffffffffffffffff163373ffffffffffffffffffffffffffffffffffffffff161461160a576040517f08c379a0000000000000000000000000000000000000000000000000000000008152600401611601906129ed565b60405180910390fd5b565b6000611634836000018373ffffffffffffffffffffffffffffffffffffffff1660001b611e14565b905092915050565b6060600061164c83600001611f28565b905060608190508092505050919050565b61166f82611669611295565b836112e7565b6116798282611c24565b5050565b60006116a5836000018373ffffffffffffffffffffffffffffffffffffffff1660001b611f84565b905092915050565b3373ffffffffffffffffffffffffffffffffffffffff168173ffffffffffffffffffffffffffffffffffffffff160361171b576040517f08c379a000000000000000000000000000000000000000000000000000000000815260040161171290612a59565b60405180910390fd5b80600660006101000a81548173ffffffffffffffffffffffffffffffffffffffff021916908373ffffffffffffffffffffffffffffffffffffffff1602179055508073ffffffffffffffffffffffffffffffffffffffff16600560009054906101000a900473ffffffffffffffffffffffffffffffffffffffff1673ffffffffffffffffffffffffffffffffffffffff167fed8889f560326eb138920d842192f0eb3dd22b4f139c87a2c57538e05bae127860405160405180910390a350565b600073ffffffffffffffffffffffffffffffffffffffff168373ffffffffffffffffffffffffffffffffffffffff160361184a576040517f08c379a000000000000000000000000000000000000000000000000000000000815260040161184190612aeb565b60405180910390fd5b600073ffffffffffffffffffffffffffffffffffffffff168273ffffffffffffffffffffffffffffffffffffffff16036118b9576040517f08c379a00000000000000000000000000000000000000000000000000000000081526004016118b090612b7d565b60405180910390fd5b80600160008573ffffffffffffffffffffffffffffffffffffffff1673ffffffffffffffffffffffffffffffffffffffff16815260200190815260200160002060008473ffffffffffffffffffffffffffffffffffffffff1673ffffffffffffffffffffffffffffffffffffffff168152602001908152602001600020819055508173ffffffffffffffffffffffffffffffffffffffff168373ffffffffffffffffffffffffffffffffffffffff167f8c5be1e5ebec7d5bd14f71427d1e84f3dd0314c0f7b2291e5b200ac8c7c3b925836040516119979190612258565b60405180910390a3505050565b600073ffffffffffffffffffffffffffffffffffffffff168373ffffffffffffffffffffffffffffffffffffffff1603611a13576040517f08c379a0000000000000000000000000000000000000000000000000000000008152600401611a0a90612c0f565b60405180910390fd5b600073ffffffffffffffffffffffffffffffffffffffff168273ffffffffffffffffffffffffffffffffffffffff1603611a82576040517f08c379a0000000000000000000000000000000000000000000000000000000008152600401611a7990612ca1565b60405180910390fd5b611a8d838383611c1a565b60008060008573ffffffffffffffffffffffffffffffffffffffff1673ffffffffffffffffffffffffffffffffffffffff16815260200190815260200160002054905081811015611b13576040517f08c379a0000000000000000000000000000000000000000000000000000000008152600401611b0a90612d33565b60405180910390fd5b8181036000808673ffffffffffffffffffffffffffffffffffffffff1673ffffffffffffffffffffffffffffffffffffffff16815260200190815260200160002081905550816000808573ffffffffffffffffffffffffffffffffffffffff1673ffffffffffffffffffffffffffffffffffffffff168152602001908152602001600020600082825401925050819055508273ffffffffffffffffffffffffffffffffffffffff168473ffffffffffffffffffffffffffffffffffffffff167fddf252ad1be2c89b69c2b068fc378daa952ba7f163c4a11628f55a4df523b3ef84604051611c019190612258565b60405180910390a3611c14848484611c1f565b50505050565b505050565b505050565b600073ffffffffffffffffffffffffffffffffffffffff168273ffffffffffffffffffffffffffffffffffffffff1603611c93576040517f08c379a0000000000000000000000000000000000000000000000000000000008152600401611c8a90612dc5565b60405180910390fd5b611c9f82600083611c1a565b60008060008473ffffffffffffffffffffffffffffffffffffffff1673ffffffffffffffffffffffffffffffffffffffff16815260200190815260200160002054905081811015611d25576040517f08c379a0000000000000000000000000000000000000000000000000000000008152600401611d1c90612e57565b60405180910390fd5b8181036000808573ffffffffffffffffffffffffffffffffffffffff1673ffffffffffffffffffffffffffffffffffffffff1681526020019081526020016000208190555081600260008282540392505081905550600073ffffffffffffffffffffffffffffffffffffffff168373ffffffffffffffffffffffffffffffffffffffff167fddf252ad1be2c89b69c2b068fc378daa952ba7f163c4a11628f55a4df523b3ef84604051611dd89190612258565b60405180910390a3611dec83600084611c1f565b505050565b600080836001016000848152602001908152602001600020541415905092915050565b60008083600101600084815260200190815260200160002054905060008114611f1c576000600182611e469190612e77565b9050600060018660000180549050611e5e9190612e77565b9050818114611ecd576000866000018281548110611e7f57611e7e612eab565b5b9060005260206000200154905080876000018481548110611ea357611ea2612eab565b5b90600052602060002001819055508387600101600083815260200190815260200160002081905550505b85600001805480611ee157611ee0612eda565b5b600190038181906000526020600020016000905590558560010160008681526020019081526020016000206000905560019350505050611f22565b60009150505b92915050565b606081600001805480602002602001604051908101604052809291908181526020018280548015611f7857602002820191906000526020600020905b815481526020019060010190808311611f64575b50505050509050919050565b6000611f908383611df1565b611fe9578260000182908060018154018082558091505060019003906000526020600020016000909190919091505582600001805490508360010160008481526020019081526020016000208190555060019050611fee565b600090505b92915050565b6000604051905090565b600080fd5b600080fd5b60007fffffffff0000000000000000000000000000000000000000000000000000000082169050919050565b61203d81612008565b811461204857600080fd5b50565b60008135905061205a81612034565b92915050565b60006020828403121561207657612075611ffe565b5b60006120848482850161204b565b91505092915050565b60008115159050919050565b6120a28161208d565b82525050565b60006020820190506120bd6000830184612099565b92915050565b600081519050919050565b600082825260208201905092915050565b60005b838110156120fd5780820151818401526020810190506120e2565b60008484015250505050565b6000601f19601f8301169050919050565b6000612125826120c3565b61212f81856120ce565b935061213f8185602086016120df565b61214881612109565b840191505092915050565b6000602082019050818103600083015261216d818461211a565b905092915050565b600073ffffffffffffffffffffffffffffffffffffffff82169050919050565b60006121a082612175565b9050919050565b6121b081612195565b81146121bb57600080fd5b50565b6000813590506121cd816121a7565b92915050565b6000819050919050565b6121e6816121d3565b81146121f157600080fd5b50565b600081359050612203816121dd565b92915050565b600080604083850312156122205761221f611ffe565b5b600061222e858286016121be565b925050602061223f858286016121f4565b9150509250929050565b612252816121d3565b82525050565b600060208201905061226d6000830184612249565b92915050565b60008060006060848603121561228c5761228b611ffe565b5b600061229a868287016121be565b93505060206122ab868287016121be565b92505060406122bc868287016121f4565b9150509250925092565b600060ff82169050919050565b6122dc816122c6565b82525050565b60006020820190506122f760008301846122d3565b92915050565b600080fd5b600080fd5b7f4e487b7100000000000000000000000000000000000000000000000000000000600052604160045260246000fd5b61233f82612109565b810181811067ffffffffffffffff8211171561235e5761235d612307565b5b80604052505050565b6000612371611ff4565b905061237d8282612336565b919050565b600067ffffffffffffffff82111561239d5761239c612307565b5b6123a682612109565b9050602081019050919050565b82818337600083830152505050565b60006123d56123d084612382565b612367565b9050828152602081018484840111156123f1576123f0612302565b5b6123fc8482856123b3565b509392505050565b600082601f830112612419576124186122fd565b5b81356124298482602086016123c2565b91505092915050565b60008060006060848603121561244b5761244a611ffe565b5b6000612459868287016121be565b935050602061246a868287016121f4565b925050604084013567ffffffffffffffff81111561248b5761248a612003565b5b61249786828701612404565b9150509250925092565b6000602082840312156124b7576124b6611ffe565b5b60006124c5848285016121f4565b91505092915050565b6000602082840312156124e4576124e3611ffe565b5b60006124f2848285016121be565b91505092915050565b600081519050919050565b600082825260208201905092915050565b6000819050602082019050919050565b61253081612195565b82525050565b60006125428383612527565b60208301905092915050565b6000602082019050919050565b6000612566826124fb565b6125708185612506565b935061257b83612517565b8060005b838110156125ac5781516125938882612536565b975061259e8361254e565b92505060018101905061257f565b5085935050505092915050565b600060208201905081810360008301526125d3818461255b565b905092915050565b6125e481612195565b82525050565b60006020820190506125ff60008301846125db565b92915050565b6000806040838503121561261c5761261b611ffe565b5b600061262a858286016121be565b925050602061263b858286016121be565b9150509250929050565b7f4e487b7100000000000000000000000000000000000000000000000000000000600052602260045260246000fd5b6000600282049050600182168061268c57607f821691505b60208210810361269f5761269e612645565b5b50919050565b7f4e487b7100000000000000000000000000000000000000000000000000000000600052601160045260246000fd5b60006126df826121d3565b91506126ea836121d3565b9250828201905080821115612702576127016126a5565b5b92915050565b600081519050919050565b600082825260208201905092915050565b600061272f82612708565b6127398185612713565b93506127498185602086016120df565b61275281612109565b840191505092915050565b60006040820190506127726000830185612249565b81810360208301526127848184612724565b90509392505050565b60006060820190506127a260008301866125db565b6127af6020830185612249565b81810360408301526127c18184612724565b9050949350505050565b7f4d7573742062652070726f706f736564206f776e657200000000000000000000600082015250565b60006128016016836120ce565b915061280c826127cb565b602082019050919050565b60006020820190508181036000830152612830816127f4565b9050919050565b7f45524332303a2064656372656173656420616c6c6f77616e63652062656c6f7760008201527f207a65726f000000000000000000000000000000000000000000000000000000602082015250565b60006128936025836120ce565b915061289e82612837565b604082019050919050565b600060208201905081810360008301526128c281612886565b9050919050565b7f45524332303a20696e73756666696369656e7420616c6c6f77616e6365000000600082015250565b60006128ff601d836120ce565b915061290a826128c9565b602082019050919050565b6000602082019050818103600083015261292e816128f2565b9050919050565b7f45524332303a206d696e7420746f20746865207a65726f206164647265737300600082015250565b600061296b601f836120ce565b915061297682612935565b602082019050919050565b6000602082019050818103600083015261299a8161295e565b9050919050565b7f4f6e6c792063616c6c61626c65206279206f776e657200000000000000000000600082015250565b60006129d76016836120ce565b91506129e2826129a1565b602082019050919050565b60006020820190508181036000830152612a06816129ca565b9050919050565b7f43616e6e6f74207472616e7366657220746f2073656c66000000000000000000600082015250565b6000612a436017836120ce565b9150612a4e82612a0d565b602082019050919050565b60006020820190508181036000830152612a7281612a36565b9050919050565b7f45524332303a20617070726f76652066726f6d20746865207a65726f2061646460008201527f7265737300000000000000000000000000000000000000000000000000000000602082015250565b6000612ad56024836120ce565b9150612ae082612a79565b604082019050919050565b60006020820190508181036000830152612b0481612ac8565b9050919050565b7f45524332303a20617070726f766520746f20746865207a65726f20616464726560008201527f7373000000000000000000000000000000000000000000000000000000000000602082015250565b6000612b676022836120ce565b9150612b7282612b0b565b604082019050919050565b60006020820190508181036000830152612b9681612b5a565b9050919050565b7f45524332303a207472616e736665722066726f6d20746865207a65726f20616460008201527f6472657373000000000000000000000000000000000000000000000000000000602082015250565b6000612bf96025836120ce565b9150612c0482612b9d565b604082019050919050565b60006020820190508181036000830152612c2881612bec565b9050919050565b7f45524332303a207472616e7366657220746f20746865207a65726f206164647260008201527f6573730000000000000000000000000000000000000000000000000000000000602082015250565b6000612c8b6023836120ce565b9150612c9682612c2f565b604082019050919050565b60006020820190508181036000830152612cba81612c7e565b9050919050565b7f45524332303a207472616e7366657220616d6f756e742065786365656473206260008201527f616c616e63650000000000000000000000000000000000000000000000000000602082015250565b6000612d1d6026836120ce565b9150612d2882612cc1565b604082019050919050565b60006020820190508181036000830152612d4c81612d10565b9050919050565b7f45524332303a206275726e2066726f6d20746865207a65726f2061646472657360008201527f7300000000000000000000000000000000000000000000000000000000000000602082015250565b6000612daf6021836120ce565b9150612dba82612d53565b604082019050919050565b60006020820190508181036000830152612dde81612da2565b9050919050565b7f45524332303a206275726e20616d6f756e7420657863656564732062616c616e60008201527f6365000000000000000000000000000000000000000000000000000000000000602082015250565b6000612e416022836120ce565b9150612e4c82612de5565b604082019050919050565b60006020820190508181036000830152612e7081612e34565b9050919050565b6000612e82826121d3565b9150612e8d836121d3565b9250828203905081811115612ea557612ea46126a5565b5b92915050565b7f4e487b7100000000000000000000000000000000000000000000000000000000600052603260045260246000fd5b7f4e487b7100000000000000000000000000000000000000000000000000000000600052603160045260246000fdfea2646970667358221220d0104611aa905f0d862e1b6c902d83d053ec6d2bfba817c01118bc64d3a44f0b64736f6c63430008130033","linkReferences":{}},"methodIdentifiers":{"acceptOwnership()":"79ba5097","allowance(address,address)":"dd62ed3e","approve(address,uint256)":"095ea7b3","balanceOf(address)":"70a08231","burn(address,uint256)":"9dc29fac","burn(uint256)":"42966c68","burnFrom(address,uint256)":"79cc6790","decimals()":"313ce567","decreaseAllowance(address,uint256)":"a457c2d7","decreaseApproval(address,uint256)":"66188463","getBurners()":"86fe8b43","getMinters()":"6b32810b","grantBurnRole(address)":"c64d0ebc","grantMintAndBurnRoles(address)":"c630948d","grantMintRole(address)":"c2e3273d","increaseAllowance(address,uint256)":"39509351","increaseApproval(address,uint256)":"d73dd623","isBurner(address)":"4334614a","isMinter(address)":"aa271e1a","maxSupply()":"d5abeb01","mint(address,uint256)":"40c10f19","name()":"06fdde03","owner()":"8da5cb5b","revokeBurnRole(address)":"4f5632f8","revokeMintRole(address)":"f81094f3","supportsInterface(bytes4)":"01ffc9a7","symbol()":"95d89b41","totalSupply()":"18160ddd","transfer(address,uint256)":"a9059cbb","transferAndCall(address,uint256,bytes)":"4000aea0","transferFrom(address,address,uint256)":"23b872dd","transferOwnership(address)":"f2fde38b"},"id":53}