{"abi":[{"type":"constructor","inputs":[],"stateMutability":"nonpayable"},{"type":"function","name":"getNetworkDetails","inputs":[{"name":"chainId","type":"uint256","internalType":"uint256"}],"outputs":[{"name":"","type":"tuple","internalType":"struct Register.NetworkDetails","components":[{"name":"chainSelector","type":"uint64","internalType":"uint64"},{"name":"routerAddress","type":"address","internalType":"address"},{"name":"linkAddress","type":"address","internalType":"address"},{"name":"wrappedNativeAddress","type":"address","internalType":"address"},{"name":"ccipBnMAddress","type":"address","internalType":"address"},{"name":"ccipLnMAddress","type":"address","internalType":"address"}]}],"stateMutability":"view"},{"type":"function","name":"setNetworkDetails","inputs":[{"name":"chainId","type":"uint256","internalType":"uint256"},{"name":"networkDetails","type":"tuple","internalType":"struct Register.NetworkDetails","components":[{"name":"chainSelector","type":"uint64","internalType":"uint64"},{"name":"routerAddress","type":"address","internalType":"address"},{"name":"linkAddress","type":"address","internalType":"address"},{"name":"wrappedNativeAddress","type":"address","internalType":"address"},{"name":"ccipBnMAddress","type":"address","internalType":"address"},{"name":"ccipLnMAddress","type":"address","internalType":"address"}]}],"outputs":[],"stateMutability":"nonpayable"}],"bytecode":{"object":"0x608060405234801561001057600080fd5b506040518060c0016040528067de41ba4fc9d91ad967ffffffffffffffff168152602001730bf3de8c5d3e8a2b34d2beeb17abfcebaf363a5973ffffffffffffffffffffffffffffffffffffffff16815260200173779877a7b0d9e8603169ddbd7836e478b462478973ffffffffffffffffffffffffffffffffffffffff16815260200173097d90c9d3e0b50ca60e1ae45f6a81010f9fb53473ffffffffffffffffffffffffffffffffffffffff16815260200173fd57b4ddbf88a4e07ff4e34c487b99af2fe82a0573ffffffffffffffffffffffffffffffffffffffff16815260200173466d489b6d36e7e3b824ef491c225f5830e81cc173ffffffffffffffffffffffffffffffffffffffff1681525060008062aa36a7815260200190815260200160002060008201518160000160006101000a81548167ffffffffffffffff021916908367ffffffffffffffff16021790555060208201518160000160086101000a81548173ffffffffffffffffffffffffffffffffffffffff021916908373ffffffffffffffffffffffffffffffffffffffff16021790555060408201518160010160006101000a81548173ffffffffffffffffffffffffffffffffffffffff021916908373ffffffffffffffffffffffffffffffffffffffff16021790555060608201518160020160006101000a81548173ffffffffffffffffffffffffffffffffffffffff021916908373ffffffffffffffffffffffffffffffffffffffff16021790555060808201518160030160006101000a81548173ffffffffffffffffffffffffffffffffffffffff021916908373ffffffffffffffffffffffffffffffffffffffff16021790555060a08201518160040160006101000a81548173ffffffffffffffffffffffffffffffffffffffff021916908373ffffffffffffffffffffffffffffffffffffffff1602179055509050506040518060c001604052806748810ec3e431431f67ffffffffffffffff16815260200173114a20a10b43d4115e5aeef7345a1a71d2a60c5773ffffffffffffffffffffffffffffffffffffffff16815260200173e4ab69c077896252fafbd49efd26b5d171a3241073ffffffffffffffffffffffffffffffffffffffff16815260200173420000000000000000000000000000000000000673ffffffffffffffffffffffffffffffffffffffff168152602001738af4204e30565df93352fe8e1de78925f6664da773ffffffffffffffffffffffffffffffffffffffff16815260200173044a6b4b561af69d2319a2f4be5ec327a6975d0a73ffffffffffffffffffffffffffffffffffffffff1681525060008062aa37dc815260200190815260200160002060008201518160000160006101000a81548167ffffffffffffffff021916908367ffffffffffffffff16021790555060208201518160000160086101000a81548173ffffffffffffffffffffffffffffffffffffffff021916908373ffffffffffffffffffffffffffffffffffffffff16021790555060408201518160010160006101000a81548173ffffffffffffffffffffffffffffffffffffffff021916908373ffffffffffffffffffffffffffffffffffffffff16021790555060608201518160020160006101000a81548173ffffffffffffffffffffffffffffffffffffffff021916908373ffffffffffffffffffffffffffffffffffffffff16021790555060808201518160030160006101000a81548173ffffffffffffffffffffffffffffffffffffffff021916908373ffffffffffffffffffffffffffffffffffffffff16021790555060a08201518160040160006101000a81548173ffffffffffffffffffffffffffffffffffffffff021916908373ffffffffffffffffffffffffffffffffffffffff1602179055509050506040518060c0016040528067adecc60412ce25a567ffffffffffffffff168152602001731035cabc275068e0f4b745a29cedf38e13af41b173ffffffffffffffffffffffffffffffffffffffff16815260200173326c977e6efc84e512bb9c30f76e30c160ed06fb73ffffffffffffffffffffffffffffffffffffffff168152602001739c3c9283d3e44854697cd22d3faa240cfb03288973ffffffffffffffffffffffffffffffffffffffff16815260200173f1e3a5842eeef51f2967b3f05d45dd4f4205ff4073ffffffffffffffffffffffffffffffffffffffff16815260200173c1c76a8c5bfde1be034bbcd930c668726e7c198773ffffffffffffffffffffffffffffffffffffffff1681525060008062013881815260200190815260200160002060008201518160000160006101000a81548167ffffffffffffffff021916908367ffffffffffffffff16021790555060208201518160000160086101000a81548173ffffffffffffffffffffffffffffffffffffffff021916908373ffffffffffffffffffffffffffffffffffffffff16021790555060408201518160010160006101000a81548173ffffffffffffffffffffffffffffffffffffffff021916908373ffffffffffffffffffffffffffffffffffffffff16021790555060608201518160020160006101000a81548173ffffffffffffffffffffffffffffffffffffffff021916908373ffffffffffffffffffffffffffffffffffffffff16021790555060808201518160030160006101000a81548173ffffffffffffffffffffffffffffffffffffffff021916908373ffffffffffffffffffffffffffffffffffffffff16021790555060a08201518160040160006101000a81548173ffffffffffffffffffffffffffffffffffffffff021916908373ffffffffffffffffffffffffffffffffffffffff1602179055509050506040518060c0016040528067ccf0a31a221f3c9b67ffffffffffffffff16815260200173f694e193200268f9a4868e4aa017a0118c9a817773ffffffffffffffffffffffffffffffffffffffff168152602001730b9d5d9136855f6fec3c0993fee6e9ce8a29784673ffffffffffffffffffffffffffffffffffffffff16815260200173d00ae08403b9bbb9124bb305c09058e32c39a48c73ffffffffffffffffffffffffffffffffffffffff16815260200173d21341536c5cf5eb1bcb58f6723ce26e8d8e90e473ffffffffffffffffffffffffffffffffffffffff1681526020017370f5c5c40b873ea597776da2c21929a8282a3b3573ffffffffffffffffffffffffffffffffffffffff1681525060008061a869815260200190815260200160002060008201518160000160006101000a81548167ffffffffffffffff021916908367ffffffffffffffff16021790555060208201518160000160086101000a81548173ffffffffffffffffffffffffffffffffffffffff021916908373ffffffffffffffffffffffffffffffffffffffff16021790555060408201518160010160006101000a81548173ffffffffffffffffffffffffffffffffffffffff021916908373ffffffffffffffffffffffffffffffffffffffff16021790555060608201518160020160006101000a81548173ffffffffffffffffffffffffffffffffffffffff021916908373ffffffffffffffffffffffffffffffffffffffff16021790555060808201518160030160006101000a81548173ffffffffffffffffffffffffffffffffffffffff021916908373ffffffffffffffffffffffffffffffffffffffff16021790555060a08201518160040160006101000a81548173ffffffffffffffffffffffffffffffffffffffff021916908373ffffffffffffffffffffffffffffffffffffffff1602179055509050506040518060c0016040528067b8159170038f96fb67ffffffffffffffff16815260200173e1053ae1857476f36a3c62580ff9b016e8ee8f6f73ffffffffffffffffffffffffffffffffffffffff1681526020017384b9b910527ad5c03a9ca831909e21e236ea7b0673ffffffffffffffffffffffffffffffffffffffff16815260200173ae13d989dac2f0debff460ac112a837c89baa7cd73ffffffffffffffffffffffffffffffffffffffff16815260200173bfa2acd33ed6eec0ed3cc06bf1ac38d22b36b9e973ffffffffffffffffffffffffffffffffffffffff1681526020017379a4fc27f69323660f5bfc12dee21c3cc14f590173ffffffffffffffffffffffffffffffffffffffff168152506000806061815260200190815260200160002060008201518160000160006101000a81548167ffffffffffffffff021916908367ffffffffffffffff16021790555060208201518160000160086101000a81548173ffffffffffffffffffffffffffffffffffffffff021916908373ffffffffffffffffffffffffffffffffffffffff16021790555060408201518160010160006101000a81548173ffffffffffffffffffffffffffffffffffffffff021916908373ffffffffffffffffffffffffffffffffffffffff16021790555060608201518160020160006101000a81548173ffffffffffffffffffffffffffffffffffffffff021916908373ffffffffffffffffffffffffffffffffffffffff16021790555060808201518160030160006101000a81548173ffffffffffffffffffffffffffffffffffffffff021916908373ffffffffffffffffffffffffffffffffffffffff16021790555060a08201518160040160006101000a81548173ffffffffffffffffffffffffffffffffffffffff021916908373ffffffffffffffffffffffffffffffffffffffff1602179055509050506040518060c0016040528067304611b6affba76a67ffffffffffffffff168152602001732a9c5afb0d0e4bab2bcdae109ec4b0c4be15a16573ffffffffffffffffffffffffffffffffffffffff16815260200173b1d4538b4571d411f07960ef2838ce337fe1e80e73ffffffffffffffffffffffffffffffffffffffff16815260200173e591bf0a0cf924a0674d7792db046b23cebf5f3473ffffffffffffffffffffffffffffffffffffffff16815260200173a8c0c11bf64af62cdca6f93d3769b88bdd7cb93d73ffffffffffffffffffffffffffffffffffffffff16815260200173139e99f0ab4084e14e6bb7daca289a91a2d9292773ffffffffffffffffffffffffffffffffffffffff1681525060008062066eee815260200190815260200160002060008201518160000160006101000a81548167ffffffffffffffff021916908367ffffffffffffffff16021790555060208201518160000160086101000a81548173ffffffffffffffffffffffffffffffffffffffff021916908373ffffffffffffffffffffffffffffffffffffffff16021790555060408201518160010160006101000a81548173ffffffffffffffffffffffffffffffffffffffff021916908373ffffffffffffffffffffffffffffffffffffffff16021790555060608201518160020160006101000a81548173ffffffffffffffffffffffffffffffffffffffff021916908373ffffffffffffffffffffffffffffffffffffffff16021790555060808201518160030160006101000a81548173ffffffffffffffffffffffffffffffffffffffff021916908373ffffffffffffffffffffffffffffffffffffffff16021790555060a08201518160040160006101000a81548173ffffffffffffffffffffffffffffffffffffffff021916908373ffffffffffffffffffffffffffffffffffffffff1602179055509050506040518060c00160405280678f90b8876dee653867ffffffffffffffff16815260200173d3b06cebf099ce7da4accf578aaebfdbd6e88a9373ffffffffffffffffffffffffffffffffffffffff16815260200173e4ab69c077896252fafbd49efd26b5d171a3241073ffffffffffffffffffffffffffffffffffffffff16815260200173420000000000000000000000000000000000000673ffffffffffffffffffffffffffffffffffffffff1681526020017388a2d74f47a237a62e7a51cdda67270ce381555e73ffffffffffffffffffffffffffffffffffffffff16815260200173a98fa8a008371b9408195e52734b1768c0d1cb5c73ffffffffffffffffffffffffffffffffffffffff1681525060008062014a34815260200190815260200160002060008201518160000160006101000a81548167ffffffffffffffff021916908367ffffffffffffffff16021790555060208201518160000160086101000a81548173ffffffffffffffffffffffffffffffffffffffff021916908373ffffffffffffffffffffffffffffffffffffffff16021790555060408201518160010160006101000a81548173ffffffffffffffffffffffffffffffffffffffff021916908373ffffffffffffffffffffffffffffffffffffffff16021790555060608201518160020160006101000a81548173ffffffffffffffffffffffffffffffffffffffff021916908373ffffffffffffffffffffffffffffffffffffffff16021790555060808201518160030160006101000a81548173ffffffffffffffffffffffffffffffffffffffff021916908373ffffffffffffffffffffffffffffffffffffffff16021790555060a08201518160040160006101000a81548173ffffffffffffffffffffffffffffffffffffffff021916908373ffffffffffffffffffffffffffffffffffffffff1602179055509050506040518060c001604052806780d9a45f8eaddf5b67ffffffffffffffff16815260200173a8c0c11bf64af62cdca6f93d3769b88bdd7cb93d73ffffffffffffffffffffffffffffffffffffffff168152602001733580c7a817ccd41f7e02143bfa411d4eeae7809373ffffffffffffffffffffffffffffffffffffffff16815260200173be3686643c05f00ec46e73da594c78098f7a9ae773ffffffffffffffffffffffffffffffffffffffff16815260200173f4e4057fbbc86915f4b2d63eeffe641c03294ffc73ffffffffffffffffffffffffffffffffffffffff16815260200173cb342ae3d65e3fedf8f912b0432e2b8f88514d5d73ffffffffffffffffffffffffffffffffffffffff16815250600080610458815260200190815260200160002060008201518160000160006101000a81548167ffffffffffffffff021916908367ffffffffffffffff16021790555060208201518160000160086101000a81548173ffffffffffffffffffffffffffffffffffffffff021916908373ffffffffffffffffffffffffffffffffffffffff16021790555060408201518160010160006101000a81548173ffffffffffffffffffffffffffffffffffffffff021916908373ffffffffffffffffffffffffffffffffffffffff16021790555060608201518160020160006101000a81548173ffffffffffffffffffffffffffffffffffffffff021916908373ffffffffffffffffffffffffffffffffffffffff16021790555060808201518160030160006101000a81548173ffffffffffffffffffffffffffffffffffffffff021916908373ffffffffffffffffffffffffffffffffffffffff16021790555060a08201518160040160006101000a81548173ffffffffffffffffffffffffffffffffffffffff021916908373ffffffffffffffffffffffffffffffffffffffff1602179055509050506040518060c001604052806753227352338ed8a667ffffffffffffffff16815260200173a8c0c11bf64af62cdca6f93d3769b88bdd7cb93d73ffffffffffffffffffffffffffffffffffffffff16815260200173a75cca5b404ec6f4bb6ec4853d177fe7057085c873ffffffffffffffffffffffffffffffffffffffff16815260200173420000000000000000000000000000000000000173ffffffffffffffffffffffffffffffffffffffff168152602001736ac3e353d1ddda24d5a5416024d6e436b8817a4e73ffffffffffffffffffffffffffffffffffffffff16815260200173835fcbb6770e1246cfcf52f83cdcec3177d0bb6b73ffffffffffffffffffffffffffffffffffffffff16815250600080610936815260200190815260200160002060008201518160000160006101000a81548167ffffffffffffffff021916908367ffffffffffffffff16021790555060208201518160000160086101000a81548173ffffffffffffffffffffffffffffffffffffffff021916908373ffffffffffffffffffffffffffffffffffffffff16021790555060408201518160010160006101000a81548173ffffffffffffffffffffffffffffffffffffffff021916908373ffffffffffffffffffffffffffffffffffffffff16021790555060608201518160020160006101000a81548173ffffffffffffffffffffffffffffffffffffffff021916908373ffffffffffffffffffffffffffffffffffffffff16021790555060808201518160030160006101000a81548173ffffffffffffffffffffffffffffffffffffffff021916908373ffffffffffffffffffffffffffffffffffffffff16021790555060a08201518160040160006101000a81548173ffffffffffffffffffffffffffffffffffffffff021916908373ffffffffffffffffffffffffffffffffffffffff1602179055509050506040518060c00160405280677b1e3d29ba0098b367ffffffffffffffff1681526020017319b1bac554111517831acadc0fd119d23bb1439173ffffffffffffffffffffffffffffffffffffffff16815260200173dca67fd8324990792c0bfae95903b8a64097754f73ffffffffffffffffffffffffffffffffffffffff1681526020017318c8a7ec7897177e4529065a7e7b0878358b3bff73ffffffffffffffffffffffffffffffffffffffff16815260200173a189971a2c5aca0dfc5ee7a2c44a2ae27b3cf38973ffffffffffffffffffffffffffffffffffffffff1681526020017330decd269277b8094c00b0bacc3acaf3ff4da7fb73ffffffffffffffffffffffffffffffffffffffff168152506000806127d8815260200190815260200160002060008201518160000160006101000a81548167ffffffffffffffff021916908367ffffffffffffffff16021790555060208201518160000160086101000a81548173ffffffffffffffffffffffffffffffffffffffff021916908373ffffffffffffffffffffffffffffffffffffffff16021790555060408201518160010160006101000a81548173ffffffffffffffffffffffffffffffffffffffff021916908373ffffffffffffffffffffffffffffffffffffffff16021790555060608201518160020160006101000a81548173ffffffffffffffffffffffffffffffffffffffff021916908373ffffffffffffffffffffffffffffffffffffffff16021790555060808201518160030160006101000a81548173ffffffffffffffffffffffffffffffffffffffff021916908373ffffffffffffffffffffffffffffffffffffffff16021790555060a08201518160040160006101000a81548173ffffffffffffffffffffffffffffffffffffffff021916908373ffffffffffffffffffffffffffffffffffffffff16021790555090505061085880611b686000396000f3fe608060405234801561001057600080fd5b50600436106100365760003560e01c80630120615c1461003b5780634b761f0f1461006b575b600080fd5b61005560048036038101906100509190610532565b610087565b604051610062919061063e565b60405180910390f35b610085600480360381019061008091906107e2565b610293565b005b61008f61043f565b6000808381526020019081526020016000206040518060c00160405290816000820160009054906101000a900467ffffffffffffffff1667ffffffffffffffff1667ffffffffffffffff1681526020016000820160089054906101000a900473ffffffffffffffffffffffffffffffffffffffff1673ffffffffffffffffffffffffffffffffffffffff1673ffffffffffffffffffffffffffffffffffffffff1681526020016001820160009054906101000a900473ffffffffffffffffffffffffffffffffffffffff1673ffffffffffffffffffffffffffffffffffffffff1673ffffffffffffffffffffffffffffffffffffffff1681526020016002820160009054906101000a900473ffffffffffffffffffffffffffffffffffffffff1673ffffffffffffffffffffffffffffffffffffffff1673ffffffffffffffffffffffffffffffffffffffff1681526020016003820160009054906101000a900473ffffffffffffffffffffffffffffffffffffffff1673ffffffffffffffffffffffffffffffffffffffff1673ffffffffffffffffffffffffffffffffffffffff1681526020016004820160009054906101000a900473ffffffffffffffffffffffffffffffffffffffff1673ffffffffffffffffffffffffffffffffffffffff1673ffffffffffffffffffffffffffffffffffffffff16815250509050919050565b8060008084815260200190815260200160002060008201518160000160006101000a81548167ffffffffffffffff021916908367ffffffffffffffff16021790555060208201518160000160086101000a81548173ffffffffffffffffffffffffffffffffffffffff021916908373ffffffffffffffffffffffffffffffffffffffff16021790555060408201518160010160006101000a81548173ffffffffffffffffffffffffffffffffffffffff021916908373ffffffffffffffffffffffffffffffffffffffff16021790555060608201518160020160006101000a81548173ffffffffffffffffffffffffffffffffffffffff021916908373ffffffffffffffffffffffffffffffffffffffff16021790555060808201518160030160006101000a81548173ffffffffffffffffffffffffffffffffffffffff021916908373ffffffffffffffffffffffffffffffffffffffff16021790555060a08201518160040160006101000a81548173ffffffffffffffffffffffffffffffffffffffff021916908373ffffffffffffffffffffffffffffffffffffffff1602179055509050505050565b6040518060c00160405280600067ffffffffffffffff168152602001600073ffffffffffffffffffffffffffffffffffffffff168152602001600073ffffffffffffffffffffffffffffffffffffffff168152602001600073ffffffffffffffffffffffffffffffffffffffff168152602001600073ffffffffffffffffffffffffffffffffffffffff168152602001600073ffffffffffffffffffffffffffffffffffffffff1681525090565b6000604051905090565b600080fd5b6000819050919050565b61050f816104fc565b811461051a57600080fd5b50565b60008135905061052c81610506565b92915050565b600060208284031215610548576105476104f7565b5b60006105568482850161051d565b91505092915050565b600067ffffffffffffffff82169050919050565b61057c8161055f565b82525050565b600073ffffffffffffffffffffffffffffffffffffffff82169050919050565b60006105ad82610582565b9050919050565b6105bd816105a2565b82525050565b60c0820160008201516105d96000850182610573565b5060208201516105ec60208501826105b4565b5060408201516105ff60408501826105b4565b50606082015161061260608501826105b4565b50608082015161062560808501826105b4565b5060a082015161063860a08501826105b4565b50505050565b600060c08201905061065360008301846105c3565b92915050565b600080fd5b6000601f19601f8301169050919050565b7f4e487b7100000000000000000000000000000000000000000000000000000000600052604160045260246000fd5b6106a78261065e565b810181811067ffffffffffffffff821117156106c6576106c561066f565b5b80604052505050565b60006106d96104ed565b90506106e5828261069e565b919050565b6106f38161055f565b81146106fe57600080fd5b50565b600081359050610710816106ea565b92915050565b61071f816105a2565b811461072a57600080fd5b50565b60008135905061073c81610716565b92915050565b600060c0828403121561075857610757610659565b5b61076260c06106cf565b9050600061077284828501610701565b60008301525060206107868482850161072d565b602083015250604061079a8482850161072d565b60408301525060606107ae8482850161072d565b60608301525060806107c28482850161072d565b60808301525060a06107d68482850161072d565b60a08301525092915050565b60008060e083850312156107f9576107f86104f7565b5b60006108078582860161051d565b925050602061081885828601610742565b915050925092905056fea26469706673582212200abb79dcda6f76abca2ad5d5f1fb7164cab2dc9f545f43a1c25c7fb1b817f58264736f6c63430008130033","linkReferences":{}},"methodIdentifiers":{"getNetworkDetails(uint256)":"0120615c","setNetworkDetails(uint256,(uint64,address,address,address,address,address))":"4b761f0f"},"id":69}