{"abi":[{"type":"constructor","inputs":[{"name":"name","type":"string","internalType":"string"},{"name":"symbol","type":"string","internalType":"string"},{"name":"_paymentToken","type":"address","internalType":"address"},{"name":"_sharePrice","type":"uint256","internalType":"uint256"},{"name":"_maxSupply","type":"uint256","internalType":"uint256"},{"name":"_metadataURI","type":"string","internalType":"string"}],"stateMutability":"nonpayable"},{"type":"function","name":"allowance","inputs":[{"name":"owner","type":"address","internalType":"address"},{"name":"spender","type":"address","internalType":"address"}],"outputs":[{"name":"","type":"uint256","internalType":"uint256"}],"stateMutability":"view"},{"type":"function","name":"approve","inputs":[{"name":"spender","type":"address","internalType":"address"},{"name":"amount","type":"uint256","internalType":"uint256"}],"outputs":[{"name":"","type":"bool","internalType":"bool"}],"stateMutability":"nonpayable"},{"type":"function","name":"balanceOf","inputs":[{"name":"account","type":"address","internalType":"address"}],"outputs":[{"name":"","type":"uint256","internalType":"uint256"}],"stateMutability":"view"},{"type":"function","name":"buyShares","inputs":[{"name":"amount","type":"uint256","internalType":"uint256"}],"outputs":[],"stateMutability":"nonpayable"},{"type":"function","name":"decimals","inputs":[],"outputs":[{"name":"","type":"uint8","internalType":"uint8"}],"stateMutability":"view"},{"type":"function","name":"decreaseAllowance","inputs":[{"name":"spender","type":"address","internalType":"address"},{"name":"subtractedValue","type":"uint256","internalType":"uint256"}],"outputs":[{"name":"","type":"bool","internalType":"bool"}],"stateMutability":"nonpayable"},{"type":"function","name":"getMetadataURI","inputs":[],"outputs":[{"name":"","type":"string","internalType":"string"}],"stateMutability":"view"},{"type":"function","name":"increaseAllowance","inputs":[{"name":"spender","type":"address","internalType":"address"},{"name":"addedValue","type":"uint256","internalType":"uint256"}],"outputs":[{"name":"","type":"bool","internalType":"bool"}],"stateMutability":"nonpayable"},{"type":"function","name":"maxSupply","inputs":[],"outputs":[{"name":"","type":"uint256","internalType":"uint256"}],"stateMutability":"view"},{"type":"function","name":"metadataURI","inputs":[],"outputs":[{"name":"","type":"string","internalType":"string"}],"stateMutability":"view"},{"type":"function","name":"name","inputs":[],"outputs":[{"name":"","type":"string","internalType":"string"}],"stateMutability":"view"},{"type":"function","name":"owner","inputs":[],"outputs":[{"name":"","type":"address","internalType":"address"}],"stateMutability":"view"},{"type":"function","name":"paymentToken","inputs":[],"outputs":[{"name":"","type":"address","internalType":"address"}],"stateMutability":"view"},{"type":"function","name":"quote","inputs":[{"name":"amount","type":"uint256","internalType":"uint256"}],"outputs":[{"name":"","type":"uint256","internalType":"uint256"}],"stateMutability":"view"},{"type":"function","name":"renounceOwnership","inputs":[],"outputs":[],"stateMutability":"nonpayable"},{"type":"function","name":"setMetadataURI","inputs":[{"name":"newURI","type":"string","internalType":"string"}],"outputs":[],"stateMutability":"nonpayable"},{"type":"function","name":"sharePrice","inputs":[],"outputs":[{"name":"","type":"uint256","internalType":"uint256"}],"stateMutability":"view"},{"type":"function","name":"symbol","inputs":[],"outputs":[{"name":"","type":"string","internalType":"string"}],"stateMutability":"view"},{"type":"function","name":"totalSold","inputs":[],"outputs":[{"name":"","type":"uint256","internalType":"uint256"}],"stateMutability":"view"},{"type":"function","name":"totalSupply","inputs":[],"outputs":[{"name":"","type":"uint256","internalType":"uint256"}],"stateMutability":"view"},{"type":"function","name":"transfer","inputs":[{"name":"to","type":"address","internalType":"address"},{"name":"amount","type":"uint256","internalType":"uint256"}],"outputs":[{"name":"","type":"bool","internalType":"bool"}],"stateMutability":"nonpayable"},{"type":"function","name":"transferFrom","inputs":[{"name":"from","type":"address","internalType":"address"},{"name":"to","type":"address","internalType":"address"},{"name":"amount","type":"uint256","internalType":"uint256"}],"outputs":[{"name":"","type":"bool","internalType":"bool"}],"stateMutability":"nonpayable"},{"type":"function","name":"transferOwnership","inputs":[{"name":"newOwner","type":"address","internalType":"address"}],"outputs":[],"stateMutability":"nonpayable"},{"type":"function","name":"withdraw","inputs":[{"name":"to","type":"address","internalType":"address"},{"name":"amount","type":"uint256","internalType":"uint256"}],"outputs":[],"stateMutability":"nonpayable"},{"type":"event","name":"Approval","inputs":[{"name":"owner","type":"address","indexed":true,"internalType":"address"},{"name":"spender","type":"address","indexed":true,"internalType":"address"},{"name":"value","type":"uint256","indexed":false,"internalType":"uint256"}],"anonymous":false},{"type":"event","name":"OwnershipTransferred","inputs":[{"name":"previousOwner","type":"address","indexed":true,"internalType":"address"},{"name":"newOwner","type":"address","indexed":true,"internalType":"address"}],"anonymous":false},{"type":"event","name":"SharesPurchased","inputs":[{"name":"buyer","type":"address","indexed":true,"internalType":"address"},{"name":"amount","type":"uint256","indexed":false,"internalType":"uint256"},{"name":"totalCost","type":"uint256","indexed":false,"internalType":"uint256"}],"anonymous":false},{"type":"event","name":"Transfer","inputs":[{"name":"from","type":"address","indexed":true,"internalType":"address"},{"name":"to","type":"address","indexed":true,"internalType":"address"},{"name":"value","type":"uint256","indexed":false,"internalType":"uint256"}],"anonymous":false}],"bytecode":{"object":"0x60806040523480156200001157600080fd5b506040516200310a3803806200310a8339818101604052810190620000379190620004f3565b858581600390816200004a91906200082d565b5080600490816200005c91906200082d565b5050506200007f62000073620001f260201b60201c565b620001fa60201b60201c565b6001600681905550600073ffffffffffffffffffffffffffffffffffffffff168473ffffffffffffffffffffffffffffffffffffffff1603620000f9576040517f08c379a0000000000000000000000000000000000000000000000000000000008152600401620000f09062000975565b60405180910390fd5b600083116200013f576040517f08c379a00000000000000000000000000000000000000000000000000000000081526004016200013690620009e7565b60405180910390fd5b6000821162000185576040517f08c379a00000000000000000000000000000000000000000000000000000000081526004016200017c9062000a59565b60405180910390fd5b83600760006101000a81548173ffffffffffffffffffffffffffffffffffffffff021916908373ffffffffffffffffffffffffffffffffffffffff160217905550826008819055508160098190555080600b9081620001e591906200082d565b5050505050505062000a7b565b600033905090565b6000600560009054906101000a900473ffffffffffffffffffffffffffffffffffffffff16905081600560006101000a81548173ffffffffffffffffffffffffffffffffffffffff021916908373ffffffffffffffffffffffffffffffffffffffff1602179055508173ffffffffffffffffffffffffffffffffffffffff168173ffffffffffffffffffffffffffffffffffffffff167f8be0079c531659141344cd1fd0a4f28419497f9722a3daafe3b4186f6b6457e060405160405180910390a35050565b6000604051905090565b600080fd5b600080fd5b600080fd5b600080fd5b6000601f19601f8301169050919050565b7f4e487b7100000000000000000000000000000000000000000000000000000000600052604160045260246000fd5b6200032982620002de565b810181811067ffffffffffffffff821117156200034b576200034a620002ef565b5b80604052505050565b600062000360620002c0565b90506200036e82826200031e565b919050565b600067ffffffffffffffff821115620003915762000390620002ef565b5b6200039c82620002de565b9050602081019050919050565b60005b83811015620003c9578082015181840152602081019050620003ac565b60008484015250505050565b6000620003ec620003e68462000373565b62000354565b9050828152602081018484840111156200040b576200040a620002d9565b5b62000418848285620003a9565b509392505050565b600082601f830112620004385762000437620002d4565b5b81516200044a848260208601620003d5565b91505092915050565b600073ffffffffffffffffffffffffffffffffffffffff82169050919050565b6000620004808262000453565b9050919050565b620004928162000473565b81146200049e57600080fd5b50565b600081519050620004b28162000487565b92915050565b6000819050919050565b620004cd81620004b8565b8114620004d957600080fd5b50565b600081519050620004ed81620004c2565b92915050565b60008060008060008060c08789031215620005135762000512620002ca565b5b600087015167ffffffffffffffff811115620005345762000533620002cf565b5b6200054289828a0162000420565b965050602087015167ffffffffffffffff811115620005665762000565620002cf565b5b6200057489828a0162000420565b95505060406200058789828a01620004a1565b94505060606200059a89828a01620004dc565b9350506080620005ad89828a01620004dc565b92505060a087015167ffffffffffffffff811115620005d157620005d0620002cf565b5b620005df89828a0162000420565b9150509295509295509295565b600081519050919050565b7f4e487b7100000000000000000000000000000000000000000000000000000000600052602260045260246000fd5b600060028204905060018216806200063f57607f821691505b602082108103620006555762000654620005f7565b5b50919050565b60008190508160005260206000209050919050565b60006020601f8301049050919050565b600082821b905092915050565b600060088302620006bf7fffffffffffffffffffffffffffffffffffffffffffffffffffffffffffffffff8262000680565b620006cb868362000680565b95508019841693508086168417925050509392505050565b6000819050919050565b60006200070e620007086200070284620004b8565b620006e3565b620004b8565b9050919050565b6000819050919050565b6200072a83620006ed565b62000742620007398262000715565b8484546200068d565b825550505050565b600090565b620007596200074a565b620007668184846200071f565b505050565b5b818110156200078e57620007826000826200074f565b6001810190506200076c565b5050565b601f821115620007dd57620007a7816200065b565b620007b28462000670565b81016020851015620007c2578190505b620007da620007d18562000670565b8301826200076b565b50505b505050565b600082821c905092915050565b60006200080260001984600802620007e2565b1980831691505092915050565b60006200081d8383620007ef565b9150826002028217905092915050565b6200083882620005ec565b67ffffffffffffffff811115620008545762000853620002ef565b5b62000860825462000626565b6200086d82828562000792565b600060209050601f831160018114620008a5576000841562000890578287015190505b6200089c85826200080f565b8655506200090c565b601f198416620008b5866200065b565b60005b82811015620008df57848901518255600182019150602085019450602081019050620008b8565b86831015620008ff5784890151620008fb601f891682620007ef565b8355505b6001600288020188555050505b505050505050565b600082825260208201905092915050565b7f496e76616c6964207061796d656e7420746f6b656e0000000000000000000000600082015250565b60006200095d60158362000914565b91506200096a8262000925565b602082019050919050565b6000602082019050818103600083015262000990816200094e565b9050919050565b7f5368617265207072696365206d757374206265203e2030000000000000000000600082015250565b6000620009cf60178362000914565b9150620009dc8262000997565b602082019050919050565b6000602082019050818103600083015262000a0281620009c0565b9050919050565b7f4d617820737570706c79206d757374206265203e203000000000000000000000600082015250565b600062000a4160168362000914565b915062000a4e8262000a09565b602082019050919050565b6000602082019050818103600083015262000a748162000a32565b9050919050565b61267f8062000a8b6000396000f3fe608060405234801561001057600080fd5b50600436106101585760003560e01c806387269729116100c3578063d1a93d181161007c578063d1a93d18146103cf578063d5abeb01146103eb578063dd62ed3e14610409578063ed1bd76c14610439578063f2fde38b14610469578063f3fef3a31461048557610158565b806387269729146102f75780638da5cb5b146103155780639106d7ba1461033357806395d89b4114610351578063a457c2d71461036f578063a9059cbb1461039f57610158565b8063313ce56711610115578063313ce56714610235578063395093511461025357806370a0823114610283578063715018a6146102b3578063750521f5146102bd57806386a92af7146102d957610158565b806303ee438c1461015d57806306fdde031461017b578063095ea7b31461019957806318160ddd146101c957806323b872dd146101e75780633013ce2914610217575b600080fd5b6101656104a1565b60405161017291906115e4565b60405180910390f35b61018361052f565b60405161019091906115e4565b60405180910390f35b6101b360048036038101906101ae91906116ae565b6105c1565b6040516101c09190611709565b60405180910390f35b6101d16105e4565b6040516101de9190611733565b60405180910390f35b61020160048036038101906101fc919061174e565b6105ee565b60405161020e9190611709565b60405180910390f35b61021f61061d565b60405161022c91906117b0565b60405180910390f35b61023d610643565b60405161024a91906117e7565b60405180910390f35b61026d600480360381019061026891906116ae565b61064c565b60405161027a9190611709565b60405180910390f35b61029d60048036038101906102989190611802565b610683565b6040516102aa9190611733565b60405180910390f35b6102bb6106cb565b005b6102d760048036038101906102d29190611964565b6106df565b005b6102e16106fa565b6040516102ee91906115e4565b60405180910390f35b6102ff61078c565b60405161030c9190611733565b60405180910390f35b61031d610792565b60405161032a91906117b0565b60405180910390f35b61033b6107bc565b6040516103489190611733565b60405180910390f35b6103596107c2565b60405161036691906115e4565b60405180910390f35b610389600480360381019061038491906116ae565b610854565b6040516103969190611709565b60405180910390f35b6103b960048036038101906103b491906116ae565b6108cb565b6040516103c69190611709565b60405180910390f35b6103e960048036038101906103e491906119ad565b6108ee565b005b6103f3610b03565b6040516104009190611733565b60405180910390f35b610423600480360381019061041e91906119da565b610b09565b6040516104309190611733565b60405180910390f35b610453600480360381019061044e91906119ad565b610b90565b6040516104609190611733565b60405180910390f35b610483600480360381019061047e9190611802565b610ba7565b005b61049f600480360381019061049a91906116ae565b610c2a565b005b600b80546104ae90611a49565b80601f01602080910402602001604051908101604052809291908181526020018280546104da90611a49565b80156105275780601f106104fc57610100808354040283529160200191610527565b820191906000526020600020905b81548152906001019060200180831161050a57829003601f168201915b505050505081565b60606003805461053e90611a49565b80601f016020809104026020016040519081016040528092919081815260200182805461056a90611a49565b80156105b75780601f1061058c576101008083540402835291602001916105b7565b820191906000526020600020905b81548152906001019060200180831161059a57829003601f168201915b5050505050905090565b6000806105cc610d84565b90506105d9818585610d8c565b600191505092915050565b6000600254905090565b6000806105f9610d84565b9050610606858285610f55565b610611858585610fe1565b60019150509392505050565b600760009054906101000a900473ffffffffffffffffffffffffffffffffffffffff1681565b60006012905090565b600080610657610d84565b90506106788185856106698589610b09565b6106739190611aa9565b610d8c565b600191505092915050565b60008060008373ffffffffffffffffffffffffffffffffffffffff1673ffffffffffffffffffffffffffffffffffffffff168152602001908152602001600020549050919050565b6106d3611257565b6106dd60006112d5565b565b6106e7611257565b80600b90816106f69190611c89565b5050565b6060600b805461070990611a49565b80601f016020809104026020016040519081016040528092919081815260200182805461073590611a49565b80156107825780601f1061075757610100808354040283529160200191610782565b820191906000526020600020905b81548152906001019060200180831161076557829003601f168201915b5050505050905090565b60085481565b6000600560009054906101000a900473ffffffffffffffffffffffffffffffffffffffff16905090565b600a5481565b6060600480546107d190611a49565b80601f01602080910402602001604051908101604052809291908181526020018280546107fd90611a49565b801561084a5780601f1061081f5761010080835404028352916020019161084a565b820191906000526020600020905b81548152906001019060200180831161082d57829003601f168201915b5050505050905090565b60008061085f610d84565b9050600061086d8286610b09565b9050838110156108b2576040517f08c379a00000000000000000000000000000000000000000000000000000000081526004016108a990611dcd565b60405180910390fd5b6108bf8286868403610d8c565b60019250505092915050565b6000806108d6610d84565b90506108e3818585610fe1565b600191505092915050565b6108f661139b565b60008111610939576040517f08c379a000000000000000000000000000000000000000000000000000000000815260040161093090611e39565b60405180910390fd5b60095481600a5461094a9190611aa9565b111561098b576040517f08c379a000000000000000000000000000000000000000000000000000000000815260040161098290611ea5565b60405180910390fd5b60006008548261099b9190611ec5565b90506000600760009054906101000a900473ffffffffffffffffffffffffffffffffffffffff1673ffffffffffffffffffffffffffffffffffffffff166323b872dd3330856040518463ffffffff1660e01b81526004016109fe93929190611f07565b6020604051808303816000875af1158015610a1d573d6000803e3d6000fd5b505050506040513d601f19601f82011682018060405250810190610a419190611f6a565b905080610a83576040517f08c379a0000000000000000000000000000000000000000000000000000000008152600401610a7a90611fe3565b60405180910390fd5b610a8d33846113ea565b82600a6000828254610a9f9190611aa9565b925050819055503373ffffffffffffffffffffffffffffffffffffffff167f630b54f21d1c5ae41c4633ad96e8c15ce15665365eded6a38476ffa71c8ace6c8484604051610aee929190612003565b60405180910390a25050610b00611540565b50565b60095481565b6000600160008473ffffffffffffffffffffffffffffffffffffffff1673ffffffffffffffffffffffffffffffffffffffff16815260200190815260200160002060008373ffffffffffffffffffffffffffffffffffffffff1673ffffffffffffffffffffffffffffffffffffffff16815260200190815260200160002054905092915050565b600060085482610ba09190611ec5565b9050919050565b610baf611257565b600073ffffffffffffffffffffffffffffffffffffffff168173ffffffffffffffffffffffffffffffffffffffff1603610c1e576040517f08c379a0000000000000000000000000000000000000000000000000000000008152600401610c159061209e565b60405180910390fd5b610c27816112d5565b50565b610c32611257565b600073ffffffffffffffffffffffffffffffffffffffff168273ffffffffffffffffffffffffffffffffffffffff1603610ca1576040517f08c379a0000000000000000000000000000000000000000000000000000000008152600401610c989061210a565b60405180910390fd5b600760009054906101000a900473ffffffffffffffffffffffffffffffffffffffff1673ffffffffffffffffffffffffffffffffffffffff1663a9059cbb83836040518363ffffffff1660e01b8152600401610cfe92919061212a565b6020604051808303816000875af1158015610d1d573d6000803e3d6000fd5b505050506040513d601f19601f82011682018060405250810190610d419190611f6a565b610d80576040517f08c379a0000000000000000000000000000000000000000000000000000000008152600401610d779061219f565b60405180910390fd5b5050565b600033905090565b600073ffffffffffffffffffffffffffffffffffffffff168373ffffffffffffffffffffffffffffffffffffffff1603610dfb576040517f08c379a0000000000000000000000000000000000000000000000000000000008152600401610df290612231565b60405180910390fd5b600073ffffffffffffffffffffffffffffffffffffffff168273ffffffffffffffffffffffffffffffffffffffff1603610e6a576040517f08c379a0000000000000000000000000000000000000000000000000000000008152600401610e61906122c3565b60405180910390fd5b80600160008573ffffffffffffffffffffffffffffffffffffffff1673ffffffffffffffffffffffffffffffffffffffff16815260200190815260200160002060008473ffffffffffffffffffffffffffffffffffffffff1673ffffffffffffffffffffffffffffffffffffffff168152602001908152602001600020819055508173ffffffffffffffffffffffffffffffffffffffff168373ffffffffffffffffffffffffffffffffffffffff167f8c5be1e5ebec7d5bd14f71427d1e84f3dd0314c0f7b2291e5b200ac8c7c3b92583604051610f489190611733565b60405180910390a3505050565b6000610f618484610b09565b90507fffffffffffffffffffffffffffffffffffffffffffffffffffffffffffffffff8114610fdb5781811015610fcd576040517f08c379a0000000000000000000000000000000000000000000000000000000008152600401610fc49061232f565b60405180910390fd5b610fda8484848403610d8c565b5b50505050565b600073ffffffffffffffffffffffffffffffffffffffff168373ffffffffffffffffffffffffffffffffffffffff1603611050576040517f08c379a0000000000000000000000000000000000000000000000000000000008152600401611047906123c1565b60405180910390fd5b600073ffffffffffffffffffffffffffffffffffffffff168273ffffffffffffffffffffffffffffffffffffffff16036110bf576040517f08c379a00000000000000000000000000000000000000000000000000000000081526004016110b690612453565b60405180910390fd5b6110ca83838361154a565b60008060008573ffffffffffffffffffffffffffffffffffffffff1673ffffffffffffffffffffffffffffffffffffffff16815260200190815260200160002054905081811015611150576040517f08c379a0000000000000000000000000000000000000000000000000000000008152600401611147906124e5565b60405180910390fd5b8181036000808673ffffffffffffffffffffffffffffffffffffffff1673ffffffffffffffffffffffffffffffffffffffff16815260200190815260200160002081905550816000808573ffffffffffffffffffffffffffffffffffffffff1673ffffffffffffffffffffffffffffffffffffffff168152602001908152602001600020600082825401925050819055508273ffffffffffffffffffffffffffffffffffffffff168473ffffffffffffffffffffffffffffffffffffffff167fddf252ad1be2c89b69c2b068fc378daa952ba7f163c4a11628f55a4df523b3ef8460405161123e9190611733565b60405180910390a361125184848461154f565b50505050565b61125f610d84565b73ffffffffffffffffffffffffffffffffffffffff1661127d610792565b73ffffffffffffffffffffffffffffffffffffffff16146112d3576040517f08c379a00000000000000000000000000000000000000000000000000000000081526004016112ca90612551565b60405180910390fd5b565b6000600560009054906101000a900473ffffffffffffffffffffffffffffffffffffffff16905081600560006101000a81548173ffffffffffffffffffffffffffffffffffffffff021916908373ffffffffffffffffffffffffffffffffffffffff1602179055508173ffffffffffffffffffffffffffffffffffffffff168173ffffffffffffffffffffffffffffffffffffffff167f8be0079c531659141344cd1fd0a4f28419497f9722a3daafe3b4186f6b6457e060405160405180910390a35050565b6002600654036113e0576040517f08c379a00000000000000000000000000000000000000000000000000000000081526004016113d7906125bd565b60405180910390fd5b6002600681905550565b600073ffffffffffffffffffffffffffffffffffffffff168273ffffffffffffffffffffffffffffffffffffffff1603611459576040517f08c379a000000000000000000000000000000000000000000000000000000000815260040161145090612629565b60405180910390fd5b6114656000838361154a565b80600260008282546114779190611aa9565b92505081905550806000808473ffffffffffffffffffffffffffffffffffffffff1673ffffffffffffffffffffffffffffffffffffffff168152602001908152602001600020600082825401925050819055508173ffffffffffffffffffffffffffffffffffffffff16600073ffffffffffffffffffffffffffffffffffffffff167fddf252ad1be2c89b69c2b068fc378daa952ba7f163c4a11628f55a4df523b3ef836040516115289190611733565b60405180910390a361153c6000838361154f565b5050565b6001600681905550565b505050565b505050565b600081519050919050565b600082825260208201905092915050565b60005b8381101561158e578082015181840152602081019050611573565b60008484015250505050565b6000601f19601f8301169050919050565b60006115b682611554565b6115c0818561155f565b93506115d0818560208601611570565b6115d98161159a565b840191505092915050565b600060208201905081810360008301526115fe81846115ab565b905092915050565b6000604051905090565b600080fd5b600080fd5b600073ffffffffffffffffffffffffffffffffffffffff82169050919050565b60006116458261161a565b9050919050565b6116558161163a565b811461166057600080fd5b50565b6000813590506116728161164c565b92915050565b6000819050919050565b61168b81611678565b811461169657600080fd5b50565b6000813590506116a881611682565b92915050565b600080604083850312156116c5576116c4611610565b5b60006116d385828601611663565b92505060206116e485828601611699565b9150509250929050565b60008115159050919050565b611703816116ee565b82525050565b600060208201905061171e60008301846116fa565b92915050565b61172d81611678565b82525050565b60006020820190506117486000830184611724565b92915050565b60008060006060848603121561176757611766611610565b5b600061177586828701611663565b935050602061178686828701611663565b925050604061179786828701611699565b9150509250925092565b6117aa8161163a565b82525050565b60006020820190506117c560008301846117a1565b92915050565b600060ff82169050919050565b6117e1816117cb565b82525050565b60006020820190506117fc60008301846117d8565b92915050565b60006020828403121561181857611817611610565b5b600061182684828501611663565b91505092915050565b600080fd5b600080fd5b7f4e487b7100000000000000000000000000000000000000000000000000000000600052604160045260246000fd5b6118718261159a565b810181811067ffffffffffffffff821117156118905761188f611839565b5b80604052505050565b60006118a3611606565b90506118af8282611868565b919050565b600067ffffffffffffffff8211156118cf576118ce611839565b5b6118d88261159a565b9050602081019050919050565b82818337600083830152505050565b6000611907611902846118b4565b611899565b90508281526020810184848401111561192357611922611834565b5b61192e8482856118e5565b509392505050565b600082601f83011261194b5761194a61182f565b5b813561195b8482602086016118f4565b91505092915050565b60006020828403121561197a57611979611610565b5b600082013567ffffffffffffffff81111561199857611997611615565b5b6119a484828501611936565b91505092915050565b6000602082840312156119c3576119c2611610565b5b60006119d184828501611699565b91505092915050565b600080604083850312156119f1576119f0611610565b5b60006119ff85828601611663565b9250506020611a1085828601611663565b9150509250929050565b7f4e487b7100000000000000000000000000000000000000000000000000000000600052602260045260246000fd5b60006002820490506001821680611a6157607f821691505b602082108103611a7457611a73611a1a565b5b50919050565b7f4e487b7100000000000000000000000000000000000000000000000000000000600052601160045260246000fd5b6000611ab482611678565b9150611abf83611678565b9250828201905080821115611ad757611ad6611a7a565b5b92915050565b60008190508160005260206000209050919050565b60006020601f8301049050919050565b600082821b905092915050565b600060088302611b3f7fffffffffffffffffffffffffffffffffffffffffffffffffffffffffffffffff82611b02565b611b498683611b02565b95508019841693508086168417925050509392505050565b6000819050919050565b6000611b86611b81611b7c84611678565b611b61565b611678565b9050919050565b6000819050919050565b611ba083611b6b565b611bb4611bac82611b8d565b848454611b0f565b825550505050565b600090565b611bc9611bbc565b611bd4818484611b97565b505050565b5b81811015611bf857611bed600082611bc1565b600181019050611bda565b5050565b601f821115611c3d57611c0e81611add565b611c1784611af2565b81016020851015611c26578190505b611c3a611c3285611af2565b830182611bd9565b50505b505050565b600082821c905092915050565b6000611c6060001984600802611c42565b1980831691505092915050565b6000611c798383611c4f565b9150826002028217905092915050565b611c9282611554565b67ffffffffffffffff811115611cab57611caa611839565b5b611cb58254611a49565b611cc0828285611bfc565b600060209050601f831160018114611cf35760008415611ce1578287015190505b611ceb8582611c6d565b865550611d53565b601f198416611d0186611add565b60005b82811015611d2957848901518255600182019150602085019450602081019050611d04565b86831015611d465784890151611d42601f891682611c4f565b8355505b6001600288020188555050505b505050505050565b7f45524332303a2064656372656173656420616c6c6f77616e63652062656c6f7760008201527f207a65726f000000000000000000000000000000000000000000000000000000602082015250565b6000611db760258361155f565b9150611dc282611d5b565b604082019050919050565b60006020820190508181036000830152611de681611daa565b9050919050565b7f416d6f756e74206d757374206265203e20300000000000000000000000000000600082015250565b6000611e2360128361155f565b9150611e2e82611ded565b602082019050919050565b60006020820190508181036000830152611e5281611e16565b9050919050565b7f45786365656473206d617820737570706c790000000000000000000000000000600082015250565b6000611e8f60128361155f565b9150611e9a82611e59565b602082019050919050565b60006020820190508181036000830152611ebe81611e82565b9050919050565b6000611ed082611678565b9150611edb83611678565b9250828202611ee981611678565b91508282048414831517611f0057611eff611a7a565b5b5092915050565b6000606082019050611f1c60008301866117a1565b611f2960208301856117a1565b611f366040830184611724565b949350505050565b611f47816116ee565b8114611f5257600080fd5b50565b600081519050611f6481611f3e565b92915050565b600060208284031215611f8057611f7f611610565b5b6000611f8e84828501611f55565b91505092915050565b7f5061796d656e74207472616e73666572206661696c6564000000000000000000600082015250565b6000611fcd60178361155f565b9150611fd882611f97565b602082019050919050565b60006020820190508181036000830152611ffc81611fc0565b9050919050565b60006040820190506120186000830185611724565b6120256020830184611724565b9392505050565b7f4f776e61626c653a206e6577206f776e657220697320746865207a65726f206160008201527f6464726573730000000000000000000000000000000000000000000000000000602082015250565b600061208860268361155f565b91506120938261202c565b604082019050919050565b600060208201905081810360008301526120b78161207b565b9050919050565b7f496e76616c696420726563697069656e74000000000000000000000000000000600082015250565b60006120f460118361155f565b91506120ff826120be565b602082019050919050565b60006020820190508181036000830152612123816120e7565b9050919050565b600060408201905061213f60008301856117a1565b61214c6020830184611724565b9392505050565b7f5769746864726177206661696c65640000000000000000000000000000000000600082015250565b6000612189600f8361155f565b915061219482612153565b602082019050919050565b600060208201905081810360008301526121b88161217c565b9050919050565b7f45524332303a20617070726f76652066726f6d20746865207a65726f2061646460008201527f7265737300000000000000000000000000000000000000000000000000000000602082015250565b600061221b60248361155f565b9150612226826121bf565b604082019050919050565b6000602082019050818103600083015261224a8161220e565b9050919050565b7f45524332303a20617070726f766520746f20746865207a65726f20616464726560008201527f7373000000000000000000000000000000000000000000000000000000000000602082015250565b60006122ad60228361155f565b91506122b882612251565b604082019050919050565b600060208201905081810360008301526122dc816122a0565b9050919050565b7f45524332303a20696e73756666696369656e7420616c6c6f77616e6365000000600082015250565b6000612319601d8361155f565b9150612324826122e3565b602082019050919050565b600060208201905081810360008301526123488161230c565b9050919050565b7f45524332303a207472616e736665722066726f6d20746865207a65726f20616460008201527f6472657373000000000000000000000000000000000000000000000000000000602082015250565b60006123ab60258361155f565b91506123b68261234f565b604082019050919050565b600060208201905081810360008301526123da8161239e565b9050919050565b7f45524332303a207472616e7366657220746f20746865207a65726f206164647260008201527f6573730000000000000000000000000000000000000000000000000000000000602082015250565b600061243d60238361155f565b9150612448826123e1565b604082019050919050565b6000602082019050818103600083015261246c81612430565b9050919050565b7f45524332303a207472616e7366657220616d6f756e742065786365656473206260008201527f616c616e63650000000000000000000000000000000000000000000000000000602082015250565b60006124cf60268361155f565b91506124da82612473565b604082019050919050565b600060208201905081810360008301526124fe816124c2565b9050919050565b7f4f776e61626c653a2063616c6c6572206973206e6f7420746865206f776e6572600082015250565b600061253b60208361155f565b915061254682612505565b602082019050919050565b6000602082019050818103600083015261256a8161252e565b9050919050565b7f5265656e7472616e637947756172643a207265656e7472616e742063616c6c00600082015250565b60006125a7601f8361155f565b91506125b282612571565b602082019050919050565b600060208201905081810360008301526125d68161259a565b9050919050565b7f45524332303a206d696e7420746f20746865207a65726f206164647265737300600082015250565b6000612613601f8361155f565b915061261e826125dd565b602082019050919050565b6000602082019050818103600083015261264281612606565b905091905056fea264697066735822122059fa6f95108711e657690d6d72c1abd02782fdd06158a5b1efd95ea33bb0c10a64736f6c63430008130033","linkReferences":{}},"methodIdentifiers":{"allowance(address,address)":"dd62ed3e","approve(address,uint256)":"095ea7b3","balanceOf(address)":"70a08231","buyShares(uint256)":"d1a93d18","decimals()":"313ce567","decreaseAllowance(address,uint256)":"a457c2d7","getMetadataURI()":"86a92af7","increaseAllowance(address,uint256)":"39509351","maxSupply()":"d5abeb01","metadataURI()":"03ee438c","name()":"06fdde03","owner()":"8da5cb5b","paymentToken()":"3013ce29","quote(uint256)":"ed1bd76c","renounceOwnership()":"715018a6","setMetadataURI(string)":"750521f5","sharePrice()":"87269729","symbol()":"95d89b41","totalSold()":"9106d7ba","totalSupply()":"18160ddd","transfer(address,uint256)":"a9059cbb","transferFrom(address,address,uint256)":"23b872dd","transferOwnership(address)":"f2fde38b","withdraw(address,uint256)":"f3fef3a3"},"id":53}