{"abi":[{"type":"constructor","inputs":[{"name":"router","type":"address","internalType":"address"},{"name":"link","type":"address","internalType":"address"}],"stateMutability":"nonpayable"},{"type":"receive","stateMutability":"payable"},{"type":"function","name":"acceptOwnership","inputs":[],"outputs":[],"stateMutability":"nonpayable"},{"type":"function","name":"owner","inputs":[],"outputs":[{"name":"","type":"address","internalType":"address"}],"stateMutability":"view"},{"type":"function","name":"send","inputs":[{"name":"destinationChainSelector","type":"uint64","internalType":"uint64"},{"name":"receiver","type":"address","internalType":"address"},{"name":"messageText","type":"string","internalType":"string"},{"name":"payFeesIn","type":"uint8","internalType":"enum BasicMessageSender.PayFeesIn"}],"outputs":[{"name":"messageId","type":"bytes32","internalType":"bytes32"}],"stateMutability":"nonpayable"},{"type":"function","name":"transferOwnership","inputs":[{"name":"to","type":"address","internalType":"address"}],"outputs":[],"stateMutability":"nonpayable"},{"type":"function","name":"withdraw","inputs":[{"name":"beneficiary","type":"address","internalType":"address"}],"outputs":[],"stateMutability":"nonpayable"},{"type":"function","name":"withdrawToken","inputs":[{"name":"beneficiary","type":"address","internalType":"address"},{"name":"token","type":"address","internalType":"address"}],"outputs":[],"stateMutability":"nonpayable"},{"type":"event","name":"MessageSent","inputs":[{"name":"messageId","type":"bytes32","indexed":false,"internalType":"bytes32"}],"anonymous":false},{"type":"event","name":"OwnershipTransferRequested","inputs":[{"name":"from","type":"address","indexed":true,"internalType":"address"},{"name":"to","type":"address","indexed":true,"internalType":"address"}],"anonymous":false},{"type":"event","name":"OwnershipTransferred","inputs":[{"name":"from","type":"address","indexed":true,"internalType":"address"},{"name":"to","type":"address","indexed":true,"internalType":"address"}],"anonymous":false},{"type":"error","name":"FailedToWithdrawEth","inputs":[{"name":"owner","type":"address","internalType":"address"},{"name":"target","type":"address","internalType":"address"},{"name":"value","type":"uint256","internalType":"uint256"}]}],"bytecode":{"object":"0x60c06040523480156200001157600080fd5b5060405162001e3438038062001e3483398181016040528101906200003791906200033f565b338060008073ffffffffffffffffffffffffffffffffffffffff168273ffffffffffffffffffffffffffffffffffffffff1603620000ac576040517f08c379a0000000000000000000000000000000000000000000000000000000008152600401620000a390620003e7565b60405180910390fd5b816000806101000a81548173ffffffffffffffffffffffffffffffffffffffff021916908373ffffffffffffffffffffffffffffffffffffffff160217905550600073ffffffffffffffffffffffffffffffffffffffff168173ffffffffffffffffffffffffffffffffffffffff161462000133576200013281620001a660201b60201c565b5b5050508173ffffffffffffffffffffffffffffffffffffffff1660808173ffffffffffffffffffffffffffffffffffffffff16815250508073ffffffffffffffffffffffffffffffffffffffff1660a08173ffffffffffffffffffffffffffffffffffffffff168152505050506200047b565b3373ffffffffffffffffffffffffffffffffffffffff168173ffffffffffffffffffffffffffffffffffffffff160362000217576040517f08c379a00000000000000000000000000000000000000000000000000000000081526004016200020e9062000459565b60405180910390fd5b80600160006101000a81548173ffffffffffffffffffffffffffffffffffffffff021916908373ffffffffffffffffffffffffffffffffffffffff1602179055508073ffffffffffffffffffffffffffffffffffffffff1660008054906101000a900473ffffffffffffffffffffffffffffffffffffffff1673ffffffffffffffffffffffffffffffffffffffff167fed8889f560326eb138920d842192f0eb3dd22b4f139c87a2c57538e05bae127860405160405180910390a350565b600080fd5b600073ffffffffffffffffffffffffffffffffffffffff82169050919050565b60006200030782620002da565b9050919050565b6200031981620002fa565b81146200032557600080fd5b50565b60008151905062000339816200030e565b92915050565b60008060408385031215620003595762000358620002d5565b5b6000620003698582860162000328565b92505060206200037c8582860162000328565b9150509250929050565b600082825260208201905092915050565b7f43616e6e6f7420736574206f776e657220746f207a65726f0000000000000000600082015250565b6000620003cf60188362000386565b9150620003dc8262000397565b602082019050919050565b600060208201905081810360008301526200040281620003c0565b9050919050565b7f43616e6e6f74207472616e7366657220746f2073656c66000000000000000000600082015250565b60006200044160178362000386565b91506200044e8262000409565b602082019050919050565b60006020820190508181036000830152620004748162000432565b9050919050565b60805160a051611977620004bd6000396000818161024501526103620152600081816102990152818161039e0152818161042101526104c601526119776000f3fe6080604052600436106100595760003560e01c80632c101b17146100655780633aeac4e1146100a257806351cff8d9146100cb57806379ba5097146100f45780638da5cb5b1461010b578063f2fde38b1461013657610060565b3661006057005b600080fd5b34801561007157600080fd5b5061008c60048036038101906100879190611016565b61015f565b60405161009991906110b2565b60405180910390f35b3480156100ae57600080fd5b506100c960048036038101906100c491906110cd565b6105a7565b005b3480156100d757600080fd5b506100f260048036038101906100ed919061110d565b61065d565b005b34801561010057600080fd5b50610109610721565b005b34801561011757600080fd5b506101206108b6565b60405161012d9190611149565b60405180910390f35b34801561014257600080fd5b5061015d6004803603810190610158919061110d565b6108df565b005b6000806040518060a001604052808660405160200161017e9190611149565b6040516020818303038152906040528152602001856040516020016101a391906111e3565b6040516020818303038152906040528152602001600067ffffffffffffffff8111156101d2576101d1610ec6565b5b60405190808252806020026020018201604052801561020b57816020015b6101f8610dc9565b8152602001906001900390816101f05790505b50815260200160018081111561022457610223611205565b5b85600181111561023757610236611205565b5b14610243576000610265565b7f00000000000000000000000000000000000000000000000000000000000000005b73ffffffffffffffffffffffffffffffffffffffff16815260200160405180602001604052806000815250815250905060007f000000000000000000000000000000000000000000000000000000000000000073ffffffffffffffffffffffffffffffffffffffff166320487ded88846040518363ffffffff1660e01b81526004016102f2929190611429565b602060405180830381865afa15801561030f573d6000803e3d6000fd5b505050506040513d601f19601f820116820180604052508101906103339190611485565b905060018081111561034857610347611205565b5b84600181111561035b5761035a611205565b5b036104c4577f000000000000000000000000000000000000000000000000000000000000000073ffffffffffffffffffffffffffffffffffffffff1663095ea7b37f0000000000000000000000000000000000000000000000000000000000000000836040518363ffffffff1660e01b81526004016103db9291906114c1565b6020604051808303816000875af11580156103fa573d6000803e3d6000fd5b505050506040513d601f19601f8201168201806040525081019061041e9190611522565b507f000000000000000000000000000000000000000000000000000000000000000073ffffffffffffffffffffffffffffffffffffffff166396f4e9f988846040518363ffffffff1660e01b815260040161047a929190611429565b6020604051808303816000875af1158015610499573d6000803e3d6000fd5b505050506040513d601f19601f820116820180604052508101906104bd919061157b565b9250610566565b7f000000000000000000000000000000000000000000000000000000000000000073ffffffffffffffffffffffffffffffffffffffff166396f4e9f98289856040518463ffffffff1660e01b8152600401610520929190611429565b60206040518083038185885af115801561053e573d6000803e3d6000fd5b50505050506040513d601f19601f82011682018060405250810190610563919061157b565b92505b7f54791b38f3859327992a1ca0590ad3c0f08feba98d1a4f56ab0dca74d203392a8360405161059591906110b2565b60405180910390a15050949350505050565b6105af6108f3565b60008173ffffffffffffffffffffffffffffffffffffffff166370a08231306040518263ffffffff1660e01b81526004016105ea9190611149565b602060405180830381865afa158015610607573d6000803e3d6000fd5b505050506040513d601f19601f8201168201806040525081019061062b9190611485565b905061065883828473ffffffffffffffffffffffffffffffffffffffff166109839092919063ffffffff16565b505050565b6106656108f3565b600047905060008273ffffffffffffffffffffffffffffffffffffffff1682604051610690906115d9565b60006040518083038185875af1925050503d80600081146106cd576040519150601f19603f3d011682016040523d82523d6000602084013e6106d2565b606091505b505090508061071c573383836040517f9d11f563000000000000000000000000000000000000000000000000000000008152600401610713939291906115ee565b60405180910390fd5b505050565b600160009054906101000a900473ffffffffffffffffffffffffffffffffffffffff1673ffffffffffffffffffffffffffffffffffffffff163373ffffffffffffffffffffffffffffffffffffffff16146107b1576040517f08c379a00000000000000000000000000000000000000000000000000000000081526004016107a890611671565b60405180910390fd5b60008060009054906101000a900473ffffffffffffffffffffffffffffffffffffffff169050336000806101000a81548173ffffffffffffffffffffffffffffffffffffffff021916908373ffffffffffffffffffffffffffffffffffffffff1602179055506000600160006101000a81548173ffffffffffffffffffffffffffffffffffffffff021916908373ffffffffffffffffffffffffffffffffffffffff1602179055503373ffffffffffffffffffffffffffffffffffffffff168173ffffffffffffffffffffffffffffffffffffffff167f8be0079c531659141344cd1fd0a4f28419497f9722a3daafe3b4186f6b6457e060405160405180910390a350565b60008060009054906101000a900473ffffffffffffffffffffffffffffffffffffffff16905090565b6108e76108f3565b6108f081610a09565b50565b60008054906101000a900473ffffffffffffffffffffffffffffffffffffffff1673ffffffffffffffffffffffffffffffffffffffff163373ffffffffffffffffffffffffffffffffffffffff1614610981576040517f08c379a0000000000000000000000000000000000000000000000000000000008152600401610978906116dd565b60405180910390fd5b565b610a048363a9059cbb60e01b84846040516024016109a29291906114c1565b604051602081830303815290604052907bffffffffffffffffffffffffffffffffffffffffffffffffffffffff19166020820180517bffffffffffffffffffffffffffffffffffffffffffffffffffffffff8381831617835250505050610b35565b505050565b3373ffffffffffffffffffffffffffffffffffffffff168173ffffffffffffffffffffffffffffffffffffffff1603610a77576040517f08c379a0000000000000000000000000000000000000000000000000000000008152600401610a6e90611749565b60405180910390fd5b80600160006101000a81548173ffffffffffffffffffffffffffffffffffffffff021916908373ffffffffffffffffffffffffffffffffffffffff1602179055508073ffffffffffffffffffffffffffffffffffffffff1660008054906101000a900473ffffffffffffffffffffffffffffffffffffffff1673ffffffffffffffffffffffffffffffffffffffff167fed8889f560326eb138920d842192f0eb3dd22b4f139c87a2c57538e05bae127860405160405180910390a350565b6000610b97826040518060400160405280602081526020017f5361666545524332303a206c6f772d6c6576656c2063616c6c206661696c65648152508573ffffffffffffffffffffffffffffffffffffffff16610bfc9092919063ffffffff16565b9050600081511115610bf75780806020019051810190610bb79190611522565b610bf6576040517f08c379a0000000000000000000000000000000000000000000000000000000008152600401610bed906117db565b60405180910390fd5b5b505050565b6060610c0b8484600085610c14565b90509392505050565b606082471015610c59576040517f08c379a0000000000000000000000000000000000000000000000000000000008152600401610c509061186d565b60405180910390fd5b6000808673ffffffffffffffffffffffffffffffffffffffff168587604051610c8291906118be565b60006040518083038185875af1925050503d8060008114610cbf576040519150601f19603f3d011682016040523d82523d6000602084013e610cc4565b606091505b5091509150610cd587838387610ce1565b92505050949350505050565b60608315610d43576000835103610d3b57610cfb85610d56565b610d3a576040517f08c379a0000000000000000000000000000000000000000000000000000000008152600401610d3190611921565b60405180910390fd5b5b829050610d4e565b610d4d8383610d79565b5b949350505050565b6000808273ffffffffffffffffffffffffffffffffffffffff163b119050919050565b600082511115610d8c5781518083602001fd5b806040517f08c379a0000000000000000000000000000000000000000000000000000000008152600401610dc091906111e3565b60405180910390fd5b6040518060400160405280600073ffffffffffffffffffffffffffffffffffffffff168152602001600081525090565b6000604051905090565b600080fd5b600080fd5b600067ffffffffffffffff82169050919050565b610e2a81610e0d565b8114610e3557600080fd5b50565b600081359050610e4781610e21565b92915050565b600073ffffffffffffffffffffffffffffffffffffffff82169050919050565b6000610e7882610e4d565b9050919050565b610e8881610e6d565b8114610e9357600080fd5b50565b600081359050610ea581610e7f565b92915050565b600080fd5b600080fd5b6000601f19601f8301169050919050565b7f4e487b7100000000000000000000000000000000000000000000000000000000600052604160045260246000fd5b610efe82610eb5565b810181811067ffffffffffffffff82111715610f1d57610f1c610ec6565b5b80604052505050565b6000610f30610df9565b9050610f3c8282610ef5565b919050565b600067ffffffffffffffff821115610f5c57610f5b610ec6565b5b610f6582610eb5565b9050602081019050919050565b82818337600083830152505050565b6000610f94610f8f84610f41565b610f26565b905082815260208101848484011115610fb057610faf610eb0565b5b610fbb848285610f72565b509392505050565b600082601f830112610fd857610fd7610eab565b5b8135610fe8848260208601610f81565b91505092915050565b60028110610ffe57600080fd5b50565b60008135905061101081610ff1565b92915050565b600080600080608085870312156110305761102f610e03565b5b600061103e87828801610e38565b945050602061104f87828801610e96565b935050604085013567ffffffffffffffff8111156110705761106f610e08565b5b61107c87828801610fc3565b925050606061108d87828801611001565b91505092959194509250565b6000819050919050565b6110ac81611099565b82525050565b60006020820190506110c760008301846110a3565b92915050565b600080604083850312156110e4576110e3610e03565b5b60006110f285828601610e96565b925050602061110385828601610e96565b9150509250929050565b60006020828403121561112357611122610e03565b5b600061113184828501610e96565b91505092915050565b61114381610e6d565b82525050565b600060208201905061115e600083018461113a565b92915050565b600081519050919050565b600082825260208201905092915050565b60005b8381101561119e578082015181840152602081019050611183565b60008484015250505050565b60006111b582611164565b6111bf818561116f565b93506111cf818560208601611180565b6111d881610eb5565b840191505092915050565b600060208201905081810360008301526111fd81846111aa565b905092915050565b7f4e487b7100000000000000000000000000000000000000000000000000000000600052602160045260246000fd5b61123d81610e0d565b82525050565b600081519050919050565b600082825260208201905092915050565b600061126a82611243565b611274818561124e565b9350611284818560208601611180565b61128d81610eb5565b840191505092915050565b600081519050919050565b600082825260208201905092915050565b6000819050602082019050919050565b6112cd81610e6d565b82525050565b6000819050919050565b6112e6816112d3565b82525050565b60408201600082015161130260008501826112c4565b50602082015161131560208501826112dd565b50505050565b600061132783836112ec565b60408301905092915050565b6000602082019050919050565b600061134b82611298565b61135581856112a3565b9350611360836112b4565b8060005b83811015611391578151611378888261131b565b975061138383611333565b925050600181019050611364565b5085935050505092915050565b600060a08301600083015184820360008601526113bb828261125f565b915050602083015184820360208601526113d5828261125f565b915050604083015184820360408601526113ef8282611340565b915050606083015161140460608601826112c4565b506080830151848203608086015261141c828261125f565b9150508091505092915050565b600060408201905061143e6000830185611234565b8181036020830152611450818461139e565b90509392505050565b611462816112d3565b811461146d57600080fd5b50565b60008151905061147f81611459565b92915050565b60006020828403121561149b5761149a610e03565b5b60006114a984828501611470565b91505092915050565b6114bb816112d3565b82525050565b60006040820190506114d6600083018561113a565b6114e360208301846114b2565b9392505050565b60008115159050919050565b6114ff816114ea565b811461150a57600080fd5b50565b60008151905061151c816114f6565b92915050565b60006020828403121561153857611537610e03565b5b60006115468482850161150d565b91505092915050565b61155881611099565b811461156357600080fd5b50565b6000815190506115758161154f565b92915050565b60006020828403121561159157611590610e03565b5b600061159f84828501611566565b91505092915050565b600081905092915050565b50565b60006115c36000836115a8565b91506115ce826115b3565b600082019050919050565b60006115e4826115b6565b9150819050919050565b6000606082019050611603600083018661113a565b611610602083018561113a565b61161d60408301846114b2565b949350505050565b7f4d7573742062652070726f706f736564206f776e657200000000000000000000600082015250565b600061165b60168361116f565b915061166682611625565b602082019050919050565b6000602082019050818103600083015261168a8161164e565b9050919050565b7f4f6e6c792063616c6c61626c65206279206f776e657200000000000000000000600082015250565b60006116c760168361116f565b91506116d282611691565b602082019050919050565b600060208201905081810360008301526116f6816116ba565b9050919050565b7f43616e6e6f74207472616e7366657220746f2073656c66000000000000000000600082015250565b600061173360178361116f565b915061173e826116fd565b602082019050919050565b6000602082019050818103600083015261176281611726565b9050919050565b7f5361666545524332303a204552433230206f7065726174696f6e20646964206e60008201527f6f74207375636365656400000000000000000000000000000000000000000000602082015250565b60006117c5602a8361116f565b91506117d082611769565b604082019050919050565b600060208201905081810360008301526117f4816117b8565b9050919050565b7f416464726573733a20696e73756666696369656e742062616c616e636520666f60008201527f722063616c6c0000000000000000000000000000000000000000000000000000602082015250565b600061185760268361116f565b9150611862826117fb565b604082019050919050565b600060208201905081810360008301526118868161184a565b9050919050565b600061189882611243565b6118a281856115a8565b93506118b2818560208601611180565b80840191505092915050565b60006118ca828461188d565b915081905092915050565b7f416464726573733a2063616c6c20746f206e6f6e2d636f6e7472616374000000600082015250565b600061190b601d8361116f565b9150611916826118d5565b602082019050919050565b6000602082019050818103600083015261193a816118fe565b905091905056fea26469706673582212200c73a5a61500bccce7e24a21e994309db00a8e0eabc999d17bfae8e922d2d38564736f6c63430008130033","linkReferences":{}},"methodIdentifiers":{"acceptOwnership()":"79ba5097","owner()":"8da5cb5b","send(uint64,address,string,uint8)":"2c101b17","transferOwnership(address)":"f2fde38b","withdraw(address)":"51cff8d9","withdrawToken(address,address)":"3aeac4e1"},"id":86}