{"abi":[{"type":"constructor","inputs":[{"name":"router","type":"address","internalType":"address"},{"name":"link","type":"address","internalType":"address"}],"stateMutability":"nonpayable"},{"type":"receive","stateMutability":"payable"},{"type":"function","name":"acceptOwnership","inputs":[],"outputs":[],"stateMutability":"nonpayable"},{"type":"function","name":"mint","inputs":[{"name":"destinationChainSelector","type":"uint64","internalType":"uint64"},{"name":"receiver","type":"address","internalType":"address"},{"name":"payFeesIn","type":"uint8","internalType":"enum SourceMinter.PayFeesIn"}],"outputs":[],"stateMutability":"nonpayable"},{"type":"function","name":"owner","inputs":[],"outputs":[{"name":"","type":"address","internalType":"address"}],"stateMutability":"view"},{"type":"function","name":"transferOwnership","inputs":[{"name":"to","type":"address","internalType":"address"}],"outputs":[],"stateMutability":"nonpayable"},{"type":"function","name":"withdraw","inputs":[{"name":"beneficiary","type":"address","internalType":"address"}],"outputs":[],"stateMutability":"nonpayable"},{"type":"function","name":"withdrawToken","inputs":[{"name":"beneficiary","type":"address","internalType":"address"},{"name":"token","type":"address","internalType":"address"}],"outputs":[],"stateMutability":"nonpayable"},{"type":"event","name":"MessageSent","inputs":[{"name":"messageId","type":"bytes32","indexed":false,"internalType":"bytes32"}],"anonymous":false},{"type":"event","name":"OwnershipTransferRequested","inputs":[{"name":"from","type":"address","indexed":true,"internalType":"address"},{"name":"to","type":"address","indexed":true,"internalType":"address"}],"anonymous":false},{"type":"event","name":"OwnershipTransferred","inputs":[{"name":"from","type":"address","indexed":true,"internalType":"address"},{"name":"to","type":"address","indexed":true,"internalType":"address"}],"anonymous":false},{"type":"error","name":"FailedToWithdrawEth","inputs":[{"name":"owner","type":"address","internalType":"address"},{"name":"target","type":"address","internalType":"address"},{"name":"value","type":"uint256","internalType":"uint256"}]}],"bytecode":{"object":"0x60c06040523480156200001157600080fd5b5060405162001d4838038062001d4883398181016040528101906200003791906200033f565b338060008073ffffffffffffffffffffffffffffffffffffffff168273ffffffffffffffffffffffffffffffffffffffff1603620000ac576040517f08c379a0000000000000000000000000000000000000000000000000000000008152600401620000a390620003e7565b60405180910390fd5b816000806101000a81548173ffffffffffffffffffffffffffffffffffffffff021916908373ffffffffffffffffffffffffffffffffffffffff160217905550600073ffffffffffffffffffffffffffffffffffffffff168173ffffffffffffffffffffffffffffffffffffffff161462000133576200013281620001a660201b60201c565b5b5050508173ffffffffffffffffffffffffffffffffffffffff1660808173ffffffffffffffffffffffffffffffffffffffff16815250508073ffffffffffffffffffffffffffffffffffffffff1660a08173ffffffffffffffffffffffffffffffffffffffff168152505050506200047b565b3373ffffffffffffffffffffffffffffffffffffffff168173ffffffffffffffffffffffffffffffffffffffff160362000217576040517f08c379a00000000000000000000000000000000000000000000000000000000081526004016200020e9062000459565b60405180910390fd5b80600160006101000a81548173ffffffffffffffffffffffffffffffffffffffff021916908373ffffffffffffffffffffffffffffffffffffffff1602179055508073ffffffffffffffffffffffffffffffffffffffff1660008054906101000a900473ffffffffffffffffffffffffffffffffffffffff1673ffffffffffffffffffffffffffffffffffffffff167fed8889f560326eb138920d842192f0eb3dd22b4f139c87a2c57538e05bae127860405160405180910390a350565b600080fd5b600073ffffffffffffffffffffffffffffffffffffffff82169050919050565b60006200030782620002da565b9050919050565b6200031981620002fa565b81146200032557600080fd5b50565b60008151905062000339816200030e565b92915050565b60008060408385031215620003595762000358620002d5565b5b6000620003698582860162000328565b92505060206200037c8582860162000328565b9150509250929050565b600082825260208201905092915050565b7f43616e6e6f7420736574206f776e657220746f207a65726f0000000000000000600082015250565b6000620003cf60188362000386565b9150620003dc8262000397565b602082019050919050565b600060208201905081810360008301526200040281620003c0565b9050919050565b7f43616e6e6f74207472616e7366657220746f2073656c66000000000000000000600082015250565b60006200044160178362000386565b91506200044e8262000409565b602082019050919050565b60006020820190508181036000830152620004748162000432565b9050919050565b60805160a05161188b620004bd600039600081816105d601526106f501526000818161062a01528181610731015281816107b40152610859015261188b6000f3fe6080604052600436106100595760003560e01c80633aeac4e11461006557806351cff8d91461008e57806379ba5097146100b75780638da5cb5b146100ce578063ec99afa2146100f9578063f2fde38b1461012257610060565b3661006057005b600080fd5b34801561007157600080fd5b5061008c60048036038101906100879190610eb5565b61014b565b005b34801561009a57600080fd5b506100b560048036038101906100b09190610ef5565b610201565b005b3480156100c357600080fd5b506100cc6102c5565b005b3480156100da57600080fd5b506100e361045a565b6040516100f09190610f31565b60405180910390f35b34801561010557600080fd5b50610120600480360381019061011b9190610fb1565b610483565b005b34801561012e57600080fd5b5061014960048036038101906101449190610ef5565b610938565b005b61015361094c565b60008173ffffffffffffffffffffffffffffffffffffffff166370a08231306040518263ffffffff1660e01b815260040161018e9190610f31565b602060405180830381865afa1580156101ab573d6000803e3d6000fd5b505050506040513d601f19601f820116820180604052508101906101cf919061103a565b90506101fc83828473ffffffffffffffffffffffffffffffffffffffff166109dc9092919063ffffffff16565b505050565b61020961094c565b600047905060008273ffffffffffffffffffffffffffffffffffffffff168260405161023490611098565b60006040518083038185875af1925050503d8060008114610271576040519150601f19603f3d011682016040523d82523d6000602084013e610276565b606091505b50509050806102c0573383836040517f9d11f5630000000000000000000000000000000000000000000000000000000081526004016102b7939291906110bc565b60405180910390fd5b505050565b600160009054906101000a900473ffffffffffffffffffffffffffffffffffffffff1673ffffffffffffffffffffffffffffffffffffffff163373ffffffffffffffffffffffffffffffffffffffff1614610355576040517f08c379a000000000000000000000000000000000000000000000000000000000815260040161034c90611150565b60405180910390fd5b60008060009054906101000a900473ffffffffffffffffffffffffffffffffffffffff169050336000806101000a81548173ffffffffffffffffffffffffffffffffffffffff021916908373ffffffffffffffffffffffffffffffffffffffff1602179055506000600160006101000a81548173ffffffffffffffffffffffffffffffffffffffff021916908373ffffffffffffffffffffffffffffffffffffffff1602179055503373ffffffffffffffffffffffffffffffffffffffff168173ffffffffffffffffffffffffffffffffffffffff167f8be0079c531659141344cd1fd0a4f28419497f9722a3daafe3b4186f6b6457e060405160405180910390a350565b60008060009054906101000a900473ffffffffffffffffffffffffffffffffffffffff16905090565b60006040518060a00160405280846040516020016104a19190610f31565b6040516020818303038152906040528152602001336040516024016104c69190610f31565b6040516020818303038152906040527f6a627842000000000000000000000000000000000000000000000000000000007bffffffffffffffffffffffffffffffffffffffffffffffffffffffff19166020820180517bffffffffffffffffffffffffffffffffffffffffffffffffffffffff83818316178352505050508152602001600067ffffffffffffffff81111561056357610562611170565b5b60405190808252806020026020018201604052801561059c57816020015b610589610e22565b8152602001906001900390816105815790505b5081526020016001808111156105b5576105b461119f565b5b8460018111156105c8576105c761119f565b5b146105d45760006105f6565b7f00000000000000000000000000000000000000000000000000000000000000005b73ffffffffffffffffffffffffffffffffffffffff16815260200160405180602001604052806000815250815250905060007f000000000000000000000000000000000000000000000000000000000000000073ffffffffffffffffffffffffffffffffffffffff166320487ded86846040518363ffffffff1660e01b81526004016106839291906113f4565b602060405180830381865afa1580156106a0573d6000803e3d6000fd5b505050506040513d601f19601f820116820180604052508101906106c4919061103a565b905060006001808111156106db576106da61119f565b5b8460018111156106ee576106ed61119f565b5b03610857577f000000000000000000000000000000000000000000000000000000000000000073ffffffffffffffffffffffffffffffffffffffff1663095ea7b37f0000000000000000000000000000000000000000000000000000000000000000846040518363ffffffff1660e01b815260040161076e929190611424565b6020604051808303816000875af115801561078d573d6000803e3d6000fd5b505050506040513d601f19601f820116820180604052508101906107b19190611485565b507f000000000000000000000000000000000000000000000000000000000000000073ffffffffffffffffffffffffffffffffffffffff166396f4e9f987856040518363ffffffff1660e01b815260040161080d9291906113f4565b6020604051808303816000875af115801561082c573d6000803e3d6000fd5b505050506040513d601f19601f8201168201806040525081019061085091906114e8565b90506108f9565b7f000000000000000000000000000000000000000000000000000000000000000073ffffffffffffffffffffffffffffffffffffffff166396f4e9f98388866040518463ffffffff1660e01b81526004016108b39291906113f4565b60206040518083038185885af11580156108d1573d6000803e3d6000fd5b50505050506040513d601f19601f820116820180604052508101906108f691906114e8565b90505b7f54791b38f3859327992a1ca0590ad3c0f08feba98d1a4f56ab0dca74d203392a816040516109289190611524565b60405180910390a1505050505050565b61094061094c565b61094981610a62565b50565b60008054906101000a900473ffffffffffffffffffffffffffffffffffffffff1673ffffffffffffffffffffffffffffffffffffffff163373ffffffffffffffffffffffffffffffffffffffff16146109da576040517f08c379a00000000000000000000000000000000000000000000000000000000081526004016109d19061158b565b60405180910390fd5b565b610a5d8363a9059cbb60e01b84846040516024016109fb929190611424565b604051602081830303815290604052907bffffffffffffffffffffffffffffffffffffffffffffffffffffffff19166020820180517bffffffffffffffffffffffffffffffffffffffffffffffffffffffff8381831617835250505050610b8e565b505050565b3373ffffffffffffffffffffffffffffffffffffffff168173ffffffffffffffffffffffffffffffffffffffff1603610ad0576040517f08c379a0000000000000000000000000000000000000000000000000000000008152600401610ac7906115f7565b60405180910390fd5b80600160006101000a81548173ffffffffffffffffffffffffffffffffffffffff021916908373ffffffffffffffffffffffffffffffffffffffff1602179055508073ffffffffffffffffffffffffffffffffffffffff1660008054906101000a900473ffffffffffffffffffffffffffffffffffffffff1673ffffffffffffffffffffffffffffffffffffffff167fed8889f560326eb138920d842192f0eb3dd22b4f139c87a2c57538e05bae127860405160405180910390a350565b6000610bf0826040518060400160405280602081526020017f5361666545524332303a206c6f772d6c6576656c2063616c6c206661696c65648152508573ffffffffffffffffffffffffffffffffffffffff16610c559092919063ffffffff16565b9050600081511115610c505780806020019051810190610c109190611485565b610c4f576040517f08c379a0000000000000000000000000000000000000000000000000000000008152600401610c4690611689565b60405180910390fd5b5b505050565b6060610c648484600085610c6d565b90509392505050565b606082471015610cb2576040517f08c379a0000000000000000000000000000000000000000000000000000000008152600401610ca99061171b565b60405180910390fd5b6000808673ffffffffffffffffffffffffffffffffffffffff168587604051610cdb919061176c565b60006040518083038185875af1925050503d8060008114610d18576040519150601f19603f3d011682016040523d82523d6000602084013e610d1d565b606091505b5091509150610d2e87838387610d3a565b92505050949350505050565b60608315610d9c576000835103610d9457610d5485610daf565b610d93576040517f08c379a0000000000000000000000000000000000000000000000000000000008152600401610d8a906117cf565b60405180910390fd5b5b829050610da7565b610da68383610dd2565b5b949350505050565b6000808273ffffffffffffffffffffffffffffffffffffffff163b119050919050565b600082511115610de55781518083602001fd5b806040517f08c379a0000000000000000000000000000000000000000000000000000000008152600401610e199190611833565b60405180910390fd5b6040518060400160405280600073ffffffffffffffffffffffffffffffffffffffff168152602001600081525090565b600080fd5b600073ffffffffffffffffffffffffffffffffffffffff82169050919050565b6000610e8282610e57565b9050919050565b610e9281610e77565b8114610e9d57600080fd5b50565b600081359050610eaf81610e89565b92915050565b60008060408385031215610ecc57610ecb610e52565b5b6000610eda85828601610ea0565b9250506020610eeb85828601610ea0565b9150509250929050565b600060208284031215610f0b57610f0a610e52565b5b6000610f1984828501610ea0565b91505092915050565b610f2b81610e77565b82525050565b6000602082019050610f466000830184610f22565b92915050565b600067ffffffffffffffff82169050919050565b610f6981610f4c565b8114610f7457600080fd5b50565b600081359050610f8681610f60565b92915050565b60028110610f9957600080fd5b50565b600081359050610fab81610f8c565b92915050565b600080600060608486031215610fca57610fc9610e52565b5b6000610fd886828701610f77565b9350506020610fe986828701610ea0565b9250506040610ffa86828701610f9c565b9150509250925092565b6000819050919050565b61101781611004565b811461102257600080fd5b50565b6000815190506110348161100e565b92915050565b6000602082840312156110505761104f610e52565b5b600061105e84828501611025565b91505092915050565b600081905092915050565b50565b6000611082600083611067565b915061108d82611072565b600082019050919050565b60006110a382611075565b9150819050919050565b6110b681611004565b82525050565b60006060820190506110d16000830186610f22565b6110de6020830185610f22565b6110eb60408301846110ad565b949350505050565b600082825260208201905092915050565b7f4d7573742062652070726f706f736564206f776e657200000000000000000000600082015250565b600061113a6016836110f3565b915061114582611104565b602082019050919050565b600060208201905081810360008301526111698161112d565b9050919050565b7f4e487b7100000000000000000000000000000000000000000000000000000000600052604160045260246000fd5b7f4e487b7100000000000000000000000000000000000000000000000000000000600052602160045260246000fd5b6111d781610f4c565b82525050565b600081519050919050565b600082825260208201905092915050565b60005b838110156112175780820151818401526020810190506111fc565b60008484015250505050565b6000601f19601f8301169050919050565b600061123f826111dd565b61124981856111e8565b93506112598185602086016111f9565b61126281611223565b840191505092915050565b600081519050919050565b600082825260208201905092915050565b6000819050602082019050919050565b6112a281610e77565b82525050565b6112b181611004565b82525050565b6040820160008201516112cd6000850182611299565b5060208201516112e060208501826112a8565b50505050565b60006112f283836112b7565b60408301905092915050565b6000602082019050919050565b60006113168261126d565b6113208185611278565b935061132b83611289565b8060005b8381101561135c57815161134388826112e6565b975061134e836112fe565b92505060018101905061132f565b5085935050505092915050565b600060a08301600083015184820360008601526113868282611234565b915050602083015184820360208601526113a08282611234565b915050604083015184820360408601526113ba828261130b565b91505060608301516113cf6060860182611299565b50608083015184820360808601526113e78282611234565b9150508091505092915050565b600060408201905061140960008301856111ce565b818103602083015261141b8184611369565b90509392505050565b60006040820190506114396000830185610f22565b61144660208301846110ad565b9392505050565b60008115159050919050565b6114628161144d565b811461146d57600080fd5b50565b60008151905061147f81611459565b92915050565b60006020828403121561149b5761149a610e52565b5b60006114a984828501611470565b91505092915050565b6000819050919050565b6114c5816114b2565b81146114d057600080fd5b50565b6000815190506114e2816114bc565b92915050565b6000602082840312156114fe576114fd610e52565b5b600061150c848285016114d3565b91505092915050565b61151e816114b2565b82525050565b60006020820190506115396000830184611515565b92915050565b7f4f6e6c792063616c6c61626c65206279206f776e657200000000000000000000600082015250565b60006115756016836110f3565b91506115808261153f565b602082019050919050565b600060208201905081810360008301526115a481611568565b9050919050565b7f43616e6e6f74207472616e7366657220746f2073656c66000000000000000000600082015250565b60006115e16017836110f3565b91506115ec826115ab565b602082019050919050565b60006020820190508181036000830152611610816115d4565b9050919050565b7f5361666545524332303a204552433230206f7065726174696f6e20646964206e60008201527f6f74207375636365656400000000000000000000000000000000000000000000602082015250565b6000611673602a836110f3565b915061167e82611617565b604082019050919050565b600060208201905081810360008301526116a281611666565b9050919050565b7f416464726573733a20696e73756666696369656e742062616c616e636520666f60008201527f722063616c6c0000000000000000000000000000000000000000000000000000602082015250565b60006117056026836110f3565b9150611710826116a9565b604082019050919050565b60006020820190508181036000830152611734816116f8565b9050919050565b6000611746826111dd565b6117508185611067565b93506117608185602086016111f9565b80840191505092915050565b6000611778828461173b565b915081905092915050565b7f416464726573733a2063616c6c20746f206e6f6e2d636f6e7472616374000000600082015250565b60006117b9601d836110f3565b91506117c482611783565b602082019050919050565b600060208201905081810360008301526117e8816117ac565b9050919050565b600081519050919050565b6000611805826117ef565b61180f81856110f3565b935061181f8185602086016111f9565b61182881611223565b840191505092915050565b6000602082019050818103600083015261184d81846117fa565b90509291505056fea2646970667358221220034560283137fad9d54e5b137338a0796ab36e528f5688c498012c3816fbb43e64736f6c63430008130033","linkReferences":{}},"methodIdentifiers":{"acceptOwnership()":"79ba5097","mint(uint64,address,uint8)":"ec99afa2","owner()":"8da5cb5b","transferOwnership(address)":"f2fde38b","withdraw(address)":"51cff8d9","withdrawToken(address,address)":"3aeac4e1"},"id":57}