{"abi":[{"type":"constructor","inputs":[],"stateMutability":"nonpayable"},{"type":"function","name":"allowance","inputs":[{"name":"owner","type":"address","internalType":"address"},{"name":"spender","type":"address","internalType":"address"}],"outputs":[{"name":"","type":"uint256","internalType":"uint256"}],"stateMutability":"view"},{"type":"function","name":"approve","inputs":[{"name":"spender","type":"address","internalType":"address"},{"name":"amount","type":"uint256","internalType":"uint256"}],"outputs":[{"name":"","type":"bool","internalType":"bool"}],"stateMutability":"nonpayable"},{"type":"function","name":"balanceOf","inputs":[{"name":"account","type":"address","internalType":"address"}],"outputs":[{"name":"","type":"uint256","internalType":"uint256"}],"stateMutability":"view"},{"type":"function","name":"decimals","inputs":[],"outputs":[{"name":"","type":"uint8","internalType":"uint8"}],"stateMutability":"view"},{"type":"function","name":"decreaseAllowance","inputs":[{"name":"spender","type":"address","internalType":"address"},{"name":"subtractedValue","type":"uint256","internalType":"uint256"}],"outputs":[{"name":"","type":"bool","internalType":"bool"}],"stateMutability":"nonpayable"},{"type":"function","name":"increaseAllowance","inputs":[{"name":"spender","type":"address","internalType":"address"},{"name":"addedValue","type":"uint256","internalType":"uint256"}],"outputs":[{"name":"","type":"bool","internalType":"bool"}],"stateMutability":"nonpayable"},{"type":"function","name":"name","inputs":[],"outputs":[{"name":"","type":"string","internalType":"string"}],"stateMutability":"view"},{"type":"function","name":"symbol","inputs":[],"outputs":[{"name":"","type":"string","internalType":"string"}],"stateMutability":"view"},{"type":"function","name":"totalSupply","inputs":[],"outputs":[{"name":"","type":"uint256","internalType":"uint256"}],"stateMutability":"view"},{"type":"function","name":"transfer","inputs":[{"name":"to","type":"address","internalType":"address"},{"name":"amount","type":"uint256","internalType":"uint256"}],"outputs":[{"name":"","type":"bool","internalType":"bool"}],"stateMutability":"nonpayable"},{"type":"function","name":"transferAndCall","inputs":[{"name":"to","type":"address","internalType":"address"},{"name":"amount","type":"uint256","internalType":"uint256"},{"name":"data","type":"bytes","internalType":"bytes"}],"outputs":[{"name":"success","type":"bool","internalType":"bool"}],"stateMutability":"nonpayable"},{"type":"function","name":"transferFrom","inputs":[{"name":"from","type":"address","internalType":"address"},{"name":"to","type":"address","internalType":"address"},{"name":"amount","type":"uint256","internalType":"uint256"}],"outputs":[{"name":"","type":"bool","internalType":"bool"}],"stateMutability":"nonpayable"},{"type":"event","name":"Approval","inputs":[{"name":"owner","type":"address","indexed":true,"internalType":"address"},{"name":"spender","type":"address","indexed":true,"internalType":"address"},{"name":"value","type":"uint256","indexed":false,"internalType":"uint256"}],"anonymous":false},{"type":"event","name":"Transfer","inputs":[{"name":"from","type":"address","indexed":true,"internalType":"address"},{"name":"to","type":"address","indexed":true,"internalType":"address"},{"name":"value","type":"uint256","indexed":false,"internalType":"uint256"}],"anonymous":false},{"type":"event","name":"Transfer","inputs":[{"name":"from","type":"address","indexed":true,"internalType":"address"},{"name":"to","type":"address","indexed":true,"internalType":"address"},{"name":"value","type":"uint256","indexed":false,"internalType":"uint256"},{"name":"data","type":"bytes","indexed":false,"internalType":"bytes"}],"anonymous":false}],"bytecode":{"object":"0x60806040523480156200001157600080fd5b506040518060400160405280600f81526020017f436861696e4c696e6b20546f6b656e00000000000000000000000000000000008152506040518060400160405280600481526020017f4c494e4b0000000000000000000000000000000000000000000000000000000081525081818160039081620000919190620004cf565b508060049081620000a39190620004cf565b5050505050620000b8620000be60201b60201c565b620006d1565b620000dc336b033b2e3c9fd0803ce8000000620000de60201b60201c565b565b600073ffffffffffffffffffffffffffffffffffffffff168273ffffffffffffffffffffffffffffffffffffffff160362000150576040517f08c379a0000000000000000000000000000000000000000000000000000000008152600401620001479062000617565b60405180910390fd5b62000164600083836200024b60201b60201c565b806002600082825462000178919062000668565b92505081905550806000808473ffffffffffffffffffffffffffffffffffffffff1673ffffffffffffffffffffffffffffffffffffffff168152602001908152602001600020600082825401925050819055508173ffffffffffffffffffffffffffffffffffffffff16600073ffffffffffffffffffffffffffffffffffffffff167fddf252ad1be2c89b69c2b068fc378daa952ba7f163c4a11628f55a4df523b3ef836040516200022b9190620006b4565b60405180910390a362000247600083836200025060201b60201c565b5050565b505050565b505050565b600081519050919050565b7f4e487b7100000000000000000000000000000000000000000000000000000000600052604160045260246000fd5b7f4e487b7100000000000000000000000000000000000000000000000000000000600052602260045260246000fd5b60006002820490506001821680620002d757607f821691505b602082108103620002ed57620002ec6200028f565b5b50919050565b60008190508160005260206000209050919050565b60006020601f8301049050919050565b600082821b905092915050565b600060088302620003577fffffffffffffffffffffffffffffffffffffffffffffffffffffffffffffffff8262000318565b62000363868362000318565b95508019841693508086168417925050509392505050565b6000819050919050565b6000819050919050565b6000620003b0620003aa620003a4846200037b565b62000385565b6200037b565b9050919050565b6000819050919050565b620003cc836200038f565b620003e4620003db82620003b7565b84845462000325565b825550505050565b600090565b620003fb620003ec565b62000408818484620003c1565b505050565b5b81811015620004305762000424600082620003f1565b6001810190506200040e565b5050565b601f8211156200047f576200044981620002f3565b620004548462000308565b8101602085101562000464578190505b6200047c620004738562000308565b8301826200040d565b50505b505050565b600082821c905092915050565b6000620004a46000198460080262000484565b1980831691505092915050565b6000620004bf838362000491565b9150826002028217905092915050565b620004da8262000255565b67ffffffffffffffff811115620004f657620004f562000260565b5b620005028254620002be565b6200050f82828562000434565b600060209050601f83116001811462000547576000841562000532578287015190505b6200053e8582620004b1565b865550620005ae565b601f1984166200055786620002f3565b60005b8281101562000581578489015182556001820191506020850194506020810190506200055a565b86831015620005a157848901516200059d601f89168262000491565b8355505b6001600288020188555050505b505050505050565b600082825260208201905092915050565b7f45524332303a206d696e7420746f20746865207a65726f206164647265737300600082015250565b6000620005ff601f83620005b6565b91506200060c82620005c7565b602082019050919050565b600060208201905081810360008301526200063281620005f0565b9050919050565b7f4e487b7100000000000000000000000000000000000000000000000000000000600052601160045260246000fd5b600062000675826200037b565b915062000682836200037b565b92508282019050808211156200069d576200069c62000639565b5b92915050565b620006ae816200037b565b82525050565b6000602082019050620006cb6000830184620006a3565b92915050565b61162580620006e16000396000f3fe608060405234801561001057600080fd5b50600436106100b45760003560e01c80634000aea0116100715780634000aea0146101a357806370a08231146101d357806395d89b4114610203578063a457c2d714610221578063a9059cbb14610251578063dd62ed3e14610281576100b4565b806306fdde03146100b9578063095ea7b3146100d757806318160ddd1461010757806323b872dd14610125578063313ce567146101555780633950935114610173575b600080fd5b6100c16102b1565b6040516100ce9190610c7d565b60405180910390f35b6100f160048036038101906100ec9190610d47565b610343565b6040516100fe9190610da2565b60405180910390f35b61010f610366565b60405161011c9190610dcc565b60405180910390f35b61013f600480360381019061013a9190610de7565b610370565b60405161014c9190610da2565b60405180910390f35b61015d61039f565b60405161016a9190610e56565b60405180910390f35b61018d60048036038101906101889190610d47565b6103a8565b60405161019a9190610da2565b60405180910390f35b6101bd60048036038101906101b89190610fa6565b6103df565b6040516101ca9190610da2565b60405180910390f35b6101ed60048036038101906101e89190611015565b6104f2565b6040516101fa9190610dcc565b60405180910390f35b61020b61053a565b6040516102189190610c7d565b60405180910390f35b61023b60048036038101906102369190610d47565b6105cc565b6040516102489190610da2565b60405180910390f35b61026b60048036038101906102669190610d47565b610643565b6040516102789190610da2565b60405180910390f35b61029b60048036038101906102969190611042565b610666565b6040516102a89190610dcc565b60405180910390f35b6060600380546102c0906110b1565b80601f01602080910402602001604051908101604052809291908181526020018280546102ec906110b1565b80156103395780601f1061030e57610100808354040283529160200191610339565b820191906000526020600020905b81548152906001019060200180831161031c57829003601f168201915b5050505050905090565b60008061034e6106ed565b905061035b8185856106f5565b600191505092915050565b6000600254905090565b60008061037b6106ed565b90506103888582856108be565b61039385858561094a565b60019150509392505050565b60006012905090565b6000806103b36106ed565b90506103d48185856103c58589610666565b6103cf9190611111565b6106f5565b600191505092915050565b60006103eb8484610643565b508373ffffffffffffffffffffffffffffffffffffffff163373ffffffffffffffffffffffffffffffffffffffff167fe19260aff97b920c7df27010903aeb9c8d2be5d310a2c67824cf3f15396e4c16858560405161044b92919061119a565b60405180910390a36104728473ffffffffffffffffffffffffffffffffffffffff16610bc0565b156104e7578373ffffffffffffffffffffffffffffffffffffffff1663a4c0ed363385856040518463ffffffff1660e01b81526004016104b4939291906111d9565b600060405180830381600087803b1580156104ce57600080fd5b505af11580156104e2573d6000803e3d6000fd5b505050505b600190509392505050565b60008060008373ffffffffffffffffffffffffffffffffffffffff1673ffffffffffffffffffffffffffffffffffffffff168152602001908152602001600020549050919050565b606060048054610549906110b1565b80601f0160208091040260200160405190810160405280929190818152602001828054610575906110b1565b80156105c25780601f10610597576101008083540402835291602001916105c2565b820191906000526020600020905b8154815290600101906020018083116105a557829003601f168201915b5050505050905090565b6000806105d76106ed565b905060006105e58286610666565b90508381101561062a576040517f08c379a000000000000000000000000000000000000000000000000000000000815260040161062190611289565b60405180910390fd5b61063782868684036106f5565b60019250505092915050565b60008061064e6106ed565b905061065b81858561094a565b600191505092915050565b6000600160008473ffffffffffffffffffffffffffffffffffffffff1673ffffffffffffffffffffffffffffffffffffffff16815260200190815260200160002060008373ffffffffffffffffffffffffffffffffffffffff1673ffffffffffffffffffffffffffffffffffffffff16815260200190815260200160002054905092915050565b600033905090565b600073ffffffffffffffffffffffffffffffffffffffff168373ffffffffffffffffffffffffffffffffffffffff1603610764576040517f08c379a000000000000000000000000000000000000000000000000000000000815260040161075b9061131b565b60405180910390fd5b600073ffffffffffffffffffffffffffffffffffffffff168273ffffffffffffffffffffffffffffffffffffffff16036107d3576040517f08c379a00000000000000000000000000000000000000000000000000000000081526004016107ca906113ad565b60405180910390fd5b80600160008573ffffffffffffffffffffffffffffffffffffffff1673ffffffffffffffffffffffffffffffffffffffff16815260200190815260200160002060008473ffffffffffffffffffffffffffffffffffffffff1673ffffffffffffffffffffffffffffffffffffffff168152602001908152602001600020819055508173ffffffffffffffffffffffffffffffffffffffff168373ffffffffffffffffffffffffffffffffffffffff167f8c5be1e5ebec7d5bd14f71427d1e84f3dd0314c0f7b2291e5b200ac8c7c3b925836040516108b19190610dcc565b60405180910390a3505050565b60006108ca8484610666565b90507fffffffffffffffffffffffffffffffffffffffffffffffffffffffffffffffff81146109445781811015610936576040517f08c379a000000000000000000000000000000000000000000000000000000000815260040161092d90611419565b60405180910390fd5b61094384848484036106f5565b5b50505050565b600073ffffffffffffffffffffffffffffffffffffffff168373ffffffffffffffffffffffffffffffffffffffff16036109b9576040517f08c379a00000000000000000000000000000000000000000000000000000000081526004016109b0906114ab565b60405180910390fd5b600073ffffffffffffffffffffffffffffffffffffffff168273ffffffffffffffffffffffffffffffffffffffff1603610a28576040517f08c379a0000000000000000000000000000000000000000000000000000000008152600401610a1f9061153d565b60405180910390fd5b610a33838383610be3565b60008060008573ffffffffffffffffffffffffffffffffffffffff1673ffffffffffffffffffffffffffffffffffffffff16815260200190815260200160002054905081811015610ab9576040517f08c379a0000000000000000000000000000000000000000000000000000000008152600401610ab0906115cf565b60405180910390fd5b8181036000808673ffffffffffffffffffffffffffffffffffffffff1673ffffffffffffffffffffffffffffffffffffffff16815260200190815260200160002081905550816000808573ffffffffffffffffffffffffffffffffffffffff1673ffffffffffffffffffffffffffffffffffffffff168152602001908152602001600020600082825401925050819055508273ffffffffffffffffffffffffffffffffffffffff168473ffffffffffffffffffffffffffffffffffffffff167fddf252ad1be2c89b69c2b068fc378daa952ba7f163c4a11628f55a4df523b3ef84604051610ba79190610dcc565b60405180910390a3610bba848484610be8565b50505050565b6000808273ffffffffffffffffffffffffffffffffffffffff163b119050919050565b505050565b505050565b600081519050919050565b600082825260208201905092915050565b60005b83811015610c27578082015181840152602081019050610c0c565b60008484015250505050565b6000601f19601f8301169050919050565b6000610c4f82610bed565b610c598185610bf8565b9350610c69818560208601610c09565b610c7281610c33565b840191505092915050565b60006020820190508181036000830152610c978184610c44565b905092915050565b6000604051905090565b600080fd5b600080fd5b600073ffffffffffffffffffffffffffffffffffffffff82169050919050565b6000610cde82610cb3565b9050919050565b610cee81610cd3565b8114610cf957600080fd5b50565b600081359050610d0b81610ce5565b92915050565b6000819050919050565b610d2481610d11565b8114610d2f57600080fd5b50565b600081359050610d4181610d1b565b92915050565b60008060408385031215610d5e57610d5d610ca9565b5b6000610d6c85828601610cfc565b9250506020610d7d85828601610d32565b9150509250929050565b60008115159050919050565b610d9c81610d87565b82525050565b6000602082019050610db76000830184610d93565b92915050565b610dc681610d11565b82525050565b6000602082019050610de16000830184610dbd565b92915050565b600080600060608486031215610e0057610dff610ca9565b5b6000610e0e86828701610cfc565b9350506020610e1f86828701610cfc565b9250506040610e3086828701610d32565b9150509250925092565b600060ff82169050919050565b610e5081610e3a565b82525050565b6000602082019050610e6b6000830184610e47565b92915050565b600080fd5b600080fd5b7f4e487b7100000000000000000000000000000000000000000000000000000000600052604160045260246000fd5b610eb382610c33565b810181811067ffffffffffffffff82111715610ed257610ed1610e7b565b5b80604052505050565b6000610ee5610c9f565b9050610ef18282610eaa565b919050565b600067ffffffffffffffff821115610f1157610f10610e7b565b5b610f1a82610c33565b9050602081019050919050565b82818337600083830152505050565b6000610f49610f4484610ef6565b610edb565b905082815260208101848484011115610f6557610f64610e76565b5b610f70848285610f27565b509392505050565b600082601f830112610f8d57610f8c610e71565b5b8135610f9d848260208601610f36565b91505092915050565b600080600060608486031215610fbf57610fbe610ca9565b5b6000610fcd86828701610cfc565b9350506020610fde86828701610d32565b925050604084013567ffffffffffffffff811115610fff57610ffe610cae565b5b61100b86828701610f78565b9150509250925092565b60006020828403121561102b5761102a610ca9565b5b600061103984828501610cfc565b91505092915050565b6000806040838503121561105957611058610ca9565b5b600061106785828601610cfc565b925050602061107885828601610cfc565b9150509250929050565b7f4e487b7100000000000000000000000000000000000000000000000000000000600052602260045260246000fd5b600060028204905060018216806110c957607f821691505b6020821081036110dc576110db611082565b5b50919050565b7f4e487b7100000000000000000000000000000000000000000000000000000000600052601160045260246000fd5b600061111c82610d11565b915061112783610d11565b925082820190508082111561113f5761113e6110e2565b5b92915050565b600081519050919050565b600082825260208201905092915050565b600061116c82611145565b6111768185611150565b9350611186818560208601610c09565b61118f81610c33565b840191505092915050565b60006040820190506111af6000830185610dbd565b81810360208301526111c18184611161565b90509392505050565b6111d381610cd3565b82525050565b60006060820190506111ee60008301866111ca565b6111fb6020830185610dbd565b818103604083015261120d8184611161565b9050949350505050565b7f45524332303a2064656372656173656420616c6c6f77616e63652062656c6f7760008201527f207a65726f000000000000000000000000000000000000000000000000000000602082015250565b6000611273602583610bf8565b915061127e82611217565b604082019050919050565b600060208201905081810360008301526112a281611266565b9050919050565b7f45524332303a20617070726f76652066726f6d20746865207a65726f2061646460008201527f7265737300000000000000000000000000000000000000000000000000000000602082015250565b6000611305602483610bf8565b9150611310826112a9565b604082019050919050565b60006020820190508181036000830152611334816112f8565b9050919050565b7f45524332303a20617070726f766520746f20746865207a65726f20616464726560008201527f7373000000000000000000000000000000000000000000000000000000000000602082015250565b6000611397602283610bf8565b91506113a28261133b565b604082019050919050565b600060208201905081810360008301526113c68161138a565b9050919050565b7f45524332303a20696e73756666696369656e7420616c6c6f77616e6365000000600082015250565b6000611403601d83610bf8565b915061140e826113cd565b602082019050919050565b60006020820190508181036000830152611432816113f6565b9050919050565b7f45524332303a207472616e736665722066726f6d20746865207a65726f20616460008201527f6472657373000000000000000000000000000000000000000000000000000000602082015250565b6000611495602583610bf8565b91506114a082611439565b604082019050919050565b600060208201905081810360008301526114c481611488565b9050919050565b7f45524332303a207472616e7366657220746f20746865207a65726f206164647260008201527f6573730000000000000000000000000000000000000000000000000000000000602082015250565b6000611527602383610bf8565b9150611532826114cb565b604082019050919050565b600060208201905081810360008301526115568161151a565b9050919050565b7f45524332303a207472616e7366657220616d6f756e742065786365656473206260008201527f616c616e63650000000000000000000000000000000000000000000000000000602082015250565b60006115b9602683610bf8565b91506115c48261155d565b604082019050919050565b600060208201905081810360008301526115e8816115ac565b905091905056fea2646970667358221220c0cb9735a4a18b6c008ebbc54bbd1e07d3f1a5977eb4813934bbf8f6ac54803664736f6c63430008130033","linkReferences":{}},"methodIdentifiers":{"allowance(address,address)":"dd62ed3e","approve(address,uint256)":"095ea7b3","balanceOf(address)":"70a08231","decimals()":"313ce567","decreaseAllowance(address,uint256)":"a457c2d7","increaseAllowance(address,uint256)":"39509351","name()":"06fdde03","symbol()":"95d89b41","totalSupply()":"18160ddd","transfer(address,uint256)":"a9059cbb","transferAndCall(address,uint256,bytes)":"4000aea0","transferFrom(address,address,uint256)":"23b872dd"},"id":72}