{"abi":[{"type":"constructor","inputs":[{"name":"_stableToken","type":"address","internalType":"address"},{"name":"_priceFeed","type":"address","internalType":"address"}],"stateMutability":"nonpayable"},{"type":"receive","stateMutability":"payable"},{"type":"function","name":"LIQUIDATION_THRESHOLD","inputs":[],"outputs":[{"name":"","type":"uint256","internalType":"uint256"}],"stateMutability":"view"},{"type":"function","name":"MAX_LTV","inputs":[],"outputs":[{"name":"","type":"uint256","internalType":"uint256"}],"stateMutability":"view"},{"type":"function","name":"PRECISION","inputs":[],"outputs":[{"name":"","type":"uint256","internalType":"uint256"}],"stateMutability":"view"},{"type":"function","name":"borrow","inputs":[{"name":"amount","type":"uint256","internalType":"uint256"}],"outputs":[],"stateMutability":"nonpayable"},{"type":"function","name":"deposit","inputs":[],"outputs":[],"stateMutability":"payable"},{"type":"function","name":"ethUsdPriceFeed","inputs":[],"outputs":[{"name":"","type":"address","internalType":"contract AggregatorV3Interface"}],"stateMutability":"view"},{"type":"function","name":"getLTV","inputs":[{"name":"user","type":"address","internalType":"address"}],"outputs":[{"name":"","type":"uint256","internalType":"uint256"}],"stateMutability":"view"},{"type":"function","name":"liquidate","inputs":[{"name":"user","type":"address","internalType":"address"}],"outputs":[],"stateMutability":"nonpayable"},{"type":"function","name":"owner","inputs":[],"outputs":[{"name":"","type":"address","internalType":"address"}],"stateMutability":"view"},{"type":"function","name":"positions","inputs":[{"name":"","type":"address","internalType":"address"}],"outputs":[{"name":"collateralETH","type":"uint256","internalType":"uint256"},{"name":"debt","type":"uint256","internalType":"uint256"}],"stateMutability":"view"},{"type":"function","name":"renounceOwnership","inputs":[],"outputs":[],"stateMutability":"nonpayable"},{"type":"function","name":"repay","inputs":[{"name":"amount","type":"uint256","internalType":"uint256"}],"outputs":[],"stateMutability":"nonpayable"},{"type":"function","name":"stableToken","inputs":[],"outputs":[{"name":"","type":"address","internalType":"contract IERC20"}],"stateMutability":"view"},{"type":"function","name":"transferOwnership","inputs":[{"name":"newOwner","type":"address","internalType":"address"}],"outputs":[],"stateMutability":"nonpayable"},{"type":"function","name":"withdraw","inputs":[{"name":"amount","type":"uint256","internalType":"uint256"}],"outputs":[],"stateMutability":"nonpayable"},{"type":"event","name":"Borrowed","inputs":[{"name":"user","type":"address","indexed":true,"internalType":"address"},{"name":"amount","type":"uint256","indexed":false,"internalType":"uint256"}],"anonymous":false},{"type":"event","name":"Deposited","inputs":[{"name":"user","type":"address","indexed":true,"internalType":"address"},{"name":"amount","type":"uint256","indexed":false,"internalType":"uint256"}],"anonymous":false},{"type":"event","name":"Liquidated","inputs":[{"name":"user","type":"address","indexed":true,"internalType":"address"}],"anonymous":false},{"type":"event","name":"OwnershipTransferred","inputs":[{"name":"previousOwner","type":"address","indexed":true,"internalType":"address"},{"name":"newOwner","type":"address","indexed":true,"internalType":"address"}],"anonymous":false},{"type":"event","name":"Repaid","inputs":[{"name":"user","type":"address","indexed":true,"internalType":"address"},{"name":"amount","type":"uint256","indexed":false,"internalType":"uint256"}],"anonymous":false},{"type":"event","name":"Withdrawn","inputs":[{"name":"user","type":"address","indexed":true,"internalType":"address"},{"name":"amount","type":"uint256","indexed":false,"internalType":"uint256"}],"anonymous":false}],"bytecode":{"object":"0x60806040523480156200001157600080fd5b5060405162001e0738038062001e0783398181016040528101906200003791906200021e565b620000576200004b620000e860201b60201c565b620000f060201b60201c565b6001808190555081600260006101000a81548173ffffffffffffffffffffffffffffffffffffffff021916908373ffffffffffffffffffffffffffffffffffffffff16021790555080600360006101000a81548173ffffffffffffffffffffffffffffffffffffffff021916908373ffffffffffffffffffffffffffffffffffffffff160217905550505062000265565b600033905090565b60008060009054906101000a900473ffffffffffffffffffffffffffffffffffffffff169050816000806101000a81548173ffffffffffffffffffffffffffffffffffffffff021916908373ffffffffffffffffffffffffffffffffffffffff1602179055508173ffffffffffffffffffffffffffffffffffffffff168173ffffffffffffffffffffffffffffffffffffffff167f8be0079c531659141344cd1fd0a4f28419497f9722a3daafe3b4186f6b6457e060405160405180910390a35050565b600080fd5b600073ffffffffffffffffffffffffffffffffffffffff82169050919050565b6000620001e682620001b9565b9050919050565b620001f881620001d9565b81146200020457600080fd5b50565b6000815190506200021881620001ed565b92915050565b60008060408385031215620002385762000237620001b4565b5b6000620002488582860162000207565b92505060206200025b8582860162000207565b9150509250929050565b611b9280620002756000396000f3fe6080604052600436106100ec5760003560e01c80638da5cb5b1161008a578063aca25f9a11610059578063aca25f9a146102d2578063c5ebeaec1461030f578063d0e30db014610338578063f2fde38b14610342576100fb565b80638da5cb5b1461022657806390a8ae9b14610251578063a9d75b2b1461027c578063aaf5eb68146102a7576100fb565b806342f6fb29116100c657806342f6fb291461017b57806355f57510146101a6578063715018a6146101e457806381bf8d3d146101fb576100fb565b80632e1a7d4d146101005780632f86556814610129578063371fd8e614610152576100fb565b366100fb576100f961036b565b005b600080fd5b34801561010c57600080fd5b5061012760048036038101906101229190611124565b610467565b005b34801561013557600080fd5b50610150600480360381019061014b91906111af565b610669565b005b34801561015e57600080fd5b5061017960048036038101906101749190611124565b6107f3565b005b34801561018757600080fd5b506101906109d7565b60405161019d919061123b565b60405180910390f35b3480156101b257600080fd5b506101cd60048036038101906101c891906111af565b6109fd565b6040516101db929190611265565b60405180910390f35b3480156101f057600080fd5b506101f9610a21565b005b34801561020757600080fd5b50610210610a35565b60405161021d919061128e565b60405180910390f35b34801561023257600080fd5b5061023b610a3a565b60405161024891906112b8565b60405180910390f35b34801561025d57600080fd5b50610266610a63565b604051610273919061128e565b60405180910390f35b34801561028857600080fd5b50610291610a68565b60405161029e91906112f4565b60405180910390f35b3480156102b357600080fd5b506102bc610a8e565b6040516102c9919061128e565b60405180910390f35b3480156102de57600080fd5b506102f960048036038101906102f491906111af565b610a9a565b604051610306919061128e565b60405180910390f35b34801561031b57600080fd5b5061033660048036038101906103319190611124565b610b69565b005b61034061036b565b005b34801561034e57600080fd5b50610369600480360381019061036491906111af565b610de0565b005b610373610e63565b600034116103b6576040517f08c379a00000000000000000000000000000000000000000000000000000000081526004016103ad9061136c565b60405180910390fd5b34600460003373ffffffffffffffffffffffffffffffffffffffff1673ffffffffffffffffffffffffffffffffffffffff168152602001908152602001600020600001600082825461040891906113bb565b925050819055503373ffffffffffffffffffffffffffffffffffffffff167f2da466a7b24304f47e87fa2e1e5a81b9831ce54fec19055ce277ca2f39ba42c434604051610455919061128e565b60405180910390a2610465610eb2565b565b61046f610e63565b6000600460003373ffffffffffffffffffffffffffffffffffffffff1673ffffffffffffffffffffffffffffffffffffffff16815260200190815260200160002090506000821180156104c6575081816000015410155b610505576040517f08c379a00000000000000000000000000000000000000000000000000000000081526004016104fc9061143b565b60405180910390fd5b600061050f610ebb565b90506000838360000154610523919061145b565b905060006305f5e1008383610538919061148f565b6105429190611500565b9050600080856001015411610558576000610575565b816064866001015461056a919061148f565b6105749190611500565b5b905060328111156105bb576040517f08c379a00000000000000000000000000000000000000000000000000000000081526004016105b29061157d565b60405180910390fd5b8285600001819055503373ffffffffffffffffffffffffffffffffffffffff166108fc879081150290604051600060405180830381858888f1935050505015801561060a573d6000803e3d6000fd5b503373ffffffffffffffffffffffffffffffffffffffff167f7084f5476618d8e60b11ef0d7d3f06914655adb8793e28ff7f018d4c76d505d587604051610651919061128e565b60405180910390a25050505050610666610eb2565b50565b610671610e63565b6000600460008373ffffffffffffffffffffffffffffffffffffffff1673ffffffffffffffffffffffffffffffffffffffff168152602001908152602001600020905060008160010154116106fb576040517f08c379a00000000000000000000000000000000000000000000000000000000081526004016106f2906115e9565b60405180910390fd5b6000610705610ebb565b905060006305f5e10082846000015461071e919061148f565b6107289190611500565b90506000816064856001015461073e919061148f565b6107489190611500565b9050604b811161078d576040517f08c379a000000000000000000000000000000000000000000000000000000000815260040161078490611655565b60405180910390fd5b60008460000181905550600084600101819055508473ffffffffffffffffffffffffffffffffffffffff167f1e1ef858062a7196d1891e397a5cde9891e6ddf61a81e9d269a3aaa7a95dacd860405160405180910390a2505050506107f0610eb2565b50565b6107fb610e63565b6000811161083e576040517f08c379a00000000000000000000000000000000000000000000000000000000081526004016108359061143b565b60405180910390fd5b600260009054906101000a900473ffffffffffffffffffffffffffffffffffffffff1673ffffffffffffffffffffffffffffffffffffffff166323b872dd3330846040518463ffffffff1660e01b815260040161089d93929190611675565b6020604051808303816000875af11580156108bc573d6000803e3d6000fd5b505050506040513d601f19601f820116820180604052508101906108e091906116e4565b61091f576040517f08c379a00000000000000000000000000000000000000000000000000000000081526004016109169061175d565b60405180910390fd5b6000600460003373ffffffffffffffffffffffffffffffffffffffff1673ffffffffffffffffffffffffffffffffffffffff168152602001908152602001600020905081816001016000828254610976919061145b565b925050819055503373ffffffffffffffffffffffffffffffffffffffff167f0516911bcc3a0a7412a44601057c0a0a1ec628bde049a84284bc428866534488836040516109c3919061128e565b60405180910390a2506109d4610eb2565b50565b600360009054906101000a900473ffffffffffffffffffffffffffffffffffffffff1681565b60046020528060005260406000206000915090508060000154908060010154905082565b610a29610f9f565b610a33600061101d565b565b603281565b60008060009054906101000a900473ffffffffffffffffffffffffffffffffffffffff16905090565b604b81565b600260009054906101000a900473ffffffffffffffffffffffffffffffffffffffff1681565b670de0b6b3a764000081565b600080600460008473ffffffffffffffffffffffffffffffffffffffff1673ffffffffffffffffffffffffffffffffffffffff1681526020019081526020016000206040518060400160405290816000820154815260200160018201548152505090506000816020015103610b13576000915050610b64565b6000610b1d610ebb565b905060006305f5e100828460000151610b36919061148f565b610b409190611500565b90508060648460200151610b54919061148f565b610b5e9190611500565b93505050505b919050565b610b71610e63565b60008111610bb4576040517f08c379a0000000000000000000000000000000000000000000000000000000008152600401610bab9061143b565b60405180910390fd5b6000600460003373ffffffffffffffffffffffffffffffffffffffff1673ffffffffffffffffffffffffffffffffffffffff16815260200190815260200160002090506000610c01610ebb565b905060006305f5e100828460000154610c1a919061148f565b610c249190611500565b90506000848460010154610c3891906113bb565b9050600082606483610c4a919061148f565b610c549190611500565b90506032811115610c9a576040517f08c379a0000000000000000000000000000000000000000000000000000000008152600401610c91906117c9565b60405180910390fd5b818560010181905550600260009054906101000a900473ffffffffffffffffffffffffffffffffffffffff1673ffffffffffffffffffffffffffffffffffffffff1663a9059cbb33886040518363ffffffff1660e01b8152600401610d009291906117e9565b6020604051808303816000875af1158015610d1f573d6000803e3d6000fd5b505050506040513d601f19601f82011682018060405250810190610d4391906116e4565b610d82576040517f08c379a0000000000000000000000000000000000000000000000000000000008152600401610d799061185e565b60405180910390fd5b3373ffffffffffffffffffffffffffffffffffffffff167fac59582e5396aca512fa873a2047e7f4c80f8f55d4a06cb34a78a0187f62719f87604051610dc8919061128e565b60405180910390a25050505050610ddd610eb2565b50565b610de8610f9f565b600073ffffffffffffffffffffffffffffffffffffffff168173ffffffffffffffffffffffffffffffffffffffff1603610e57576040517f08c379a0000000000000000000000000000000000000000000000000000000008152600401610e4e906118f0565b60405180910390fd5b610e608161101d565b50565b600260015403610ea8576040517f08c379a0000000000000000000000000000000000000000000000000000000008152600401610e9f9061195c565b60405180910390fd5b6002600181905550565b60018081905550565b600080600360009054906101000a900473ffffffffffffffffffffffffffffffffffffffff1673ffffffffffffffffffffffffffffffffffffffff1663feaf968c6040518163ffffffff1660e01b815260040160a060405180830381865afa158015610f2b573d6000803e3d6000fd5b505050506040513d601f19601f82011682018060405250810190610f4f9190611a09565b50505091505060008113610f98576040517f08c379a0000000000000000000000000000000000000000000000000000000008152600401610f8f90611ad0565b60405180910390fd5b8091505090565b610fa76110e1565b73ffffffffffffffffffffffffffffffffffffffff16610fc5610a3a565b73ffffffffffffffffffffffffffffffffffffffff161461101b576040517f08c379a000000000000000000000000000000000000000000000000000000000815260040161101290611b3c565b60405180910390fd5b565b60008060009054906101000a900473ffffffffffffffffffffffffffffffffffffffff169050816000806101000a81548173ffffffffffffffffffffffffffffffffffffffff021916908373ffffffffffffffffffffffffffffffffffffffff1602179055508173ffffffffffffffffffffffffffffffffffffffff168173ffffffffffffffffffffffffffffffffffffffff167f8be0079c531659141344cd1fd0a4f28419497f9722a3daafe3b4186f6b6457e060405160405180910390a35050565b600033905090565b600080fd5b6000819050919050565b611101816110ee565b811461110c57600080fd5b50565b60008135905061111e816110f8565b92915050565b60006020828403121561113a576111396110e9565b5b60006111488482850161110f565b91505092915050565b600073ffffffffffffffffffffffffffffffffffffffff82169050919050565b600061117c82611151565b9050919050565b61118c81611171565b811461119757600080fd5b50565b6000813590506111a981611183565b92915050565b6000602082840312156111c5576111c46110e9565b5b60006111d38482850161119a565b91505092915050565b6000819050919050565b60006112016111fc6111f784611151565b6111dc565b611151565b9050919050565b6000611213826111e6565b9050919050565b600061122582611208565b9050919050565b6112358161121a565b82525050565b6000602082019050611250600083018461122c565b92915050565b61125f816110ee565b82525050565b600060408201905061127a6000830185611256565b6112876020830184611256565b9392505050565b60006020820190506112a36000830184611256565b92915050565b6112b281611171565b82525050565b60006020820190506112cd60008301846112a9565b92915050565b60006112de82611208565b9050919050565b6112ee816112d3565b82525050565b600060208201905061130960008301846112e5565b92915050565b600082825260208201905092915050565b7f4e6f204554482073656e74000000000000000000000000000000000000000000600082015250565b6000611356600b8361130f565b915061136182611320565b602082019050919050565b6000602082019050818103600083015261138581611349565b9050919050565b7f4e487b7100000000000000000000000000000000000000000000000000000000600052601160045260246000fd5b60006113c6826110ee565b91506113d1836110ee565b92508282019050808211156113e9576113e861138c565b5b92915050565b7f496e76616c696420616d6f756e74000000000000000000000000000000000000600082015250565b6000611425600e8361130f565b9150611430826113ef565b602082019050919050565b6000602082019050818103600083015261145481611418565b9050919050565b6000611466826110ee565b9150611471836110ee565b92508282039050818111156114895761148861138c565b5b92915050565b600061149a826110ee565b91506114a5836110ee565b92508282026114b3816110ee565b915082820484148315176114ca576114c961138c565b5b5092915050565b7f4e487b7100000000000000000000000000000000000000000000000000000000600052601260045260246000fd5b600061150b826110ee565b9150611516836110ee565b925082611526576115256114d1565b5b828204905092915050565b7f576f756c6420657863656564204c545600000000000000000000000000000000600082015250565b600061156760108361130f565b915061157282611531565b602082019050919050565b600060208201905081810360008301526115968161155a565b9050919050565b7f4e6f206465627400000000000000000000000000000000000000000000000000600082015250565b60006115d360078361130f565b91506115de8261159d565b602082019050919050565b60006020820190508181036000830152611602816115c6565b9050919050565b7f4e6f74206c6971756964617461626c6500000000000000000000000000000000600082015250565b600061163f60108361130f565b915061164a82611609565b602082019050919050565b6000602082019050818103600083015261166e81611632565b9050919050565b600060608201905061168a60008301866112a9565b61169760208301856112a9565b6116a46040830184611256565b949350505050565b60008115159050919050565b6116c1816116ac565b81146116cc57600080fd5b50565b6000815190506116de816116b8565b92915050565b6000602082840312156116fa576116f96110e9565b5b6000611708848285016116cf565b91505092915050565b7f52657061796d656e74206661696c656400000000000000000000000000000000600082015250565b600061174760108361130f565b915061175282611711565b602082019050919050565b600060208201905081810360008301526117768161173a565b9050919050565b7f45786365656473204c5456000000000000000000000000000000000000000000600082015250565b60006117b3600b8361130f565b91506117be8261177d565b602082019050919050565b600060208201905081810360008301526117e2816117a6565b9050919050565b60006040820190506117fe60008301856112a9565b61180b6020830184611256565b9392505050565b7f546f6b656e207472616e73666572206661696c65640000000000000000000000600082015250565b600061184860158361130f565b915061185382611812565b602082019050919050565b600060208201905081810360008301526118778161183b565b9050919050565b7f4f776e61626c653a206e6577206f776e657220697320746865207a65726f206160008201527f6464726573730000000000000000000000000000000000000000000000000000602082015250565b60006118da60268361130f565b91506118e58261187e565b604082019050919050565b60006020820190508181036000830152611909816118cd565b9050919050565b7f5265656e7472616e637947756172643a207265656e7472616e742063616c6c00600082015250565b6000611946601f8361130f565b915061195182611910565b602082019050919050565b6000602082019050818103600083015261197581611939565b9050919050565b600069ffffffffffffffffffff82169050919050565b61199b8161197c565b81146119a657600080fd5b50565b6000815190506119b881611992565b92915050565b6000819050919050565b6119d1816119be565b81146119dc57600080fd5b50565b6000815190506119ee816119c8565b92915050565b600081519050611a03816110f8565b92915050565b600080600080600060a08688031215611a2557611a246110e9565b5b6000611a33888289016119a9565b9550506020611a44888289016119df565b9450506040611a55888289016119f4565b9350506060611a66888289016119f4565b9250506080611a77888289016119a9565b9150509295509295909350565b7f496e76616c696420707269636500000000000000000000000000000000000000600082015250565b6000611aba600d8361130f565b9150611ac582611a84565b602082019050919050565b60006020820190508181036000830152611ae981611aad565b9050919050565b7f4f776e61626c653a2063616c6c6572206973206e6f7420746865206f776e6572600082015250565b6000611b2660208361130f565b9150611b3182611af0565b602082019050919050565b60006020820190508181036000830152611b5581611b19565b905091905056fea2646970667358221220058d3aebd27583b6f03b504464864ef1f307d49a67d5b1ba8638c58aa0bec22564736f6c63430008130033","linkReferences":{}},"methodIdentifiers":{"LIQUIDATION_THRESHOLD()":"90a8ae9b","MAX_LTV()":"81bf8d3d","PRECISION()":"aaf5eb68","borrow(uint256)":"c5ebeaec","deposit()":"d0e30db0","ethUsdPriceFeed()":"42f6fb29","getLTV(address)":"aca25f9a","liquidate(address)":"2f865568","owner()":"8da5cb5b","positions(address)":"55f57510","renounceOwnership()":"715018a6","repay(uint256)":"371fd8e6","stableToken()":"a9d75b2b","transferOwnership(address)":"f2fde38b","withdraw(uint256)":"2e1a7d4d"},"id":29}