{"abi":[{"type":"constructor","inputs":[],"stateMutability":"nonpayable"},{"type":"function","name":"configuration","inputs":[],"outputs":[{"name":"chainSelector_","type":"uint64","internalType":"uint64"},{"name":"sourceRouter_","type":"address","internalType":"contract IRouterClient"},{"name":"destinationRouter_","type":"address","internalType":"contract IRouterClient"},{"name":"wrappedNative_","type":"address","internalType":"contract WETH9"},{"name":"linkToken_","type":"address","internalType":"contract LinkToken"},{"name":"ccipBnM_","type":"address","internalType":"contract BurnMintERC677Helper"},{"name":"ccipLnM_","type":"address","internalType":"contract BurnMintERC677Helper"}],"stateMutability":"view"},{"type":"function","name":"getSupportedTokens","inputs":[{"name":"chainSelector","type":"uint64","internalType":"uint64"}],"outputs":[{"name":"tokens","type":"address[]","internalType":"address[]"}],"stateMutability":"view"},{"type":"function","name":"isChainSupported","inputs":[{"name":"chainSelector","type":"uint64","internalType":"uint64"}],"outputs":[{"name":"supported","type":"bool","internalType":"bool"}],"stateMutability":"pure"},{"type":"function","name":"requestLinkFromFaucet","inputs":[{"name":"to","type":"address","internalType":"address"},{"name":"amount","type":"uint256","internalType":"uint256"}],"outputs":[{"name":"success","type":"bool","internalType":"bool"}],"stateMutability":"nonpayable"},{"type":"function","name":"supportNewToken","inputs":[{"name":"tokenAddress","type":"address","internalType":"address"}],"outputs":[],"stateMutability":"nonpayable"}],"bytecode":{"object":"0x6101206040523480156200001257600080fd5b506040516200002190620002d5565b604051809103906000f0801580156200003e573d6000803e3d6000fd5b5073ffffffffffffffffffffffffffffffffffffffff1660808173ffffffffffffffffffffffffffffffffffffffff16815250506040516200008090620002e3565b604051809103906000f0801580156200009d573d6000803e3d6000fd5b5073ffffffffffffffffffffffffffffffffffffffff1660a08173ffffffffffffffffffffffffffffffffffffffff1681525050604051620000df90620002f1565b620000ea906200036e565b604051809103906000f08015801562000107573d6000803e3d6000fd5b5073ffffffffffffffffffffffffffffffffffffffff1660c08173ffffffffffffffffffffffffffffffffffffffff16815250506040516200014990620002f1565b6200015490620003f5565b604051809103906000f08015801562000171573d6000803e3d6000fd5b5073ffffffffffffffffffffffffffffffffffffffff1660e08173ffffffffffffffffffffffffffffffffffffffff1681525050604051620001b390620002ff565b604051809103906000f080158015620001d0573d6000803e3d6000fd5b5073ffffffffffffffffffffffffffffffffffffffff166101008173ffffffffffffffffffffffffffffffffffffffff1681525050600060c0519080600181540180825580915050600190039060005260206000200160009091909190916101000a81548173ffffffffffffffffffffffffffffffffffffffff021916908373ffffffffffffffffffffffffffffffffffffffff160217905550600060e0519080600181540180825580915050600190039060005260206000200160009091909190916101000a81548173ffffffffffffffffffffffffffffffffffffffff021916908373ffffffffffffffffffffffffffffffffffffffff1602179055506200042c565b6112ee8062000da183390190565b611d06806200208f83390190565b6138ab8062003d9583390190565b61258b806200764083390190565b600082825260208201905092915050565b7f434349502d426e4d000000000000000000000000000000000000000000000000600082015250565b6000620003566008836200030d565b915062000363826200031e565b602082019050919050565b60006040820190508181036000830152620003898162000347565b905081810360208301526200039e8162000347565b9050919050565b7f434349502d4c6e4d000000000000000000000000000000000000000000000000600082015250565b6000620003dd6008836200030d565b9150620003ea82620003a5565b602082019050919050565b600060408201905081810360008301526200041081620003ce565b905081810360208301526200042581620003ce565b9050919050565b60805160a05160c05160e051610100516109226200047f600039600081816101ea015261020b0152600061028f0152600061026e015260008181610130015261024d0152600061022c01526109226000f3fe608060405234801561001057600080fd5b50600436106100575760003560e01c8063657b9a4e1461005c5780636c70bee91461008c578063a48a9058146100b0578063cf838140146100e0578063fbca3b74146100fc575b600080fd5b610076600480360381019061007191906104db565b61012c565b6040516100839190610536565b60405180910390f35b6100946101d4565b6040516100a79796959493929190610648565b60405180910390f35b6100ca60048036038101906100c591906106e3565b6102c5565b6040516100d79190610536565b60405180910390f35b6100fa60048036038101906100f59190610710565b6102ed565b005b610116600480360381019061011191906106e3565b610353565b60405161012391906107fb565b60405180910390f35b60007f000000000000000000000000000000000000000000000000000000000000000073ffffffffffffffffffffffffffffffffffffffff1663a9059cbb84846040518363ffffffff1660e01b815260040161018992919061083b565b6020604051808303816000875af11580156101a8573d6000803e3d6000fd5b505050506040513d601f19601f820116820180604052508101906101cc9190610890565b905092915050565b600080600080600080600067de41ba4fc9d91ad97f00000000000000000000000000000000000000000000000000000000000000007f00000000000000000000000000000000000000000000000000000000000000007f00000000000000000000000000000000000000000000000000000000000000007f00000000000000000000000000000000000000000000000000000000000000007f00000000000000000000000000000000000000000000000000000000000000007f0000000000000000000000000000000000000000000000000000000000000000965096509650965096509650965090919293949596565b600067de41ba4fc9d91ad967ffffffffffffffff168267ffffffffffffffff16149050919050565b6000819080600181540180825580915050600190039060005260206000200160009091909190916101000a81548173ffffffffffffffffffffffffffffffffffffffff021916908373ffffffffffffffffffffffffffffffffffffffff16021790555050565b606061035e826102c5565b6103b357600067ffffffffffffffff81111561037d5761037c6108bd565b5b6040519080825280602002602001820160405280156103ab5781602001602082028036833780820191505090505b50905061043d565b600080548060200260200160405190810160405280929190818152602001828054801561043557602002820191906000526020600020905b8160009054906101000a900473ffffffffffffffffffffffffffffffffffffffff1673ffffffffffffffffffffffffffffffffffffffff16815260200190600101908083116103eb575b505050505090505b919050565b600080fd5b600073ffffffffffffffffffffffffffffffffffffffff82169050919050565b600061047282610447565b9050919050565b61048281610467565b811461048d57600080fd5b50565b60008135905061049f81610479565b92915050565b6000819050919050565b6104b8816104a5565b81146104c357600080fd5b50565b6000813590506104d5816104af565b92915050565b600080604083850312156104f2576104f1610442565b5b600061050085828601610490565b9250506020610511858286016104c6565b9150509250929050565b60008115159050919050565b6105308161051b565b82525050565b600060208201905061054b6000830184610527565b92915050565b600067ffffffffffffffff82169050919050565b61056e81610551565b82525050565b6000819050919050565b600061059961059461058f84610447565b610574565b610447565b9050919050565b60006105ab8261057e565b9050919050565b60006105bd826105a0565b9050919050565b6105cd816105b2565b82525050565b60006105de8261057e565b9050919050565b60006105f0826105d3565b9050919050565b610600816105e5565b82525050565b6000610611826105a0565b9050919050565b61062181610606565b82525050565b6000610632826105a0565b9050919050565b61064281610627565b82525050565b600060e08201905061065d600083018a610565565b61066a60208301896105c4565b61067760408301886105c4565b61068460608301876105f7565b6106916080830186610618565b61069e60a0830185610639565b6106ab60c0830184610639565b98975050505050505050565b6106c081610551565b81146106cb57600080fd5b50565b6000813590506106dd816106b7565b92915050565b6000602082840312156106f9576106f8610442565b5b6000610707848285016106ce565b91505092915050565b60006020828403121561072657610725610442565b5b600061073484828501610490565b91505092915050565b600081519050919050565b600082825260208201905092915050565b6000819050602082019050919050565b61077281610467565b82525050565b60006107848383610769565b60208301905092915050565b6000602082019050919050565b60006107a88261073d565b6107b28185610748565b93506107bd83610759565b8060005b838110156107ee5781516107d58882610778565b97506107e083610790565b9250506001810190506107c1565b5085935050505092915050565b60006020820190508181036000830152610815818461079d565b905092915050565b61082681610467565b82525050565b610835816104a5565b82525050565b6000604082019050610850600083018561081d565b61085d602083018461082c565b9392505050565b61086d8161051b565b811461087857600080fd5b50565b60008151905061088a81610864565b92915050565b6000602082840312156108a6576108a5610442565b5b60006108b48482850161087b565b91505092915050565b7f4e487b7100000000000000000000000000000000000000000000000000000000600052604160045260246000fdfea2646970667358221220a49b9281caea3a52dc9701392421df0ce8e86108a71e32b21fa408ff630d60e064736f6c6343000813003360806040526040518060400160405280600d81526020017f5772617070656420457468657200000000000000000000000000000000000000815250600090816200004a91906200033c565b506040518060400160405280600481526020017f5745544800000000000000000000000000000000000000000000000000000000815250600190816200009191906200033c565b506012600260006101000a81548160ff021916908360ff160217905550348015620000bb57600080fd5b5062000423565b600081519050919050565b7f4e487b7100000000000000000000000000000000000000000000000000000000600052604160045260246000fd5b7f4e487b7100000000000000000000000000000000000000000000000000000000600052602260045260246000fd5b600060028204905060018216806200014457607f821691505b6020821081036200015a5762000159620000fc565b5b50919050565b60008190508160005260206000209050919050565b60006020601f8301049050919050565b600082821b905092915050565b600060088302620001c47fffffffffffffffffffffffffffffffffffffffffffffffffffffffffffffffff8262000185565b620001d0868362000185565b95508019841693508086168417925050509392505050565b6000819050919050565b6000819050919050565b60006200021d620002176200021184620001e8565b620001f2565b620001e8565b9050919050565b6000819050919050565b6200023983620001fc565b62000251620002488262000224565b84845462000192565b825550505050565b600090565b6200026862000259565b620002758184846200022e565b505050565b5b818110156200029d57620002916000826200025e565b6001810190506200027b565b5050565b601f821115620002ec57620002b68162000160565b620002c18462000175565b81016020851015620002d1578190505b620002e9620002e08562000175565b8301826200027a565b50505b505050565b600082821c905092915050565b60006200031160001984600802620002f1565b1980831691505092915050565b60006200032c8383620002fe565b9150826002028217905092915050565b6200034782620000c2565b67ffffffffffffffff811115620003635762000362620000cd565b5b6200036f82546200012b565b6200037c828285620002a1565b600060209050601f831160018114620003b457600084156200039f578287015190505b620003ab85826200031e565b8655506200041b565b601f198416620003c48662000160565b60005b82811015620003ee57848901518255600182019150602085019450602081019050620003c7565b868310156200040e57848901516200040a601f891682620002fe565b8355505b6001600288020188555050505b505050505050565b610ebb80620004336000396000f3fe6080604052600436106100a05760003560e01c8063313ce56711610064578063313ce567146101ad57806370a08231146101d857806395d89b4114610215578063a9059cbb14610240578063d0e30db01461027d578063dd62ed3e14610287576100af565b806306fdde03146100b4578063095ea7b3146100df57806318160ddd1461011c57806323b872dd146101475780632e1a7d4d14610184576100af565b366100af576100ad6102c4565b005b600080fd5b3480156100c057600080fd5b506100c961036a565b6040516100d69190610b0f565b60405180910390f35b3480156100eb57600080fd5b5061010660048036038101906101019190610bca565b6103f8565b6040516101139190610c25565b60405180910390f35b34801561012857600080fd5b506101316104ea565b60405161013e9190610c4f565b60405180910390f35b34801561015357600080fd5b5061016e60048036038101906101699190610c6a565b6104f2565b60405161017b9190610c25565b60405180910390f35b34801561019057600080fd5b506101ab60048036038101906101a69190610cbd565b610848565b005b3480156101b957600080fd5b506101c2610982565b6040516101cf9190610d06565b60405180910390f35b3480156101e457600080fd5b506101ff60048036038101906101fa9190610d21565b610995565b60405161020c9190610c4f565b60405180910390f35b34801561022157600080fd5b5061022a6109ad565b6040516102379190610b0f565b60405180910390f35b34801561024c57600080fd5b5061026760048036038101906102629190610bca565b610a3b565b6040516102749190610c25565b60405180910390f35b610285610a50565b005b34801561029357600080fd5b506102ae60048036038101906102a99190610d4e565b610a5a565b6040516102bb9190610c4f565b60405180910390f35b34600360003373ffffffffffffffffffffffffffffffffffffffff1673ffffffffffffffffffffffffffffffffffffffff16815260200190815260200160002060008282546103139190610dbd565b925050819055503373ffffffffffffffffffffffffffffffffffffffff167fe1fffcc4923d04b559f4d29a8bfc6cda04eb5b0d3c460751c2402c5c5cc9109c346040516103609190610c4f565b60405180910390a2565b6000805461037790610e20565b80601f01602080910402602001604051908101604052809291908181526020018280546103a390610e20565b80156103f05780601f106103c5576101008083540402835291602001916103f0565b820191906000526020600020905b8154815290600101906020018083116103d357829003601f168201915b505050505081565b600081600460003373ffffffffffffffffffffffffffffffffffffffff1673ffffffffffffffffffffffffffffffffffffffff16815260200190815260200160002060008573ffffffffffffffffffffffffffffffffffffffff1673ffffffffffffffffffffffffffffffffffffffff168152602001908152602001600020819055508273ffffffffffffffffffffffffffffffffffffffff163373ffffffffffffffffffffffffffffffffffffffff167f8c5be1e5ebec7d5bd14f71427d1e84f3dd0314c0f7b2291e5b200ac8c7c3b925846040516104d89190610c4f565b60405180910390a36001905092915050565b600047905090565b600081600360008673ffffffffffffffffffffffffffffffffffffffff1673ffffffffffffffffffffffffffffffffffffffff16815260200190815260200160002054101561054057600080fd5b3373ffffffffffffffffffffffffffffffffffffffff168473ffffffffffffffffffffffffffffffffffffffff161415801561060a57506fffffffffffffffffffffffffffffffff8016600460008673ffffffffffffffffffffffffffffffffffffffff1673ffffffffffffffffffffffffffffffffffffffff16815260200190815260200160002060003373ffffffffffffffffffffffffffffffffffffffff1673ffffffffffffffffffffffffffffffffffffffff1681526020019081526020016000205414155b1561072c5781600460008673ffffffffffffffffffffffffffffffffffffffff1673ffffffffffffffffffffffffffffffffffffffff16815260200190815260200160002060003373ffffffffffffffffffffffffffffffffffffffff1673ffffffffffffffffffffffffffffffffffffffff16815260200190815260200160002054101561069857600080fd5b81600460008673ffffffffffffffffffffffffffffffffffffffff1673ffffffffffffffffffffffffffffffffffffffff16815260200190815260200160002060003373ffffffffffffffffffffffffffffffffffffffff1673ffffffffffffffffffffffffffffffffffffffff16815260200190815260200160002060008282546107249190610e51565b925050819055505b81600360008673ffffffffffffffffffffffffffffffffffffffff1673ffffffffffffffffffffffffffffffffffffffff168152602001908152602001600020600082825461077b9190610e51565b9250508190555081600360008573ffffffffffffffffffffffffffffffffffffffff1673ffffffffffffffffffffffffffffffffffffffff16815260200190815260200160002060008282546107d19190610dbd565b925050819055508273ffffffffffffffffffffffffffffffffffffffff168473ffffffffffffffffffffffffffffffffffffffff167fddf252ad1be2c89b69c2b068fc378daa952ba7f163c4a11628f55a4df523b3ef846040516108359190610c4f565b60405180910390a3600190509392505050565b80600360003373ffffffffffffffffffffffffffffffffffffffff1673ffffffffffffffffffffffffffffffffffffffff16815260200190815260200160002054101561089457600080fd5b80600360003373ffffffffffffffffffffffffffffffffffffffff1673ffffffffffffffffffffffffffffffffffffffff16815260200190815260200160002060008282546108e39190610e51565b925050819055503373ffffffffffffffffffffffffffffffffffffffff166108fc829081150290604051600060405180830381858888f19350505050158015610930573d6000803e3d6000fd5b503373ffffffffffffffffffffffffffffffffffffffff167f7fcf532c15f0a6db0bd6d0e038bea71d30d808c7d98cb3bf7268a95bf5081b65826040516109779190610c4f565b60405180910390a250565b600260009054906101000a900460ff1681565b60036020528060005260406000206000915090505481565b600180546109ba90610e20565b80601f01602080910402602001604051908101604052809291908181526020018280546109e690610e20565b8015610a335780601f10610a0857610100808354040283529160200191610a33565b820191906000526020600020905b815481529060010190602001808311610a1657829003601f168201915b505050505081565b6000610a483384846104f2565b905092915050565b610a586102c4565b565b6004602052816000526040600020602052806000526040600020600091509150505481565b600081519050919050565b600082825260208201905092915050565b60005b83811015610ab9578082015181840152602081019050610a9e565b60008484015250505050565b6000601f19601f8301169050919050565b6000610ae182610a7f565b610aeb8185610a8a565b9350610afb818560208601610a9b565b610b0481610ac5565b840191505092915050565b60006020820190508181036000830152610b298184610ad6565b905092915050565b600080fd5b600073ffffffffffffffffffffffffffffffffffffffff82169050919050565b6000610b6182610b36565b9050919050565b610b7181610b56565b8114610b7c57600080fd5b50565b600081359050610b8e81610b68565b92915050565b6000819050919050565b610ba781610b94565b8114610bb257600080fd5b50565b600081359050610bc481610b9e565b92915050565b60008060408385031215610be157610be0610b31565b5b6000610bef85828601610b7f565b9250506020610c0085828601610bb5565b9150509250929050565b60008115159050919050565b610c1f81610c0a565b82525050565b6000602082019050610c3a6000830184610c16565b92915050565b610c4981610b94565b82525050565b6000602082019050610c646000830184610c40565b92915050565b600080600060608486031215610c8357610c82610b31565b5b6000610c9186828701610b7f565b9350506020610ca286828701610b7f565b9250506040610cb386828701610bb5565b9150509250925092565b600060208284031215610cd357610cd2610b31565b5b6000610ce184828501610bb5565b91505092915050565b600060ff82169050919050565b610d0081610cea565b82525050565b6000602082019050610d1b6000830184610cf7565b92915050565b600060208284031215610d3757610d36610b31565b5b6000610d4584828501610b7f565b91505092915050565b60008060408385031215610d6557610d64610b31565b5b6000610d7385828601610b7f565b9250506020610d8485828601610b7f565b9150509250929050565b7f4e487b7100000000000000000000000000000000000000000000000000000000600052601160045260246000fd5b6000610dc882610b94565b9150610dd383610b94565b9250828201905080821115610deb57610dea610d8e565b5b92915050565b7f4e487b7100000000000000000000000000000000000000000000000000000000600052602260045260246000fd5b60006002820490506001821680610e3857607f821691505b602082108103610e4b57610e4a610df1565b5b50919050565b6000610e5c82610b94565b9150610e6783610b94565b9250828203905081811115610e7f57610e7e610d8e565b5b9291505056fea2646970667358221220f344d4855c63172709614ac6ca75dffcaf503d82d0549b81e7f382b774a71f1f64736f6c6343000813003360806040523480156200001157600080fd5b506040518060400160405280600f81526020017f436861696e4c696e6b20546f6b656e00000000000000000000000000000000008152506040518060400160405280600481526020017f4c494e4b0000000000000000000000000000000000000000000000000000000081525081818160039081620000919190620004cf565b508060049081620000a39190620004cf565b5050505050620000b8620000be60201b60201c565b620006d1565b620000dc336b033b2e3c9fd0803ce8000000620000de60201b60201c565b565b600073ffffffffffffffffffffffffffffffffffffffff168273ffffffffffffffffffffffffffffffffffffffff160362000150576040517f08c379a0000000000000000000000000000000000000000000000000000000008152600401620001479062000617565b60405180910390fd5b62000164600083836200024b60201b60201c565b806002600082825462000178919062000668565b92505081905550806000808473ffffffffffffffffffffffffffffffffffffffff1673ffffffffffffffffffffffffffffffffffffffff168152602001908152602001600020600082825401925050819055508173ffffffffffffffffffffffffffffffffffffffff16600073ffffffffffffffffffffffffffffffffffffffff167fddf252ad1be2c89b69c2b068fc378daa952ba7f163c4a11628f55a4df523b3ef836040516200022b9190620006b4565b60405180910390a362000247600083836200025060201b60201c565b5050565b505050565b505050565b600081519050919050565b7f4e487b7100000000000000000000000000000000000000000000000000000000600052604160045260246000fd5b7f4e487b7100000000000000000000000000000000000000000000000000000000600052602260045260246000fd5b60006002820490506001821680620002d757607f821691505b602082108103620002ed57620002ec6200028f565b5b50919050565b60008190508160005260206000209050919050565b60006020601f8301049050919050565b600082821b905092915050565b600060088302620003577fffffffffffffffffffffffffffffffffffffffffffffffffffffffffffffffff8262000318565b62000363868362000318565b95508019841693508086168417925050509392505050565b6000819050919050565b6000819050919050565b6000620003b0620003aa620003a4846200037b565b62000385565b6200037b565b9050919050565b6000819050919050565b620003cc836200038f565b620003e4620003db82620003b7565b84845462000325565b825550505050565b600090565b620003fb620003ec565b62000408818484620003c1565b505050565b5b81811015620004305762000424600082620003f1565b6001810190506200040e565b5050565b601f8211156200047f576200044981620002f3565b620004548462000308565b8101602085101562000464578190505b6200047c620004738562000308565b8301826200040d565b50505b505050565b600082821c905092915050565b6000620004a46000198460080262000484565b1980831691505092915050565b6000620004bf838362000491565b9150826002028217905092915050565b620004da8262000255565b67ffffffffffffffff811115620004f657620004f562000260565b5b620005028254620002be565b6200050f82828562000434565b600060209050601f83116001811462000547576000841562000532578287015190505b6200053e8582620004b1565b865550620005ae565b601f1984166200055786620002f3565b60005b8281101562000581578489015182556001820191506020850194506020810190506200055a565b86831015620005a157848901516200059d601f89168262000491565b8355505b6001600288020188555050505b505050505050565b600082825260208201905092915050565b7f45524332303a206d696e7420746f20746865207a65726f206164647265737300600082015250565b6000620005ff601f83620005b6565b91506200060c82620005c7565b602082019050919050565b600060208201905081810360008301526200063281620005f0565b9050919050565b7f4e487b7100000000000000000000000000000000000000000000000000000000600052601160045260246000fd5b600062000675826200037b565b915062000682836200037b565b92508282019050808211156200069d576200069c62000639565b5b92915050565b620006ae816200037b565b82525050565b6000602082019050620006cb6000830184620006a3565b92915050565b61162580620006e16000396000f3fe608060405234801561001057600080fd5b50600436106100b45760003560e01c80634000aea0116100715780634000aea0146101a357806370a08231146101d357806395d89b4114610203578063a457c2d714610221578063a9059cbb14610251578063dd62ed3e14610281576100b4565b806306fdde03146100b9578063095ea7b3146100d757806318160ddd1461010757806323b872dd14610125578063313ce567146101555780633950935114610173575b600080fd5b6100c16102b1565b6040516100ce9190610c7d565b60405180910390f35b6100f160048036038101906100ec9190610d47565b610343565b6040516100fe9190610da2565b60405180910390f35b61010f610366565b60405161011c9190610dcc565b60405180910390f35b61013f600480360381019061013a9190610de7565b610370565b60405161014c9190610da2565b60405180910390f35b61015d61039f565b60405161016a9190610e56565b60405180910390f35b61018d60048036038101906101889190610d47565b6103a8565b60405161019a9190610da2565b60405180910390f35b6101bd60048036038101906101b89190610fa6565b6103df565b6040516101ca9190610da2565b60405180910390f35b6101ed60048036038101906101e89190611015565b6104f2565b6040516101fa9190610dcc565b60405180910390f35b61020b61053a565b6040516102189190610c7d565b60405180910390f35b61023b60048036038101906102369190610d47565b6105cc565b6040516102489190610da2565b60405180910390f35b61026b60048036038101906102669190610d47565b610643565b6040516102789190610da2565b60405180910390f35b61029b60048036038101906102969190611042565b610666565b6040516102a89190610dcc565b60405180910390f35b6060600380546102c0906110b1565b80601f01602080910402602001604051908101604052809291908181526020018280546102ec906110b1565b80156103395780601f1061030e57610100808354040283529160200191610339565b820191906000526020600020905b81548152906001019060200180831161031c57829003601f168201915b5050505050905090565b60008061034e6106ed565b905061035b8185856106f5565b600191505092915050565b6000600254905090565b60008061037b6106ed565b90506103888582856108be565b61039385858561094a565b60019150509392505050565b60006012905090565b6000806103b36106ed565b90506103d48185856103c58589610666565b6103cf9190611111565b6106f5565b600191505092915050565b60006103eb8484610643565b508373ffffffffffffffffffffffffffffffffffffffff163373ffffffffffffffffffffffffffffffffffffffff167fe19260aff97b920c7df27010903aeb9c8d2be5d310a2c67824cf3f15396e4c16858560405161044b92919061119a565b60405180910390a36104728473ffffffffffffffffffffffffffffffffffffffff16610bc0565b156104e7578373ffffffffffffffffffffffffffffffffffffffff1663a4c0ed363385856040518463ffffffff1660e01b81526004016104b4939291906111d9565b600060405180830381600087803b1580156104ce57600080fd5b505af11580156104e2573d6000803e3d6000fd5b505050505b600190509392505050565b60008060008373ffffffffffffffffffffffffffffffffffffffff1673ffffffffffffffffffffffffffffffffffffffff168152602001908152602001600020549050919050565b606060048054610549906110b1565b80601f0160208091040260200160405190810160405280929190818152602001828054610575906110b1565b80156105c25780601f10610597576101008083540402835291602001916105c2565b820191906000526020600020905b8154815290600101906020018083116105a557829003601f168201915b5050505050905090565b6000806105d76106ed565b905060006105e58286610666565b90508381101561062a576040517f08c379a000000000000000000000000000000000000000000000000000000000815260040161062190611289565b60405180910390fd5b61063782868684036106f5565b60019250505092915050565b60008061064e6106ed565b905061065b81858561094a565b600191505092915050565b6000600160008473ffffffffffffffffffffffffffffffffffffffff1673ffffffffffffffffffffffffffffffffffffffff16815260200190815260200160002060008373ffffffffffffffffffffffffffffffffffffffff1673ffffffffffffffffffffffffffffffffffffffff16815260200190815260200160002054905092915050565b600033905090565b600073ffffffffffffffffffffffffffffffffffffffff168373ffffffffffffffffffffffffffffffffffffffff1603610764576040517f08c379a000000000000000000000000000000000000000000000000000000000815260040161075b9061131b565b60405180910390fd5b600073ffffffffffffffffffffffffffffffffffffffff168273ffffffffffffffffffffffffffffffffffffffff16036107d3576040517f08c379a00000000000000000000000000000000000000000000000000000000081526004016107ca906113ad565b60405180910390fd5b80600160008573ffffffffffffffffffffffffffffffffffffffff1673ffffffffffffffffffffffffffffffffffffffff16815260200190815260200160002060008473ffffffffffffffffffffffffffffffffffffffff1673ffffffffffffffffffffffffffffffffffffffff168152602001908152602001600020819055508173ffffffffffffffffffffffffffffffffffffffff168373ffffffffffffffffffffffffffffffffffffffff167f8c5be1e5ebec7d5bd14f71427d1e84f3dd0314c0f7b2291e5b200ac8c7c3b925836040516108b19190610dcc565b60405180910390a3505050565b60006108ca8484610666565b90507fffffffffffffffffffffffffffffffffffffffffffffffffffffffffffffffff81146109445781811015610936576040517f08c379a000000000000000000000000000000000000000000000000000000000815260040161092d90611419565b60405180910390fd5b61094384848484036106f5565b5b50505050565b600073ffffffffffffffffffffffffffffffffffffffff168373ffffffffffffffffffffffffffffffffffffffff16036109b9576040517f08c379a00000000000000000000000000000000000000000000000000000000081526004016109b0906114ab565b60405180910390fd5b600073ffffffffffffffffffffffffffffffffffffffff168273ffffffffffffffffffffffffffffffffffffffff1603610a28576040517f08c379a0000000000000000000000000000000000000000000000000000000008152600401610a1f9061153d565b60405180910390fd5b610a33838383610be3565b60008060008573ffffffffffffffffffffffffffffffffffffffff1673ffffffffffffffffffffffffffffffffffffffff16815260200190815260200160002054905081811015610ab9576040517f08c379a0000000000000000000000000000000000000000000000000000000008152600401610ab0906115cf565b60405180910390fd5b8181036000808673ffffffffffffffffffffffffffffffffffffffff1673ffffffffffffffffffffffffffffffffffffffff16815260200190815260200160002081905550816000808573ffffffffffffffffffffffffffffffffffffffff1673ffffffffffffffffffffffffffffffffffffffff168152602001908152602001600020600082825401925050819055508273ffffffffffffffffffffffffffffffffffffffff168473ffffffffffffffffffffffffffffffffffffffff167fddf252ad1be2c89b69c2b068fc378daa952ba7f163c4a11628f55a4df523b3ef84604051610ba79190610dcc565b60405180910390a3610bba848484610be8565b50505050565b6000808273ffffffffffffffffffffffffffffffffffffffff163b119050919050565b505050565b505050565b600081519050919050565b600082825260208201905092915050565b60005b83811015610c27578082015181840152602081019050610c0c565b60008484015250505050565b6000601f19601f8301169050919050565b6000610c4f82610bed565b610c598185610bf8565b9350610c69818560208601610c09565b610c7281610c33565b840191505092915050565b60006020820190508181036000830152610c978184610c44565b905092915050565b6000604051905090565b600080fd5b600080fd5b600073ffffffffffffffffffffffffffffffffffffffff82169050919050565b6000610cde82610cb3565b9050919050565b610cee81610cd3565b8114610cf957600080fd5b50565b600081359050610d0b81610ce5565b92915050565b6000819050919050565b610d2481610d11565b8114610d2f57600080fd5b50565b600081359050610d4181610d1b565b92915050565b60008060408385031215610d5e57610d5d610ca9565b5b6000610d6c85828601610cfc565b9250506020610d7d85828601610d32565b9150509250929050565b60008115159050919050565b610d9c81610d87565b82525050565b6000602082019050610db76000830184610d93565b92915050565b610dc681610d11565b82525050565b6000602082019050610de16000830184610dbd565b92915050565b600080600060608486031215610e0057610dff610ca9565b5b6000610e0e86828701610cfc565b9350506020610e1f86828701610cfc565b9250506040610e3086828701610d32565b9150509250925092565b600060ff82169050919050565b610e5081610e3a565b82525050565b6000602082019050610e6b6000830184610e47565b92915050565b600080fd5b600080fd5b7f4e487b7100000000000000000000000000000000000000000000000000000000600052604160045260246000fd5b610eb382610c33565b810181811067ffffffffffffffff82111715610ed257610ed1610e7b565b5b80604052505050565b6000610ee5610c9f565b9050610ef18282610eaa565b919050565b600067ffffffffffffffff821115610f1157610f10610e7b565b5b610f1a82610c33565b9050602081019050919050565b82818337600083830152505050565b6000610f49610f4484610ef6565b610edb565b905082815260208101848484011115610f6557610f64610e76565b5b610f70848285610f27565b509392505050565b600082601f830112610f8d57610f8c610e71565b5b8135610f9d848260208601610f36565b91505092915050565b600080600060608486031215610fbf57610fbe610ca9565b5b6000610fcd86828701610cfc565b9350506020610fde86828701610d32565b925050604084013567ffffffffffffffff811115610fff57610ffe610cae565b5b61100b86828701610f78565b9150509250925092565b60006020828403121561102b5761102a610ca9565b5b600061103984828501610cfc565b91505092915050565b6000806040838503121561105957611058610ca9565b5b600061106785828601610cfc565b925050602061107885828601610cfc565b9150509250929050565b7f4e487b7100000000000000000000000000000000000000000000000000000000600052602260045260246000fd5b600060028204905060018216806110c957607f821691505b6020821081036110dc576110db611082565b5b50919050565b7f4e487b7100000000000000000000000000000000000000000000000000000000600052601160045260246000fd5b600061111c82610d11565b915061112783610d11565b925082820190508082111561113f5761113e6110e2565b5b92915050565b600081519050919050565b600082825260208201905092915050565b600061116c82611145565b6111768185611150565b9350611186818560208601610c09565b61118f81610c33565b840191505092915050565b60006040820190506111af6000830185610dbd565b81810360208301526111c18184611161565b90509392505050565b6111d381610cd3565b82525050565b60006060820190506111ee60008301866111ca565b6111fb6020830185610dbd565b818103604083015261120d8184611161565b9050949350505050565b7f45524332303a2064656372656173656420616c6c6f77616e63652062656c6f7760008201527f207a65726f000000000000000000000000000000000000000000000000000000602082015250565b6000611273602583610bf8565b915061127e82611217565b604082019050919050565b600060208201905081810360008301526112a281611266565b9050919050565b7f45524332303a20617070726f76652066726f6d20746865207a65726f2061646460008201527f7265737300000000000000000000000000000000000000000000000000000000602082015250565b6000611305602483610bf8565b9150611310826112a9565b604082019050919050565b60006020820190508181036000830152611334816112f8565b9050919050565b7f45524332303a20617070726f766520746f20746865207a65726f20616464726560008201527f7373000000000000000000000000000000000000000000000000000000000000602082015250565b6000611397602283610bf8565b91506113a28261133b565b604082019050919050565b600060208201905081810360008301526113c68161138a565b9050919050565b7f45524332303a20696e73756666696369656e7420616c6c6f77616e6365000000600082015250565b6000611403601d83610bf8565b915061140e826113cd565b602082019050919050565b60006020820190508181036000830152611432816113f6565b9050919050565b7f45524332303a207472616e736665722066726f6d20746865207a65726f20616460008201527f6472657373000000000000000000000000000000000000000000000000000000602082015250565b6000611495602583610bf8565b91506114a082611439565b604082019050919050565b600060208201905081810360008301526114c481611488565b9050919050565b7f45524332303a207472616e7366657220746f20746865207a65726f206164647260008201527f6573730000000000000000000000000000000000000000000000000000000000602082015250565b6000611527602383610bf8565b9150611532826114cb565b604082019050919050565b600060208201905081810360008301526115568161151a565b9050919050565b7f45524332303a207472616e7366657220616d6f756e742065786365656473206260008201527f616c616e63650000000000000000000000000000000000000000000000000000602082015250565b60006115b9602683610bf8565b91506115c48261155d565b604082019050919050565b600060208201905081810360008301526115e8816115ac565b905091905056fea2646970667358221220c0cb9735a4a18b6c008ebbc54bbd1e07d3f1a5977eb4813934bbf8f6ac54803664736f6c6343000813003360c06040523480156200001157600080fd5b50604051620038ab380380620038ab833981810160405281019062000037919062000450565b8181601260003380600086868181816003908162000056919062000720565b50806004908162000068919062000720565b5050505050600073ffffffffffffffffffffffffffffffffffffffff168273ffffffffffffffffffffffffffffffffffffffff1603620000df576040517f08c379a0000000000000000000000000000000000000000000000000000000008152600401620000d69062000868565b60405180910390fd5b81600560006101000a81548173ffffffffffffffffffffffffffffffffffffffff021916908373ffffffffffffffffffffffffffffffffffffffff160217905550600073ffffffffffffffffffffffffffffffffffffffff168173ffffffffffffffffffffffffffffffffffffffff1614620001675762000166816200018c60201b60201c565b5b5050508160ff1660808160ff16815250508060a08181525050505050505050620008fc565b3373ffffffffffffffffffffffffffffffffffffffff168173ffffffffffffffffffffffffffffffffffffffff1603620001fd576040517f08c379a0000000000000000000000000000000000000000000000000000000008152600401620001f490620008da565b60405180910390fd5b80600660006101000a81548173ffffffffffffffffffffffffffffffffffffffff021916908373ffffffffffffffffffffffffffffffffffffffff1602179055508073ffffffffffffffffffffffffffffffffffffffff16600560009054906101000a900473ffffffffffffffffffffffffffffffffffffffff1673ffffffffffffffffffffffffffffffffffffffff167fed8889f560326eb138920d842192f0eb3dd22b4f139c87a2c57538e05bae127860405160405180910390a350565b6000604051905090565b600080fd5b600080fd5b600080fd5b600080fd5b6000601f19601f8301169050919050565b7f4e487b7100000000000000000000000000000000000000000000000000000000600052604160045260246000fd5b6200032682620002db565b810181811067ffffffffffffffff82111715620003485762000347620002ec565b5b80604052505050565b60006200035d620002bd565b90506200036b82826200031b565b919050565b600067ffffffffffffffff8211156200038e576200038d620002ec565b5b6200039982620002db565b9050602081019050919050565b60005b83811015620003c6578082015181840152602081019050620003a9565b60008484015250505050565b6000620003e9620003e38462000370565b62000351565b905082815260208101848484011115620004085762000407620002d6565b5b62000415848285620003a6565b509392505050565b600082601f830112620004355762000434620002d1565b5b815162000447848260208601620003d2565b91505092915050565b600080604083850312156200046a5762000469620002c7565b5b600083015167ffffffffffffffff8111156200048b576200048a620002cc565b5b62000499858286016200041d565b925050602083015167ffffffffffffffff811115620004bd57620004bc620002cc565b5b620004cb858286016200041d565b9150509250929050565b600081519050919050565b7f4e487b7100000000000000000000000000000000000000000000000000000000600052602260045260246000fd5b600060028204905060018216806200052857607f821691505b6020821081036200053e576200053d620004e0565b5b50919050565b60008190508160005260206000209050919050565b60006020601f8301049050919050565b600082821b905092915050565b600060088302620005a87fffffffffffffffffffffffffffffffffffffffffffffffffffffffffffffffff8262000569565b620005b4868362000569565b95508019841693508086168417925050509392505050565b6000819050919050565b6000819050919050565b600062000601620005fb620005f584620005cc565b620005d6565b620005cc565b9050919050565b6000819050919050565b6200061d83620005e0565b620006356200062c8262000608565b84845462000576565b825550505050565b600090565b6200064c6200063d565b6200065981848462000612565b505050565b5b8181101562000681576200067560008262000642565b6001810190506200065f565b5050565b601f821115620006d0576200069a8162000544565b620006a58462000559565b81016020851015620006b5578190505b620006cd620006c48562000559565b8301826200065e565b50505b505050565b600082821c905092915050565b6000620006f560001984600802620006d5565b1980831691505092915050565b6000620007108383620006e2565b9150826002028217905092915050565b6200072b82620004d5565b67ffffffffffffffff811115620007475762000746620002ec565b5b6200075382546200050f565b6200076082828562000685565b600060209050601f83116001811462000798576000841562000783578287015190505b6200078f858262000702565b865550620007ff565b601f198416620007a88662000544565b60005b82811015620007d257848901518255600182019150602085019450602081019050620007ab565b86831015620007f25784890151620007ee601f891682620006e2565b8355505b6001600288020188555050505b505050505050565b600082825260208201905092915050565b7f43616e6e6f7420736574206f776e657220746f207a65726f0000000000000000600082015250565b60006200085060188362000807565b91506200085d8262000818565b602082019050919050565b60006020820190508181036000830152620008838162000841565b9050919050565b7f43616e6e6f74207472616e7366657220746f2073656c66000000000000000000600082015250565b6000620008c260178362000807565b9150620008cf826200088a565b602082019050919050565b60006020820190508181036000830152620008f581620008b3565b9050919050565b60805160a051612f7b6200093060003960008181610b1301528181610b3d015261119b0152600061091e0152612f7b6000f3fe608060405234801561001057600080fd5b50600436106101fb5760003560e01c806379ba50971161011a578063aa271e1a116100ad578063d5abeb011161007c578063d5abeb01146105e8578063d73dd62314610606578063dd62ed3e14610622578063f2fde38b14610652578063f81094f31461066e576101fb565b8063aa271e1a14610564578063c2e3273d14610594578063c630948d146105b0578063c64d0ebc146105cc576101fb565b806395d89b41116100e957806395d89b41146104ca5780639dc29fac146104e8578063a457c2d714610504578063a9059cbb14610534576101fb565b806379ba50971461046857806379cc67901461047257806386fe8b431461048e5780638da5cb5b146104ac576101fb565b806340c10f1911610192578063661884631161016157806366188463146103ce57806367a5cd06146103fe5780636b32810b1461041a57806370a0823114610438576101fb565b806340c10f191461034a57806342966c68146103665780634334614a146103825780634f5632f8146103b2576101fb565b806323b872dd116101ce57806323b872dd1461029c578063313ce567146102cc57806339509351146102ea5780634000aea01461031a576101fb565b806301ffc9a71461020057806306fdde0314610230578063095ea7b31461024e57806318160ddd1461027e575b600080fd5b61021a6004803603810190610215919061209c565b61068a565b60405161022791906120e4565b60405180910390f35b61023861082c565b604051610245919061218f565b60405180910390f35b61026860048036038101906102639190612245565b6108be565b60405161027591906120e4565b60405180910390f35b6102866108e1565b6040516102939190612294565b60405180910390f35b6102b660048036038101906102b191906122af565b6108eb565b6040516102c391906120e4565b60405180910390f35b6102d461091a565b6040516102e1919061231e565b60405180910390f35b61030460048036038101906102ff9190612245565b610942565b60405161031191906120e4565b60405180910390f35b610334600480360381019061032f919061246e565b610979565b60405161034191906120e4565b60405180910390f35b610364600480360381019061035f9190612245565b610a8c565b005b610380600480360381019061037b91906124dd565b610bd4565b005b61039c6004803603810190610397919061250a565b610c2a565b6040516103a991906120e4565b60405180910390f35b6103cc60048036038101906103c7919061250a565b610c47565b005b6103e860048036038101906103e39190612245565b610caf565b6040516103f591906120e4565b60405180910390f35b6104186004803603810190610413919061250a565b610cc3565b005b610422610cd8565b60405161042f91906125f5565b60405180910390f35b610452600480360381019061044d919061250a565b610ce9565b60405161045f9190612294565b60405180910390f35b610470610d31565b005b61048c60048036038101906104879190612245565b610ec8565b005b610496610f20565b6040516104a391906125f5565b60405180910390f35b6104b4610f31565b6040516104c19190612626565b60405180910390f35b6104d2610f5b565b6040516104df919061218f565b60405180910390f35b61050260048036038101906104fd9190612245565b610fed565b005b61051e60048036038101906105199190612245565b610ffb565b60405161052b91906120e4565b60405180910390f35b61054e60048036038101906105499190612245565b611072565b60405161055b91906120e4565b60405180910390f35b61057e6004803603810190610579919061250a565b611095565b60405161058b91906120e4565b60405180910390f35b6105ae60048036038101906105a9919061250a565b6110b2565b005b6105ca60048036038101906105c5919061250a565b61111a565b005b6105e660048036038101906105e1919061250a565b61112f565b005b6105f0611197565b6040516105fd9190612294565b60405180910390f35b610620600480360381019061061b9190612245565b6111bf565b005b61063c60048036038101906106379190612641565b6111ce565b6040516106499190612294565b60405180910390f35b61066c6004803603810190610667919061250a565b611255565b005b6106886004803603810190610683919061250a565b611269565b005b60007f36372b07000000000000000000000000000000000000000000000000000000007bffffffffffffffffffffffffffffffffffffffffffffffffffffffff1916827bffffffffffffffffffffffffffffffffffffffffffffffffffffffff1916148061075557507f4000aea0000000000000000000000000000000000000000000000000000000007bffffffffffffffffffffffffffffffffffffffffffffffffffffffff1916827bffffffffffffffffffffffffffffffffffffffffffffffffffffffff1916145b806107bd57507fe6599b4d000000000000000000000000000000000000000000000000000000007bffffffffffffffffffffffffffffffffffffffffffffffffffffffff1916827bffffffffffffffffffffffffffffffffffffffffffffffffffffffff1916145b8061082557507f01ffc9a7000000000000000000000000000000000000000000000000000000007bffffffffffffffffffffffffffffffffffffffffffffffffffffffff1916827bffffffffffffffffffffffffffffffffffffffffffffffffffffffff1916145b9050919050565b60606003805461083b906126b0565b80601f0160208091040260200160405190810160405280929190818152602001828054610867906126b0565b80156108b45780601f10610889576101008083540402835291602001916108b4565b820191906000526020600020905b81548152906001019060200180831161089757829003601f168201915b5050505050905090565b6000806108c96112d1565b90506108d68185856112d9565b600191505092915050565b6000600254905090565b6000806108f66112d1565b9050610903858285611323565b61090e8585856113af565b60019150509392505050565b60007f0000000000000000000000000000000000000000000000000000000000000000905090565b60008061094d6112d1565b905061096e81858561095f85896111ce565b6109699190612710565b6112d9565b600191505092915050565b60006109858484611072565b508373ffffffffffffffffffffffffffffffffffffffff163373ffffffffffffffffffffffffffffffffffffffff167fe19260aff97b920c7df27010903aeb9c8d2be5d310a2c67824cf3f15396e4c1685856040516109e5929190612799565b60405180910390a3610a0c8473ffffffffffffffffffffffffffffffffffffffff166113f9565b15610a81578373ffffffffffffffffffffffffffffffffffffffff1663a4c0ed363385856040518463ffffffff1660e01b8152600401610a4e939291906127c9565b600060405180830381600087803b158015610a6857600080fd5b505af1158015610a7c573d6000803e3d6000fd5b505050505b600190509392505050565b610a9533611095565b610ad657336040517fe2c8c9d5000000000000000000000000000000000000000000000000000000008152600401610acd9190612626565b60405180910390fd5b813073ffffffffffffffffffffffffffffffffffffffff168173ffffffffffffffffffffffffffffffffffffffff1603610b0f57600080fd5b60007f000000000000000000000000000000000000000000000000000000000000000014158015610b7157507f000000000000000000000000000000000000000000000000000000000000000082610b656108e1565b610b6f9190612710565b115b15610bc55781610b7f6108e1565b610b899190612710565b6040517fcbbf1113000000000000000000000000000000000000000000000000000000008152600401610bbc9190612294565b60405180910390fd5b610bcf838361141c565b505050565b610bdd33610c2a565b610c1e57336040517fc820b10b000000000000000000000000000000000000000000000000000000008152600401610c159190612626565b60405180910390fd5b610c2781611572565b50565b6000610c4082600961158690919063ffffffff16565b9050919050565b610c4f6115b6565b610c6381600961164890919063ffffffff16565b15610cac578073ffffffffffffffffffffffffffffffffffffffff167f0a675452746933cefe3d74182e78db7afe57ba60eaa4234b5d85e9aa41b0610c60405160405180910390a25b50565b6000610cbb8383610ffb565b905092915050565b610cd581670de0b6b3a764000061141c565b50565b6060610ce46007611678565b905090565b60008060008373ffffffffffffffffffffffffffffffffffffffff1673ffffffffffffffffffffffffffffffffffffffff168152602001908152602001600020549050919050565b600660009054906101000a900473ffffffffffffffffffffffffffffffffffffffff1673ffffffffffffffffffffffffffffffffffffffff163373ffffffffffffffffffffffffffffffffffffffff1614610dc1576040517f08c379a0000000000000000000000000000000000000000000000000000000008152600401610db890612853565b60405180910390fd5b6000600560009054906101000a900473ffffffffffffffffffffffffffffffffffffffff16905033600560006101000a81548173ffffffffffffffffffffffffffffffffffffffff021916908373ffffffffffffffffffffffffffffffffffffffff1602179055506000600660006101000a81548173ffffffffffffffffffffffffffffffffffffffff021916908373ffffffffffffffffffffffffffffffffffffffff1602179055503373ffffffffffffffffffffffffffffffffffffffff168173ffffffffffffffffffffffffffffffffffffffff167f8be0079c531659141344cd1fd0a4f28419497f9722a3daafe3b4186f6b6457e060405160405180910390a350565b610ed133610c2a565b610f1257336040517fc820b10b000000000000000000000000000000000000000000000000000000008152600401610f099190612626565b60405180910390fd5b610f1c8282611699565b5050565b6060610f2c6009611678565b905090565b6000600560009054906101000a900473ffffffffffffffffffffffffffffffffffffffff16905090565b606060048054610f6a906126b0565b80601f0160208091040260200160405190810160405280929190818152602001828054610f96906126b0565b8015610fe35780601f10610fb857610100808354040283529160200191610fe3565b820191906000526020600020905b815481529060010190602001808311610fc657829003601f168201915b5050505050905090565b610ff78282610ec8565b5050565b6000806110066112d1565b9050600061101482866111ce565b905083811015611059576040517f08c379a0000000000000000000000000000000000000000000000000000000008152600401611050906128e5565b60405180910390fd5b61106682868684036112d9565b60019250505092915050565b60008061107d6112d1565b905061108a8185856113af565b600191505092915050565b60006110ab82600761158690919063ffffffff16565b9050919050565b6110ba6115b6565b6110ce8160076116b990919063ffffffff16565b15611117578073ffffffffffffffffffffffffffffffffffffffff167fe46fef8bbff1389d9010703cf8ebb363fb3daf5bf56edc27080b67bc8d9251ea60405160405180910390a25b50565b611123816110b2565b61112c8161112f565b50565b6111376115b6565b61114b8160096116b990919063ffffffff16565b15611194578073ffffffffffffffffffffffffffffffffffffffff167f92308bb7573b2a3d17ddb868b39d8ebec433f3194421abc22d084f89658c9bad60405160405180910390a25b50565b60007f0000000000000000000000000000000000000000000000000000000000000000905090565b6111c98282610942565b505050565b6000600160008473ffffffffffffffffffffffffffffffffffffffff1673ffffffffffffffffffffffffffffffffffffffff16815260200190815260200160002060008373ffffffffffffffffffffffffffffffffffffffff1673ffffffffffffffffffffffffffffffffffffffff16815260200190815260200160002054905092915050565b61125d6115b6565b611266816116e9565b50565b6112716115b6565b61128581600761164890919063ffffffff16565b156112ce578073ffffffffffffffffffffffffffffffffffffffff167fed998b960f6340d045f620c119730f7aa7995e7425c2401d3a5b64ff998a59e960405160405180910390a25b50565b600033905090565b813073ffffffffffffffffffffffffffffffffffffffff168173ffffffffffffffffffffffffffffffffffffffff160361131257600080fd5b61131d848484611817565b50505050565b600061132f84846111ce565b90507fffffffffffffffffffffffffffffffffffffffffffffffffffffffffffffffff81146113a9578181101561139b576040517f08c379a000000000000000000000000000000000000000000000000000000000815260040161139290612951565b60405180910390fd5b6113a884848484036112d9565b5b50505050565b813073ffffffffffffffffffffffffffffffffffffffff168173ffffffffffffffffffffffffffffffffffffffff16036113e857600080fd5b6113f38484846119e0565b50505050565b6000808273ffffffffffffffffffffffffffffffffffffffff163b119050919050565b600073ffffffffffffffffffffffffffffffffffffffff168273ffffffffffffffffffffffffffffffffffffffff160361148b576040517f08c379a0000000000000000000000000000000000000000000000000000000008152600401611482906129bd565b60405180910390fd5b61149760008383611c56565b80600260008282546114a99190612710565b92505081905550806000808473ffffffffffffffffffffffffffffffffffffffff1673ffffffffffffffffffffffffffffffffffffffff168152602001908152602001600020600082825401925050819055508173ffffffffffffffffffffffffffffffffffffffff16600073ffffffffffffffffffffffffffffffffffffffff167fddf252ad1be2c89b69c2b068fc378daa952ba7f163c4a11628f55a4df523b3ef8360405161155a9190612294565b60405180910390a361156e60008383611c5b565b5050565b61158361157d6112d1565b82611c60565b50565b60006115ae836000018373ffffffffffffffffffffffffffffffffffffffff1660001b611e2d565b905092915050565b600560009054906101000a900473ffffffffffffffffffffffffffffffffffffffff1673ffffffffffffffffffffffffffffffffffffffff163373ffffffffffffffffffffffffffffffffffffffff1614611646576040517f08c379a000000000000000000000000000000000000000000000000000000000815260040161163d90612a29565b60405180910390fd5b565b6000611670836000018373ffffffffffffffffffffffffffffffffffffffff1660001b611e50565b905092915050565b6060600061168883600001611f64565b905060608190508092505050919050565b6116ab826116a56112d1565b83611323565b6116b58282611c60565b5050565b60006116e1836000018373ffffffffffffffffffffffffffffffffffffffff1660001b611fc0565b905092915050565b3373ffffffffffffffffffffffffffffffffffffffff168173ffffffffffffffffffffffffffffffffffffffff1603611757576040517f08c379a000000000000000000000000000000000000000000000000000000000815260040161174e90612a95565b60405180910390fd5b80600660006101000a81548173ffffffffffffffffffffffffffffffffffffffff021916908373ffffffffffffffffffffffffffffffffffffffff1602179055508073ffffffffffffffffffffffffffffffffffffffff16600560009054906101000a900473ffffffffffffffffffffffffffffffffffffffff1673ffffffffffffffffffffffffffffffffffffffff167fed8889f560326eb138920d842192f0eb3dd22b4f139c87a2c57538e05bae127860405160405180910390a350565b600073ffffffffffffffffffffffffffffffffffffffff168373ffffffffffffffffffffffffffffffffffffffff1603611886576040517f08c379a000000000000000000000000000000000000000000000000000000000815260040161187d90612b27565b60405180910390fd5b600073ffffffffffffffffffffffffffffffffffffffff168273ffffffffffffffffffffffffffffffffffffffff16036118f5576040517f08c379a00000000000000000000000000000000000000000000000000000000081526004016118ec90612bb9565b60405180910390fd5b80600160008573ffffffffffffffffffffffffffffffffffffffff1673ffffffffffffffffffffffffffffffffffffffff16815260200190815260200160002060008473ffffffffffffffffffffffffffffffffffffffff1673ffffffffffffffffffffffffffffffffffffffff168152602001908152602001600020819055508173ffffffffffffffffffffffffffffffffffffffff168373ffffffffffffffffffffffffffffffffffffffff167f8c5be1e5ebec7d5bd14f71427d1e84f3dd0314c0f7b2291e5b200ac8c7c3b925836040516119d39190612294565b60405180910390a3505050565b600073ffffffffffffffffffffffffffffffffffffffff168373ffffffffffffffffffffffffffffffffffffffff1603611a4f576040517f08c379a0000000000000000000000000000000000000000000000000000000008152600401611a4690612c4b565b60405180910390fd5b600073ffffffffffffffffffffffffffffffffffffffff168273ffffffffffffffffffffffffffffffffffffffff1603611abe576040517f08c379a0000000000000000000000000000000000000000000000000000000008152600401611ab590612cdd565b60405180910390fd5b611ac9838383611c56565b60008060008573ffffffffffffffffffffffffffffffffffffffff1673ffffffffffffffffffffffffffffffffffffffff16815260200190815260200160002054905081811015611b4f576040517f08c379a0000000000000000000000000000000000000000000000000000000008152600401611b4690612d6f565b60405180910390fd5b8181036000808673ffffffffffffffffffffffffffffffffffffffff1673ffffffffffffffffffffffffffffffffffffffff16815260200190815260200160002081905550816000808573ffffffffffffffffffffffffffffffffffffffff1673ffffffffffffffffffffffffffffffffffffffff168152602001908152602001600020600082825401925050819055508273ffffffffffffffffffffffffffffffffffffffff168473ffffffffffffffffffffffffffffffffffffffff167fddf252ad1be2c89b69c2b068fc378daa952ba7f163c4a11628f55a4df523b3ef84604051611c3d9190612294565b60405180910390a3611c50848484611c5b565b50505050565b505050565b505050565b600073ffffffffffffffffffffffffffffffffffffffff168273ffffffffffffffffffffffffffffffffffffffff1603611ccf576040517f08c379a0000000000000000000000000000000000000000000000000000000008152600401611cc690612e01565b60405180910390fd5b611cdb82600083611c56565b60008060008473ffffffffffffffffffffffffffffffffffffffff1673ffffffffffffffffffffffffffffffffffffffff16815260200190815260200160002054905081811015611d61576040517f08c379a0000000000000000000000000000000000000000000000000000000008152600401611d5890612e93565b60405180910390fd5b8181036000808573ffffffffffffffffffffffffffffffffffffffff1673ffffffffffffffffffffffffffffffffffffffff1681526020019081526020016000208190555081600260008282540392505081905550600073ffffffffffffffffffffffffffffffffffffffff168373ffffffffffffffffffffffffffffffffffffffff167fddf252ad1be2c89b69c2b068fc378daa952ba7f163c4a11628f55a4df523b3ef84604051611e149190612294565b60405180910390a3611e2883600084611c5b565b505050565b600080836001016000848152602001908152602001600020541415905092915050565b60008083600101600084815260200190815260200160002054905060008114611f58576000600182611e829190612eb3565b9050600060018660000180549050611e9a9190612eb3565b9050818114611f09576000866000018281548110611ebb57611eba612ee7565b5b9060005260206000200154905080876000018481548110611edf57611ede612ee7565b5b90600052602060002001819055508387600101600083815260200190815260200160002081905550505b85600001805480611f1d57611f1c612f16565b5b600190038181906000526020600020016000905590558560010160008681526020019081526020016000206000905560019350505050611f5e565b60009150505b92915050565b606081600001805480602002602001604051908101604052809291908181526020018280548015611fb457602002820191906000526020600020905b815481526020019060010190808311611fa0575b50505050509050919050565b6000611fcc8383611e2d565b61202557826000018290806001815401808255809150506001900390600052602060002001600090919091909150558260000180549050836001016000848152602001908152602001600020819055506001905061202a565b600090505b92915050565b6000604051905090565b600080fd5b600080fd5b60007fffffffff0000000000000000000000000000000000000000000000000000000082169050919050565b61207981612044565b811461208457600080fd5b50565b60008135905061209681612070565b92915050565b6000602082840312156120b2576120b161203a565b5b60006120c084828501612087565b91505092915050565b60008115159050919050565b6120de816120c9565b82525050565b60006020820190506120f960008301846120d5565b92915050565b600081519050919050565b600082825260208201905092915050565b60005b8381101561213957808201518184015260208101905061211e565b60008484015250505050565b6000601f19601f8301169050919050565b6000612161826120ff565b61216b818561210a565b935061217b81856020860161211b565b61218481612145565b840191505092915050565b600060208201905081810360008301526121a98184612156565b905092915050565b600073ffffffffffffffffffffffffffffffffffffffff82169050919050565b60006121dc826121b1565b9050919050565b6121ec816121d1565b81146121f757600080fd5b50565b600081359050612209816121e3565b92915050565b6000819050919050565b6122228161220f565b811461222d57600080fd5b50565b60008135905061223f81612219565b92915050565b6000806040838503121561225c5761225b61203a565b5b600061226a858286016121fa565b925050602061227b85828601612230565b9150509250929050565b61228e8161220f565b82525050565b60006020820190506122a96000830184612285565b92915050565b6000806000606084860312156122c8576122c761203a565b5b60006122d6868287016121fa565b93505060206122e7868287016121fa565b92505060406122f886828701612230565b9150509250925092565b600060ff82169050919050565b61231881612302565b82525050565b6000602082019050612333600083018461230f565b92915050565b600080fd5b600080fd5b7f4e487b7100000000000000000000000000000000000000000000000000000000600052604160045260246000fd5b61237b82612145565b810181811067ffffffffffffffff8211171561239a57612399612343565b5b80604052505050565b60006123ad612030565b90506123b98282612372565b919050565b600067ffffffffffffffff8211156123d9576123d8612343565b5b6123e282612145565b9050602081019050919050565b82818337600083830152505050565b600061241161240c846123be565b6123a3565b90508281526020810184848401111561242d5761242c61233e565b5b6124388482856123ef565b509392505050565b600082601f83011261245557612454612339565b5b81356124658482602086016123fe565b91505092915050565b6000806000606084860312156124875761248661203a565b5b6000612495868287016121fa565b93505060206124a686828701612230565b925050604084013567ffffffffffffffff8111156124c7576124c661203f565b5b6124d386828701612440565b9150509250925092565b6000602082840312156124f3576124f261203a565b5b600061250184828501612230565b91505092915050565b6000602082840312156125205761251f61203a565b5b600061252e848285016121fa565b91505092915050565b600081519050919050565b600082825260208201905092915050565b6000819050602082019050919050565b61256c816121d1565b82525050565b600061257e8383612563565b60208301905092915050565b6000602082019050919050565b60006125a282612537565b6125ac8185612542565b93506125b783612553565b8060005b838110156125e85781516125cf8882612572565b97506125da8361258a565b9250506001810190506125bb565b5085935050505092915050565b6000602082019050818103600083015261260f8184612597565b905092915050565b612620816121d1565b82525050565b600060208201905061263b6000830184612617565b92915050565b600080604083850312156126585761265761203a565b5b6000612666858286016121fa565b9250506020612677858286016121fa565b9150509250929050565b7f4e487b7100000000000000000000000000000000000000000000000000000000600052602260045260246000fd5b600060028204905060018216806126c857607f821691505b6020821081036126db576126da612681565b5b50919050565b7f4e487b7100000000000000000000000000000000000000000000000000000000600052601160045260246000fd5b600061271b8261220f565b91506127268361220f565b925082820190508082111561273e5761273d6126e1565b5b92915050565b600081519050919050565b600082825260208201905092915050565b600061276b82612744565b612775818561274f565b935061278581856020860161211b565b61278e81612145565b840191505092915050565b60006040820190506127ae6000830185612285565b81810360208301526127c08184612760565b90509392505050565b60006060820190506127de6000830186612617565b6127eb6020830185612285565b81810360408301526127fd8184612760565b9050949350505050565b7f4d7573742062652070726f706f736564206f776e657200000000000000000000600082015250565b600061283d60168361210a565b915061284882612807565b602082019050919050565b6000602082019050818103600083015261286c81612830565b9050919050565b7f45524332303a2064656372656173656420616c6c6f77616e63652062656c6f7760008201527f207a65726f000000000000000000000000000000000000000000000000000000602082015250565b60006128cf60258361210a565b91506128da82612873565b604082019050919050565b600060208201905081810360008301526128fe816128c2565b9050919050565b7f45524332303a20696e73756666696369656e7420616c6c6f77616e6365000000600082015250565b600061293b601d8361210a565b915061294682612905565b602082019050919050565b6000602082019050818103600083015261296a8161292e565b9050919050565b7f45524332303a206d696e7420746f20746865207a65726f206164647265737300600082015250565b60006129a7601f8361210a565b91506129b282612971565b602082019050919050565b600060208201905081810360008301526129d68161299a565b9050919050565b7f4f6e6c792063616c6c61626c65206279206f776e657200000000000000000000600082015250565b6000612a1360168361210a565b9150612a1e826129dd565b602082019050919050565b60006020820190508181036000830152612a4281612a06565b9050919050565b7f43616e6e6f74207472616e7366657220746f2073656c66000000000000000000600082015250565b6000612a7f60178361210a565b9150612a8a82612a49565b602082019050919050565b60006020820190508181036000830152612aae81612a72565b9050919050565b7f45524332303a20617070726f76652066726f6d20746865207a65726f2061646460008201527f7265737300000000000000000000000000000000000000000000000000000000602082015250565b6000612b1160248361210a565b9150612b1c82612ab5565b604082019050919050565b60006020820190508181036000830152612b4081612b04565b9050919050565b7f45524332303a20617070726f766520746f20746865207a65726f20616464726560008201527f7373000000000000000000000000000000000000000000000000000000000000602082015250565b6000612ba360228361210a565b9150612bae82612b47565b604082019050919050565b60006020820190508181036000830152612bd281612b96565b9050919050565b7f45524332303a207472616e736665722066726f6d20746865207a65726f20616460008201527f6472657373000000000000000000000000000000000000000000000000000000602082015250565b6000612c3560258361210a565b9150612c4082612bd9565b604082019050919050565b60006020820190508181036000830152612c6481612c28565b9050919050565b7f45524332303a207472616e7366657220746f20746865207a65726f206164647260008201527f6573730000000000000000000000000000000000000000000000000000000000602082015250565b6000612cc760238361210a565b9150612cd282612c6b565b604082019050919050565b60006020820190508181036000830152612cf681612cba565b9050919050565b7f45524332303a207472616e7366657220616d6f756e742065786365656473206260008201527f616c616e63650000000000000000000000000000000000000000000000000000602082015250565b6000612d5960268361210a565b9150612d6482612cfd565b604082019050919050565b60006020820190508181036000830152612d8881612d4c565b9050919050565b7f45524332303a206275726e2066726f6d20746865207a65726f2061646472657360008201527f7300000000000000000000000000000000000000000000000000000000000000602082015250565b6000612deb60218361210a565b9150612df682612d8f565b604082019050919050565b60006020820190508181036000830152612e1a81612dde565b9050919050565b7f45524332303a206275726e20616d6f756e7420657863656564732062616c616e60008201527f6365000000000000000000000000000000000000000000000000000000000000602082015250565b6000612e7d60228361210a565b9150612e8882612e21565b604082019050919050565b60006020820190508181036000830152612eac81612e70565b9050919050565b6000612ebe8261220f565b9150612ec98361220f565b9250828203905081811115612ee157612ee06126e1565b5b92915050565b7f4e487b7100000000000000000000000000000000000000000000000000000000600052603260045260246000fd5b7f4e487b7100000000000000000000000000000000000000000000000000000000600052603160045260246000fdfea2646970667358221220a65480a51891970a0d4d1d2fd6d59f15b9992605a61a2af1f2ffa05ac6a11bad64736f6c63430008130033608060405234801561001057600080fd5b5061256b806100206000396000f3fe6080604052600436106100865760003560e01c8063a48a905811610059578063a48a905814610174578063a8d87a3b146101b1578063d6be695a146101ee578063ee18e0d314610219578063fbca3b741461024457610086565b806320487ded1461008b5780633cf97983146100c857806383826b2b1461010757806396f4e9f914610144575b600080fd5b34801561009757600080fd5b506100b260048036038101906100ad9190611345565b610281565b6040516100bf91906113b0565b60405180910390f35b3480156100d457600080fd5b506100ef60048036038101906100ea9190611429565b610289565b6040516100fe93929190611546565b60405180910390f35b34801561011357600080fd5b5061012e60048036038101906101299190611584565b6102b4565b60405161013b91906115c4565b60405180910390f35b61015e600480360381019061015991906115fe565b6102c0565b60405161016b9190611673565b60405180910390f35b34801561018057600080fd5b5061019b6004803603810190610196919061168e565b610646565b6040516101a891906115c4565b60405180910390f35b3480156101bd57600080fd5b506101d860048036038101906101d3919061168e565b610651565b6040516101e591906116ca565b60405180910390f35b3480156101fa57600080fd5b5061020361065f565b60405161021091906116f4565b60405180910390f35b34801561022557600080fd5b5061022e610666565b60405161023b919061171e565b60405180910390f35b34801561025057600080fd5b5061026b6004803603810190610266919061168e565b61066c565b60405161027891906117f7565b60405180910390f35b600092915050565b6000606060006102a48761029c90611925565b8787876106bf565b9250925092509450945094915050565b60006001905092915050565b600060208280600001906102d49190611947565b905014610328578180600001906102eb9190611947565b6040517f370d875f00000000000000000000000000000000000000000000000000000000815260040161031f9291906119d7565b60405180910390fd5b600082806000019061033a9190611947565b81019061034791906119fb565b905073ffffffffffffffffffffffffffffffffffffffff801681118061036d5750600a81105b156103bf578280600001906103829190611947565b6040517f370d875f0000000000000000000000000000000000000000000000000000000081526004016103b69291906119d7565b60405180910390fd5b600081905060006103de8580608001906103d99190611947565b61087c565b6000015190506000856040516020016103f79190611d1a565b60405160208183030381529060405280519060200120905060006040518060a0016040528083815260200167de41ba4fc9d91ad967ffffffffffffffff1681526020013360405160200161044b91906116ca565b604051602081830303815290604052815260200188806020019061046f9190611947565b8080601f016020809104026020016040519081016040528093929190818152602001838380828437600081840152601f19601f8201169050808301925050505050505081526020018880604001906104c79190611d3c565b808060200260200160405190810160405280939291908181526020016000905b82821015610517578484839050604002018036038101906105089190611d9f565b815260200190600101906104e7565b5050505050815250905060005b8780604001906105349190611d3c565b90508110156105dd576105cc33868a80604001906105529190611d3c565b8581811061056357610562611dcc565b5b905060400201602001358b806040019061057d9190611d3c565b8681811061058e5761058d611dcc565b5b90506040020160000160208101906105a69190611dfb565b73ffffffffffffffffffffffffffffffffffffffff16610965909392919063ffffffff16565b806105d690611e57565b9050610524565b506000806105ef8361138887896106bf565b50915091508161063657806040517f0a8d6e8c00000000000000000000000000000000000000000000000000000000815260040161062d9190611e9f565b60405180910390fd5b8397505050505050505092915050565b600060019050919050565b600063499602d29050919050565b62030d4081565b61138881565b6060600067ffffffffffffffff81111561068957610688610f63565b5b6040519080825280602002602001820160405280156106b75781602001602082028036833780820191505090505b509050919050565b600060606000808473ffffffffffffffffffffffffffffffffffffffff163b1480610730575061072e7f85572ffb000000000000000000000000000000000000000000000000000000008573ffffffffffffffffffffffffffffffffffffffff166109ee90919063ffffffff16565b155b1561075557600160006040518060200160405280600081525090925092509250610872565b60006385572ffb60e01b886040516024016107709190612069565b604051602081830303815290604052907bffffffffffffffffffffffffffffffffffffffffffffffffffffffff19166020820180517bffffffffffffffffffffffffffffffffffffffffffffffffffffffff838183161783525050505090506107dd8186888a6084610a13565b8094508195508296505050507fa8b0355886b5b7a28bb97e4f0a24feb172618407402721c4012d8b7c6433102f84848460405161081c93929190611546565b60405180910390a17f9b877de93ea9895756e337442c657f95a34fc68e7eb988bdfa693d5be83016b688600001518960200151338480519060200120604051610868949392919061208b565b60405180910390a1505b9450945094915050565b610884610ee6565b600083839050036108b257604051806020016040528062030d4067ffffffffffffffff16815250905061095f565b6397a657c960e01b7bffffffffffffffffffffffffffffffffffffffffffffffffffffffff19168383906108e69190612114565b7bffffffffffffffffffffffffffffffffffffffffffffffffffffffff19161461093c576040517f5247fdce00000000000000000000000000000000000000000000000000000000815260040160405180910390fd5b8282600490809261094f9392919061217d565b81019061095c91906121f4565b90505b92915050565b6109e8846323b872dd60e01b85858560405160240161098693929190612221565b604051602081830303815290604052907bffffffffffffffffffffffffffffffffffffffffffffffffffffffff19166020820180517bffffffffffffffffffffffffffffffffffffffffffffffffffffffff8381831617835250505050610b46565b50505050565b60006109f983610c0d565b8015610a0b5750610a0a8383610c5a565b5b905092915050565b6000606060008361ffff1667ffffffffffffffff811115610a3757610a36610f63565b5b6040519080825280601f01601f191660200182016040528015610a695781602001600182028036833780820191505090505b509150863b610a9c577f0c3b563c0000000000000000000000000000000000000000000000000000000060005260046000fd5b5a85811015610acf577fafa32a2c0000000000000000000000000000000000000000000000000000000060005260046000fd5b85810390508660408204820311610b0a577f37c3be290000000000000000000000000000000000000000000000000000000060005260046000fd5b5a6000808b5160208d0160008d8df194505a810392503d86811115610b2d578690505b808552806000602087013e505050955095509592505050565b6000610ba8826040518060400160405280602081526020017f5361666545524332303a206c6f772d6c6576656c2063616c6c206661696c65648152508573ffffffffffffffffffffffffffffffffffffffff16610d199092919063ffffffff16565b9050600081511115610c085780806020019051810190610bc89190612284565b610c07576040517f08c379a0000000000000000000000000000000000000000000000000000000008152600401610bfe90612334565b60405180910390fd5b5b505050565b6000610c39827f01ffc9a700000000000000000000000000000000000000000000000000000000610c5a565b8015610c535750610c518263ffffffff60e01b610c5a565b155b9050919050565b6000806301ffc9a760e01b83604051602401610c769190612363565b604051602081830303815290604052907bffffffffffffffffffffffffffffffffffffffffffffffffffffffff19166020820180517bffffffffffffffffffffffffffffffffffffffffffffffffffffffff838183161783525050505090506000806000602060008551602087018a617530fa92503d91506000519050828015610d01575060208210155b8015610d0d5750600081115b94505050505092915050565b6060610d288484600085610d31565b90509392505050565b606082471015610d76576040517f08c379a0000000000000000000000000000000000000000000000000000000008152600401610d6d906123f0565b60405180910390fd5b6000808673ffffffffffffffffffffffffffffffffffffffff168587604051610d9f919061244c565b60006040518083038185875af1925050503d8060008114610ddc576040519150601f19603f3d011682016040523d82523d6000602084013e610de1565b606091505b5091509150610df287838387610dfe565b92505050949350505050565b60608315610e60576000835103610e5857610e1885610e73565b610e57576040517f08c379a0000000000000000000000000000000000000000000000000000000008152600401610e4e906124af565b60405180910390fd5b5b829050610e6b565b610e6a8383610e96565b5b949350505050565b6000808273ffffffffffffffffffffffffffffffffffffffff163b119050919050565b600082511115610ea95781518083602001fd5b806040517f08c379a0000000000000000000000000000000000000000000000000000000008152600401610edd9190612513565b60405180910390fd5b6040518060200160405280600081525090565b6000604051905090565b600080fd5b600080fd5b600067ffffffffffffffff82169050919050565b610f2a81610f0d565b8114610f3557600080fd5b50565b600081359050610f4781610f21565b92915050565b600080fd5b6000601f19601f8301169050919050565b7f4e487b7100000000000000000000000000000000000000000000000000000000600052604160045260246000fd5b610f9b82610f52565b810181811067ffffffffffffffff82111715610fba57610fb9610f63565b5b80604052505050565b6000610fcd610ef9565b9050610fd98282610f92565b919050565b600080fd5b600080fd5b600080fd5b600067ffffffffffffffff82111561100857611007610f63565b5b61101182610f52565b9050602081019050919050565b82818337600083830152505050565b600061104061103b84610fed565b610fc3565b90508281526020810184848401111561105c5761105b610fe8565b5b61106784828561101e565b509392505050565b600082601f83011261108457611083610fe3565b5b813561109484826020860161102d565b91505092915050565b600067ffffffffffffffff8211156110b8576110b7610f63565b5b602082029050602081019050919050565b600080fd5b600073ffffffffffffffffffffffffffffffffffffffff82169050919050565b60006110f9826110ce565b9050919050565b611109816110ee565b811461111457600080fd5b50565b60008135905061112681611100565b92915050565b6000819050919050565b61113f8161112c565b811461114a57600080fd5b50565b60008135905061115c81611136565b92915050565b60006040828403121561117857611177610f4d565b5b6111826040610fc3565b9050600061119284828501611117565b60008301525060206111a68482850161114d565b60208301525092915050565b60006111c56111c08461109d565b610fc3565b905080838252602082019050604084028301858111156111e8576111e76110c9565b5b835b8181101561121157806111fd8882611162565b8452602084019350506040810190506111ea565b5050509392505050565b600082601f8301126112305761122f610fe3565b5b81356112408482602086016111b2565b91505092915050565b600060a0828403121561125f5761125e610f4d565b5b61126960a0610fc3565b9050600082013567ffffffffffffffff81111561128957611288610fde565b5b6112958482850161106f565b600083015250602082013567ffffffffffffffff8111156112b9576112b8610fde565b5b6112c58482850161106f565b602083015250604082013567ffffffffffffffff8111156112e9576112e8610fde565b5b6112f58482850161121b565b604083015250606061130984828501611117565b606083015250608082013567ffffffffffffffff81111561132d5761132c610fde565b5b6113398482850161106f565b60808301525092915050565b6000806040838503121561135c5761135b610f03565b5b600061136a85828601610f38565b925050602083013567ffffffffffffffff81111561138b5761138a610f08565b5b61139785828601611249565b9150509250929050565b6113aa8161112c565b82525050565b60006020820190506113c560008301846113a1565b92915050565b600080fd5b600060a082840312156113e6576113e56113cb565b5b81905092915050565b600061ffff82169050919050565b611406816113ef565b811461141157600080fd5b50565b600081359050611423816113fd565b92915050565b6000806000806080858703121561144357611442610f03565b5b600085013567ffffffffffffffff81111561146157611460610f08565b5b61146d878288016113d0565b945050602061147e87828801611414565b935050604061148f8782880161114d565b92505060606114a087828801611117565b91505092959194509250565b60008115159050919050565b6114c1816114ac565b82525050565b600081519050919050565b600082825260208201905092915050565b60005b838110156115015780820151818401526020810190506114e6565b60008484015250505050565b6000611518826114c7565b61152281856114d2565b93506115328185602086016114e3565b61153b81610f52565b840191505092915050565b600060608201905061155b60008301866114b8565b818103602083015261156d818561150d565b905061157c60408301846113a1565b949350505050565b6000806040838503121561159b5761159a610f03565b5b60006115a985828601610f38565b92505060206115ba85828601611117565b9150509250929050565b60006020820190506115d960008301846114b8565b92915050565b600060a082840312156115f5576115f46113cb565b5b81905092915050565b6000806040838503121561161557611614610f03565b5b600061162385828601610f38565b925050602083013567ffffffffffffffff81111561164457611643610f08565b5b611650858286016115df565b9150509250929050565b6000819050919050565b61166d8161165a565b82525050565b60006020820190506116886000830184611664565b92915050565b6000602082840312156116a4576116a3610f03565b5b60006116b284828501610f38565b91505092915050565b6116c4816110ee565b82525050565b60006020820190506116df60008301846116bb565b92915050565b6116ee81610f0d565b82525050565b600060208201905061170960008301846116e5565b92915050565b611718816113ef565b82525050565b6000602082019050611733600083018461170f565b92915050565b600081519050919050565b600082825260208201905092915050565b6000819050602082019050919050565b61176e816110ee565b82525050565b60006117808383611765565b60208301905092915050565b6000602082019050919050565b60006117a482611739565b6117ae8185611744565b93506117b983611755565b8060005b838110156117ea5781516117d18882611774565b97506117dc8361178c565b9250506001810190506117bd565b5085935050505092915050565b600060208201905081810360008301526118118184611799565b905092915050565b6118228161165a565b811461182d57600080fd5b50565b60008135905061183f81611819565b92915050565b600060a0828403121561185b5761185a610f4d565b5b61186560a0610fc3565b9050600061187584828501611830565b600083015250602061188984828501610f38565b602083015250604082013567ffffffffffffffff8111156118ad576118ac610fde565b5b6118b98482850161106f565b604083015250606082013567ffffffffffffffff8111156118dd576118dc610fde565b5b6118e98482850161106f565b606083015250608082013567ffffffffffffffff81111561190d5761190c610fde565b5b6119198482850161121b565b60808301525092915050565b60006119313683611845565b9050919050565b600080fd5b600080fd5b600080fd5b6000808335600160200384360303811261196457611963611938565b5b80840192508235915067ffffffffffffffff8211156119865761198561193d565b5b6020830192506001820236038313156119a2576119a1611942565b5b509250929050565b60006119b683856114d2565b93506119c383858461101e565b6119cc83610f52565b840190509392505050565b600060208201905081810360008301526119f28184866119aa565b90509392505050565b600060208284031215611a1157611a10610f03565b5b6000611a1f8482850161114d565b91505092915050565b600080fd5b600080fd5b600080fd5b60008083356001602003843603038112611a5457611a53611a32565b5b83810192508235915060208301925067ffffffffffffffff821115611a7c57611a7b611a28565b5b600182023603831315611a9257611a91611a2d565b5b509250929050565b600082825260208201905092915050565b6000611ab78385611a9a565b9350611ac483858461101e565b611acd83610f52565b840190509392505050565b60008083356001602003843603038112611af557611af4611a32565b5b83810192508235915060208301925067ffffffffffffffff821115611b1d57611b1c611a28565b5b604082023603831315611b3357611b32611a2d565b5b509250929050565b600082825260208201905092915050565b6000819050919050565b6000611b656020840184611117565b905092915050565b6000611b7c602084018461114d565b905092915050565b611b8d8161112c565b82525050565b60408201611ba46000830183611b56565b611bb16000850182611765565b50611bbf6020830183611b6d565b611bcc6020850182611b84565b50505050565b6000611bde8383611b93565b60408301905092915050565b600082905092915050565b6000604082019050919050565b6000611c0e8385611b3b565b9350611c1982611b4c565b8060005b85811015611c5257611c2f8284611bea565b611c398882611bd2565b9750611c4483611bf5565b925050600181019050611c1d565b5085925050509392505050565b600060a08301611c726000840184611a37565b8583036000870152611c85838284611aab565b92505050611c966020840184611a37565b8583036020870152611ca9838284611aab565b92505050611cba6040840184611ad8565b8583036040870152611ccd838284611c02565b92505050611cde6060840184611b56565b611ceb6060860182611765565b50611cf96080840184611a37565b8583036080870152611d0c838284611aab565b925050508091505092915050565b60006020820190508181036000830152611d348184611c5f565b905092915050565b60008083356001602003843603038112611d5957611d58611938565b5b80840192508235915067ffffffffffffffff821115611d7b57611d7a61193d565b5b602083019250604082023603831315611d9757611d96611942565b5b509250929050565b600060408284031215611db557611db4610f03565b5b6000611dc384828501611162565b91505092915050565b7f4e487b7100000000000000000000000000000000000000000000000000000000600052603260045260246000fd5b600060208284031215611e1157611e10610f03565b5b6000611e1f84828501611117565b91505092915050565b7f4e487b7100000000000000000000000000000000000000000000000000000000600052601160045260246000fd5b6000611e628261112c565b91507fffffffffffffffffffffffffffffffffffffffffffffffffffffffffffffffff8203611e9457611e93611e28565b5b600182019050919050565b60006020820190508181036000830152611eb9818461150d565b905092915050565b611eca8161165a565b82525050565b611ed981610f0d565b82525050565b6000611eea826114c7565b611ef48185611a9a565b9350611f048185602086016114e3565b611f0d81610f52565b840191505092915050565b600081519050919050565b6000819050602082019050919050565b604082016000820151611f496000850182611765565b506020820151611f5c6020850182611b84565b50505050565b6000611f6e8383611f33565b60408301905092915050565b6000602082019050919050565b6000611f9282611f18565b611f9c8185611b3b565b9350611fa783611f23565b8060005b83811015611fd8578151611fbf8882611f62565b9750611fca83611f7a565b925050600181019050611fab565b5085935050505092915050565b600060a083016000830151611ffd6000860182611ec1565b5060208301516120106020860182611ed0565b50604083015184820360408601526120288282611edf565b915050606083015184820360608601526120428282611edf565b9150506080830151848203608086015261205c8282611f87565b9150508091505092915050565b600060208201905081810360008301526120838184611fe5565b905092915050565b60006080820190506120a06000830187611664565b6120ad60208301866116e5565b6120ba60408301856116bb565b6120c76060830184611664565b95945050505050565b600082905092915050565b60007fffffffff0000000000000000000000000000000000000000000000000000000082169050919050565b600082821b905092915050565b600061212083836120d0565b8261212b81356120db565b9250600482101561216b576121667fffffffff0000000000000000000000000000000000000000000000000000000083600403600802612107565b831692505b505092915050565b600080fd5b600080fd5b6000808585111561219157612190612173565b5b838611156121a2576121a1612178565b5b6001850283019150848603905094509492505050565b6000602082840312156121ce576121cd610f4d565b5b6121d86020610fc3565b905060006121e88482850161114d565b60008301525092915050565b60006020828403121561220a57612209610f03565b5b6000612218848285016121b8565b91505092915050565b600060608201905061223660008301866116bb565b61224360208301856116bb565b61225060408301846113a1565b949350505050565b612261816114ac565b811461226c57600080fd5b50565b60008151905061227e81612258565b92915050565b60006020828403121561229a57612299610f03565b5b60006122a88482850161226f565b91505092915050565b600082825260208201905092915050565b7f5361666545524332303a204552433230206f7065726174696f6e20646964206e60008201527f6f74207375636365656400000000000000000000000000000000000000000000602082015250565b600061231e602a836122b1565b9150612329826122c2565b604082019050919050565b6000602082019050818103600083015261234d81612311565b9050919050565b61235d816120db565b82525050565b60006020820190506123786000830184612354565b92915050565b7f416464726573733a20696e73756666696369656e742062616c616e636520666f60008201527f722063616c6c0000000000000000000000000000000000000000000000000000602082015250565b60006123da6026836122b1565b91506123e58261237e565b604082019050919050565b60006020820190508181036000830152612409816123cd565b9050919050565b600081905092915050565b6000612426826114c7565b6124308185612410565b93506124408185602086016114e3565b80840191505092915050565b6000612458828461241b565b915081905092915050565b7f416464726573733a2063616c6c20746f206e6f6e2d636f6e7472616374000000600082015250565b6000612499601d836122b1565b91506124a482612463565b602082019050919050565b600060208201905081810360008301526124c88161248c565b9050919050565b600081519050919050565b60006124e5826124cf565b6124ef81856122b1565b93506124ff8185602086016114e3565b61250881610f52565b840191505092915050565b6000602082019050818103600083015261252d81846124da565b90509291505056fea26469706673582212205cc5d0c4a2c1810ec92e3edb801beb969cf5a23c8ccda17bcd10a5b43d0d075664736f6c63430008130033","linkReferences":{}},"methodIdentifiers":{"configuration()":"6c70bee9","getSupportedTokens(uint64)":"fbca3b74","isChainSupported(uint64)":"a48a9058","requestLinkFromFaucet(address,uint256)":"657b9a4e","supportNewToken(address)":"cf838140"},"id":67}