{"abi":[{"type":"constructor","inputs":[{"name":"router","type":"address","internalType":"address"},{"name":"link","type":"address","internalType":"address"}],"stateMutability":"nonpayable"},{"type":"receive","stateMutability":"payable"},{"type":"function","name":"acceptOwnership","inputs":[],"outputs":[],"stateMutability":"nonpayable"},{"type":"function","name":"getSupportedTokens","inputs":[{"name":"chainSelector","type":"uint64","internalType":"uint64"}],"outputs":[{"name":"tokens","type":"address[]","internalType":"address[]"}],"stateMutability":"view"},{"type":"function","name":"owner","inputs":[],"outputs":[{"name":"","type":"address","internalType":"address"}],"stateMutability":"view"},{"type":"function","name":"send","inputs":[{"name":"destinationChainSelector","type":"uint64","internalType":"uint64"},{"name":"receiver","type":"address","internalType":"address"},{"name":"tokensToSendDetails","type":"tuple[]","internalType":"struct Client.EVMTokenAmount[]","components":[{"name":"token","type":"address","internalType":"address"},{"name":"amount","type":"uint256","internalType":"uint256"}]},{"name":"payFeesIn","type":"uint8","internalType":"enum BasicTokenSender.PayFeesIn"}],"outputs":[],"stateMutability":"nonpayable"},{"type":"function","name":"transferOwnership","inputs":[{"name":"to","type":"address","internalType":"address"}],"outputs":[],"stateMutability":"nonpayable"},{"type":"function","name":"withdraw","inputs":[{"name":"beneficiary","type":"address","internalType":"address"}],"outputs":[],"stateMutability":"nonpayable"},{"type":"function","name":"withdrawToken","inputs":[{"name":"beneficiary","type":"address","internalType":"address"},{"name":"token","type":"address","internalType":"address"}],"outputs":[],"stateMutability":"nonpayable"},{"type":"event","name":"MessageSent","inputs":[{"name":"messageId","type":"bytes32","indexed":false,"internalType":"bytes32"}],"anonymous":false},{"type":"event","name":"OwnershipTransferRequested","inputs":[{"name":"from","type":"address","indexed":true,"internalType":"address"},{"name":"to","type":"address","indexed":true,"internalType":"address"}],"anonymous":false},{"type":"event","name":"OwnershipTransferred","inputs":[{"name":"from","type":"address","indexed":true,"internalType":"address"},{"name":"to","type":"address","indexed":true,"internalType":"address"}],"anonymous":false},{"type":"error","name":"FailedToWithdrawEth","inputs":[{"name":"owner","type":"address","internalType":"address"},{"name":"target","type":"address","internalType":"address"},{"name":"value","type":"uint256","internalType":"uint256"}]}],"bytecode":{"object":"0x60c06040523480156200001157600080fd5b506040516200236b3803806200236b83398181016040528101906200003791906200033f565b338060008073ffffffffffffffffffffffffffffffffffffffff168273ffffffffffffffffffffffffffffffffffffffff1603620000ac576040517f08c379a0000000000000000000000000000000000000000000000000000000008152600401620000a390620003e7565b60405180910390fd5b816000806101000a81548173ffffffffffffffffffffffffffffffffffffffff021916908373ffffffffffffffffffffffffffffffffffffffff160217905550600073ffffffffffffffffffffffffffffffffffffffff168173ffffffffffffffffffffffffffffffffffffffff161462000133576200013281620001a660201b60201c565b5b5050508173ffffffffffffffffffffffffffffffffffffffff1660808173ffffffffffffffffffffffffffffffffffffffff16815250508073ffffffffffffffffffffffffffffffffffffffff1660a08173ffffffffffffffffffffffffffffffffffffffff168152505050506200047b565b3373ffffffffffffffffffffffffffffffffffffffff168173ffffffffffffffffffffffffffffffffffffffff160362000217576040517f08c379a00000000000000000000000000000000000000000000000000000000081526004016200020e9062000459565b60405180910390fd5b80600160006101000a81548173ffffffffffffffffffffffffffffffffffffffff021916908373ffffffffffffffffffffffffffffffffffffffff1602179055508073ffffffffffffffffffffffffffffffffffffffff1660008054906101000a900473ffffffffffffffffffffffffffffffffffffffff1673ffffffffffffffffffffffffffffffffffffffff167fed8889f560326eb138920d842192f0eb3dd22b4f139c87a2c57538e05bae127860405160405180910390a350565b600080fd5b600073ffffffffffffffffffffffffffffffffffffffff82169050919050565b60006200030782620002da565b9050919050565b6200031981620002fa565b81146200032557600080fd5b50565b60008151905062000339816200030e565b92915050565b60008060408385031215620003595762000358620002d5565b5b6000620003698582860162000328565b92505060206200037c8582860162000328565b9150509250929050565b600082825260208201905092915050565b7f43616e6e6f7420736574206f776e657220746f207a65726f0000000000000000600082015250565b6000620003cf60188362000386565b9150620003dc8262000397565b602082019050919050565b600060208201905081810360008301526200040281620003c0565b9050919050565b7f43616e6e6f74207472616e7366657220746f2073656c66000000000000000000600082015250565b60006200044160178362000386565b91506200044e8262000409565b602082019050919050565b60006020820190508181036000830152620004748162000432565b9050919050565b60805160a051611ea0620004cb600039600081816106bd01526107dc01526000818161059101528181610711015281816108180152818161089b015281816109400152610a390152611ea06000f3fe6080604052600436106100745760003560e01c80638da5cb5b1161004e5780638da5cb5b146100e9578063b6d2440c14610114578063f2fde38b1461013d578063fbca3b74146101665761007b565b80633aeac4e11461008057806351cff8d9146100a957806379ba5097146100d25761007b565b3661007b57005b600080fd5b34801561008c57600080fd5b506100a760048036038101906100a291906110ae565b6101a3565b005b3480156100b557600080fd5b506100d060048036038101906100cb91906110ee565b610259565b005b3480156100de57600080fd5b506100e761031d565b005b3480156100f557600080fd5b506100fe6104b2565b60405161010b919061112a565b60405180910390f35b34801561012057600080fd5b5061013b6004803603810190610136919061138e565b6104db565b005b34801561014957600080fd5b50610164600480360381019061015f91906110ee565b610a21565b005b34801561017257600080fd5b5061018d60048036038101906101889190611411565b610a35565b60405161019a91906114fc565b60405180910390f35b6101ab610add565b60008173ffffffffffffffffffffffffffffffffffffffff166370a08231306040518263ffffffff1660e01b81526004016101e6919061112a565b602060405180830381865afa158015610203573d6000803e3d6000fd5b505050506040513d601f19601f820116820180604052508101906102279190611533565b905061025483828473ffffffffffffffffffffffffffffffffffffffff16610b6d9092919063ffffffff16565b505050565b610261610add565b600047905060008273ffffffffffffffffffffffffffffffffffffffff168260405161028c90611591565b60006040518083038185875af1925050503d80600081146102c9576040519150601f19603f3d011682016040523d82523d6000602084013e6102ce565b606091505b5050905080610318573383836040517f9d11f56300000000000000000000000000000000000000000000000000000000815260040161030f939291906115b5565b60405180910390fd5b505050565b600160009054906101000a900473ffffffffffffffffffffffffffffffffffffffff1673ffffffffffffffffffffffffffffffffffffffff163373ffffffffffffffffffffffffffffffffffffffff16146103ad576040517f08c379a00000000000000000000000000000000000000000000000000000000081526004016103a490611649565b60405180910390fd5b60008060009054906101000a900473ffffffffffffffffffffffffffffffffffffffff169050336000806101000a81548173ffffffffffffffffffffffffffffffffffffffff021916908373ffffffffffffffffffffffffffffffffffffffff1602179055506000600160006101000a81548173ffffffffffffffffffffffffffffffffffffffff021916908373ffffffffffffffffffffffffffffffffffffffff1602179055503373ffffffffffffffffffffffffffffffffffffffff168173ffffffffffffffffffffffffffffffffffffffff167f8be0079c531659141344cd1fd0a4f28419497f9722a3daafe3b4186f6b6457e060405160405180910390a350565b60008060009054906101000a900473ffffffffffffffffffffffffffffffffffffffff16905090565b60008251905060005b8181101561063b57610555333086848151811061050457610503611669565b5b60200260200101516020015187858151811061052357610522611669565b5b60200260200101516000015173ffffffffffffffffffffffffffffffffffffffff16610bf3909392919063ffffffff16565b83818151811061056857610567611669565b5b60200260200101516000015173ffffffffffffffffffffffffffffffffffffffff1663095ea7b37f00000000000000000000000000000000000000000000000000000000000000008684815181106105c3576105c2611669565b5b6020026020010151602001516040518363ffffffff1660e01b81526004016105ec929190611698565b6020604051808303816000875af115801561060b573d6000803e3d6000fd5b505050506040513d601f19601f8201168201806040525081019061062f91906116f9565b508060010190506104e4565b5060006040518060a001604052808660405160200161065a919061112a565b604051602081830303815290604052815260200160405180602001604052806000815250815260200185815260200160018081111561069c5761069b611726565b5b8560018111156106af576106ae611726565b5b146106bb5760006106dd565b7f00000000000000000000000000000000000000000000000000000000000000005b73ffffffffffffffffffffffffffffffffffffffff16815260200160405180602001604052806000815250815250905060007f000000000000000000000000000000000000000000000000000000000000000073ffffffffffffffffffffffffffffffffffffffff166320487ded88846040518363ffffffff1660e01b815260040161076a92919061195b565b602060405180830381865afa158015610787573d6000803e3d6000fd5b505050506040513d601f19601f820116820180604052508101906107ab9190611533565b905060006001808111156107c2576107c1611726565b5b8560018111156107d5576107d4611726565b5b0361093e577f000000000000000000000000000000000000000000000000000000000000000073ffffffffffffffffffffffffffffffffffffffff1663095ea7b37f0000000000000000000000000000000000000000000000000000000000000000846040518363ffffffff1660e01b8152600401610855929190611698565b6020604051808303816000875af1158015610874573d6000803e3d6000fd5b505050506040513d601f19601f8201168201806040525081019061089891906116f9565b507f000000000000000000000000000000000000000000000000000000000000000073ffffffffffffffffffffffffffffffffffffffff166396f4e9f989856040518363ffffffff1660e01b81526004016108f492919061195b565b6020604051808303816000875af1158015610913573d6000803e3d6000fd5b505050506040513d601f19601f8201168201806040525081019061093791906119c1565b90506109e0565b7f000000000000000000000000000000000000000000000000000000000000000073ffffffffffffffffffffffffffffffffffffffff166396f4e9f9838a866040518463ffffffff1660e01b815260040161099a92919061195b565b60206040518083038185885af11580156109b8573d6000803e3d6000fd5b50505050506040513d601f19601f820116820180604052508101906109dd91906119c1565b90505b7f54791b38f3859327992a1ca0590ad3c0f08feba98d1a4f56ab0dca74d203392a81604051610a0f91906119fd565b60405180910390a15050505050505050565b610a29610add565b610a3281610c7c565b50565b60607f000000000000000000000000000000000000000000000000000000000000000073ffffffffffffffffffffffffffffffffffffffff1663fbca3b74836040518263ffffffff1660e01b8152600401610a909190611a18565b600060405180830381865afa158015610aad573d6000803e3d6000fd5b505050506040513d6000823e3d601f19601f82011682018060405250810190610ad69190611b0b565b9050919050565b60008054906101000a900473ffffffffffffffffffffffffffffffffffffffff1673ffffffffffffffffffffffffffffffffffffffff163373ffffffffffffffffffffffffffffffffffffffff1614610b6b576040517f08c379a0000000000000000000000000000000000000000000000000000000008152600401610b6290611ba0565b60405180910390fd5b565b610bee8363a9059cbb60e01b8484604051602401610b8c929190611698565b604051602081830303815290604052907bffffffffffffffffffffffffffffffffffffffffffffffffffffffff19166020820180517bffffffffffffffffffffffffffffffffffffffffffffffffffffffff8381831617835250505050610da8565b505050565b610c76846323b872dd60e01b858585604051602401610c14939291906115b5565b604051602081830303815290604052907bffffffffffffffffffffffffffffffffffffffffffffffffffffffff19166020820180517bffffffffffffffffffffffffffffffffffffffffffffffffffffffff8381831617835250505050610da8565b50505050565b3373ffffffffffffffffffffffffffffffffffffffff168173ffffffffffffffffffffffffffffffffffffffff1603610cea576040517f08c379a0000000000000000000000000000000000000000000000000000000008152600401610ce190611c0c565b60405180910390fd5b80600160006101000a81548173ffffffffffffffffffffffffffffffffffffffff021916908373ffffffffffffffffffffffffffffffffffffffff1602179055508073ffffffffffffffffffffffffffffffffffffffff1660008054906101000a900473ffffffffffffffffffffffffffffffffffffffff1673ffffffffffffffffffffffffffffffffffffffff167fed8889f560326eb138920d842192f0eb3dd22b4f139c87a2c57538e05bae127860405160405180910390a350565b6000610e0a826040518060400160405280602081526020017f5361666545524332303a206c6f772d6c6576656c2063616c6c206661696c65648152508573ffffffffffffffffffffffffffffffffffffffff16610e6f9092919063ffffffff16565b9050600081511115610e6a5780806020019051810190610e2a91906116f9565b610e69576040517f08c379a0000000000000000000000000000000000000000000000000000000008152600401610e6090611c9e565b60405180910390fd5b5b505050565b6060610e7e8484600085610e87565b90509392505050565b606082471015610ecc576040517f08c379a0000000000000000000000000000000000000000000000000000000008152600401610ec390611d30565b60405180910390fd5b6000808673ffffffffffffffffffffffffffffffffffffffff168587604051610ef59190611d81565b60006040518083038185875af1925050503d8060008114610f32576040519150601f19603f3d011682016040523d82523d6000602084013e610f37565b606091505b5091509150610f4887838387610f54565b92505050949350505050565b60608315610fb6576000835103610fae57610f6e85610fc9565b610fad576040517f08c379a0000000000000000000000000000000000000000000000000000000008152600401610fa490611de4565b60405180910390fd5b5b829050610fc1565b610fc08383610fec565b5b949350505050565b6000808273ffffffffffffffffffffffffffffffffffffffff163b119050919050565b600082511115610fff5781518083602001fd5b806040517f08c379a00000000000000000000000000000000000000000000000000000000081526004016110339190611e48565b60405180910390fd5b6000604051905090565b600080fd5b600080fd5b600073ffffffffffffffffffffffffffffffffffffffff82169050919050565b600061107b82611050565b9050919050565b61108b81611070565b811461109657600080fd5b50565b6000813590506110a881611082565b92915050565b600080604083850312156110c5576110c4611046565b5b60006110d385828601611099565b92505060206110e485828601611099565b9150509250929050565b60006020828403121561110457611103611046565b5b600061111284828501611099565b91505092915050565b61112481611070565b82525050565b600060208201905061113f600083018461111b565b92915050565b600067ffffffffffffffff82169050919050565b61116281611145565b811461116d57600080fd5b50565b60008135905061117f81611159565b92915050565b600080fd5b6000601f19601f8301169050919050565b7f4e487b7100000000000000000000000000000000000000000000000000000000600052604160045260246000fd5b6111d38261118a565b810181811067ffffffffffffffff821117156111f2576111f161119b565b5b80604052505050565b600061120561103c565b905061121182826111ca565b919050565b600067ffffffffffffffff8211156112315761123061119b565b5b602082029050602081019050919050565b600080fd5b600080fd5b6000819050919050565b61125f8161124c565b811461126a57600080fd5b50565b60008135905061127c81611256565b92915050565b60006040828403121561129857611297611247565b5b6112a260406111fb565b905060006112b284828501611099565b60008301525060206112c68482850161126d565b60208301525092915050565b60006112e56112e084611216565b6111fb565b9050808382526020820190506040840283018581111561130857611307611242565b5b835b81811015611331578061131d8882611282565b84526020840193505060408101905061130a565b5050509392505050565b600082601f8301126113505761134f611185565b5b81356113608482602086016112d2565b91505092915050565b6002811061137657600080fd5b50565b60008135905061138881611369565b92915050565b600080600080608085870312156113a8576113a7611046565b5b60006113b687828801611170565b94505060206113c787828801611099565b935050604085013567ffffffffffffffff8111156113e8576113e761104b565b5b6113f48782880161133b565b925050606061140587828801611379565b91505092959194509250565b60006020828403121561142757611426611046565b5b600061143584828501611170565b91505092915050565b600081519050919050565b600082825260208201905092915050565b6000819050602082019050919050565b61147381611070565b82525050565b6000611485838361146a565b60208301905092915050565b6000602082019050919050565b60006114a98261143e565b6114b38185611449565b93506114be8361145a565b8060005b838110156114ef5781516114d68882611479565b97506114e183611491565b9250506001810190506114c2565b5085935050505092915050565b60006020820190508181036000830152611516818461149e565b905092915050565b60008151905061152d81611256565b92915050565b60006020828403121561154957611548611046565b5b60006115578482850161151e565b91505092915050565b600081905092915050565b50565b600061157b600083611560565b91506115868261156b565b600082019050919050565b600061159c8261156e565b9150819050919050565b6115af8161124c565b82525050565b60006060820190506115ca600083018661111b565b6115d7602083018561111b565b6115e460408301846115a6565b949350505050565b600082825260208201905092915050565b7f4d7573742062652070726f706f736564206f776e657200000000000000000000600082015250565b60006116336016836115ec565b915061163e826115fd565b602082019050919050565b6000602082019050818103600083015261166281611626565b9050919050565b7f4e487b7100000000000000000000000000000000000000000000000000000000600052603260045260246000fd5b60006040820190506116ad600083018561111b565b6116ba60208301846115a6565b9392505050565b60008115159050919050565b6116d6816116c1565b81146116e157600080fd5b50565b6000815190506116f3816116cd565b92915050565b60006020828403121561170f5761170e611046565b5b600061171d848285016116e4565b91505092915050565b7f4e487b7100000000000000000000000000000000000000000000000000000000600052602160045260246000fd5b61175e81611145565b82525050565b600081519050919050565b600082825260208201905092915050565b60005b8381101561179e578082015181840152602081019050611783565b60008484015250505050565b60006117b582611764565b6117bf818561176f565b93506117cf818560208601611780565b6117d88161118a565b840191505092915050565b600081519050919050565b600082825260208201905092915050565b6000819050602082019050919050565b6118188161124c565b82525050565b604082016000820151611834600085018261146a565b506020820151611847602085018261180f565b50505050565b6000611859838361181e565b60408301905092915050565b6000602082019050919050565b600061187d826117e3565b61188781856117ee565b9350611892836117ff565b8060005b838110156118c35781516118aa888261184d565b97506118b583611865565b925050600181019050611896565b5085935050505092915050565b600060a08301600083015184820360008601526118ed82826117aa565b9150506020830151848203602086015261190782826117aa565b915050604083015184820360408601526119218282611872565b9150506060830151611936606086018261146a565b506080830151848203608086015261194e82826117aa565b9150508091505092915050565b60006040820190506119706000830185611755565b818103602083015261198281846118d0565b90509392505050565b6000819050919050565b61199e8161198b565b81146119a957600080fd5b50565b6000815190506119bb81611995565b92915050565b6000602082840312156119d7576119d6611046565b5b60006119e5848285016119ac565b91505092915050565b6119f78161198b565b82525050565b6000602082019050611a1260008301846119ee565b92915050565b6000602082019050611a2d6000830184611755565b92915050565b600067ffffffffffffffff821115611a4e57611a4d61119b565b5b602082029050602081019050919050565b600081519050611a6e81611082565b92915050565b6000611a87611a8284611a33565b6111fb565b90508083825260208201905060208402830185811115611aaa57611aa9611242565b5b835b81811015611ad35780611abf8882611a5f565b845260208401935050602081019050611aac565b5050509392505050565b600082601f830112611af257611af1611185565b5b8151611b02848260208601611a74565b91505092915050565b600060208284031215611b2157611b20611046565b5b600082015167ffffffffffffffff811115611b3f57611b3e61104b565b5b611b4b84828501611add565b91505092915050565b7f4f6e6c792063616c6c61626c65206279206f776e657200000000000000000000600082015250565b6000611b8a6016836115ec565b9150611b9582611b54565b602082019050919050565b60006020820190508181036000830152611bb981611b7d565b9050919050565b7f43616e6e6f74207472616e7366657220746f2073656c66000000000000000000600082015250565b6000611bf66017836115ec565b9150611c0182611bc0565b602082019050919050565b60006020820190508181036000830152611c2581611be9565b9050919050565b7f5361666545524332303a204552433230206f7065726174696f6e20646964206e60008201527f6f74207375636365656400000000000000000000000000000000000000000000602082015250565b6000611c88602a836115ec565b9150611c9382611c2c565b604082019050919050565b60006020820190508181036000830152611cb781611c7b565b9050919050565b7f416464726573733a20696e73756666696369656e742062616c616e636520666f60008201527f722063616c6c0000000000000000000000000000000000000000000000000000602082015250565b6000611d1a6026836115ec565b9150611d2582611cbe565b604082019050919050565b60006020820190508181036000830152611d4981611d0d565b9050919050565b6000611d5b82611764565b611d658185611560565b9350611d75818560208601611780565b80840191505092915050565b6000611d8d8284611d50565b915081905092915050565b7f416464726573733a2063616c6c20746f206e6f6e2d636f6e7472616374000000600082015250565b6000611dce601d836115ec565b9150611dd982611d98565b602082019050919050565b60006020820190508181036000830152611dfd81611dc1565b9050919050565b600081519050919050565b6000611e1a82611e04565b611e2481856115ec565b9350611e34818560208601611780565b611e3d8161118a565b840191505092915050565b60006020820190508181036000830152611e628184611e0f565b90509291505056fea2646970667358221220a5a0a08ca762f8e66ed1c625416f371195bde0d3cde1ab2f019e933279110e3064736f6c63430008130033","linkReferences":{}},"methodIdentifiers":{"acceptOwnership()":"79ba5097","getSupportedTokens(uint64)":"fbca3b74","owner()":"8da5cb5b","send(uint64,address,(address,uint256)[],uint8)":"b6d2440c","transferOwnership(address)":"f2fde38b","withdraw(address)":"51cff8d9","withdrawToken(address,address)":"3aeac4e1"},"id":87}