{"abi":[{"type":"constructor","inputs":[{"name":"initialSupply","type":"uint256","internalType":"uint256"},{"name":"router","type":"address","internalType":"address"},{"name":"link","type":"address","internalType":"address"}],"stateMutability":"nonpayable"},{"type":"function","name":"allowance","inputs":[{"name":"owner","type":"address","internalType":"address"},{"name":"spender","type":"address","internalType":"address"}],"outputs":[{"name":"","type":"uint256","internalType":"uint256"}],"stateMutability":"view"},{"type":"function","name":"approve","inputs":[{"name":"spender","type":"address","internalType":"address"},{"name":"amount","type":"uint256","internalType":"uint256"}],"outputs":[{"name":"","type":"bool","internalType":"bool"}],"stateMutability":"nonpayable"},{"type":"function","name":"balanceOf","inputs":[{"name":"account","type":"address","internalType":"address"}],"outputs":[{"name":"","type":"uint256","internalType":"uint256"}],"stateMutability":"view"},{"type":"function","name":"burnTokens","inputs":[{"name":"amount","type":"uint256","internalType":"uint256"},{"name":"sourceChain","type":"uint64","internalType":"uint64"}],"outputs":[],"stateMutability":"nonpayable"},{"type":"function","name":"ccipReceive","inputs":[{"name":"message","type":"tuple","internalType":"struct Client.Any2EVMMessage","components":[{"name":"messageId","type":"bytes32","internalType":"bytes32"},{"name":"sourceChainSelector","type":"uint64","internalType":"uint64"},{"name":"sender","type":"bytes","internalType":"bytes"},{"name":"data","type":"bytes","internalType":"bytes"},{"name":"destTokenAmounts","type":"tuple[]","internalType":"struct Client.EVMTokenAmount[]","components":[{"name":"token","type":"address","internalType":"address"},{"name":"amount","type":"uint256","internalType":"uint256"}]}]}],"outputs":[],"stateMutability":"nonpayable"},{"type":"function","name":"decimals","inputs":[],"outputs":[{"name":"","type":"uint8","internalType":"uint8"}],"stateMutability":"view"},{"type":"function","name":"decreaseAllowance","inputs":[{"name":"spender","type":"address","internalType":"address"},{"name":"subtractedValue","type":"uint256","internalType":"uint256"}],"outputs":[{"name":"","type":"bool","internalType":"bool"}],"stateMutability":"nonpayable"},{"type":"function","name":"getLockedBalance","inputs":[{"name":"account","type":"address","internalType":"address"}],"outputs":[{"name":"","type":"uint256","internalType":"uint256"}],"stateMutability":"view"},{"type":"function","name":"getParallelTokenAddress","inputs":[{"name":"chainId","type":"uint64","internalType":"uint64"}],"outputs":[{"name":"","type":"address","internalType":"address"}],"stateMutability":"view"},{"type":"function","name":"getRequiredFee","inputs":[{"name":"destinationChain","type":"uint64","internalType":"uint64"},{"name":"amount","type":"uint256","internalType":"uint256"}],"outputs":[{"name":"fees","type":"uint256","internalType":"uint256"}],"stateMutability":"view"},{"type":"function","name":"getRouter","inputs":[],"outputs":[{"name":"","type":"address","internalType":"address"}],"stateMutability":"view"},{"type":"function","name":"increaseAllowance","inputs":[{"name":"spender","type":"address","internalType":"address"},{"name":"addedValue","type":"uint256","internalType":"uint256"}],"outputs":[{"name":"","type":"bool","internalType":"bool"}],"stateMutability":"nonpayable"},{"type":"function","name":"linkToken","inputs":[],"outputs":[{"name":"","type":"address","internalType":"contract LinkTokenInterface"}],"stateMutability":"view"},{"type":"function","name":"lockTokens","inputs":[{"name":"destinationChain","type":"uint64","internalType":"uint64"},{"name":"amount","type":"uint256","internalType":"uint256"}],"outputs":[],"stateMutability":"nonpayable"},{"type":"function","name":"lockedBalances","inputs":[{"name":"","type":"address","internalType":"address"}],"outputs":[{"name":"","type":"uint256","internalType":"uint256"}],"stateMutability":"view"},{"type":"function","name":"mint","inputs":[{"name":"amount","type":"uint256","internalType":"uint256"}],"outputs":[],"stateMutability":"nonpayable"},{"type":"function","name":"name","inputs":[],"outputs":[{"name":"","type":"string","internalType":"string"}],"stateMutability":"view"},{"type":"function","name":"owner","inputs":[],"outputs":[{"name":"","type":"address","internalType":"address"}],"stateMutability":"view"},{"type":"function","name":"parallelTokenAddresses","inputs":[{"name":"","type":"uint64","internalType":"uint64"}],"outputs":[{"name":"","type":"address","internalType":"address"}],"stateMutability":"view"},{"type":"function","name":"renounceOwnership","inputs":[],"outputs":[],"stateMutability":"nonpayable"},{"type":"function","name":"setParallelTokenAddress","inputs":[{"name":"chainId","type":"uint64","internalType":"uint64"},{"name":"_parallelTokenAddress","type":"address","internalType":"address"}],"outputs":[],"stateMutability":"nonpayable"},{"type":"function","name":"supportsInterface","inputs":[{"name":"interfaceId","type":"bytes4","internalType":"bytes4"}],"outputs":[{"name":"","type":"bool","internalType":"bool"}],"stateMutability":"pure"},{"type":"function","name":"symbol","inputs":[],"outputs":[{"name":"","type":"string","internalType":"string"}],"stateMutability":"view"},{"type":"function","name":"totalSupply","inputs":[],"outputs":[{"name":"","type":"uint256","internalType":"uint256"}],"stateMutability":"view"},{"type":"function","name":"transfer","inputs":[{"name":"to","type":"address","internalType":"address"},{"name":"amount","type":"uint256","internalType":"uint256"}],"outputs":[{"name":"","type":"bool","internalType":"bool"}],"stateMutability":"nonpayable"},{"type":"function","name":"transferFrom","inputs":[{"name":"from","type":"address","internalType":"address"},{"name":"to","type":"address","internalType":"address"},{"name":"amount","type":"uint256","internalType":"uint256"}],"outputs":[{"name":"","type":"bool","internalType":"bool"}],"stateMutability":"nonpayable"},{"type":"function","name":"transferOwnership","inputs":[{"name":"newOwner","type":"address","internalType":"address"}],"outputs":[],"stateMutability":"nonpayable"},{"type":"function","name":"withdrawLink","inputs":[{"name":"amount","type":"uint256","internalType":"uint256"}],"outputs":[],"stateMutability":"nonpayable"},{"type":"event","name":"Approval","inputs":[{"name":"owner","type":"address","indexed":true,"internalType":"address"},{"name":"spender","type":"address","indexed":true,"internalType":"address"},{"name":"value","type":"uint256","indexed":false,"internalType":"uint256"}],"anonymous":false},{"type":"event","name":"CrossChainTransfer","inputs":[{"name":"sender","type":"address","indexed":true,"internalType":"address"},{"name":"destinationChain","type":"uint64","indexed":false,"internalType":"uint64"},{"name":"amount","type":"uint256","indexed":false,"internalType":"uint256"}],"anonymous":false},{"type":"event","name":"OwnershipTransferred","inputs":[{"name":"previousOwner","type":"address","indexed":true,"internalType":"address"},{"name":"newOwner","type":"address","indexed":true,"internalType":"address"}],"anonymous":false},{"type":"event","name":"ParallelTokenAddressSet","inputs":[{"name":"chainId","type":"uint64","indexed":true,"internalType":"uint64"},{"name":"newParallelTokenAddress","type":"address","indexed":true,"internalType":"address"}],"anonymous":false},{"type":"event","name":"Transfer","inputs":[{"name":"from","type":"address","indexed":true,"internalType":"address"},{"name":"to","type":"address","indexed":true,"internalType":"address"},{"name":"value","type":"uint256","indexed":false,"internalType":"uint256"}],"anonymous":false},{"type":"error","name":"InvalidRouter","inputs":[{"name":"router","type":"address","internalType":"address"}]}],"bytecode":{"object":"0x60a06040523480156200001157600080fd5b506040516200409c3803806200409c8339818101604052810190620000379190620004da565b816040518060400160405280600f81526020017f536f6c69636861696e20546f6b656e00000000000000000000000000000000008152506040518060400160405280600381526020017f53435400000000000000000000000000000000000000000000000000000000008152508160039081620000b59190620007a6565b508060049081620000c79190620007a6565b505050600073ffffffffffffffffffffffffffffffffffffffff168173ffffffffffffffffffffffffffffffffffffffff16036200013f5760006040517fd7f733340000000000000000000000000000000000000000000000000000000081526004016200013691906200089e565b60405180910390fd5b8073ffffffffffffffffffffffffffffffffffffffff1660808173ffffffffffffffffffffffffffffffffffffffff1681525050506200019462000188620001f060201b60201c565b620001f860201b60201c565b620001a63384620002be60201b60201c565b80600860006101000a81548173ffffffffffffffffffffffffffffffffffffffff021916908373ffffffffffffffffffffffffffffffffffffffff160217905550505050620009d6565b600033905090565b6000600560009054906101000a900473ffffffffffffffffffffffffffffffffffffffff16905081600560006101000a81548173ffffffffffffffffffffffffffffffffffffffff021916908373ffffffffffffffffffffffffffffffffffffffff1602179055508173ffffffffffffffffffffffffffffffffffffffff168173ffffffffffffffffffffffffffffffffffffffff167f8be0079c531659141344cd1fd0a4f28419497f9722a3daafe3b4186f6b6457e060405160405180910390a35050565b600073ffffffffffffffffffffffffffffffffffffffff168273ffffffffffffffffffffffffffffffffffffffff160362000330576040517f08c379a000000000000000000000000000000000000000000000000000000000815260040162000327906200091c565b60405180910390fd5b62000344600083836200042b60201b60201c565b80600260008282546200035891906200096d565b92505081905550806000808473ffffffffffffffffffffffffffffffffffffffff1673ffffffffffffffffffffffffffffffffffffffff168152602001908152602001600020600082825401925050819055508173ffffffffffffffffffffffffffffffffffffffff16600073ffffffffffffffffffffffffffffffffffffffff167fddf252ad1be2c89b69c2b068fc378daa952ba7f163c4a11628f55a4df523b3ef836040516200040b9190620009b9565b60405180910390a362000427600083836200043060201b60201c565b5050565b505050565b505050565b600080fd5b6000819050919050565b6200044f816200043a565b81146200045b57600080fd5b50565b6000815190506200046f8162000444565b92915050565b600073ffffffffffffffffffffffffffffffffffffffff82169050919050565b6000620004a28262000475565b9050919050565b620004b48162000495565b8114620004c057600080fd5b50565b600081519050620004d481620004a9565b92915050565b600080600060608486031215620004f657620004f562000435565b5b600062000506868287016200045e565b93505060206200051986828701620004c3565b92505060406200052c86828701620004c3565b9150509250925092565b600081519050919050565b7f4e487b7100000000000000000000000000000000000000000000000000000000600052604160045260246000fd5b7f4e487b7100000000000000000000000000000000000000000000000000000000600052602260045260246000fd5b60006002820490506001821680620005b857607f821691505b602082108103620005ce57620005cd62000570565b5b50919050565b60008190508160005260206000209050919050565b60006020601f8301049050919050565b600082821b905092915050565b600060088302620006387fffffffffffffffffffffffffffffffffffffffffffffffffffffffffffffffff82620005f9565b620006448683620005f9565b95508019841693508086168417925050509392505050565b6000819050919050565b600062000687620006816200067b846200043a565b6200065c565b6200043a565b9050919050565b6000819050919050565b620006a38362000666565b620006bb620006b2826200068e565b84845462000606565b825550505050565b600090565b620006d2620006c3565b620006df81848462000698565b505050565b5b818110156200070757620006fb600082620006c8565b600181019050620006e5565b5050565b601f82111562000756576200072081620005d4565b6200072b84620005e9565b810160208510156200073b578190505b620007536200074a85620005e9565b830182620006e4565b50505b505050565b600082821c905092915050565b60006200077b600019846008026200075b565b1980831691505092915050565b600062000796838362000768565b9150826002028217905092915050565b620007b18262000536565b67ffffffffffffffff811115620007cd57620007cc62000541565b5b620007d982546200059f565b620007e68282856200070b565b600060209050601f8311600181146200081e576000841562000809578287015190505b62000815858262000788565b86555062000885565b601f1984166200082e86620005d4565b60005b82811015620008585784890151825560018201915060208501945060208101905062000831565b8683101562000878578489015162000874601f89168262000768565b8355505b6001600288020188555050505b505050505050565b620008988162000495565b82525050565b6000602082019050620008b560008301846200088d565b92915050565b600082825260208201905092915050565b7f45524332303a206d696e7420746f20746865207a65726f206164647265737300600082015250565b600062000904601f83620008bb565b91506200091182620008cc565b602082019050919050565b600060208201905081810360008301526200093781620008f5565b9050919050565b7f4e487b7100000000000000000000000000000000000000000000000000000000600052601160045260246000fd5b60006200097a826200043a565b915062000987836200043a565b9250828201905080821115620009a257620009a16200093e565b5b92915050565b620009b3816200043a565b82525050565b6000602082019050620009d06000830184620009a8565b92915050565b6080516136a3620009f960003960008181610cf001526111d301526136a36000f3fe608060405234801561001057600080fd5b50600436106101c45760003560e01c80637a8042bd116100f9578063a9059cbb11610097578063c408689311610071578063c40868931461052d578063dd62ed3e1461055d578063e474c9ec1461058d578063f2fde38b146105bd576101c4565b8063a9059cbb146104c3578063aac9b1d6146104f3578063b0f479a11461050f576101c4565b8063901841dd116100d3578063901841dd1461043d57806395d89b4114610459578063a0712d6814610477578063a457c2d714610493576101c4565b80637a8042bd146103e757806385572ffb146104035780638da5cb5b1461041f576101c4565b806323b872dd1161016657806357970e931161014057806357970e931461035f57806370a082311461037d578063715018a6146103ad578063749c5e04146103b7576101c4565b806323b872dd146102e1578063313ce56714610311578063395093511461032f576101c4565b8063095ea7b3116101a2578063095ea7b314610247578063150a665c1461027757806318160ddd146102a7578063212ad5cc146102c5576101c4565b806301ffc9a7146101c95780630483a7f6146101f957806306fdde0314610229575b600080fd5b6101e360048036038101906101de919061208b565b6105d9565b6040516101f091906120d3565b60405180910390f35b610213600480360381019061020e919061214c565b6106ab565b6040516102209190612192565b60405180910390f35b6102316106c3565b60405161023e919061223d565b60405180910390f35b610261600480360381019061025c919061228b565b610755565b60405161026e91906120d3565b60405180910390f35b610291600480360381019061028c919061230b565b610778565b60405161029e9190612192565b60405180910390f35b6102af610958565b6040516102bc9190612192565b60405180910390f35b6102df60048036038101906102da919061234b565b610962565b005b6102fb60048036038101906102f6919061238b565b610a22565b60405161030891906120d3565b60405180910390f35b610319610a51565b60405161032691906123fa565b60405180910390f35b6103496004803603810190610344919061228b565b610a5a565b60405161035691906120d3565b60405180910390f35b610367610a91565b6040516103749190612474565b60405180910390f35b6103976004803603810190610392919061214c565b610ab7565b6040516103a49190612192565b60405180910390f35b6103b5610aff565b005b6103d160048036038101906103cc919061248f565b610b13565b6040516103de91906124cb565b60405180910390f35b61040160048036038101906103fc91906124e6565b610b64565b005b61041d60048036038101906104189190612537565b610cee565b005b610427610d93565b60405161043491906124cb565b60405180910390f35b6104576004803603810190610452919061230b565b610dbd565b005b610461610f7d565b60405161046e919061223d565b60405180910390f35b610491600480360381019061048c91906124e6565b61100f565b005b6104ad60048036038101906104a8919061228b565b61101c565b6040516104ba91906120d3565b60405180910390f35b6104dd60048036038101906104d8919061228b565b611093565b6040516104ea91906120d3565b60405180910390f35b61050d60048036038101906105089190612580565b6110b6565b005b6105176111cf565b60405161052491906124cb565b60405180910390f35b6105476004803603810190610542919061214c565b6111f7565b6040516105549190612192565b60405180910390f35b610577600480360381019061057291906125c0565b611240565b6040516105849190612192565b60405180910390f35b6105a760048036038101906105a2919061248f565b6112c7565b6040516105b491906124cb565b60405180910390f35b6105d760048036038101906105d2919061214c565b6112fa565b005b60007f85572ffb000000000000000000000000000000000000000000000000000000007bffffffffffffffffffffffffffffffffffffffffffffffffffffffff1916827bffffffffffffffffffffffffffffffffffffffffffffffffffffffff191614806106a457507f01ffc9a7000000000000000000000000000000000000000000000000000000007bffffffffffffffffffffffffffffffffffffffffffffffffffffffff1916827bffffffffffffffffffffffffffffffffffffffffffffffffffffffff1916145b9050919050565b60066020528060005260406000206000915090505481565b6060600380546106d29061262f565b80601f01602080910402602001604051908101604052809291908181526020018280546106fe9061262f565b801561074b5780601f106107205761010080835404028352916020019161074b565b820191906000526020600020905b81548152906001019060200180831161072e57829003601f168201915b5050505050905090565b60008061076061137d565b905061076d818585611385565b600191505092915050565b6000806040518060a00160405280600760008767ffffffffffffffff1667ffffffffffffffff16815260200190815260200160002060009054906101000a900473ffffffffffffffffffffffffffffffffffffffff166040516020016107de91906124cb565b60405160208183030381529060405281526020013385604051602001610805929190612660565b6040516020818303038152906040528152602001600067ffffffffffffffff81111561083457610833612689565b5b60405190808252806020026020018201604052801561086d57816020015b61085a611fef565b8152602001906001900390816108525790505b508152602001600860009054906101000a900473ffffffffffffffffffffffffffffffffffffffff1673ffffffffffffffffffffffffffffffffffffffff16815260200160405180602001604052806000815250815250905060006108d06111cf565b90508073ffffffffffffffffffffffffffffffffffffffff166320487ded86846040518363ffffffff1660e01b815260040161090d9291906128a3565b602060405180830381865afa15801561092a573d6000803e3d6000fd5b505050506040513d601f19601f8201168201806040525081019061094e91906128e8565b9250505092915050565b6000600254905090565b61096a61154e565b80600760008467ffffffffffffffff1667ffffffffffffffff16815260200190815260200160002060006101000a81548173ffffffffffffffffffffffffffffffffffffffff021916908373ffffffffffffffffffffffffffffffffffffffff1602179055508073ffffffffffffffffffffffffffffffffffffffff168267ffffffffffffffff167fe960263884fe9f7a6a06ccd886f423d053f7f1bffeadfc3453885722296c48f160405160405180910390a35050565b600080610a2d61137d565b9050610a3a8582856115cc565b610a45858585611658565b60019150509392505050565b60006012905090565b600080610a6561137d565b9050610a86818585610a778589611240565b610a819190612944565b611385565b600191505092915050565b600860009054906101000a900473ffffffffffffffffffffffffffffffffffffffff1681565b60008060008373ffffffffffffffffffffffffffffffffffffffff1673ffffffffffffffffffffffffffffffffffffffff168152602001908152602001600020549050919050565b610b0761154e565b610b1160006118ce565b565b6000600760008367ffffffffffffffff1667ffffffffffffffff16815260200190815260200160002060009054906101000a900473ffffffffffffffffffffffffffffffffffffffff169050919050565b610b6c61154e565b80600860009054906101000a900473ffffffffffffffffffffffffffffffffffffffff1673ffffffffffffffffffffffffffffffffffffffff166370a08231306040518263ffffffff1660e01b8152600401610bc891906124cb565b602060405180830381865afa158015610be5573d6000803e3d6000fd5b505050506040513d601f19601f82011682018060405250810190610c0991906128e8565b1015610c4a576040517f08c379a0000000000000000000000000000000000000000000000000000000008152600401610c41906129c4565b60405180910390fd5b600860009054906101000a900473ffffffffffffffffffffffffffffffffffffffff1673ffffffffffffffffffffffffffffffffffffffff1663a9059cbb33836040518363ffffffff1660e01b8152600401610ca7929190612660565b6020604051808303816000875af1158015610cc6573d6000803e3d6000fd5b505050506040513d601f19601f82011682018060405250810190610cea9190612a10565b5050565b7f000000000000000000000000000000000000000000000000000000000000000073ffffffffffffffffffffffffffffffffffffffff163373ffffffffffffffffffffffffffffffffffffffff1614610d7e57336040517fd7f73334000000000000000000000000000000000000000000000000000000008152600401610d7591906124cb565b60405180910390fd5b610d9081610d8b90612d7b565b611994565b50565b6000600560009054906101000a900473ffffffffffffffffffffffffffffffffffffffff16905090565b80610dc733610ab7565b1015610e08576040517f08c379a0000000000000000000000000000000000000000000000000000000008152600401610dff90612dda565b60405180910390fd5b600073ffffffffffffffffffffffffffffffffffffffff16600760008467ffffffffffffffff1667ffffffffffffffff16815260200190815260200160002060009054906101000a900473ffffffffffffffffffffffffffffffffffffffff1673ffffffffffffffffffffffffffffffffffffffff1603610ebe576040517f08c379a0000000000000000000000000000000000000000000000000000000008152600401610eb590612e6c565b60405180910390fd5b610ec9333083611658565b80600660003373ffffffffffffffffffffffffffffffffffffffff1673ffffffffffffffffffffffffffffffffffffffff1681526020019081526020016000206000828254610f189190612944565b92505081905550610f2982826119c2565b3373ffffffffffffffffffffffffffffffffffffffff167ff688a84312134179f6ba47151770d3f7f8ed763a50a3a91df21248d66e24e2e48383604051610f71929190612e8c565b60405180910390a25050565b606060048054610f8c9061262f565b80601f0160208091040260200160405190810160405280929190818152602001828054610fb89061262f565b80156110055780601f10610fda57610100808354040283529160200191611005565b820191906000526020600020905b815481529060010190602001808311610fe857829003601f168201915b5050505050905090565b6110193382611cc2565b50565b60008061102761137d565b905060006110358286611240565b90508381101561107a576040517f08c379a000000000000000000000000000000000000000000000000000000000815260040161107190612f27565b60405180910390fd5b6110878286868403611385565b60019250505092915050565b60008061109e61137d565b90506110ab818585611658565b600191505092915050565b816110c033610ab7565b1015611101576040517f08c379a00000000000000000000000000000000000000000000000000000000081526004016110f890612dda565b60405180910390fd5b600073ffffffffffffffffffffffffffffffffffffffff16600760008367ffffffffffffffff1667ffffffffffffffff16815260200190815260200160002060009054906101000a900473ffffffffffffffffffffffffffffffffffffffff1673ffffffffffffffffffffffffffffffffffffffff16036111b7576040517f08c379a00000000000000000000000000000000000000000000000000000000081526004016111ae90612fb9565b60405180910390fd5b6111c13383611e18565b6111cb81836119c2565b5050565b60007f0000000000000000000000000000000000000000000000000000000000000000905090565b6000600660008373ffffffffffffffffffffffffffffffffffffffff1673ffffffffffffffffffffffffffffffffffffffff168152602001908152602001600020549050919050565b6000600160008473ffffffffffffffffffffffffffffffffffffffff1673ffffffffffffffffffffffffffffffffffffffff16815260200190815260200160002060008373ffffffffffffffffffffffffffffffffffffffff1673ffffffffffffffffffffffffffffffffffffffff16815260200190815260200160002054905092915050565b60076020528060005260406000206000915054906101000a900473ffffffffffffffffffffffffffffffffffffffff1681565b61130261154e565b600073ffffffffffffffffffffffffffffffffffffffff168173ffffffffffffffffffffffffffffffffffffffff1603611371576040517f08c379a00000000000000000000000000000000000000000000000000000000081526004016113689061304b565b60405180910390fd5b61137a816118ce565b50565b600033905090565b600073ffffffffffffffffffffffffffffffffffffffff168373ffffffffffffffffffffffffffffffffffffffff16036113f4576040517f08c379a00000000000000000000000000000000000000000000000000000000081526004016113eb906130dd565b60405180910390fd5b600073ffffffffffffffffffffffffffffffffffffffff168273ffffffffffffffffffffffffffffffffffffffff1603611463576040517f08c379a000000000000000000000000000000000000000000000000000000000815260040161145a9061316f565b60405180910390fd5b80600160008573ffffffffffffffffffffffffffffffffffffffff1673ffffffffffffffffffffffffffffffffffffffff16815260200190815260200160002060008473ffffffffffffffffffffffffffffffffffffffff1673ffffffffffffffffffffffffffffffffffffffff168152602001908152602001600020819055508173ffffffffffffffffffffffffffffffffffffffff168373ffffffffffffffffffffffffffffffffffffffff167f8c5be1e5ebec7d5bd14f71427d1e84f3dd0314c0f7b2291e5b200ac8c7c3b925836040516115419190612192565b60405180910390a3505050565b61155661137d565b73ffffffffffffffffffffffffffffffffffffffff16611574610d93565b73ffffffffffffffffffffffffffffffffffffffff16146115ca576040517f08c379a00000000000000000000000000000000000000000000000000000000081526004016115c1906131db565b60405180910390fd5b565b60006115d88484611240565b90507fffffffffffffffffffffffffffffffffffffffffffffffffffffffffffffffff81146116525781811015611644576040517f08c379a000000000000000000000000000000000000000000000000000000000815260040161163b90613247565b60405180910390fd5b6116518484848403611385565b5b50505050565b600073ffffffffffffffffffffffffffffffffffffffff168373ffffffffffffffffffffffffffffffffffffffff16036116c7576040517f08c379a00000000000000000000000000000000000000000000000000000000081526004016116be906132d9565b60405180910390fd5b600073ffffffffffffffffffffffffffffffffffffffff168273ffffffffffffffffffffffffffffffffffffffff1603611736576040517f08c379a000000000000000000000000000000000000000000000000000000000815260040161172d9061336b565b60405180910390fd5b611741838383611fe5565b60008060008573ffffffffffffffffffffffffffffffffffffffff1673ffffffffffffffffffffffffffffffffffffffff168152602001908152602001600020549050818110156117c7576040517f08c379a00000000000000000000000000000000000000000000000000000000081526004016117be906133fd565b60405180910390fd5b8181036000808673ffffffffffffffffffffffffffffffffffffffff1673ffffffffffffffffffffffffffffffffffffffff16815260200190815260200160002081905550816000808573ffffffffffffffffffffffffffffffffffffffff1673ffffffffffffffffffffffffffffffffffffffff168152602001908152602001600020600082825401925050819055508273ffffffffffffffffffffffffffffffffffffffff168473ffffffffffffffffffffffffffffffffffffffff167fddf252ad1be2c89b69c2b068fc378daa952ba7f163c4a11628f55a4df523b3ef846040516118b59190612192565b60405180910390a36118c8848484611fea565b50505050565b6000600560009054906101000a900473ffffffffffffffffffffffffffffffffffffffff16905081600560006101000a81548173ffffffffffffffffffffffffffffffffffffffff021916908373ffffffffffffffffffffffffffffffffffffffff1602179055508173ffffffffffffffffffffffffffffffffffffffff168173ffffffffffffffffffffffffffffffffffffffff167f8be0079c531659141344cd1fd0a4f28419497f9722a3daafe3b4186f6b6457e060405160405180910390a35050565b60008082606001518060200190518101906119af919061345b565b915091506119bd8282611cc2565b505050565b60006040518060a00160405280600760008667ffffffffffffffff1667ffffffffffffffff16815260200190815260200160002060009054906101000a900473ffffffffffffffffffffffffffffffffffffffff16604051602001611a2791906124cb565b60405160208183030381529060405281526020013384604051602001611a4e929190612660565b6040516020818303038152906040528152602001600067ffffffffffffffff811115611a7d57611a7c612689565b5b604051908082528060200260200182016040528015611ab657816020015b611aa3611fef565b815260200190600190039081611a9b5790505b508152602001600860009054906101000a900473ffffffffffffffffffffffffffffffffffffffff1673ffffffffffffffffffffffffffffffffffffffff1681526020016040518060200160405280600081525081525090506000611b196111cf565b905060008173ffffffffffffffffffffffffffffffffffffffff166320487ded86856040518363ffffffff1660e01b8152600401611b589291906128a3565b602060405180830381865afa158015611b75573d6000803e3d6000fd5b505050506040513d601f19601f82011682018060405250810190611b9991906128e8565b9050600860009054906101000a900473ffffffffffffffffffffffffffffffffffffffff1673ffffffffffffffffffffffffffffffffffffffff1663095ea7b383836040518363ffffffff1660e01b8152600401611bf8929190612660565b6020604051808303816000875af1158015611c17573d6000803e3d6000fd5b505050506040513d601f19601f82011682018060405250810190611c3b9190612a10565b508173ffffffffffffffffffffffffffffffffffffffff166396f4e9f986856040518363ffffffff1660e01b8152600401611c779291906128a3565b6020604051808303816000875af1158015611c96573d6000803e3d6000fd5b505050506040513d601f19601f82011682018060405250810190611cba91906134b0565b505050505050565b600073ffffffffffffffffffffffffffffffffffffffff168273ffffffffffffffffffffffffffffffffffffffff1603611d31576040517f08c379a0000000000000000000000000000000000000000000000000000000008152600401611d2890613529565b60405180910390fd5b611d3d60008383611fe5565b8060026000828254611d4f9190612944565b92505081905550806000808473ffffffffffffffffffffffffffffffffffffffff1673ffffffffffffffffffffffffffffffffffffffff168152602001908152602001600020600082825401925050819055508173ffffffffffffffffffffffffffffffffffffffff16600073ffffffffffffffffffffffffffffffffffffffff167fddf252ad1be2c89b69c2b068fc378daa952ba7f163c4a11628f55a4df523b3ef83604051611e009190612192565b60405180910390a3611e1460008383611fea565b5050565b600073ffffffffffffffffffffffffffffffffffffffff168273ffffffffffffffffffffffffffffffffffffffff1603611e87576040517f08c379a0000000000000000000000000000000000000000000000000000000008152600401611e7e906135bb565b60405180910390fd5b611e9382600083611fe5565b60008060008473ffffffffffffffffffffffffffffffffffffffff1673ffffffffffffffffffffffffffffffffffffffff16815260200190815260200160002054905081811015611f19576040517f08c379a0000000000000000000000000000000000000000000000000000000008152600401611f109061364d565b60405180910390fd5b8181036000808573ffffffffffffffffffffffffffffffffffffffff1673ffffffffffffffffffffffffffffffffffffffff1681526020019081526020016000208190555081600260008282540392505081905550600073ffffffffffffffffffffffffffffffffffffffff168373ffffffffffffffffffffffffffffffffffffffff167fddf252ad1be2c89b69c2b068fc378daa952ba7f163c4a11628f55a4df523b3ef84604051611fcc9190612192565b60405180910390a3611fe083600084611fea565b505050565b505050565b505050565b6040518060400160405280600073ffffffffffffffffffffffffffffffffffffffff168152602001600081525090565b6000604051905090565b600080fd5b600080fd5b60007fffffffff0000000000000000000000000000000000000000000000000000000082169050919050565b61206881612033565b811461207357600080fd5b50565b6000813590506120858161205f565b92915050565b6000602082840312156120a1576120a0612029565b5b60006120af84828501612076565b91505092915050565b60008115159050919050565b6120cd816120b8565b82525050565b60006020820190506120e860008301846120c4565b92915050565b600073ffffffffffffffffffffffffffffffffffffffff82169050919050565b6000612119826120ee565b9050919050565b6121298161210e565b811461213457600080fd5b50565b60008135905061214681612120565b92915050565b60006020828403121561216257612161612029565b5b600061217084828501612137565b91505092915050565b6000819050919050565b61218c81612179565b82525050565b60006020820190506121a76000830184612183565b92915050565b600081519050919050565b600082825260208201905092915050565b60005b838110156121e75780820151818401526020810190506121cc565b60008484015250505050565b6000601f19601f8301169050919050565b600061220f826121ad565b61221981856121b8565b93506122298185602086016121c9565b612232816121f3565b840191505092915050565b600060208201905081810360008301526122578184612204565b905092915050565b61226881612179565b811461227357600080fd5b50565b6000813590506122858161225f565b92915050565b600080604083850312156122a2576122a1612029565b5b60006122b085828601612137565b92505060206122c185828601612276565b9150509250929050565b600067ffffffffffffffff82169050919050565b6122e8816122cb565b81146122f357600080fd5b50565b600081359050612305816122df565b92915050565b6000806040838503121561232257612321612029565b5b6000612330858286016122f6565b925050602061234185828601612276565b9150509250929050565b6000806040838503121561236257612361612029565b5b6000612370858286016122f6565b925050602061238185828601612137565b9150509250929050565b6000806000606084860312156123a4576123a3612029565b5b60006123b286828701612137565b93505060206123c386828701612137565b92505060406123d486828701612276565b9150509250925092565b600060ff82169050919050565b6123f4816123de565b82525050565b600060208201905061240f60008301846123eb565b92915050565b6000819050919050565b600061243a612435612430846120ee565b612415565b6120ee565b9050919050565b600061244c8261241f565b9050919050565b600061245e82612441565b9050919050565b61246e81612453565b82525050565b60006020820190506124896000830184612465565b92915050565b6000602082840312156124a5576124a4612029565b5b60006124b3848285016122f6565b91505092915050565b6124c58161210e565b82525050565b60006020820190506124e060008301846124bc565b92915050565b6000602082840312156124fc576124fb612029565b5b600061250a84828501612276565b91505092915050565b600080fd5b600060a0828403121561252e5761252d612513565b5b81905092915050565b60006020828403121561254d5761254c612029565b5b600082013567ffffffffffffffff81111561256b5761256a61202e565b5b61257784828501612518565b91505092915050565b6000806040838503121561259757612596612029565b5b60006125a585828601612276565b92505060206125b6858286016122f6565b9150509250929050565b600080604083850312156125d7576125d6612029565b5b60006125e585828601612137565b92505060206125f685828601612137565b9150509250929050565b7f4e487b7100000000000000000000000000000000000000000000000000000000600052602260045260246000fd5b6000600282049050600182168061264757607f821691505b60208210810361265a57612659612600565b5b50919050565b600060408201905061267560008301856124bc565b6126826020830184612183565b9392505050565b7f4e487b7100000000000000000000000000000000000000000000000000000000600052604160045260246000fd5b6126c1816122cb565b82525050565b600081519050919050565b600082825260208201905092915050565b60006126ee826126c7565b6126f881856126d2565b93506127088185602086016121c9565b612711816121f3565b840191505092915050565b600081519050919050565b600082825260208201905092915050565b6000819050602082019050919050565b6127518161210e565b82525050565b61276081612179565b82525050565b60408201600082015161277c6000850182612748565b50602082015161278f6020850182612757565b50505050565b60006127a18383612766565b60408301905092915050565b6000602082019050919050565b60006127c58261271c565b6127cf8185612727565b93506127da83612738565b8060005b8381101561280b5781516127f28882612795565b97506127fd836127ad565b9250506001810190506127de565b5085935050505092915050565b600060a083016000830151848203600086015261283582826126e3565b9150506020830151848203602086015261284f82826126e3565b9150506040830151848203604086015261286982826127ba565b915050606083015161287e6060860182612748565b506080830151848203608086015261289682826126e3565b9150508091505092915050565b60006040820190506128b860008301856126b8565b81810360208301526128ca8184612818565b90509392505050565b6000815190506128e28161225f565b92915050565b6000602082840312156128fe576128fd612029565b5b600061290c848285016128d3565b91505092915050565b7f4e487b7100000000000000000000000000000000000000000000000000000000600052601160045260246000fd5b600061294f82612179565b915061295a83612179565b925082820190508082111561297257612971612915565b5b92915050565b7f4e6f7420656e6f756768204c494e4b20746f6b656e7300000000000000000000600082015250565b60006129ae6016836121b8565b91506129b982612978565b602082019050919050565b600060208201905081810360008301526129dd816129a1565b9050919050565b6129ed816120b8565b81146129f857600080fd5b50565b600081519050612a0a816129e4565b92915050565b600060208284031215612a2657612a25612029565b5b6000612a34848285016129fb565b91505092915050565b600080fd5b612a4b826121f3565b810181811067ffffffffffffffff82111715612a6a57612a69612689565b5b80604052505050565b6000612a7d61201f565b9050612a898282612a42565b919050565b600080fd5b6000819050919050565b612aa681612a93565b8114612ab157600080fd5b50565b600081359050612ac381612a9d565b92915050565b600080fd5b600080fd5b600067ffffffffffffffff821115612aee57612aed612689565b5b612af7826121f3565b9050602081019050919050565b82818337600083830152505050565b6000612b26612b2184612ad3565b612a73565b905082815260208101848484011115612b4257612b41612ace565b5b612b4d848285612b04565b509392505050565b600082601f830112612b6a57612b69612ac9565b5b8135612b7a848260208601612b13565b91505092915050565b600067ffffffffffffffff821115612b9e57612b9d612689565b5b602082029050602081019050919050565b600080fd5b600060408284031215612bca57612bc9612a3d565b5b612bd46040612a73565b90506000612be484828501612137565b6000830152506020612bf884828501612276565b60208301525092915050565b6000612c17612c1284612b83565b612a73565b90508083825260208201905060408402830185811115612c3a57612c39612baf565b5b835b81811015612c635780612c4f8882612bb4565b845260208401935050604081019050612c3c565b5050509392505050565b600082601f830112612c8257612c81612ac9565b5b8135612c92848260208601612c04565b91505092915050565b600060a08284031215612cb157612cb0612a3d565b5b612cbb60a0612a73565b90506000612ccb84828501612ab4565b6000830152506020612cdf848285016122f6565b602083015250604082013567ffffffffffffffff811115612d0357612d02612a8e565b5b612d0f84828501612b55565b604083015250606082013567ffffffffffffffff811115612d3357612d32612a8e565b5b612d3f84828501612b55565b606083015250608082013567ffffffffffffffff811115612d6357612d62612a8e565b5b612d6f84828501612c6d565b60808301525092915050565b6000612d873683612c9b565b9050919050565b7f4e6f7420656e6f75676820746f6b656e73000000000000000000000000000000600082015250565b6000612dc46011836121b8565b9150612dcf82612d8e565b602082019050919050565b60006020820190508181036000830152612df381612db7565b9050919050565b7f506172616c6c656c20746f6b656e2061646472657373206e6f7420736574206660008201527f6f722064657374696e6174696f6e20636861696e000000000000000000000000602082015250565b6000612e566034836121b8565b9150612e6182612dfa565b604082019050919050565b60006020820190508181036000830152612e8581612e49565b9050919050565b6000604082019050612ea160008301856126b8565b612eae6020830184612183565b9392505050565b7f45524332303a2064656372656173656420616c6c6f77616e63652062656c6f7760008201527f207a65726f000000000000000000000000000000000000000000000000000000602082015250565b6000612f116025836121b8565b9150612f1c82612eb5565b604082019050919050565b60006020820190508181036000830152612f4081612f04565b9050919050565b7f506172616c6c656c20746f6b656e2061646472657373206e6f7420736574206660008201527f6f7220736f7572636520636861696e0000000000000000000000000000000000602082015250565b6000612fa3602f836121b8565b9150612fae82612f47565b604082019050919050565b60006020820190508181036000830152612fd281612f96565b9050919050565b7f4f776e61626c653a206e6577206f776e657220697320746865207a65726f206160008201527f6464726573730000000000000000000000000000000000000000000000000000602082015250565b60006130356026836121b8565b915061304082612fd9565b604082019050919050565b6000602082019050818103600083015261306481613028565b9050919050565b7f45524332303a20617070726f76652066726f6d20746865207a65726f2061646460008201527f7265737300000000000000000000000000000000000000000000000000000000602082015250565b60006130c76024836121b8565b91506130d28261306b565b604082019050919050565b600060208201905081810360008301526130f6816130ba565b9050919050565b7f45524332303a20617070726f766520746f20746865207a65726f20616464726560008201527f7373000000000000000000000000000000000000000000000000000000000000602082015250565b60006131596022836121b8565b9150613164826130fd565b604082019050919050565b600060208201905081810360008301526131888161314c565b9050919050565b7f4f776e61626c653a2063616c6c6572206973206e6f7420746865206f776e6572600082015250565b60006131c56020836121b8565b91506131d08261318f565b602082019050919050565b600060208201905081810360008301526131f4816131b8565b9050919050565b7f45524332303a20696e73756666696369656e7420616c6c6f77616e6365000000600082015250565b6000613231601d836121b8565b915061323c826131fb565b602082019050919050565b6000602082019050818103600083015261326081613224565b9050919050565b7f45524332303a207472616e736665722066726f6d20746865207a65726f20616460008201527f6472657373000000000000000000000000000000000000000000000000000000602082015250565b60006132c36025836121b8565b91506132ce82613267565b604082019050919050565b600060208201905081810360008301526132f2816132b6565b9050919050565b7f45524332303a207472616e7366657220746f20746865207a65726f206164647260008201527f6573730000000000000000000000000000000000000000000000000000000000602082015250565b60006133556023836121b8565b9150613360826132f9565b604082019050919050565b6000602082019050818103600083015261338481613348565b9050919050565b7f45524332303a207472616e7366657220616d6f756e742065786365656473206260008201527f616c616e63650000000000000000000000000000000000000000000000000000602082015250565b60006133e76026836121b8565b91506133f28261338b565b604082019050919050565b60006020820190508181036000830152613416816133da565b9050919050565b6000613428826120ee565b9050919050565b6134388161341d565b811461344357600080fd5b50565b6000815190506134558161342f565b92915050565b6000806040838503121561347257613471612029565b5b600061348085828601613446565b9250506020613491858286016128d3565b9150509250929050565b6000815190506134aa81612a9d565b92915050565b6000602082840312156134c6576134c5612029565b5b60006134d48482850161349b565b91505092915050565b7f45524332303a206d696e7420746f20746865207a65726f206164647265737300600082015250565b6000613513601f836121b8565b915061351e826134dd565b602082019050919050565b6000602082019050818103600083015261354281613506565b9050919050565b7f45524332303a206275726e2066726f6d20746865207a65726f2061646472657360008201527f7300000000000000000000000000000000000000000000000000000000000000602082015250565b60006135a56021836121b8565b91506135b082613549565b604082019050919050565b600060208201905081810360008301526135d481613598565b9050919050565b7f45524332303a206275726e20616d6f756e7420657863656564732062616c616e60008201527f6365000000000000000000000000000000000000000000000000000000000000602082015250565b60006136376022836121b8565b9150613642826135db565b604082019050919050565b600060208201905081810360008301526136668161362a565b905091905056fea26469706673582212202bf40b98e4076476eb45672d7f3e0b2b03d9343a3992f3b69e3004232f139dd064736f6c63430008130033","linkReferences":{}},"methodIdentifiers":{"allowance(address,address)":"dd62ed3e","approve(address,uint256)":"095ea7b3","balanceOf(address)":"70a08231","burnTokens(uint256,uint64)":"aac9b1d6","ccipReceive((bytes32,uint64,bytes,bytes,(address,uint256)[]))":"85572ffb","decimals()":"313ce567","decreaseAllowance(address,uint256)":"a457c2d7","getLockedBalance(address)":"c4086893","getParallelTokenAddress(uint64)":"749c5e04","getRequiredFee(uint64,uint256)":"150a665c","getRouter()":"b0f479a1","increaseAllowance(address,uint256)":"39509351","linkToken()":"57970e93","lockTokens(uint64,uint256)":"901841dd","lockedBalances(address)":"0483a7f6","mint(uint256)":"a0712d68","name()":"06fdde03","owner()":"8da5cb5b","parallelTokenAddresses(uint64)":"e474c9ec","renounceOwnership()":"715018a6","setParallelTokenAddress(uint64,address)":"212ad5cc","supportsInterface(bytes4)":"01ffc9a7","symbol()":"95d89b41","totalSupply()":"18160ddd","transfer(address,uint256)":"a9059cbb","transferFrom(address,address,uint256)":"23b872dd","transferOwnership(address)":"f2fde38b","withdrawLink(uint256)":"7a8042bd"},"id":28}