{"abi":[{"type":"constructor","inputs":[{"name":"router","type":"address","internalType":"address"}],"stateMutability":"nonpayable"},{"type":"receive","stateMutability":"payable"},{"type":"function","name":"acceptOwnership","inputs":[],"outputs":[],"stateMutability":"nonpayable"},{"type":"function","name":"ccipReceive","inputs":[{"name":"message","type":"tuple","internalType":"struct Client.Any2EVMMessage","components":[{"name":"messageId","type":"bytes32","internalType":"bytes32"},{"name":"sourceChainSelector","type":"uint64","internalType":"uint64"},{"name":"sender","type":"bytes","internalType":"bytes"},{"name":"data","type":"bytes","internalType":"bytes"},{"name":"destTokenAmounts","type":"tuple[]","internalType":"struct Client.EVMTokenAmount[]","components":[{"name":"token","type":"address","internalType":"address"},{"name":"amount","type":"uint256","internalType":"uint256"}]}]}],"outputs":[],"stateMutability":"nonpayable"},{"type":"function","name":"getLastReceivedMessageDetails","inputs":[],"outputs":[{"name":"messageId","type":"bytes32","internalType":"bytes32"},{"name":"sourceChainSelector","type":"uint64","internalType":"uint64"},{"name":"sender","type":"address","internalType":"address"},{"name":"message","type":"string","internalType":"string"},{"name":"token","type":"address","internalType":"address"},{"name":"amount","type":"uint256","internalType":"uint256"}],"stateMutability":"view"},{"type":"function","name":"getNumberOfReceivedMessages","inputs":[],"outputs":[{"name":"number","type":"uint256","internalType":"uint256"}],"stateMutability":"view"},{"type":"function","name":"getReceivedMessageAt","inputs":[{"name":"index","type":"uint256","internalType":"uint256"}],"outputs":[{"name":"messageId","type":"bytes32","internalType":"bytes32"},{"name":"sourceChainSelector","type":"uint64","internalType":"uint64"},{"name":"sender","type":"address","internalType":"address"},{"name":"message","type":"string","internalType":"string"},{"name":"token","type":"address","internalType":"address"},{"name":"amount","type":"uint256","internalType":"uint256"}],"stateMutability":"view"},{"type":"function","name":"getReceivedMessageDetails","inputs":[{"name":"messageId","type":"bytes32","internalType":"bytes32"}],"outputs":[{"name":"sourceChainSelector","type":"uint64","internalType":"uint64"},{"name":"sender","type":"address","internalType":"address"},{"name":"message","type":"string","internalType":"string"},{"name":"token","type":"address","internalType":"address"},{"name":"amount","type":"uint256","internalType":"uint256"}],"stateMutability":"view"},{"type":"function","name":"getRouter","inputs":[],"outputs":[{"name":"","type":"address","internalType":"address"}],"stateMutability":"view"},{"type":"function","name":"messageDetail","inputs":[{"name":"","type":"bytes32","internalType":"bytes32"}],"outputs":[{"name":"sourceChainSelector","type":"uint64","internalType":"uint64"},{"name":"sender","type":"address","internalType":"address"},{"name":"message","type":"string","internalType":"string"},{"name":"token","type":"address","internalType":"address"},{"name":"amount","type":"uint256","internalType":"uint256"}],"stateMutability":"view"},{"type":"function","name":"owner","inputs":[],"outputs":[{"name":"","type":"address","internalType":"address"}],"stateMutability":"view"},{"type":"function","name":"receivedMessages","inputs":[{"name":"","type":"uint256","internalType":"uint256"}],"outputs":[{"name":"","type":"bytes32","internalType":"bytes32"}],"stateMutability":"view"},{"type":"function","name":"sendMessage","inputs":[{"name":"destinationChainSelector","type":"uint64","internalType":"uint64"},{"name":"receiver","type":"address","internalType":"address"},{"name":"message","type":"string","internalType":"string"},{"name":"token","type":"address","internalType":"address"},{"name":"amount","type":"uint256","internalType":"uint256"}],"outputs":[{"name":"messageId","type":"bytes32","internalType":"bytes32"}],"stateMutability":"nonpayable"},{"type":"function","name":"supportsInterface","inputs":[{"name":"interfaceId","type":"bytes4","internalType":"bytes4"}],"outputs":[{"name":"","type":"bool","internalType":"bool"}],"stateMutability":"pure"},{"type":"function","name":"transferOwnership","inputs":[{"name":"to","type":"address","internalType":"address"}],"outputs":[],"stateMutability":"nonpayable"},{"type":"function","name":"withdraw","inputs":[{"name":"beneficiary","type":"address","internalType":"address"}],"outputs":[],"stateMutability":"nonpayable"},{"type":"function","name":"withdrawToken","inputs":[{"name":"beneficiary","type":"address","internalType":"address"},{"name":"token","type":"address","internalType":"address"}],"outputs":[],"stateMutability":"nonpayable"},{"type":"event","name":"MessageReceived","inputs":[{"name":"messageId","type":"bytes32","indexed":true,"internalType":"bytes32"},{"name":"sourceChainSelector","type":"uint64","indexed":true,"internalType":"uint64"},{"name":"sender","type":"address","indexed":false,"internalType":"address"},{"name":"message","type":"string","indexed":false,"internalType":"string"},{"name":"tokenAmount","type":"tuple","indexed":false,"internalType":"struct Client.EVMTokenAmount","components":[{"name":"token","type":"address","internalType":"address"},{"name":"amount","type":"uint256","internalType":"uint256"}]}],"anonymous":false},{"type":"event","name":"MessageSent","inputs":[{"name":"messageId","type":"bytes32","indexed":true,"internalType":"bytes32"},{"name":"destinationChainSelector","type":"uint64","indexed":true,"internalType":"uint64"},{"name":"receiver","type":"address","indexed":false,"internalType":"address"},{"name":"message","type":"string","indexed":false,"internalType":"string"},{"name":"tokenAmount","type":"tuple","indexed":false,"internalType":"struct Client.EVMTokenAmount","components":[{"name":"token","type":"address","internalType":"address"},{"name":"amount","type":"uint256","internalType":"uint256"}]},{"name":"fees","type":"uint256","indexed":false,"internalType":"uint256"}],"anonymous":false},{"type":"event","name":"OwnershipTransferRequested","inputs":[{"name":"from","type":"address","indexed":true,"internalType":"address"},{"name":"to","type":"address","indexed":true,"internalType":"address"}],"anonymous":false},{"type":"event","name":"OwnershipTransferred","inputs":[{"name":"from","type":"address","indexed":true,"internalType":"address"},{"name":"to","type":"address","indexed":true,"internalType":"address"}],"anonymous":false},{"type":"error","name":"FailedToWithdrawEth","inputs":[{"name":"owner","type":"address","internalType":"address"},{"name":"target","type":"address","internalType":"address"},{"name":"value","type":"uint256","internalType":"uint256"}]},{"type":"error","name":"IndexOutOfBound","inputs":[{"name":"providedIndex","type":"uint256","internalType":"uint256"},{"name":"maxIndex","type":"uint256","internalType":"uint256"}]},{"type":"error","name":"InsufficientFeeTokenAmount","inputs":[]},{"type":"error","name":"InvalidRouter","inputs":[{"name":"router","type":"address","internalType":"address"}]},{"type":"error","name":"MessageIdNotExist","inputs":[{"name":"messageId","type":"bytes32","internalType":"bytes32"}]},{"type":"error","name":"NoMessageReceived","inputs":[]},{"type":"error","name":"NothingToWithdraw","inputs":[]}],"bytecode":{"object":"0x60a06040523480156200001157600080fd5b50604051620038d1380380620038d1833981810160405281019062000037919062000382565b3380600083600073ffffffffffffffffffffffffffffffffffffffff168173ffffffffffffffffffffffffffffffffffffffff1603620000b15760006040517fd7f73334000000000000000000000000000000000000000000000000000000008152600401620000a89190620003c5565b60405180910390fd5b8073ffffffffffffffffffffffffffffffffffffffff1660808173ffffffffffffffffffffffffffffffffffffffff168152505050600073ffffffffffffffffffffffffffffffffffffffff168273ffffffffffffffffffffffffffffffffffffffff160362000158576040517f08c379a00000000000000000000000000000000000000000000000000000000081526004016200014f9062000443565b60405180910390fd5b816000806101000a81548173ffffffffffffffffffffffffffffffffffffffff021916908373ffffffffffffffffffffffffffffffffffffffff160217905550600073ffffffffffffffffffffffffffffffffffffffff168173ffffffffffffffffffffffffffffffffffffffff1614620001df57620001de81620001e960201b60201c565b5b50505050620004d7565b3373ffffffffffffffffffffffffffffffffffffffff168173ffffffffffffffffffffffffffffffffffffffff16036200025a576040517f08c379a00000000000000000000000000000000000000000000000000000000081526004016200025190620004b5565b60405180910390fd5b80600160006101000a81548173ffffffffffffffffffffffffffffffffffffffff021916908373ffffffffffffffffffffffffffffffffffffffff1602179055508073ffffffffffffffffffffffffffffffffffffffff1660008054906101000a900473ffffffffffffffffffffffffffffffffffffffff1673ffffffffffffffffffffffffffffffffffffffff167fed8889f560326eb138920d842192f0eb3dd22b4f139c87a2c57538e05bae127860405160405180910390a350565b600080fd5b600073ffffffffffffffffffffffffffffffffffffffff82169050919050565b60006200034a826200031d565b9050919050565b6200035c816200033d565b81146200036857600080fd5b50565b6000815190506200037c8162000351565b92915050565b6000602082840312156200039b576200039a62000318565b5b6000620003ab848285016200036b565b91505092915050565b620003bf816200033d565b82525050565b6000602082019050620003dc6000830184620003b4565b92915050565b600082825260208201905092915050565b7f43616e6e6f7420736574206f776e657220746f207a65726f0000000000000000600082015250565b60006200042b601883620003e2565b91506200043882620003f3565b602082019050919050565b600060208201905081810360008301526200045e816200041c565b9050919050565b7f43616e6e6f74207472616e7366657220746f2073656c66000000000000000000600082015250565b60006200049d601783620003e2565b9150620004aa8262000465565b602082019050919050565b60006020820190508181036000830152620004d0816200048e565b9050919050565b6080516133d7620004fa60003960008181610ccf015261127c01526133d76000f3fe6080604052600436106100ec5760003560e01c806385572ffb1161008a578063b0f479a111610059578063b0f479a11461030c578063d030366c14610337578063eebc927b14610374578063f2fde38b146103b6576100f3565b806385572ffb1461023a5780638da5cb5b146102635780639c3ddb2e1461028e5780639c7ee0bc146102cf576100f3565b80633aeac4e1116100c65780633aeac4e11461019057806351bd6698146101b957806351cff8d9146101fa57806379ba509714610223576100f3565b806301ffc9a7146100f85780630b652d6d14610135578063263596a514610160576100f3565b366100f357005b600080fd5b34801561010457600080fd5b5061011f600480360381019061011a9190611da2565b6103df565b60405161012c9190611dea565b60405180910390f35b34801561014157600080fd5b5061014a6104b1565b6040516101579190611e1e565b60405180910390f35b34801561016c57600080fd5b506101756104be565b60405161018796959493929190611f46565b60405180910390f35b34801561019c57600080fd5b506101b760048036038101906101b29190611fda565b610704565b005b3480156101c557600080fd5b506101e060048036038101906101db9190612046565b6107f4565b6040516101f1959493929190612073565b60405180910390f35b34801561020657600080fd5b50610221600480360381019061021c91906120cd565b610a3a565b005b34801561022f57600080fd5b50610238610b38565b005b34801561024657600080fd5b50610261600480360381019061025c919061211e565b610ccd565b005b34801561026f57600080fd5b50610278610d72565b6040516102859190612167565b60405180910390f35b34801561029a57600080fd5b506102b560048036038101906102b09190612046565b610d9b565b6040516102c6959493929190612073565b60405180910390f35b3480156102db57600080fd5b506102f660048036038101906102f1919061223f565b610ead565b60405161030391906122d9565b60405180910390f35b34801561031857600080fd5b50610321611278565b60405161032e9190612167565b60405180910390f35b34801561034357600080fd5b5061035e600480360381019061035991906122f4565b6112a0565b60405161036b91906122d9565b60405180910390f35b34801561038057600080fd5b5061039b600480360381019061039691906122f4565b6112c4565b6040516103ad96959493929190611f46565b60405180910390f35b3480156103c257600080fd5b506103dd60048036038101906103d891906120cd565b611517565b005b60007f85572ffb000000000000000000000000000000000000000000000000000000007bffffffffffffffffffffffffffffffffffffffffffffffffffffffff1916827bffffffffffffffffffffffffffffffffffffffffffffffffffffffff191614806104aa57507f01ffc9a7000000000000000000000000000000000000000000000000000000007bffffffffffffffffffffffffffffffffffffffffffffffffffffffff1916827bffffffffffffffffffffffffffffffffffffffffffffffffffffffff1916145b9050919050565b6000600280549050905090565b60008060006060600080600060028054905003610507576040517f6ad69dd500000000000000000000000000000000000000000000000000000000815260040160405180910390fd5b6002600160028054905061051b9190612350565b8154811061052c5761052b612384565b5b906000526020600020015495506000600360008881526020019081526020016000206040518060a00160405290816000820160009054906101000a900467ffffffffffffffff1667ffffffffffffffff1667ffffffffffffffff1681526020016000820160089054906101000a900473ffffffffffffffffffffffffffffffffffffffff1673ffffffffffffffffffffffffffffffffffffffff1673ffffffffffffffffffffffffffffffffffffffff1681526020016001820180546105f1906123e2565b80601f016020809104026020016040519081016040528092919081815260200182805461061d906123e2565b801561066a5780601f1061063f5761010080835404028352916020019161066a565b820191906000526020600020905b81548152906001019060200180831161064d57829003601f168201915b505050505081526020016002820160009054906101000a900473ffffffffffffffffffffffffffffffffffffffff1673ffffffffffffffffffffffffffffffffffffffff1673ffffffffffffffffffffffffffffffffffffffff1681526020016003820154815250509050868160000151826020015183604001518460600151856080015196509650965096509650965050909192939495565b61070c61152b565b60008173ffffffffffffffffffffffffffffffffffffffff166370a08231306040518263ffffffff1660e01b81526004016107479190612167565b602060405180830381865afa158015610764573d6000803e3d6000fd5b505050506040513d601f19601f820116820180604052508101906107889190612428565b9050600081036107c4576040517fd0d04f6000000000000000000000000000000000000000000000000000000000815260040160405180910390fd5b6107ef83828473ffffffffffffffffffffffffffffffffffffffff166115bb9092919063ffffffff16565b505050565b60008060606000806000600360008881526020019081526020016000206040518060a00160405290816000820160009054906101000a900467ffffffffffffffff1667ffffffffffffffff1667ffffffffffffffff1681526020016000820160089054906101000a900473ffffffffffffffffffffffffffffffffffffffff1673ffffffffffffffffffffffffffffffffffffffff1673ffffffffffffffffffffffffffffffffffffffff1681526020016001820180546108b4906123e2565b80601f01602080910402602001604051908101604052809291908181526020018280546108e0906123e2565b801561092d5780601f106109025761010080835404028352916020019161092d565b820191906000526020600020905b81548152906001019060200180831161091057829003601f168201915b505050505081526020016002820160009054906101000a900473ffffffffffffffffffffffffffffffffffffffff1673ffffffffffffffffffffffffffffffffffffffff1673ffffffffffffffffffffffffffffffffffffffff1681526020016003820154815250509050600073ffffffffffffffffffffffffffffffffffffffff16816020015173ffffffffffffffffffffffffffffffffffffffff1603610a0d57866040517f4d47bb33000000000000000000000000000000000000000000000000000000008152600401610a0491906122d9565b60405180910390fd5b80600001518160200151826040015183606001518460800151955095509550955095505091939590929450565b610a4261152b565b600047905060008103610a81576040517fd0d04f6000000000000000000000000000000000000000000000000000000000815260040160405180910390fd5b60008273ffffffffffffffffffffffffffffffffffffffff1682604051610aa790612486565b60006040518083038185875af1925050503d8060008114610ae4576040519150601f19603f3d011682016040523d82523d6000602084013e610ae9565b606091505b5050905080610b33573383836040517f9d11f563000000000000000000000000000000000000000000000000000000008152600401610b2a9392919061249b565b60405180910390fd5b505050565b600160009054906101000a900473ffffffffffffffffffffffffffffffffffffffff1673ffffffffffffffffffffffffffffffffffffffff163373ffffffffffffffffffffffffffffffffffffffff1614610bc8576040517f08c379a0000000000000000000000000000000000000000000000000000000008152600401610bbf9061251e565b60405180910390fd5b60008060009054906101000a900473ffffffffffffffffffffffffffffffffffffffff169050336000806101000a81548173ffffffffffffffffffffffffffffffffffffffff021916908373ffffffffffffffffffffffffffffffffffffffff1602179055506000600160006101000a81548173ffffffffffffffffffffffffffffffffffffffff021916908373ffffffffffffffffffffffffffffffffffffffff1602179055503373ffffffffffffffffffffffffffffffffffffffff168173ffffffffffffffffffffffffffffffffffffffff167f8be0079c531659141344cd1fd0a4f28419497f9722a3daafe3b4186f6b6457e060405160405180910390a350565b7f000000000000000000000000000000000000000000000000000000000000000073ffffffffffffffffffffffffffffffffffffffff163373ffffffffffffffffffffffffffffffffffffffff1614610d5d57336040517fd7f73334000000000000000000000000000000000000000000000000000000008152600401610d549190612167565b60405180910390fd5b610d6f81610d6a9061286b565b611641565b50565b60008060009054906101000a900473ffffffffffffffffffffffffffffffffffffffff16905090565b60036020528060005260406000206000915090508060000160009054906101000a900467ffffffffffffffff16908060000160089054906101000a900473ffffffffffffffffffffffffffffffffffffffff1690806001018054610dfe906123e2565b80601f0160208091040260200160405190810160405280929190818152602001828054610e2a906123e2565b8015610e775780601f10610e4c57610100808354040283529160200191610e77565b820191906000526020600020905b815481529060010190602001808311610e5a57829003601f168201915b5050505050908060020160009054906101000a900473ffffffffffffffffffffffffffffffffffffffff16908060030154905085565b600080600167ffffffffffffffff811115610ecb57610eca612543565b5b604051908082528060200260200182016040528015610f0457816020015b610ef1611d06565b815260200190600190039081610ee95790505b509050600060405180604001604052808673ffffffffffffffffffffffffffffffffffffffff1681526020018581525090508082600081518110610f4b57610f4a612384565b5b602002602001018190525060006040518060a001604052808a604051602001610f749190612167565b60405160208183030381529060405281526020018989604051602001610f9b9291906128ab565b6040516020818303038152906040528152602001848152602001600073ffffffffffffffffffffffffffffffffffffffff168152602001610fec604051806020016040528062030d408152506118c7565b815250905060003073ffffffffffffffffffffffffffffffffffffffff1663b0f479a16040518163ffffffff1660e01b8152600401602060405180830381865afa15801561103e573d6000803e3d6000fd5b505050506040513d601f19601f8201168201806040525081019061106291906128e4565b90508673ffffffffffffffffffffffffffffffffffffffff1663095ea7b382886040518363ffffffff1660e01b815260040161109f929190612911565b6020604051808303816000875af11580156110be573d6000803e3d6000fd5b505050506040513d601f19601f820116820180604052508101906110e29190612966565b5060008173ffffffffffffffffffffffffffffffffffffffff166320487ded8d856040518363ffffffff1660e01b8152600401611120929190612b6f565b602060405180830381865afa15801561113d573d6000803e3d6000fd5b505050506040513d601f19601f820116820180604052508101906111619190612428565b90508047101561119d576040517f07da6ee600000000000000000000000000000000000000000000000000000000815260040160405180910390fd5b8173ffffffffffffffffffffffffffffffffffffffff166396f4e9f9828e866040518463ffffffff1660e01b81526004016111d9929190612b6f565b60206040518083038185885af11580156111f7573d6000803e3d6000fd5b50505050506040513d601f19601f8201168201806040525081019061121c9190612bb4565b95508b67ffffffffffffffff16867f218adb5a0a723dc22ce7712e38f03997cd4cefc41a7fd618de7329da31321c908d8d8d8987604051611261959493929190612c10565b60405180910390a350505050509695505050505050565b60007f0000000000000000000000000000000000000000000000000000000000000000905090565b600281815481106112b057600080fd5b906000526020600020016000915090505481565b60008060006060600080600280549050871061132a578660016002805490506112ed9190612350565b6040517fd0394270000000000000000000000000000000000000000000000000000000008152600401611321929190612c5e565b60405180910390fd5b6002878154811061133e5761133d612384565b5b906000526020600020015495506000600360008881526020019081526020016000206040518060a00160405290816000820160009054906101000a900467ffffffffffffffff1667ffffffffffffffff1667ffffffffffffffff1681526020016000820160089054906101000a900473ffffffffffffffffffffffffffffffffffffffff1673ffffffffffffffffffffffffffffffffffffffff1673ffffffffffffffffffffffffffffffffffffffff168152602001600182018054611403906123e2565b80601f016020809104026020016040519081016040528092919081815260200182805461142f906123e2565b801561147c5780601f106114515761010080835404028352916020019161147c565b820191906000526020600020905b81548152906001019060200180831161145f57829003601f168201915b505050505081526020016002820160009054906101000a900473ffffffffffffffffffffffffffffffffffffffff1673ffffffffffffffffffffffffffffffffffffffff1673ffffffffffffffffffffffffffffffffffffffff168152602001600382015481525050905086816000015182602001518360400151846060015185608001519650965096509650965096505091939550919395565b61151f61152b565b61152881611946565b50565b60008054906101000a900473ffffffffffffffffffffffffffffffffffffffff1673ffffffffffffffffffffffffffffffffffffffff163373ffffffffffffffffffffffffffffffffffffffff16146115b9576040517f08c379a00000000000000000000000000000000000000000000000000000000081526004016115b090612cd3565b60405180910390fd5b565b61163c8363a9059cbb60e01b84846040516024016115da929190612911565b604051602081830303815290604052907bffffffffffffffffffffffffffffffffffffffffffffffffffffffff19166020820180517bffffffffffffffffffffffffffffffffffffffffffffffffffffffff8381831617835250505050611a72565b505050565b6000816000015190506000826020015190506000836040015180602001905181019061166d9190612d31565b905060008460800151905060008160008151811061168e5761168d612384565b5b60200260200101516000015190506000826000815181106116b2576116b1612384565b5b6020026020010151602001519050600087606001518060200190518101906116da9190612dff565b9050600287908060018154018082558091505060019003906000526020600020016000909190919091505560006040518060a001604052808867ffffffffffffffff1681526020018773ffffffffffffffffffffffffffffffffffffffff1681526020018381526020018573ffffffffffffffffffffffffffffffffffffffff16815260200184815250905080600360008a815260200190815260200160002060008201518160000160006101000a81548167ffffffffffffffff021916908367ffffffffffffffff16021790555060208201518160000160086101000a81548173ffffffffffffffffffffffffffffffffffffffff021916908373ffffffffffffffffffffffffffffffffffffffff16021790555060408201518160010190816118059190612ff4565b5060608201518160020160006101000a81548173ffffffffffffffffffffffffffffffffffffffff021916908373ffffffffffffffffffffffffffffffffffffffff160217905550608082015181600301559050508667ffffffffffffffff16887f852dbe7c0b886f87e176d6af0c3e5537dd2fc249db45c9a4348aa9bc5d18120688858960008151811061189d5761189c612384565b5b60200260200101516040516118b4939291906130c6565b60405180910390a3505050505050505050565b60606397a657c960e01b826040516024016118e29190613120565b604051602081830303815290604052907bffffffffffffffffffffffffffffffffffffffffffffffffffffffff19166020820180517bffffffffffffffffffffffffffffffffffffffffffffffffffffffff83818316178352505050509050919050565b3373ffffffffffffffffffffffffffffffffffffffff168173ffffffffffffffffffffffffffffffffffffffff16036119b4576040517f08c379a00000000000000000000000000000000000000000000000000000000081526004016119ab90613187565b60405180910390fd5b80600160006101000a81548173ffffffffffffffffffffffffffffffffffffffff021916908373ffffffffffffffffffffffffffffffffffffffff1602179055508073ffffffffffffffffffffffffffffffffffffffff1660008054906101000a900473ffffffffffffffffffffffffffffffffffffffff1673ffffffffffffffffffffffffffffffffffffffff167fed8889f560326eb138920d842192f0eb3dd22b4f139c87a2c57538e05bae127860405160405180910390a350565b6000611ad4826040518060400160405280602081526020017f5361666545524332303a206c6f772d6c6576656c2063616c6c206661696c65648152508573ffffffffffffffffffffffffffffffffffffffff16611b399092919063ffffffff16565b9050600081511115611b345780806020019051810190611af49190612966565b611b33576040517f08c379a0000000000000000000000000000000000000000000000000000000008152600401611b2a90613219565b60405180910390fd5b5b505050565b6060611b488484600085611b51565b90509392505050565b606082471015611b96576040517f08c379a0000000000000000000000000000000000000000000000000000000008152600401611b8d906132ab565b60405180910390fd5b6000808673ffffffffffffffffffffffffffffffffffffffff168587604051611bbf91906132fc565b60006040518083038185875af1925050503d8060008114611bfc576040519150601f19603f3d011682016040523d82523d6000602084013e611c01565b606091505b5091509150611c1287838387611c1e565b92505050949350505050565b60608315611c80576000835103611c7857611c3885611c93565b611c77576040517f08c379a0000000000000000000000000000000000000000000000000000000008152600401611c6e9061335f565b60405180910390fd5b5b829050611c8b565b611c8a8383611cb6565b5b949350505050565b6000808273ffffffffffffffffffffffffffffffffffffffff163b119050919050565b600082511115611cc95781518083602001fd5b806040517f08c379a0000000000000000000000000000000000000000000000000000000008152600401611cfd919061337f565b60405180910390fd5b6040518060400160405280600073ffffffffffffffffffffffffffffffffffffffff168152602001600081525090565b6000604051905090565b600080fd5b600080fd5b60007fffffffff0000000000000000000000000000000000000000000000000000000082169050919050565b611d7f81611d4a565b8114611d8a57600080fd5b50565b600081359050611d9c81611d76565b92915050565b600060208284031215611db857611db7611d40565b5b6000611dc684828501611d8d565b91505092915050565b60008115159050919050565b611de481611dcf565b82525050565b6000602082019050611dff6000830184611ddb565b92915050565b6000819050919050565b611e1881611e05565b82525050565b6000602082019050611e336000830184611e0f565b92915050565b6000819050919050565b611e4c81611e39565b82525050565b600067ffffffffffffffff82169050919050565b611e6f81611e52565b82525050565b600073ffffffffffffffffffffffffffffffffffffffff82169050919050565b6000611ea082611e75565b9050919050565b611eb081611e95565b82525050565b600081519050919050565b600082825260208201905092915050565b60005b83811015611ef0578082015181840152602081019050611ed5565b60008484015250505050565b6000601f19601f8301169050919050565b6000611f1882611eb6565b611f228185611ec1565b9350611f32818560208601611ed2565b611f3b81611efc565b840191505092915050565b600060c082019050611f5b6000830189611e43565b611f686020830188611e66565b611f756040830187611ea7565b8181036060830152611f878186611f0d565b9050611f966080830185611ea7565b611fa360a0830184611e0f565b979650505050505050565b611fb781611e95565b8114611fc257600080fd5b50565b600081359050611fd481611fae565b92915050565b60008060408385031215611ff157611ff0611d40565b5b6000611fff85828601611fc5565b925050602061201085828601611fc5565b9150509250929050565b61202381611e39565b811461202e57600080fd5b50565b6000813590506120408161201a565b92915050565b60006020828403121561205c5761205b611d40565b5b600061206a84828501612031565b91505092915050565b600060a0820190506120886000830188611e66565b6120956020830187611ea7565b81810360408301526120a78186611f0d565b90506120b66060830185611ea7565b6120c36080830184611e0f565b9695505050505050565b6000602082840312156120e3576120e2611d40565b5b60006120f184828501611fc5565b91505092915050565b600080fd5b600060a08284031215612115576121146120fa565b5b81905092915050565b60006020828403121561213457612133611d40565b5b600082013567ffffffffffffffff81111561215257612151611d45565b5b61215e848285016120ff565b91505092915050565b600060208201905061217c6000830184611ea7565b92915050565b61218b81611e52565b811461219657600080fd5b50565b6000813590506121a881612182565b92915050565b600080fd5b600080fd5b600080fd5b60008083601f8401126121d3576121d26121ae565b5b8235905067ffffffffffffffff8111156121f0576121ef6121b3565b5b60208301915083600182028301111561220c5761220b6121b8565b5b9250929050565b61221c81611e05565b811461222757600080fd5b50565b60008135905061223981612213565b92915050565b60008060008060008060a0878903121561225c5761225b611d40565b5b600061226a89828a01612199565b965050602061227b89828a01611fc5565b955050604087013567ffffffffffffffff81111561229c5761229b611d45565b5b6122a889828a016121bd565b945094505060606122bb89828a01611fc5565b92505060806122cc89828a0161222a565b9150509295509295509295565b60006020820190506122ee6000830184611e43565b92915050565b60006020828403121561230a57612309611d40565b5b60006123188482850161222a565b91505092915050565b7f4e487b7100000000000000000000000000000000000000000000000000000000600052601160045260246000fd5b600061235b82611e05565b915061236683611e05565b925082820390508181111561237e5761237d612321565b5b92915050565b7f4e487b7100000000000000000000000000000000000000000000000000000000600052603260045260246000fd5b7f4e487b7100000000000000000000000000000000000000000000000000000000600052602260045260246000fd5b600060028204905060018216806123fa57607f821691505b60208210810361240d5761240c6123b3565b5b50919050565b60008151905061242281612213565b92915050565b60006020828403121561243e5761243d611d40565b5b600061244c84828501612413565b91505092915050565b600081905092915050565b50565b6000612470600083612455565b915061247b82612460565b600082019050919050565b600061249182612463565b9150819050919050565b60006060820190506124b06000830186611ea7565b6124bd6020830185611ea7565b6124ca6040830184611e0f565b949350505050565b7f4d7573742062652070726f706f736564206f776e657200000000000000000000600082015250565b6000612508601683611ec1565b9150612513826124d2565b602082019050919050565b60006020820190508181036000830152612537816124fb565b9050919050565b600080fd5b7f4e487b7100000000000000000000000000000000000000000000000000000000600052604160045260246000fd5b61257b82611efc565b810181811067ffffffffffffffff8211171561259a57612599612543565b5b80604052505050565b60006125ad611d36565b90506125b98282612572565b919050565b600080fd5b600080fd5b600067ffffffffffffffff8211156125e3576125e2612543565b5b6125ec82611efc565b9050602081019050919050565b82818337600083830152505050565b600061261b612616846125c8565b6125a3565b905082815260208101848484011115612637576126366125c3565b5b6126428482856125f9565b509392505050565b600082601f83011261265f5761265e6121ae565b5b813561266f848260208601612608565b91505092915050565b600067ffffffffffffffff82111561269357612692612543565b5b602082029050602081019050919050565b6000604082840312156126ba576126b961253e565b5b6126c460406125a3565b905060006126d484828501611fc5565b60008301525060206126e88482850161222a565b60208301525092915050565b600061270761270284612678565b6125a3565b9050808382526020820190506040840283018581111561272a576127296121b8565b5b835b81811015612753578061273f88826126a4565b84526020840193505060408101905061272c565b5050509392505050565b600082601f830112612772576127716121ae565b5b81356127828482602086016126f4565b91505092915050565b600060a082840312156127a1576127a061253e565b5b6127ab60a06125a3565b905060006127bb84828501612031565b60008301525060206127cf84828501612199565b602083015250604082013567ffffffffffffffff8111156127f3576127f26125be565b5b6127ff8482850161264a565b604083015250606082013567ffffffffffffffff811115612823576128226125be565b5b61282f8482850161264a565b606083015250608082013567ffffffffffffffff811115612853576128526125be565b5b61285f8482850161275d565b60808301525092915050565b6000612877368361278b565b9050919050565b600061288a8385611ec1565b93506128978385846125f9565b6128a083611efc565b840190509392505050565b600060208201905081810360008301526128c681848661287e565b90509392505050565b6000815190506128de81611fae565b92915050565b6000602082840312156128fa576128f9611d40565b5b6000612908848285016128cf565b91505092915050565b60006040820190506129266000830185611ea7565b6129336020830184611e0f565b9392505050565b61294381611dcf565b811461294e57600080fd5b50565b6000815190506129608161293a565b92915050565b60006020828403121561297c5761297b611d40565b5b600061298a84828501612951565b91505092915050565b600081519050919050565b600082825260208201905092915050565b60006129ba82612993565b6129c4818561299e565b93506129d4818560208601611ed2565b6129dd81611efc565b840191505092915050565b600081519050919050565b600082825260208201905092915050565b6000819050602082019050919050565b612a1d81611e95565b82525050565b612a2c81611e05565b82525050565b604082016000820151612a486000850182612a14565b506020820151612a5b6020850182612a23565b50505050565b6000612a6d8383612a32565b60408301905092915050565b6000602082019050919050565b6000612a91826129e8565b612a9b81856129f3565b9350612aa683612a04565b8060005b83811015612ad7578151612abe8882612a61565b9750612ac983612a79565b925050600181019050612aaa565b5085935050505092915050565b600060a0830160008301518482036000860152612b0182826129af565b91505060208301518482036020860152612b1b82826129af565b91505060408301518482036040860152612b358282612a86565b9150506060830151612b4a6060860182612a14565b5060808301518482036080860152612b6282826129af565b9150508091505092915050565b6000604082019050612b846000830185611e66565b8181036020830152612b968184612ae4565b90509392505050565b600081519050612bae8161201a565b92915050565b600060208284031215612bca57612bc9611d40565b5b6000612bd884828501612b9f565b91505092915050565b604082016000820151612bf76000850182612a14565b506020820151612c0a6020850182612a23565b50505050565b600060a082019050612c256000830188611ea7565b8181036020830152612c3881868861287e565b9050612c476040830185612be1565b612c546080830184611e0f565b9695505050505050565b6000604082019050612c736000830185611e0f565b612c806020830184611e0f565b9392505050565b7f4f6e6c792063616c6c61626c65206279206f776e657200000000000000000000600082015250565b6000612cbd601683611ec1565b9150612cc882612c87565b602082019050919050565b60006020820190508181036000830152612cec81612cb0565b9050919050565b6000612cfe82611e75565b9050919050565b612d0e81612cf3565b8114612d1957600080fd5b50565b600081519050612d2b81612d05565b92915050565b600060208284031215612d4757612d46611d40565b5b6000612d5584828501612d1c565b91505092915050565b600067ffffffffffffffff821115612d7957612d78612543565b5b612d8282611efc565b9050602081019050919050565b6000612da2612d9d84612d5e565b6125a3565b905082815260208101848484011115612dbe57612dbd6125c3565b5b612dc9848285611ed2565b509392505050565b600082601f830112612de657612de56121ae565b5b8151612df6848260208601612d8f565b91505092915050565b600060208284031215612e1557612e14611d40565b5b600082015167ffffffffffffffff811115612e3357612e32611d45565b5b612e3f84828501612dd1565b91505092915050565b60008190508160005260206000209050919050565b60006020601f8301049050919050565b600082821b905092915050565b600060088302612eaa7fffffffffffffffffffffffffffffffffffffffffffffffffffffffffffffffff82612e6d565b612eb48683612e6d565b95508019841693508086168417925050509392505050565b6000819050919050565b6000612ef1612eec612ee784611e05565b612ecc565b611e05565b9050919050565b6000819050919050565b612f0b83612ed6565b612f1f612f1782612ef8565b848454612e7a565b825550505050565b600090565b612f34612f27565b612f3f818484612f02565b505050565b5b81811015612f6357612f58600082612f2c565b600181019050612f45565b5050565b601f821115612fa857612f7981612e48565b612f8284612e5d565b81016020851015612f91578190505b612fa5612f9d85612e5d565b830182612f44565b50505b505050565b600082821c905092915050565b6000612fcb60001984600802612fad565b1980831691505092915050565b6000612fe48383612fba565b9150826002028217905092915050565b612ffd82611eb6565b67ffffffffffffffff81111561301657613015612543565b5b61302082546123e2565b61302b828285612f67565b600060209050601f83116001811461305e576000841561304c578287015190505b6130568582612fd8565b8655506130be565b601f19841661306c86612e48565b60005b828110156130945784890151825560018201915060208501945060208101905061306f565b868310156130b157848901516130ad601f891682612fba565b8355505b6001600288020188555050505b505050505050565b60006080820190506130db6000830186611ea7565b81810360208301526130ed8185611f0d565b90506130fc6040830184612be1565b949350505050565b60208201600082015161311a6000850182612a23565b50505050565b60006020820190506131356000830184613104565b92915050565b7f43616e6e6f74207472616e7366657220746f2073656c66000000000000000000600082015250565b6000613171601783611ec1565b915061317c8261313b565b602082019050919050565b600060208201905081810360008301526131a081613164565b9050919050565b7f5361666545524332303a204552433230206f7065726174696f6e20646964206e60008201527f6f74207375636365656400000000000000000000000000000000000000000000602082015250565b6000613203602a83611ec1565b915061320e826131a7565b604082019050919050565b60006020820190508181036000830152613232816131f6565b9050919050565b7f416464726573733a20696e73756666696369656e742062616c616e636520666f60008201527f722063616c6c0000000000000000000000000000000000000000000000000000602082015250565b6000613295602683611ec1565b91506132a082613239565b604082019050919050565b600060208201905081810360008301526132c481613288565b9050919050565b60006132d682612993565b6132e08185612455565b93506132f0818560208601611ed2565b80840191505092915050565b600061330882846132cb565b915081905092915050565b7f416464726573733a2063616c6c20746f206e6f6e2d636f6e7472616374000000600082015250565b6000613349601d83611ec1565b915061335482613313565b602082019050919050565b600060208201905081810360008301526133788161333c565b9050919050565b600060208201905081810360008301526133998184611f0d565b90509291505056fea2646970667358221220da2ac6b91960de2ba9513417292587729676833e36bcfc247294befb9f7cf03c64736f6c63430008130033","linkReferences":{}},"methodIdentifiers":{"acceptOwnership()":"79ba5097","ccipReceive((bytes32,uint64,bytes,bytes,(address,uint256)[]))":"85572ffb","getLastReceivedMessageDetails()":"263596a5","getNumberOfReceivedMessages()":"0b652d6d","getReceivedMessageAt(uint256)":"eebc927b","getReceivedMessageDetails(bytes32)":"51bd6698","getRouter()":"b0f479a1","messageDetail(bytes32)":"9c3ddb2e","owner()":"8da5cb5b","receivedMessages(uint256)":"d030366c","sendMessage(uint64,address,string,address,uint256)":"9c7ee0bc","supportsInterface(bytes4)":"01ffc9a7","transferOwnership(address)":"f2fde38b","withdraw(address)":"51cff8d9","withdrawToken(address,address)":"3aeac4e1"},"id":75}