{"abi":[{"type":"constructor","inputs":[{"name":"_stableToken","type":"address","internalType":"address"},{"name":"_priceFeed","type":"address","internalType":"address"}],"stateMutability":"nonpayable"},{"type":"receive","stateMutability":"payable"},{"type":"function","name":"INTEREST_RATE_PER_YEAR","inputs":[],"outputs":[{"name":"","type":"uint256","internalType":"uint256"}],"stateMutability":"view"},{"type":"function","name":"LIQUIDATION_BONUS_BPS","inputs":[],"outputs":[{"name":"","type":"uint256","internalType":"uint256"}],"stateMutability":"view"},{"type":"function","name":"LIQUIDATION_THRESHOLD","inputs":[],"outputs":[{"name":"","type":"uint256","internalType":"uint256"}],"stateMutability":"view"},{"type":"function","name":"MAX_LTV","inputs":[],"outputs":[{"name":"","type":"uint256","internalType":"uint256"}],"stateMutability":"view"},{"type":"function","name":"ORIGINATION_FEE_BPS","inputs":[],"outputs":[{"name":"","type":"uint256","internalType":"uint256"}],"stateMutability":"view"},{"type":"function","name":"PRECISION","inputs":[],"outputs":[{"name":"","type":"uint256","internalType":"uint256"}],"stateMutability":"view"},{"type":"function","name":"borrow","inputs":[{"name":"amount","type":"uint256","internalType":"uint256"}],"outputs":[],"stateMutability":"nonpayable"},{"type":"function","name":"deposit","inputs":[],"outputs":[],"stateMutability":"payable"},{"type":"function","name":"ethUsdPriceFeed","inputs":[],"outputs":[{"name":"","type":"address","internalType":"contract AggregatorV3Interface"}],"stateMutability":"view"},{"type":"function","name":"getLTV","inputs":[{"name":"user","type":"address","internalType":"address"}],"outputs":[{"name":"","type":"uint256","internalType":"uint256"}],"stateMutability":"view"},{"type":"function","name":"getTotalDebt","inputs":[{"name":"user","type":"address","internalType":"address"}],"outputs":[{"name":"","type":"uint256","internalType":"uint256"}],"stateMutability":"view"},{"type":"function","name":"liquidate","inputs":[{"name":"user","type":"address","internalType":"address"}],"outputs":[],"stateMutability":"nonpayable"},{"type":"function","name":"owner","inputs":[],"outputs":[{"name":"","type":"address","internalType":"address"}],"stateMutability":"view"},{"type":"function","name":"positions","inputs":[{"name":"","type":"address","internalType":"address"}],"outputs":[{"name":"collateralETH","type":"uint256","internalType":"uint256"},{"name":"principalDebt","type":"uint256","internalType":"uint256"},{"name":"lastBorrowTimestamp","type":"uint256","internalType":"uint256"}],"stateMutability":"view"},{"type":"function","name":"renounceOwnership","inputs":[],"outputs":[],"stateMutability":"nonpayable"},{"type":"function","name":"repay","inputs":[{"name":"amount","type":"uint256","internalType":"uint256"}],"outputs":[],"stateMutability":"nonpayable"},{"type":"function","name":"stableToken","inputs":[],"outputs":[{"name":"","type":"address","internalType":"contract IERC20"}],"stateMutability":"view"},{"type":"function","name":"transferOwnership","inputs":[{"name":"newOwner","type":"address","internalType":"address"}],"outputs":[],"stateMutability":"nonpayable"},{"type":"function","name":"withdraw","inputs":[{"name":"amount","type":"uint256","internalType":"uint256"}],"outputs":[],"stateMutability":"nonpayable"},{"type":"event","name":"Borrowed","inputs":[{"name":"user","type":"address","indexed":true,"internalType":"address"},{"name":"amount","type":"uint256","indexed":false,"internalType":"uint256"},{"name":"fee","type":"uint256","indexed":false,"internalType":"uint256"}],"anonymous":false},{"type":"event","name":"Deposited","inputs":[{"name":"user","type":"address","indexed":true,"internalType":"address"},{"name":"amount","type":"uint256","indexed":false,"internalType":"uint256"}],"anonymous":false},{"type":"event","name":"Liquidated","inputs":[{"name":"user","type":"address","indexed":true,"internalType":"address"},{"name":"reward","type":"uint256","indexed":false,"internalType":"uint256"}],"anonymous":false},{"type":"event","name":"OwnershipTransferred","inputs":[{"name":"previousOwner","type":"address","indexed":true,"internalType":"address"},{"name":"newOwner","type":"address","indexed":true,"internalType":"address"}],"anonymous":false},{"type":"event","name":"Repaid","inputs":[{"name":"user","type":"address","indexed":true,"internalType":"address"},{"name":"amount","type":"uint256","indexed":false,"internalType":"uint256"}],"anonymous":false},{"type":"event","name":"Withdrawn","inputs":[{"name":"user","type":"address","indexed":true,"internalType":"address"},{"name":"amount","type":"uint256","indexed":false,"internalType":"uint256"}],"anonymous":false}],"bytecode":{"object":"0x60806040523480156200001157600080fd5b50604051620021e2380380620021e283398181016040528101906200003791906200021e565b620000576200004b620000e860201b60201c565b620000f060201b60201c565b6001808190555081600260006101000a81548173ffffffffffffffffffffffffffffffffffffffff021916908373ffffffffffffffffffffffffffffffffffffffff16021790555080600360006101000a81548173ffffffffffffffffffffffffffffffffffffffff021916908373ffffffffffffffffffffffffffffffffffffffff160217905550505062000265565b600033905090565b60008060009054906101000a900473ffffffffffffffffffffffffffffffffffffffff169050816000806101000a81548173ffffffffffffffffffffffffffffffffffffffff021916908373ffffffffffffffffffffffffffffffffffffffff1602179055508173ffffffffffffffffffffffffffffffffffffffff168173ffffffffffffffffffffffffffffffffffffffff167f8be0079c531659141344cd1fd0a4f28419497f9722a3daafe3b4186f6b6457e060405160405180910390a35050565b600080fd5b600073ffffffffffffffffffffffffffffffffffffffff82169050919050565b6000620001e682620001b9565b9050919050565b620001f881620001d9565b81146200020457600080fd5b50565b6000815190506200021881620001ed565b92915050565b60008060408385031215620002385762000237620001b4565b5b6000620002488582860162000207565b92505060206200025b8582860162000207565b9150509250929050565b611f6d80620002756000396000f3fe6080604052600436106101185760003560e01c80638da5cb5b116100a0578063c5ebeaec11610064578063c5ebeaec146103a4578063d0e30db0146103cd578063eac1377f146103d7578063ecd1dae614610402578063f2fde38b1461042d57610127565b80638da5cb5b146102bb57806390a8ae9b146102e6578063a9d75b2b14610311578063aaf5eb681461033c578063aca25f9a1461036757610127565b80634d44ac4f116100e75780634d44ac4f146101d257806355f575101461020f5780635a866fdc1461024e578063715018a61461027957806381bf8d3d1461029057610127565b80632e1a7d4d1461012c5780632f86556814610155578063371fd8e61461017e57806342f6fb29146101a757610127565b3661012757610125610456565b005b600080fd5b34801561013857600080fd5b50610153600480360381019061014e919061145c565b610552565b005b34801561016157600080fd5b5061017c600480360381019061017791906114e7565b61075a565b005b34801561018a57600080fd5b506101a560048036038101906101a0919061145c565b610979565b005b3480156101b357600080fd5b506101bc610bb0565b6040516101c99190611573565b60405180910390f35b3480156101de57600080fd5b506101f960048036038101906101f491906114e7565b610bd6565b604051610206919061159d565b60405180910390f35b34801561021b57600080fd5b50610236600480360381019061023191906114e7565b610cb9565b604051610245939291906115b8565b60405180910390f35b34801561025a57600080fd5b50610263610ce3565b604051610270919061159d565b60405180910390f35b34801561028557600080fd5b5061028e610ce8565b005b34801561029c57600080fd5b506102a5610cfc565b6040516102b2919061159d565b60405180910390f35b3480156102c757600080fd5b506102d0610d01565b6040516102dd91906115fe565b60405180910390f35b3480156102f257600080fd5b506102fb610d2a565b604051610308919061159d565b60405180910390f35b34801561031d57600080fd5b50610326610d2f565b604051610333919061163a565b60405180910390f35b34801561034857600080fd5b50610351610d55565b60405161035e919061159d565b60405180910390f35b34801561037357600080fd5b5061038e600480360381019061038991906114e7565b610d61565b60405161039b919061159d565b60405180910390f35b3480156103b057600080fd5b506103cb60048036038101906103c6919061145c565b610e44565b005b6103d5610456565b005b3480156103e357600080fd5b506103ec61110c565b6040516103f9919061159d565b60405180910390f35b34801561040e57600080fd5b50610417611112565b604051610424919061159d565b60405180910390f35b34801561043957600080fd5b50610454600480360381019061044f91906114e7565b611118565b005b61045e61119b565b600034116104a1576040517f08c379a0000000000000000000000000000000000000000000000000000000008152600401610498906116b2565b60405180910390fd5b34600460003373ffffffffffffffffffffffffffffffffffffffff1673ffffffffffffffffffffffffffffffffffffffff16815260200190815260200160002060000160008282546104f39190611701565b925050819055503373ffffffffffffffffffffffffffffffffffffffff167f2da466a7b24304f47e87fa2e1e5a81b9831ce54fec19055ce277ca2f39ba42c434604051610540919061159d565b60405180910390a26105506111ea565b565b61055a61119b565b6000600460003373ffffffffffffffffffffffffffffffffffffffff1673ffffffffffffffffffffffffffffffffffffffff16815260200190815260200160002090506000821180156105b1575081816000015410155b6105f0576040517f08c379a00000000000000000000000000000000000000000000000000000000081526004016105e790611781565b60405180910390fd5b60006105fa6111f3565b9050600083836000015461060e91906117a1565b905060006305f5e100838361062391906117d5565b61062d9190611846565b9050600061063a33610bd6565b9050600080821161064c576000610665565b8260648361065a91906117d5565b6106649190611846565b5b905060328111156106ab576040517f08c379a00000000000000000000000000000000000000000000000000000000081526004016106a2906118c3565b60405180910390fd5b8386600001819055503373ffffffffffffffffffffffffffffffffffffffff166108fc889081150290604051600060405180830381858888f193505050501580156106fa573d6000803e3d6000fd5b503373ffffffffffffffffffffffffffffffffffffffff167f7084f5476618d8e60b11ef0d7d3f06914655adb8793e28ff7f018d4c76d505d588604051610741919061159d565b60405180910390a25050505050506107576111ea565b50565b61076261119b565b6000600460008373ffffffffffffffffffffffffffffffffffffffff1673ffffffffffffffffffffffffffffffffffffffff168152602001908152602001600020905060008160010154116107ec576040517f08c379a00000000000000000000000000000000000000000000000000000000081526004016107e39061192f565b60405180910390fd5b60006107f66111f3565b905060006305f5e10082846000015461080f91906117d5565b6108199190611846565b9050600061082685610bd6565b905060008260648361083891906117d5565b6108429190611846565b9050604b8111610887576040517f08c379a000000000000000000000000000000000000000000000000000000000815260040161087e9061199b565b60405180910390fd5b60006127106103e8876000015461089e91906117d5565b6108a89190611846565b905060008187600001546108bc91906117a1565b905060008760000181905550600087600101819055503373ffffffffffffffffffffffffffffffffffffffff166108fc839081150290604051600060405180830381858888f19350505050158015610918573d6000803e3d6000fd5b508773ffffffffffffffffffffffffffffffffffffffff167fa5ee7a2b0254fce91deed604506790ed7fa072d0b14cba4859c3bc8955b9caac8360405161095f919061159d565b60405180910390a2505050505050506109766111ea565b50565b61098161119b565b600081116109c4576040517f08c379a00000000000000000000000000000000000000000000000000000000081526004016109bb90611781565b60405180910390fd5b600260009054906101000a900473ffffffffffffffffffffffffffffffffffffffff1673ffffffffffffffffffffffffffffffffffffffff166323b872dd3330846040518463ffffffff1660e01b8152600401610a23939291906119bb565b6020604051808303816000875af1158015610a42573d6000803e3d6000fd5b505050506040513d601f19601f82011682018060405250810190610a669190611a2a565b610aa5576040517f08c379a0000000000000000000000000000000000000000000000000000000008152600401610a9c90611aa3565b60405180910390fd5b6000610ab033610bd6565b905080821115610af5576040517f08c379a0000000000000000000000000000000000000000000000000000000008152600401610aec90611b0f565b60405180910390fd5b6000600460003373ffffffffffffffffffffffffffffffffffffffff1673ffffffffffffffffffffffffffffffffffffffff16815260200190815260200160002090508282610b4491906117a1565b81600101819055504281600201819055503373ffffffffffffffffffffffffffffffffffffffff167f0516911bcc3a0a7412a44601057c0a0a1ec628bde049a84284bc42886653448884604051610b9b919061159d565b60405180910390a25050610bad6111ea565b50565b600360009054906101000a900473ffffffffffffffffffffffffffffffffffffffff1681565b600080600460008473ffffffffffffffffffffffffffffffffffffffff1673ffffffffffffffffffffffffffffffffffffffff168152602001908152602001600020604051806060016040529081600082015481526020016001820154815260200160028201548152505090506000816020015103610c59576000915050610cb4565b6000816040015142610c6b91906117a1565b9050600064496cebb800826101f48560200151610c8891906117d5565b610c9291906117d5565b610c9c9190611846565b9050808360200151610cae9190611701565b93505050505b919050565b60046020528060005260406000206000915090508060000154908060010154908060020154905083565b603281565b610cf06112d7565b610cfa6000611355565b565b603281565b60008060009054906101000a900473ffffffffffffffffffffffffffffffffffffffff16905090565b604b81565b600260009054906101000a900473ffffffffffffffffffffffffffffffffffffffff1681565b670de0b6b3a764000081565b600080600460008473ffffffffffffffffffffffffffffffffffffffff1673ffffffffffffffffffffffffffffffffffffffff168152602001908152602001600020604051806060016040529081600082015481526020016001820154815260200160028201548152505090506000816020015103610de4576000915050610e3f565b6000610dee6111f3565b905060006305f5e100828460000151610e0791906117d5565b610e119190611846565b90506000610e1e86610bd6565b905081606482610e2e91906117d5565b610e389190611846565b9450505050505b919050565b610e4c61119b565b60008111610e8f576040517f08c379a0000000000000000000000000000000000000000000000000000000008152600401610e8690611781565b60405180910390fd5b6000600460003373ffffffffffffffffffffffffffffffffffffffff1673ffffffffffffffffffffffffffffffffffffffff16815260200190815260200160002090506000610edc6111f3565b905060006305f5e100828460000154610ef591906117d5565b610eff9190611846565b9050600084610f0d33610bd6565b610f179190611701565b9050600082606483610f2991906117d5565b610f339190611846565b90506032811115610f79576040517f08c379a0000000000000000000000000000000000000000000000000000000008152600401610f7090611b7b565b60405180910390fd5b6000612710603288610f8b91906117d5565b610f959190611846565b905060008188610fa59190611701565b905087876001016000828254610fbb9190611701565b92505081905550428760020181905550600260009054906101000a900473ffffffffffffffffffffffffffffffffffffffff1673ffffffffffffffffffffffffffffffffffffffff1663a9059cbb338a6040518363ffffffff1660e01b8152600401611028929190611b9b565b6020604051808303816000875af1158015611047573d6000803e3d6000fd5b505050506040513d601f19601f8201168201806040525081019061106b9190611a2a565b6110aa576040517f08c379a00000000000000000000000000000000000000000000000000000000081526004016110a190611c10565b60405180910390fd5b3373ffffffffffffffffffffffffffffffffffffffff167feae9cfbc77fdd40ca899f36b608256063b2bc9d8178b0220f7ad513e178d673089846040516110f2929190611c30565b60405180910390a2505050505050506111096111ea565b50565b6101f481565b6103e881565b6111206112d7565b600073ffffffffffffffffffffffffffffffffffffffff168173ffffffffffffffffffffffffffffffffffffffff160361118f576040517f08c379a000000000000000000000000000000000000000000000000000000000815260040161118690611ccb565b60405180910390fd5b61119881611355565b50565b6002600154036111e0576040517f08c379a00000000000000000000000000000000000000000000000000000000081526004016111d790611d37565b60405180910390fd5b6002600181905550565b60018081905550565b600080600360009054906101000a900473ffffffffffffffffffffffffffffffffffffffff1673ffffffffffffffffffffffffffffffffffffffff1663feaf968c6040518163ffffffff1660e01b815260040160a060405180830381865afa158015611263573d6000803e3d6000fd5b505050506040513d601f19601f820116820180604052508101906112879190611de4565b505050915050600081136112d0576040517f08c379a00000000000000000000000000000000000000000000000000000000081526004016112c790611eab565b60405180910390fd5b8091505090565b6112df611419565b73ffffffffffffffffffffffffffffffffffffffff166112fd610d01565b73ffffffffffffffffffffffffffffffffffffffff1614611353576040517f08c379a000000000000000000000000000000000000000000000000000000000815260040161134a90611f17565b60405180910390fd5b565b60008060009054906101000a900473ffffffffffffffffffffffffffffffffffffffff169050816000806101000a81548173ffffffffffffffffffffffffffffffffffffffff021916908373ffffffffffffffffffffffffffffffffffffffff1602179055508173ffffffffffffffffffffffffffffffffffffffff168173ffffffffffffffffffffffffffffffffffffffff167f8be0079c531659141344cd1fd0a4f28419497f9722a3daafe3b4186f6b6457e060405160405180910390a35050565b600033905090565b600080fd5b6000819050919050565b61143981611426565b811461144457600080fd5b50565b60008135905061145681611430565b92915050565b60006020828403121561147257611471611421565b5b600061148084828501611447565b91505092915050565b600073ffffffffffffffffffffffffffffffffffffffff82169050919050565b60006114b482611489565b9050919050565b6114c4816114a9565b81146114cf57600080fd5b50565b6000813590506114e1816114bb565b92915050565b6000602082840312156114fd576114fc611421565b5b600061150b848285016114d2565b91505092915050565b6000819050919050565b600061153961153461152f84611489565b611514565b611489565b9050919050565b600061154b8261151e565b9050919050565b600061155d82611540565b9050919050565b61156d81611552565b82525050565b60006020820190506115886000830184611564565b92915050565b61159781611426565b82525050565b60006020820190506115b2600083018461158e565b92915050565b60006060820190506115cd600083018661158e565b6115da602083018561158e565b6115e7604083018461158e565b949350505050565b6115f8816114a9565b82525050565b600060208201905061161360008301846115ef565b92915050565b600061162482611540565b9050919050565b61163481611619565b82525050565b600060208201905061164f600083018461162b565b92915050565b600082825260208201905092915050565b7f4e6f204554482073656e74000000000000000000000000000000000000000000600082015250565b600061169c600b83611655565b91506116a782611666565b602082019050919050565b600060208201905081810360008301526116cb8161168f565b9050919050565b7f4e487b7100000000000000000000000000000000000000000000000000000000600052601160045260246000fd5b600061170c82611426565b915061171783611426565b925082820190508082111561172f5761172e6116d2565b5b92915050565b7f496e76616c696420616d6f756e74000000000000000000000000000000000000600082015250565b600061176b600e83611655565b915061177682611735565b602082019050919050565b6000602082019050818103600083015261179a8161175e565b9050919050565b60006117ac82611426565b91506117b783611426565b92508282039050818111156117cf576117ce6116d2565b5b92915050565b60006117e082611426565b91506117eb83611426565b92508282026117f981611426565b915082820484148315176118105761180f6116d2565b5b5092915050565b7f4e487b7100000000000000000000000000000000000000000000000000000000600052601260045260246000fd5b600061185182611426565b915061185c83611426565b92508261186c5761186b611817565b5b828204905092915050565b7f576f756c6420657863656564204c545600000000000000000000000000000000600082015250565b60006118ad601083611655565b91506118b882611877565b602082019050919050565b600060208201905081810360008301526118dc816118a0565b9050919050565b7f4e6f206465627400000000000000000000000000000000000000000000000000600082015250565b6000611919600783611655565b9150611924826118e3565b602082019050919050565b600060208201905081810360008301526119488161190c565b9050919050565b7f4e6f74206c6971756964617461626c6500000000000000000000000000000000600082015250565b6000611985601083611655565b91506119908261194f565b602082019050919050565b600060208201905081810360008301526119b481611978565b9050919050565b60006060820190506119d060008301866115ef565b6119dd60208301856115ef565b6119ea604083018461158e565b949350505050565b60008115159050919050565b611a07816119f2565b8114611a1257600080fd5b50565b600081519050611a24816119fe565b92915050565b600060208284031215611a4057611a3f611421565b5b6000611a4e84828501611a15565b91505092915050565b7f52657061796d656e74206661696c656400000000000000000000000000000000600082015250565b6000611a8d601083611655565b9150611a9882611a57565b602082019050919050565b60006020820190508181036000830152611abc81611a80565b9050919050565b7f546f6f206d756368000000000000000000000000000000000000000000000000600082015250565b6000611af9600883611655565b9150611b0482611ac3565b602082019050919050565b60006020820190508181036000830152611b2881611aec565b9050919050565b7f45786365656473204c5456000000000000000000000000000000000000000000600082015250565b6000611b65600b83611655565b9150611b7082611b2f565b602082019050919050565b60006020820190508181036000830152611b9481611b58565b9050919050565b6000604082019050611bb060008301856115ef565b611bbd602083018461158e565b9392505050565b7f5472616e73666572206661696c65640000000000000000000000000000000000600082015250565b6000611bfa600f83611655565b9150611c0582611bc4565b602082019050919050565b60006020820190508181036000830152611c2981611bed565b9050919050565b6000604082019050611c45600083018561158e565b611c52602083018461158e565b9392505050565b7f4f776e61626c653a206e6577206f776e657220697320746865207a65726f206160008201527f6464726573730000000000000000000000000000000000000000000000000000602082015250565b6000611cb5602683611655565b9150611cc082611c59565b604082019050919050565b60006020820190508181036000830152611ce481611ca8565b9050919050565b7f5265656e7472616e637947756172643a207265656e7472616e742063616c6c00600082015250565b6000611d21601f83611655565b9150611d2c82611ceb565b602082019050919050565b60006020820190508181036000830152611d5081611d14565b9050919050565b600069ffffffffffffffffffff82169050919050565b611d7681611d57565b8114611d8157600080fd5b50565b600081519050611d9381611d6d565b92915050565b6000819050919050565b611dac81611d99565b8114611db757600080fd5b50565b600081519050611dc981611da3565b92915050565b600081519050611dde81611430565b92915050565b600080600080600060a08688031215611e0057611dff611421565b5b6000611e0e88828901611d84565b9550506020611e1f88828901611dba565b9450506040611e3088828901611dcf565b9350506060611e4188828901611dcf565b9250506080611e5288828901611d84565b9150509295509295909350565b7f496e76616c696420707269636500000000000000000000000000000000000000600082015250565b6000611e95600d83611655565b9150611ea082611e5f565b602082019050919050565b60006020820190508181036000830152611ec481611e88565b9050919050565b7f4f776e61626c653a2063616c6c6572206973206e6f7420746865206f776e6572600082015250565b6000611f01602083611655565b9150611f0c82611ecb565b602082019050919050565b60006020820190508181036000830152611f3081611ef4565b905091905056fea2646970667358221220685ad97464d60503f866e8e3399a7758c67975fdc4a1c08d38c7af30aae9c98e64736f6c63430008130033","linkReferences":{}},"methodIdentifiers":{"INTEREST_RATE_PER_YEAR()":"eac1377f","LIQUIDATION_BONUS_BPS()":"ecd1dae6","LIQUIDATION_THRESHOLD()":"90a8ae9b","MAX_LTV()":"81bf8d3d","ORIGINATION_FEE_BPS()":"5a866fdc","PRECISION()":"aaf5eb68","borrow(uint256)":"c5ebeaec","deposit()":"d0e30db0","ethUsdPriceFeed()":"42f6fb29","getLTV(address)":"aca25f9a","getTotalDebt(address)":"4d44ac4f","liquidate(address)":"2f865568","owner()":"8da5cb5b","positions(address)":"55f57510","renounceOwnership()":"715018a6","repay(uint256)":"371fd8e6","stableToken()":"a9d75b2b","transferOwnership(address)":"f2fde38b","withdraw(uint256)":"2e1a7d4d"},"id":95}