{"abi":[{"type":"constructor","inputs":[{"name":"initialSupply","type":"uint256","internalType":"uint256"},{"name":"router","type":"address","internalType":"address"},{"name":"link","type":"address","internalType":"address"}],"stateMutability":"nonpayable"},{"type":"function","name":"allowance","inputs":[{"name":"owner","type":"address","internalType":"address"},{"name":"spender","type":"address","internalType":"address"}],"outputs":[{"name":"","type":"uint256","internalType":"uint256"}],"stateMutability":"view"},{"type":"function","name":"approve","inputs":[{"name":"spender","type":"address","internalType":"address"},{"name":"amount","type":"uint256","internalType":"uint256"}],"outputs":[{"name":"","type":"bool","internalType":"bool"}],"stateMutability":"nonpayable"},{"type":"function","name":"balanceOf","inputs":[{"name":"account","type":"address","internalType":"address"}],"outputs":[{"name":"","type":"uint256","internalType":"uint256"}],"stateMutability":"view"},{"type":"function","name":"burnTokens","inputs":[{"name":"amount","type":"uint256","internalType":"uint256"},{"name":"sourceChain","type":"uint64","internalType":"uint64"}],"outputs":[],"stateMutability":"nonpayable"},{"type":"function","name":"ccipReceive","inputs":[{"name":"message","type":"tuple","internalType":"struct Client.Any2EVMMessage","components":[{"name":"messageId","type":"bytes32","internalType":"bytes32"},{"name":"sourceChainSelector","type":"uint64","internalType":"uint64"},{"name":"sender","type":"bytes","internalType":"bytes"},{"name":"data","type":"bytes","internalType":"bytes"},{"name":"destTokenAmounts","type":"tuple[]","internalType":"struct Client.EVMTokenAmount[]","components":[{"name":"token","type":"address","internalType":"address"},{"name":"amount","type":"uint256","internalType":"uint256"}]}]}],"outputs":[],"stateMutability":"nonpayable"},{"type":"function","name":"decimals","inputs":[],"outputs":[{"name":"","type":"uint8","internalType":"uint8"}],"stateMutability":"view"},{"type":"function","name":"decreaseAllowance","inputs":[{"name":"spender","type":"address","internalType":"address"},{"name":"subtractedValue","type":"uint256","internalType":"uint256"}],"outputs":[{"name":"","type":"bool","internalType":"bool"}],"stateMutability":"nonpayable"},{"type":"function","name":"getRequiredFee","inputs":[{"name":"destinationChain","type":"uint64","internalType":"uint64"},{"name":"amount","type":"uint256","internalType":"uint256"}],"outputs":[{"name":"fees","type":"uint256","internalType":"uint256"}],"stateMutability":"view"},{"type":"function","name":"getRouter","inputs":[],"outputs":[{"name":"","type":"address","internalType":"address"}],"stateMutability":"view"},{"type":"function","name":"increaseAllowance","inputs":[{"name":"spender","type":"address","internalType":"address"},{"name":"addedValue","type":"uint256","internalType":"uint256"}],"outputs":[{"name":"","type":"bool","internalType":"bool"}],"stateMutability":"nonpayable"},{"type":"function","name":"linkToken","inputs":[],"outputs":[{"name":"","type":"address","internalType":"contract LinkTokenInterface"}],"stateMutability":"view"},{"type":"function","name":"lockTokens","inputs":[{"name":"destinationChain","type":"uint64","internalType":"uint64"},{"name":"amount","type":"uint256","internalType":"uint256"}],"outputs":[],"stateMutability":"nonpayable"},{"type":"function","name":"lockedBalances","inputs":[{"name":"","type":"address","internalType":"address"}],"outputs":[{"name":"","type":"uint256","internalType":"uint256"}],"stateMutability":"view"},{"type":"function","name":"name","inputs":[],"outputs":[{"name":"","type":"string","internalType":"string"}],"stateMutability":"view"},{"type":"function","name":"owner","inputs":[],"outputs":[{"name":"","type":"address","internalType":"address"}],"stateMutability":"view"},{"type":"function","name":"parallelTokenAddresses","inputs":[{"name":"","type":"uint64","internalType":"uint64"}],"outputs":[{"name":"","type":"address","internalType":"address"}],"stateMutability":"view"},{"type":"function","name":"renounceOwnership","inputs":[],"outputs":[],"stateMutability":"nonpayable"},{"type":"function","name":"setParallelTokenAddress","inputs":[{"name":"chainId","type":"uint64","internalType":"uint64"},{"name":"_parallelTokenAddress","type":"address","internalType":"address"}],"outputs":[],"stateMutability":"nonpayable"},{"type":"function","name":"supportsInterface","inputs":[{"name":"interfaceId","type":"bytes4","internalType":"bytes4"}],"outputs":[{"name":"","type":"bool","internalType":"bool"}],"stateMutability":"pure"},{"type":"function","name":"symbol","inputs":[],"outputs":[{"name":"","type":"string","internalType":"string"}],"stateMutability":"view"},{"type":"function","name":"totalSupply","inputs":[],"outputs":[{"name":"","type":"uint256","internalType":"uint256"}],"stateMutability":"view"},{"type":"function","name":"transfer","inputs":[{"name":"to","type":"address","internalType":"address"},{"name":"amount","type":"uint256","internalType":"uint256"}],"outputs":[{"name":"","type":"bool","internalType":"bool"}],"stateMutability":"nonpayable"},{"type":"function","name":"transferFrom","inputs":[{"name":"from","type":"address","internalType":"address"},{"name":"to","type":"address","internalType":"address"},{"name":"amount","type":"uint256","internalType":"uint256"}],"outputs":[{"name":"","type":"bool","internalType":"bool"}],"stateMutability":"nonpayable"},{"type":"function","name":"transferOwnership","inputs":[{"name":"newOwner","type":"address","internalType":"address"}],"outputs":[],"stateMutability":"nonpayable"},{"type":"function","name":"withdrawLink","inputs":[{"name":"amount","type":"uint256","internalType":"uint256"}],"outputs":[],"stateMutability":"nonpayable"},{"type":"event","name":"Approval","inputs":[{"name":"owner","type":"address","indexed":true,"internalType":"address"},{"name":"spender","type":"address","indexed":true,"internalType":"address"},{"name":"value","type":"uint256","indexed":false,"internalType":"uint256"}],"anonymous":false},{"type":"event","name":"CrossChainTransfer","inputs":[{"name":"sender","type":"address","indexed":true,"internalType":"address"},{"name":"destinationChain","type":"uint64","indexed":false,"internalType":"uint64"},{"name":"amount","type":"uint256","indexed":false,"internalType":"uint256"}],"anonymous":false},{"type":"event","name":"OwnershipTransferred","inputs":[{"name":"previousOwner","type":"address","indexed":true,"internalType":"address"},{"name":"newOwner","type":"address","indexed":true,"internalType":"address"}],"anonymous":false},{"type":"event","name":"ParallelTokenAddressSet","inputs":[{"name":"chainId","type":"uint64","indexed":true,"internalType":"uint64"},{"name":"newParallelTokenAddress","type":"address","indexed":true,"internalType":"address"}],"anonymous":false},{"type":"event","name":"Transfer","inputs":[{"name":"from","type":"address","indexed":true,"internalType":"address"},{"name":"to","type":"address","indexed":true,"internalType":"address"},{"name":"value","type":"uint256","indexed":false,"internalType":"uint256"}],"anonymous":false},{"type":"error","name":"InvalidRouter","inputs":[{"name":"router","type":"address","internalType":"address"}]}],"bytecode":{"object":"0x60a06040523480156200001157600080fd5b5060405162001f2338038062001f23833981016040819052620000349162000250565b816040518060400160405280601081526020016f21b937b9b9a1b430b4b7102a37b5b2b760811b8152506040518060400160405280600381526020016210d0d560ea1b81525081600390816200008b919062000335565b5060046200009a828262000335565b5050506001600160a01b038116620000cd576040516335fdcccd60e21b8152600060048201526024015b60405180910390fd5b6001600160a01b0316608052620000e43362000119565b620000f033846200016b565b600880546001600160a01b0319166001600160a01b039290921691909117905550620004299050565b600580546001600160a01b038381166001600160a01b0319831681179093556040519116919082907f8be0079c531659141344cd1fd0a4f28419497f9722a3daafe3b4186f6b6457e090600090a35050565b6001600160a01b038216620001c35760405162461bcd60e51b815260206004820152601f60248201527f45524332303a206d696e7420746f20746865207a65726f2061646472657373006044820152606401620000c4565b8060026000828254620001d7919062000401565b90915550506001600160a01b038216600081815260208181526040808320805486019055518481527fddf252ad1be2c89b69c2b068fc378daa952ba7f163c4a11628f55a4df523b3ef910160405180910390a35050565b505050565b80516001600160a01b03811681146200024b57600080fd5b919050565b6000806000606084860312156200026657600080fd5b83519250620002786020850162000233565b9150620002886040850162000233565b90509250925092565b634e487b7160e01b600052604160045260246000fd5b600181811c90821680620002bc57607f821691505b602082108103620002dd57634e487b7160e01b600052602260045260246000fd5b50919050565b601f8211156200022e57600081815260208120601f850160051c810160208610156200030c5750805b601f850160051c820191505b818110156200032d5782815560010162000318565b505050505050565b81516001600160401b0381111562000351576200035162000291565b6200036981620003628454620002a7565b84620002e3565b602080601f831160018114620003a15760008415620003885750858301515b600019600386901b1c1916600185901b1785556200032d565b600085815260208120601f198616915b82811015620003d257888601518255948401946001909101908401620003b1565b5085821015620003f15787850151600019600388901b60f8161c191681555b5050505050600190811b01905550565b808201808211156200042357634e487b7160e01b600052601160045260246000fd5b92915050565b608051611ac96200045a600039600081816103440152818161056f0152818161081001526110d90152611ac96000f3fe608060405234801561001057600080fd5b50600436106101735760003560e01c8063715018a6116100de578063a457c2d711610097578063b0f479a111610071578063b0f479a114610342578063dd62ed3e14610368578063e474c9ec1461037b578063f2fde38b146103a457600080fd5b8063a457c2d714610309578063a9059cbb1461031c578063aac9b1d61461032f57600080fd5b8063715018a6146102af5780637a8042bd146102b757806385572ffb146102ca5780638da5cb5b146102dd578063901841dd146102ee57806395d89b411461030157600080fd5b8063212ad5cc11610130578063212ad5cc1461021157806323b872dd14610226578063313ce56714610239578063395093511461024857806357970e931461025b57806370a082311461028657600080fd5b806301ffc9a7146101785780630483a7f6146101a057806306fdde03146101ce578063095ea7b3146101e3578063150a665c146101f657806318160ddd14610209575b600080fd5b61018b61018636600461144f565b6103b7565b60405190151581526020015b60405180910390f35b6101c06101ae366004611495565b60066020526000908152604090205481565b604051908152602001610197565b6101d66103ee565b60405161019791906114f8565b61018b6101f136600461150b565b610480565b6101c0610204366004611553565b610498565b6002546101c0565b61022461021f36600461156f565b610609565b005b61018b6102343660046115a6565b610672565b60405160128152602001610197565b61018b61025636600461150b565b610696565b60085461026e906001600160a01b031681565b6040516001600160a01b039091168152602001610197565b6101c0610294366004611495565b6001600160a01b031660009081526020819052604090205490565b6102246106b8565b6102246102c53660046115e7565b6106cc565b6102246102d8366004611600565b610805565b6005546001600160a01b031661026e565b6102246102fc366004611553565b610864565b6101d66109c4565b61018b61031736600461150b565b6109d3565b61018b61032a36600461150b565b610a4e565b61022461033d36600461163a565b610a5c565b7f000000000000000000000000000000000000000000000000000000000000000061026e565b6101c0610376366004611666565b610b49565b61026e610389366004611684565b6007602052600090815260409020546001600160a01b031681565b6102246103b2366004611495565b610b74565b60006001600160e01b031982166385572ffb60e01b14806103e857506001600160e01b031982166301ffc9a760e01b145b92915050565b6060600380546103fd9061169f565b80601f01602080910402602001604051908101604052809291908181526020018280546104299061169f565b80156104765780601f1061044b57610100808354040283529160200191610476565b820191906000526020600020905b81548152906001019060200180831161045957829003601f168201915b5050505050905090565b60003361048e818585610bea565b5060019392505050565b6040805160a0810182526001600160401b038416600090815260076020908152838220546001600160a01b031660c0808501919091528451808503909101815260e08401855283528351338183015280850186905284518082038601815260609091018552818401528351828152908101845290928392919082019083610541565b604080518082019091526000808252602082015281526020019060019003908161051a5790505b5081526008546001600160a01b031660208083019190915260408051918201815260008083529201529091507f00000000000000000000000000000000000000000000000000000000000000006040516320487ded60e01b81529091506001600160a01b038216906320487ded906105bf90889086906004016116ef565b602060405180830381865afa1580156105dc573d6000803e3d6000fd5b505050506040513d601f19601f8201168201806040525081019061060091906117c8565b95945050505050565b610611610d0e565b6001600160401b03821660008181526007602052604080822080546001600160a01b0319166001600160a01b03861690811790915590519092917fe960263884fe9f7a6a06ccd886f423d053f7f1bffeadfc3453885722296c48f191a35050565b600033610680858285610d68565b61068b858585610de2565b506001949350505050565b60003361048e8185856106a98383610b49565b6106b391906117e1565b610bea565b6106c0610d0e565b6106ca6000610f86565b565b6106d4610d0e565b6008546040516370a0823160e01b815230600482015282916001600160a01b0316906370a0823190602401602060405180830381865afa15801561071c573d6000803e3d6000fd5b505050506040513d601f19601f8201168201806040525081019061074091906117c8565b101561078c5760405162461bcd60e51b81526020600482015260166024820152754e6f7420656e6f756768204c494e4b20746f6b656e7360501b60448201526064015b60405180910390fd5b60085460405163a9059cbb60e01b8152336004820152602481018390526001600160a01b039091169063a9059cbb906044016020604051808303816000875af11580156107dd573d6000803e3d6000fd5b505050506040513d601f19601f820116820180604052508101906108019190611802565b5050565b336001600160a01b037f00000000000000000000000000000000000000000000000000000000000000001614610850576040516335fdcccd60e21b8152336004820152602401610783565b61086161085c826119b9565b610fd8565b50565b336000908152602081905260409020548111156108b75760405162461bcd60e51b81526020600482015260116024820152704e6f7420656e6f75676820746f6b656e7360781b6044820152606401610783565b6001600160401b0382166000908152600760205260409020546001600160a01b03166109425760405162461bcd60e51b815260206004820152603460248201527f506172616c6c656c20746f6b656e2061646472657373206e6f7420736574206660448201527337b9103232b9ba34b730ba34b7b71031b430b4b760611b6064820152608401610783565b61094d333083610de2565b336000908152600660205260408120805483929061096c9084906117e1565b9091555061097c90508282611006565b604080516001600160401b03841681526020810183905233917ff688a84312134179f6ba47151770d3f7f8ed763a50a3a91df21248d66e24e2e4910160405180910390a25050565b6060600480546103fd9061169f565b600033816109e18286610b49565b905083811015610a415760405162461bcd60e51b815260206004820152602560248201527f45524332303a2064656372656173656420616c6c6f77616e63652062656c6f77604482015264207a65726f60d81b6064820152608401610783565b61068b8286868403610bea565b60003361048e818585610de2565b33600090815260208190526040902054821115610aaf5760405162461bcd60e51b81526020600482015260116024820152704e6f7420656e6f75676820746f6b656e7360781b6044820152606401610783565b6001600160401b0381166000908152600760205260409020546001600160a01b0316610b355760405162461bcd60e51b815260206004820152602f60248201527f506172616c6c656c20746f6b656e2061646472657373206e6f7420736574206660448201526e37b91039b7bab931b29031b430b4b760891b6064820152608401610783565b610b3f338361125e565b6108018183611006565b6001600160a01b03918216600090815260016020908152604080832093909416825291909152205490565b610b7c610d0e565b6001600160a01b038116610be15760405162461bcd60e51b815260206004820152602660248201527f4f776e61626c653a206e6577206f776e657220697320746865207a65726f206160448201526564647265737360d01b6064820152608401610783565b61086181610f86565b6001600160a01b038316610c4c5760405162461bcd60e51b8152602060048201526024808201527f45524332303a20617070726f76652066726f6d20746865207a65726f206164646044820152637265737360e01b6064820152608401610783565b6001600160a01b038216610cad5760405162461bcd60e51b815260206004820152602260248201527f45524332303a20617070726f766520746f20746865207a65726f206164647265604482015261737360f01b6064820152608401610783565b6001600160a01b0383811660008181526001602090815260408083209487168084529482529182902085905590518481527f8c5be1e5ebec7d5bd14f71427d1e84f3dd0314c0f7b2291e5b200ac8c7c3b925910160405180910390a3505050565b6005546001600160a01b031633146106ca5760405162461bcd60e51b815260206004820181905260248201527f4f776e61626c653a2063616c6c6572206973206e6f7420746865206f776e65726044820152606401610783565b6000610d748484610b49565b90506000198114610ddc5781811015610dcf5760405162461bcd60e51b815260206004820152601d60248201527f45524332303a20696e73756666696369656e7420616c6c6f77616e63650000006044820152606401610783565b610ddc8484848403610bea565b50505050565b6001600160a01b038316610e465760405162461bcd60e51b815260206004820152602560248201527f45524332303a207472616e736665722066726f6d20746865207a65726f206164604482015264647265737360d81b6064820152608401610783565b6001600160a01b038216610ea85760405162461bcd60e51b815260206004820152602360248201527f45524332303a207472616e7366657220746f20746865207a65726f206164647260448201526265737360e81b6064820152608401610783565b6001600160a01b03831660009081526020819052604090205481811015610f205760405162461bcd60e51b815260206004820152602660248201527f45524332303a207472616e7366657220616d6f756e7420657863656564732062604482015265616c616e636560d01b6064820152608401610783565b6001600160a01b03848116600081815260208181526040808320878703905593871680835291849020805487019055925185815290927fddf252ad1be2c89b69c2b068fc378daa952ba7f163c4a11628f55a4df523b3ef910160405180910390a3610ddc565b600580546001600160a01b038381166001600160a01b0319831681179093556040519116919082907f8be0079c531659141344cd1fd0a4f28419497f9722a3daafe3b4186f6b6457e090600090a35050565b6000808260600151806020019051810190610ff39190611a65565b915091506110018282611390565b505050565b6040805160a0810182526001600160401b038416600090815260076020908152838220546001600160a01b031660c0808501919091528451808503909101815260e0840185528352835133818301528085018690528451808203860181526060909101855281840152835182815290810184529092820190836110ab565b60408051808201909152600080825260208201528152602001906001900390816110845790505b5081526008546001600160a01b031660208083019190915260408051918201815260008083529201529091507f000000000000000000000000000000000000000000000000000000000000000090506000816001600160a01b03166320487ded86856040518363ffffffff1660e01b815260040161112a9291906116ef565b602060405180830381865afa158015611147573d6000803e3d6000fd5b505050506040513d601f19601f8201168201806040525081019061116b91906117c8565b60085460405163095ea7b360e01b81526001600160a01b0385811660048301526024820184905292935091169063095ea7b3906044016020604051808303816000875af11580156111c0573d6000803e3d6000fd5b505050506040513d601f19601f820116820180604052508101906111e49190611802565b506040516396f4e9f960e01b81526001600160a01b038316906396f4e9f99061121390889087906004016116ef565b6020604051808303816000875af1158015611232573d6000803e3d6000fd5b505050506040513d601f19601f8201168201806040525081019061125691906117c8565b505050505050565b6001600160a01b0382166112be5760405162461bcd60e51b815260206004820152602160248201527f45524332303a206275726e2066726f6d20746865207a65726f206164647265736044820152607360f81b6064820152608401610783565b6001600160a01b038216600090815260208190526040902054818110156113325760405162461bcd60e51b815260206004820152602260248201527f45524332303a206275726e20616d6f756e7420657863656564732062616c616e604482015261636560f01b6064820152608401610783565b6001600160a01b0383166000818152602081815260408083208686039055600280548790039055518581529192917fddf252ad1be2c89b69c2b068fc378daa952ba7f163c4a11628f55a4df523b3ef910160405180910390a3505050565b6001600160a01b0382166113e65760405162461bcd60e51b815260206004820152601f60248201527f45524332303a206d696e7420746f20746865207a65726f2061646472657373006044820152606401610783565b80600260008282546113f891906117e1565b90915550506001600160a01b038216600081815260208181526040808320805486019055518481527fddf252ad1be2c89b69c2b068fc378daa952ba7f163c4a11628f55a4df523b3ef910160405180910390a35050565b60006020828403121561146157600080fd5b81356001600160e01b03198116811461147957600080fd5b9392505050565b6001600160a01b038116811461086157600080fd5b6000602082840312156114a757600080fd5b813561147981611480565b6000815180845260005b818110156114d8576020818501810151868301820152016114bc565b506000602082860101526020601f19601f83011685010191505092915050565b60208152600061147960208301846114b2565b6000806040838503121561151e57600080fd5b823561152981611480565b946020939093013593505050565b80356001600160401b038116811461154e57600080fd5b919050565b6000806040838503121561156657600080fd5b61152983611537565b6000806040838503121561158257600080fd5b61158b83611537565b9150602083013561159b81611480565b809150509250929050565b6000806000606084860312156115bb57600080fd5b83356115c681611480565b925060208401356115d681611480565b929592945050506040919091013590565b6000602082840312156115f957600080fd5b5035919050565b60006020828403121561161257600080fd5b81356001600160401b0381111561162857600080fd5b820160a0818503121561147957600080fd5b6000806040838503121561164d57600080fd5b8235915061165d60208401611537565b90509250929050565b6000806040838503121561167957600080fd5b823561158b81611480565b60006020828403121561169657600080fd5b61147982611537565b600181811c908216806116b357607f821691505b6020821081036116d357634e487b7160e01b600052602260045260246000fd5b50919050565b634e487b7160e01b600052604160045260246000fd5b600060406001600160401b038516835260208181850152845160a08386015261171b60e08601826114b2565b905081860151603f198087840301606088015261173883836114b2565b88860151888203830160808a01528051808352908601945060009350908501905b8084101561178b57845180516001600160a01b0316835286015186830152938501936001939093019290860190611759565b5060608901516001600160a01b031660a08901526080890151888203830160c08a015295506117ba81876114b2565b9a9950505050505050505050565b6000602082840312156117da57600080fd5b5051919050565b808201808211156103e857634e487b7160e01b600052601160045260246000fd5b60006020828403121561181457600080fd5b8151801515811461147957600080fd5b604080519081016001600160401b0381118282101715611846576118466116d9565b60405290565b60405160a081016001600160401b0381118282101715611846576118466116d9565b604051601f8201601f191681016001600160401b0381118282101715611896576118966116d9565b604052919050565b600082601f8301126118af57600080fd5b81356001600160401b038111156118c8576118c86116d9565b6118db601f8201601f191660200161186e565b8181528460208386010111156118f057600080fd5b816020850160208301376000918101602001919091529392505050565b600082601f83011261191e57600080fd5b813560206001600160401b03821115611939576119396116d9565b611947818360051b0161186e565b82815260069290921b8401810191818101908684111561196657600080fd5b8286015b848110156119ae57604081890312156119835760008081fd5b61198b611824565b813561199681611480565b8152818501358582015283529183019160400161196a565b509695505050505050565b600060a082360312156119cb57600080fd5b6119d361184c565b823581526119e360208401611537565b602082015260408301356001600160401b0380821115611a0257600080fd5b611a0e3683870161189e565b60408401526060850135915080821115611a2757600080fd5b611a333683870161189e565b60608401526080850135915080821115611a4c57600080fd5b50611a593682860161190d565b60808301525092915050565b60008060408385031215611a7857600080fd5b8251611a8381611480565b602093909301519294929350505056fea26469706673582212205321825993952f1380777f71e141e4c1e27f76c0628aaa61f190f64b63c201a864736f6c63430008130033","linkReferences":{}},"methodIdentifiers":{"allowance(address,address)":"dd62ed3e","approve(address,uint256)":"095ea7b3","balanceOf(address)":"70a08231","burnTokens(uint256,uint64)":"aac9b1d6","ccipReceive((bytes32,uint64,bytes,bytes,(address,uint256)[]))":"85572ffb","decimals()":"313ce567","decreaseAllowance(address,uint256)":"a457c2d7","getRequiredFee(uint64,uint256)":"150a665c","getRouter()":"b0f479a1","increaseAllowance(address,uint256)":"39509351","linkToken()":"57970e93","lockTokens(uint64,uint256)":"901841dd","lockedBalances(address)":"0483a7f6","name()":"06fdde03","owner()":"8da5cb5b","parallelTokenAddresses(uint64)":"e474c9ec","renounceOwnership()":"715018a6","setParallelTokenAddress(uint64,address)":"212ad5cc","supportsInterface(bytes4)":"01ffc9a7","symbol()":"95d89b41","totalSupply()":"18160ddd","transfer(address,uint256)":"a9059cbb","transferFrom(address,address,uint256)":"23b872dd","transferOwnership(address)":"f2fde38b","withdrawLink(uint256)":"7a8042bd"},"id":11}