{"abi":[{"type":"constructor","inputs":[{"name":"name","type":"string","internalType":"string"},{"name":"symbol","type":"string","internalType":"string"}],"stateMutability":"nonpayable"},{"type":"function","name":"acceptOwnership","inputs":[],"outputs":[],"stateMutability":"nonpayable"},{"type":"function","name":"allowance","inputs":[{"name":"owner","type":"address","internalType":"address"},{"name":"spender","type":"address","internalType":"address"}],"outputs":[{"name":"","type":"uint256","internalType":"uint256"}],"stateMutability":"view"},{"type":"function","name":"approve","inputs":[{"name":"spender","type":"address","internalType":"address"},{"name":"amount","type":"uint256","internalType":"uint256"}],"outputs":[{"name":"","type":"bool","internalType":"bool"}],"stateMutability":"nonpayable"},{"type":"function","name":"balanceOf","inputs":[{"name":"account","type":"address","internalType":"address"}],"outputs":[{"name":"","type":"uint256","internalType":"uint256"}],"stateMutability":"view"},{"type":"function","name":"burn","inputs":[{"name":"amount","type":"uint256","internalType":"uint256"}],"outputs":[],"stateMutability":"nonpayable"},{"type":"function","name":"burn","inputs":[{"name":"account","type":"address","internalType":"address"},{"name":"amount","type":"uint256","internalType":"uint256"}],"outputs":[],"stateMutability":"nonpayable"},{"type":"function","name":"burnFrom","inputs":[{"name":"account","type":"address","internalType":"address"},{"name":"amount","type":"uint256","internalType":"uint256"}],"outputs":[],"stateMutability":"nonpayable"},{"type":"function","name":"decimals","inputs":[],"outputs":[{"name":"","type":"uint8","internalType":"uint8"}],"stateMutability":"view"},{"type":"function","name":"decreaseAllowance","inputs":[{"name":"spender","type":"address","internalType":"address"},{"name":"subtractedValue","type":"uint256","internalType":"uint256"}],"outputs":[{"name":"","type":"bool","internalType":"bool"}],"stateMutability":"nonpayable"},{"type":"function","name":"decreaseApproval","inputs":[{"name":"spender","type":"address","internalType":"address"},{"name":"subtractedValue","type":"uint256","internalType":"uint256"}],"outputs":[{"name":"success","type":"bool","internalType":"bool"}],"stateMutability":"nonpayable"},{"type":"function","name":"drip","inputs":[{"name":"to","type":"address","internalType":"address"}],"outputs":[],"stateMutability":"nonpayable"},{"type":"function","name":"getBurners","inputs":[],"outputs":[{"name":"","type":"address[]","internalType":"address[]"}],"stateMutability":"view"},{"type":"function","name":"getMinters","inputs":[],"outputs":[{"name":"","type":"address[]","internalType":"address[]"}],"stateMutability":"view"},{"type":"function","name":"grantBurnRole","inputs":[{"name":"burner","type":"address","internalType":"address"}],"outputs":[],"stateMutability":"nonpayable"},{"type":"function","name":"grantMintAndBurnRoles","inputs":[{"name":"burnAndMinter","type":"address","internalType":"address"}],"outputs":[],"stateMutability":"nonpayable"},{"type":"function","name":"grantMintRole","inputs":[{"name":"minter","type":"address","internalType":"address"}],"outputs":[],"stateMutability":"nonpayable"},{"type":"function","name":"increaseAllowance","inputs":[{"name":"spender","type":"address","internalType":"address"},{"name":"addedValue","type":"uint256","internalType":"uint256"}],"outputs":[{"name":"","type":"bool","internalType":"bool"}],"stateMutability":"nonpayable"},{"type":"function","name":"increaseApproval","inputs":[{"name":"spender","type":"address","internalType":"address"},{"name":"addedValue","type":"uint256","internalType":"uint256"}],"outputs":[],"stateMutability":"nonpayable"},{"type":"function","name":"isBurner","inputs":[{"name":"burner","type":"address","internalType":"address"}],"outputs":[{"name":"","type":"bool","internalType":"bool"}],"stateMutability":"view"},{"type":"function","name":"isMinter","inputs":[{"name":"minter","type":"address","internalType":"address"}],"outputs":[{"name":"","type":"bool","internalType":"bool"}],"stateMutability":"view"},{"type":"function","name":"maxSupply","inputs":[],"outputs":[{"name":"","type":"uint256","internalType":"uint256"}],"stateMutability":"view"},{"type":"function","name":"mint","inputs":[{"name":"account","type":"address","internalType":"address"},{"name":"amount","type":"uint256","internalType":"uint256"}],"outputs":[],"stateMutability":"nonpayable"},{"type":"function","name":"name","inputs":[],"outputs":[{"name":"","type":"string","internalType":"string"}],"stateMutability":"view"},{"type":"function","name":"owner","inputs":[],"outputs":[{"name":"","type":"address","internalType":"address"}],"stateMutability":"view"},{"type":"function","name":"revokeBurnRole","inputs":[{"name":"burner","type":"address","internalType":"address"}],"outputs":[],"stateMutability":"nonpayable"},{"type":"function","name":"revokeMintRole","inputs":[{"name":"minter","type":"address","internalType":"address"}],"outputs":[],"stateMutability":"nonpayable"},{"type":"function","name":"supportsInterface","inputs":[{"name":"interfaceId","type":"bytes4","internalType":"bytes4"}],"outputs":[{"name":"","type":"bool","internalType":"bool"}],"stateMutability":"pure"},{"type":"function","name":"symbol","inputs":[],"outputs":[{"name":"","type":"string","internalType":"string"}],"stateMutability":"view"},{"type":"function","name":"totalSupply","inputs":[],"outputs":[{"name":"","type":"uint256","internalType":"uint256"}],"stateMutability":"view"},{"type":"function","name":"transfer","inputs":[{"name":"to","type":"address","internalType":"address"},{"name":"amount","type":"uint256","internalType":"uint256"}],"outputs":[{"name":"","type":"bool","internalType":"bool"}],"stateMutability":"nonpayable"},{"type":"function","name":"transferAndCall","inputs":[{"name":"to","type":"address","internalType":"address"},{"name":"amount","type":"uint256","internalType":"uint256"},{"name":"data","type":"bytes","internalType":"bytes"}],"outputs":[{"name":"success","type":"bool","internalType":"bool"}],"stateMutability":"nonpayable"},{"type":"function","name":"transferFrom","inputs":[{"name":"from","type":"address","internalType":"address"},{"name":"to","type":"address","internalType":"address"},{"name":"amount","type":"uint256","internalType":"uint256"}],"outputs":[{"name":"","type":"bool","internalType":"bool"}],"stateMutability":"nonpayable"},{"type":"function","name":"transferOwnership","inputs":[{"name":"to","type":"address","internalType":"address"}],"outputs":[],"stateMutability":"nonpayable"},{"type":"event","name":"Approval","inputs":[{"name":"owner","type":"address","indexed":true,"internalType":"address"},{"name":"spender","type":"address","indexed":true,"internalType":"address"},{"name":"value","type":"uint256","indexed":false,"internalType":"uint256"}],"anonymous":false},{"type":"event","name":"BurnAccessGranted","inputs":[{"name":"burner","type":"address","indexed":true,"internalType":"address"}],"anonymous":false},{"type":"event","name":"BurnAccessRevoked","inputs":[{"name":"burner","type":"address","indexed":true,"internalType":"address"}],"anonymous":false},{"type":"event","name":"MintAccessGranted","inputs":[{"name":"minter","type":"address","indexed":true,"internalType":"address"}],"anonymous":false},{"type":"event","name":"MintAccessRevoked","inputs":[{"name":"minter","type":"address","indexed":true,"internalType":"address"}],"anonymous":false},{"type":"event","name":"OwnershipTransferRequested","inputs":[{"name":"from","type":"address","indexed":true,"internalType":"address"},{"name":"to","type":"address","indexed":true,"internalType":"address"}],"anonymous":false},{"type":"event","name":"OwnershipTransferred","inputs":[{"name":"from","type":"address","indexed":true,"internalType":"address"},{"name":"to","type":"address","indexed":true,"internalType":"address"}],"anonymous":false},{"type":"event","name":"Transfer","inputs":[{"name":"from","type":"address","indexed":true,"internalType":"address"},{"name":"to","type":"address","indexed":true,"internalType":"address"},{"name":"value","type":"uint256","indexed":false,"internalType":"uint256"}],"anonymous":false},{"type":"event","name":"Transfer","inputs":[{"name":"from","type":"address","indexed":true,"internalType":"address"},{"name":"to","type":"address","indexed":true,"internalType":"address"},{"name":"value","type":"uint256","indexed":false,"internalType":"uint256"},{"name":"data","type":"bytes","indexed":false,"internalType":"bytes"}],"anonymous":false},{"type":"error","name":"MaxSupplyExceeded","inputs":[{"name":"supplyAfterMint","type":"uint256","internalType":"uint256"}]},{"type":"error","name":"SenderNotBurner","inputs":[{"name":"sender","type":"address","internalType":"address"}]},{"type":"error","name":"SenderNotMinter","inputs":[{"name":"sender","type":"address","internalType":"address"}]}],"bytecode":{"object":"0x60c06040523480156200001157600080fd5b50604051620038ab380380620038ab833981810160405281019062000037919062000450565b8181601260003380600086868181816003908162000056919062000720565b50806004908162000068919062000720565b5050505050600073ffffffffffffffffffffffffffffffffffffffff168273ffffffffffffffffffffffffffffffffffffffff1603620000df576040517f08c379a0000000000000000000000000000000000000000000000000000000008152600401620000d69062000868565b60405180910390fd5b81600560006101000a81548173ffffffffffffffffffffffffffffffffffffffff021916908373ffffffffffffffffffffffffffffffffffffffff160217905550600073ffffffffffffffffffffffffffffffffffffffff168173ffffffffffffffffffffffffffffffffffffffff1614620001675762000166816200018c60201b60201c565b5b5050508160ff1660808160ff16815250508060a08181525050505050505050620008fc565b3373ffffffffffffffffffffffffffffffffffffffff168173ffffffffffffffffffffffffffffffffffffffff1603620001fd576040517f08c379a0000000000000000000000000000000000000000000000000000000008152600401620001f490620008da565b60405180910390fd5b80600660006101000a81548173ffffffffffffffffffffffffffffffffffffffff021916908373ffffffffffffffffffffffffffffffffffffffff1602179055508073ffffffffffffffffffffffffffffffffffffffff16600560009054906101000a900473ffffffffffffffffffffffffffffffffffffffff1673ffffffffffffffffffffffffffffffffffffffff167fed8889f560326eb138920d842192f0eb3dd22b4f139c87a2c57538e05bae127860405160405180910390a350565b6000604051905090565b600080fd5b600080fd5b600080fd5b600080fd5b6000601f19601f8301169050919050565b7f4e487b7100000000000000000000000000000000000000000000000000000000600052604160045260246000fd5b6200032682620002db565b810181811067ffffffffffffffff82111715620003485762000347620002ec565b5b80604052505050565b60006200035d620002bd565b90506200036b82826200031b565b919050565b600067ffffffffffffffff8211156200038e576200038d620002ec565b5b6200039982620002db565b9050602081019050919050565b60005b83811015620003c6578082015181840152602081019050620003a9565b60008484015250505050565b6000620003e9620003e38462000370565b62000351565b905082815260208101848484011115620004085762000407620002d6565b5b62000415848285620003a6565b509392505050565b600082601f830112620004355762000434620002d1565b5b815162000447848260208601620003d2565b91505092915050565b600080604083850312156200046a5762000469620002c7565b5b600083015167ffffffffffffffff8111156200048b576200048a620002cc565b5b62000499858286016200041d565b925050602083015167ffffffffffffffff811115620004bd57620004bc620002cc565b5b620004cb858286016200041d565b9150509250929050565b600081519050919050565b7f4e487b7100000000000000000000000000000000000000000000000000000000600052602260045260246000fd5b600060028204905060018216806200052857607f821691505b6020821081036200053e576200053d620004e0565b5b50919050565b60008190508160005260206000209050919050565b60006020601f8301049050919050565b600082821b905092915050565b600060088302620005a87fffffffffffffffffffffffffffffffffffffffffffffffffffffffffffffffff8262000569565b620005b4868362000569565b95508019841693508086168417925050509392505050565b6000819050919050565b6000819050919050565b600062000601620005fb620005f584620005cc565b620005d6565b620005cc565b9050919050565b6000819050919050565b6200061d83620005e0565b620006356200062c8262000608565b84845462000576565b825550505050565b600090565b6200064c6200063d565b6200065981848462000612565b505050565b5b8181101562000681576200067560008262000642565b6001810190506200065f565b5050565b601f821115620006d0576200069a8162000544565b620006a58462000559565b81016020851015620006b5578190505b620006cd620006c48562000559565b8301826200065e565b50505b505050565b600082821c905092915050565b6000620006f560001984600802620006d5565b1980831691505092915050565b6000620007108383620006e2565b9150826002028217905092915050565b6200072b82620004d5565b67ffffffffffffffff811115620007475762000746620002ec565b5b6200075382546200050f565b6200076082828562000685565b600060209050601f83116001811462000798576000841562000783578287015190505b6200078f858262000702565b865550620007ff565b601f198416620007a88662000544565b60005b82811015620007d257848901518255600182019150602085019450602081019050620007ab565b86831015620007f25784890151620007ee601f891682620006e2565b8355505b6001600288020188555050505b505050505050565b600082825260208201905092915050565b7f43616e6e6f7420736574206f776e657220746f207a65726f0000000000000000600082015250565b60006200085060188362000807565b91506200085d8262000818565b602082019050919050565b60006020820190508181036000830152620008838162000841565b9050919050565b7f43616e6e6f74207472616e7366657220746f2073656c66000000000000000000600082015250565b6000620008c260178362000807565b9150620008cf826200088a565b602082019050919050565b60006020820190508181036000830152620008f581620008b3565b9050919050565b60805160a051612f7b6200093060003960008181610b1301528181610b3d015261119b0152600061091e0152612f7b6000f3fe608060405234801561001057600080fd5b50600436106101fb5760003560e01c806379ba50971161011a578063aa271e1a116100ad578063d5abeb011161007c578063d5abeb01146105e8578063d73dd62314610606578063dd62ed3e14610622578063f2fde38b14610652578063f81094f31461066e576101fb565b8063aa271e1a14610564578063c2e3273d14610594578063c630948d146105b0578063c64d0ebc146105cc576101fb565b806395d89b41116100e957806395d89b41146104ca5780639dc29fac146104e8578063a457c2d714610504578063a9059cbb14610534576101fb565b806379ba50971461046857806379cc67901461047257806386fe8b431461048e5780638da5cb5b146104ac576101fb565b806340c10f1911610192578063661884631161016157806366188463146103ce57806367a5cd06146103fe5780636b32810b1461041a57806370a0823114610438576101fb565b806340c10f191461034a57806342966c68146103665780634334614a146103825780634f5632f8146103b2576101fb565b806323b872dd116101ce57806323b872dd1461029c578063313ce567146102cc57806339509351146102ea5780634000aea01461031a576101fb565b806301ffc9a71461020057806306fdde0314610230578063095ea7b31461024e57806318160ddd1461027e575b600080fd5b61021a6004803603810190610215919061209c565b61068a565b60405161022791906120e4565b60405180910390f35b61023861082c565b604051610245919061218f565b60405180910390f35b61026860048036038101906102639190612245565b6108be565b60405161027591906120e4565b60405180910390f35b6102866108e1565b6040516102939190612294565b60405180910390f35b6102b660048036038101906102b191906122af565b6108eb565b6040516102c391906120e4565b60405180910390f35b6102d461091a565b6040516102e1919061231e565b60405180910390f35b61030460048036038101906102ff9190612245565b610942565b60405161031191906120e4565b60405180910390f35b610334600480360381019061032f919061246e565b610979565b60405161034191906120e4565b60405180910390f35b610364600480360381019061035f9190612245565b610a8c565b005b610380600480360381019061037b91906124dd565b610bd4565b005b61039c6004803603810190610397919061250a565b610c2a565b6040516103a991906120e4565b60405180910390f35b6103cc60048036038101906103c7919061250a565b610c47565b005b6103e860048036038101906103e39190612245565b610caf565b6040516103f591906120e4565b60405180910390f35b6104186004803603810190610413919061250a565b610cc3565b005b610422610cd8565b60405161042f91906125f5565b60405180910390f35b610452600480360381019061044d919061250a565b610ce9565b60405161045f9190612294565b60405180910390f35b610470610d31565b005b61048c60048036038101906104879190612245565b610ec8565b005b610496610f20565b6040516104a391906125f5565b60405180910390f35b6104b4610f31565b6040516104c19190612626565b60405180910390f35b6104d2610f5b565b6040516104df919061218f565b60405180910390f35b61050260048036038101906104fd9190612245565b610fed565b005b61051e60048036038101906105199190612245565b610ffb565b60405161052b91906120e4565b60405180910390f35b61054e60048036038101906105499190612245565b611072565b60405161055b91906120e4565b60405180910390f35b61057e6004803603810190610579919061250a565b611095565b60405161058b91906120e4565b60405180910390f35b6105ae60048036038101906105a9919061250a565b6110b2565b005b6105ca60048036038101906105c5919061250a565b61111a565b005b6105e660048036038101906105e1919061250a565b61112f565b005b6105f0611197565b6040516105fd9190612294565b60405180910390f35b610620600480360381019061061b9190612245565b6111bf565b005b61063c60048036038101906106379190612641565b6111ce565b6040516106499190612294565b60405180910390f35b61066c6004803603810190610667919061250a565b611255565b005b6106886004803603810190610683919061250a565b611269565b005b60007f36372b07000000000000000000000000000000000000000000000000000000007bffffffffffffffffffffffffffffffffffffffffffffffffffffffff1916827bffffffffffffffffffffffffffffffffffffffffffffffffffffffff1916148061075557507f4000aea0000000000000000000000000000000000000000000000000000000007bffffffffffffffffffffffffffffffffffffffffffffffffffffffff1916827bffffffffffffffffffffffffffffffffffffffffffffffffffffffff1916145b806107bd57507fe6599b4d000000000000000000000000000000000000000000000000000000007bffffffffffffffffffffffffffffffffffffffffffffffffffffffff1916827bffffffffffffffffffffffffffffffffffffffffffffffffffffffff1916145b8061082557507f01ffc9a7000000000000000000000000000000000000000000000000000000007bffffffffffffffffffffffffffffffffffffffffffffffffffffffff1916827bffffffffffffffffffffffffffffffffffffffffffffffffffffffff1916145b9050919050565b60606003805461083b906126b0565b80601f0160208091040260200160405190810160405280929190818152602001828054610867906126b0565b80156108b45780601f10610889576101008083540402835291602001916108b4565b820191906000526020600020905b81548152906001019060200180831161089757829003601f168201915b5050505050905090565b6000806108c96112d1565b90506108d68185856112d9565b600191505092915050565b6000600254905090565b6000806108f66112d1565b9050610903858285611323565b61090e8585856113af565b60019150509392505050565b60007f0000000000000000000000000000000000000000000000000000000000000000905090565b60008061094d6112d1565b905061096e81858561095f85896111ce565b6109699190612710565b6112d9565b600191505092915050565b60006109858484611072565b508373ffffffffffffffffffffffffffffffffffffffff163373ffffffffffffffffffffffffffffffffffffffff167fe19260aff97b920c7df27010903aeb9c8d2be5d310a2c67824cf3f15396e4c1685856040516109e5929190612799565b60405180910390a3610a0c8473ffffffffffffffffffffffffffffffffffffffff166113f9565b15610a81578373ffffffffffffffffffffffffffffffffffffffff1663a4c0ed363385856040518463ffffffff1660e01b8152600401610a4e939291906127c9565b600060405180830381600087803b158015610a6857600080fd5b505af1158015610a7c573d6000803e3d6000fd5b505050505b600190509392505050565b610a9533611095565b610ad657336040517fe2c8c9d5000000000000000000000000000000000000000000000000000000008152600401610acd9190612626565b60405180910390fd5b813073ffffffffffffffffffffffffffffffffffffffff168173ffffffffffffffffffffffffffffffffffffffff1603610b0f57600080fd5b60007f000000000000000000000000000000000000000000000000000000000000000014158015610b7157507f000000000000000000000000000000000000000000000000000000000000000082610b656108e1565b610b6f9190612710565b115b15610bc55781610b7f6108e1565b610b899190612710565b6040517fcbbf1113000000000000000000000000000000000000000000000000000000008152600401610bbc9190612294565b60405180910390fd5b610bcf838361141c565b505050565b610bdd33610c2a565b610c1e57336040517fc820b10b000000000000000000000000000000000000000000000000000000008152600401610c159190612626565b60405180910390fd5b610c2781611572565b50565b6000610c4082600961158690919063ffffffff16565b9050919050565b610c4f6115b6565b610c6381600961164890919063ffffffff16565b15610cac578073ffffffffffffffffffffffffffffffffffffffff167f0a675452746933cefe3d74182e78db7afe57ba60eaa4234b5d85e9aa41b0610c60405160405180910390a25b50565b6000610cbb8383610ffb565b905092915050565b610cd581670de0b6b3a764000061141c565b50565b6060610ce46007611678565b905090565b60008060008373ffffffffffffffffffffffffffffffffffffffff1673ffffffffffffffffffffffffffffffffffffffff168152602001908152602001600020549050919050565b600660009054906101000a900473ffffffffffffffffffffffffffffffffffffffff1673ffffffffffffffffffffffffffffffffffffffff163373ffffffffffffffffffffffffffffffffffffffff1614610dc1576040517f08c379a0000000000000000000000000000000000000000000000000000000008152600401610db890612853565b60405180910390fd5b6000600560009054906101000a900473ffffffffffffffffffffffffffffffffffffffff16905033600560006101000a81548173ffffffffffffffffffffffffffffffffffffffff021916908373ffffffffffffffffffffffffffffffffffffffff1602179055506000600660006101000a81548173ffffffffffffffffffffffffffffffffffffffff021916908373ffffffffffffffffffffffffffffffffffffffff1602179055503373ffffffffffffffffffffffffffffffffffffffff168173ffffffffffffffffffffffffffffffffffffffff167f8be0079c531659141344cd1fd0a4f28419497f9722a3daafe3b4186f6b6457e060405160405180910390a350565b610ed133610c2a565b610f1257336040517fc820b10b000000000000000000000000000000000000000000000000000000008152600401610f099190612626565b60405180910390fd5b610f1c8282611699565b5050565b6060610f2c6009611678565b905090565b6000600560009054906101000a900473ffffffffffffffffffffffffffffffffffffffff16905090565b606060048054610f6a906126b0565b80601f0160208091040260200160405190810160405280929190818152602001828054610f96906126b0565b8015610fe35780601f10610fb857610100808354040283529160200191610fe3565b820191906000526020600020905b815481529060010190602001808311610fc657829003601f168201915b5050505050905090565b610ff78282610ec8565b5050565b6000806110066112d1565b9050600061101482866111ce565b905083811015611059576040517f08c379a0000000000000000000000000000000000000000000000000000000008152600401611050906128e5565b60405180910390fd5b61106682868684036112d9565b60019250505092915050565b60008061107d6112d1565b905061108a8185856113af565b600191505092915050565b60006110ab82600761158690919063ffffffff16565b9050919050565b6110ba6115b6565b6110ce8160076116b990919063ffffffff16565b15611117578073ffffffffffffffffffffffffffffffffffffffff167fe46fef8bbff1389d9010703cf8ebb363fb3daf5bf56edc27080b67bc8d9251ea60405160405180910390a25b50565b611123816110b2565b61112c8161112f565b50565b6111376115b6565b61114b8160096116b990919063ffffffff16565b15611194578073ffffffffffffffffffffffffffffffffffffffff167f92308bb7573b2a3d17ddb868b39d8ebec433f3194421abc22d084f89658c9bad60405160405180910390a25b50565b60007f0000000000000000000000000000000000000000000000000000000000000000905090565b6111c98282610942565b505050565b6000600160008473ffffffffffffffffffffffffffffffffffffffff1673ffffffffffffffffffffffffffffffffffffffff16815260200190815260200160002060008373ffffffffffffffffffffffffffffffffffffffff1673ffffffffffffffffffffffffffffffffffffffff16815260200190815260200160002054905092915050565b61125d6115b6565b611266816116e9565b50565b6112716115b6565b61128581600761164890919063ffffffff16565b156112ce578073ffffffffffffffffffffffffffffffffffffffff167fed998b960f6340d045f620c119730f7aa7995e7425c2401d3a5b64ff998a59e960405160405180910390a25b50565b600033905090565b813073ffffffffffffffffffffffffffffffffffffffff168173ffffffffffffffffffffffffffffffffffffffff160361131257600080fd5b61131d848484611817565b50505050565b600061132f84846111ce565b90507fffffffffffffffffffffffffffffffffffffffffffffffffffffffffffffffff81146113a9578181101561139b576040517f08c379a000000000000000000000000000000000000000000000000000000000815260040161139290612951565b60405180910390fd5b6113a884848484036112d9565b5b50505050565b813073ffffffffffffffffffffffffffffffffffffffff168173ffffffffffffffffffffffffffffffffffffffff16036113e857600080fd5b6113f38484846119e0565b50505050565b6000808273ffffffffffffffffffffffffffffffffffffffff163b119050919050565b600073ffffffffffffffffffffffffffffffffffffffff168273ffffffffffffffffffffffffffffffffffffffff160361148b576040517f08c379a0000000000000000000000000000000000000000000000000000000008152600401611482906129bd565b60405180910390fd5b61149760008383611c56565b80600260008282546114a99190612710565b92505081905550806000808473ffffffffffffffffffffffffffffffffffffffff1673ffffffffffffffffffffffffffffffffffffffff168152602001908152602001600020600082825401925050819055508173ffffffffffffffffffffffffffffffffffffffff16600073ffffffffffffffffffffffffffffffffffffffff167fddf252ad1be2c89b69c2b068fc378daa952ba7f163c4a11628f55a4df523b3ef8360405161155a9190612294565b60405180910390a361156e60008383611c5b565b5050565b61158361157d6112d1565b82611c60565b50565b60006115ae836000018373ffffffffffffffffffffffffffffffffffffffff1660001b611e2d565b905092915050565b600560009054906101000a900473ffffffffffffffffffffffffffffffffffffffff1673ffffffffffffffffffffffffffffffffffffffff163373ffffffffffffffffffffffffffffffffffffffff1614611646576040517f08c379a000000000000000000000000000000000000000000000000000000000815260040161163d90612a29565b60405180910390fd5b565b6000611670836000018373ffffffffffffffffffffffffffffffffffffffff1660001b611e50565b905092915050565b6060600061168883600001611f64565b905060608190508092505050919050565b6116ab826116a56112d1565b83611323565b6116b58282611c60565b5050565b60006116e1836000018373ffffffffffffffffffffffffffffffffffffffff1660001b611fc0565b905092915050565b3373ffffffffffffffffffffffffffffffffffffffff168173ffffffffffffffffffffffffffffffffffffffff1603611757576040517f08c379a000000000000000000000000000000000000000000000000000000000815260040161174e90612a95565b60405180910390fd5b80600660006101000a81548173ffffffffffffffffffffffffffffffffffffffff021916908373ffffffffffffffffffffffffffffffffffffffff1602179055508073ffffffffffffffffffffffffffffffffffffffff16600560009054906101000a900473ffffffffffffffffffffffffffffffffffffffff1673ffffffffffffffffffffffffffffffffffffffff167fed8889f560326eb138920d842192f0eb3dd22b4f139c87a2c57538e05bae127860405160405180910390a350565b600073ffffffffffffffffffffffffffffffffffffffff168373ffffffffffffffffffffffffffffffffffffffff1603611886576040517f08c379a000000000000000000000000000000000000000000000000000000000815260040161187d90612b27565b60405180910390fd5b600073ffffffffffffffffffffffffffffffffffffffff168273ffffffffffffffffffffffffffffffffffffffff16036118f5576040517f08c379a00000000000000000000000000000000000000000000000000000000081526004016118ec90612bb9565b60405180910390fd5b80600160008573ffffffffffffffffffffffffffffffffffffffff1673ffffffffffffffffffffffffffffffffffffffff16815260200190815260200160002060008473ffffffffffffffffffffffffffffffffffffffff1673ffffffffffffffffffffffffffffffffffffffff168152602001908152602001600020819055508173ffffffffffffffffffffffffffffffffffffffff168373ffffffffffffffffffffffffffffffffffffffff167f8c5be1e5ebec7d5bd14f71427d1e84f3dd0314c0f7b2291e5b200ac8c7c3b925836040516119d39190612294565b60405180910390a3505050565b600073ffffffffffffffffffffffffffffffffffffffff168373ffffffffffffffffffffffffffffffffffffffff1603611a4f576040517f08c379a0000000000000000000000000000000000000000000000000000000008152600401611a4690612c4b565b60405180910390fd5b600073ffffffffffffffffffffffffffffffffffffffff168273ffffffffffffffffffffffffffffffffffffffff1603611abe576040517f08c379a0000000000000000000000000000000000000000000000000000000008152600401611ab590612cdd565b60405180910390fd5b611ac9838383611c56565b60008060008573ffffffffffffffffffffffffffffffffffffffff1673ffffffffffffffffffffffffffffffffffffffff16815260200190815260200160002054905081811015611b4f576040517f08c379a0000000000000000000000000000000000000000000000000000000008152600401611b4690612d6f565b60405180910390fd5b8181036000808673ffffffffffffffffffffffffffffffffffffffff1673ffffffffffffffffffffffffffffffffffffffff16815260200190815260200160002081905550816000808573ffffffffffffffffffffffffffffffffffffffff1673ffffffffffffffffffffffffffffffffffffffff168152602001908152602001600020600082825401925050819055508273ffffffffffffffffffffffffffffffffffffffff168473ffffffffffffffffffffffffffffffffffffffff167fddf252ad1be2c89b69c2b068fc378daa952ba7f163c4a11628f55a4df523b3ef84604051611c3d9190612294565b60405180910390a3611c50848484611c5b565b50505050565b505050565b505050565b600073ffffffffffffffffffffffffffffffffffffffff168273ffffffffffffffffffffffffffffffffffffffff1603611ccf576040517f08c379a0000000000000000000000000000000000000000000000000000000008152600401611cc690612e01565b60405180910390fd5b611cdb82600083611c56565b60008060008473ffffffffffffffffffffffffffffffffffffffff1673ffffffffffffffffffffffffffffffffffffffff16815260200190815260200160002054905081811015611d61576040517f08c379a0000000000000000000000000000000000000000000000000000000008152600401611d5890612e93565b60405180910390fd5b8181036000808573ffffffffffffffffffffffffffffffffffffffff1673ffffffffffffffffffffffffffffffffffffffff1681526020019081526020016000208190555081600260008282540392505081905550600073ffffffffffffffffffffffffffffffffffffffff168373ffffffffffffffffffffffffffffffffffffffff167fddf252ad1be2c89b69c2b068fc378daa952ba7f163c4a11628f55a4df523b3ef84604051611e149190612294565b60405180910390a3611e2883600084611c5b565b505050565b600080836001016000848152602001908152602001600020541415905092915050565b60008083600101600084815260200190815260200160002054905060008114611f58576000600182611e829190612eb3565b9050600060018660000180549050611e9a9190612eb3565b9050818114611f09576000866000018281548110611ebb57611eba612ee7565b5b9060005260206000200154905080876000018481548110611edf57611ede612ee7565b5b90600052602060002001819055508387600101600083815260200190815260200160002081905550505b85600001805480611f1d57611f1c612f16565b5b600190038181906000526020600020016000905590558560010160008681526020019081526020016000206000905560019350505050611f5e565b60009150505b92915050565b606081600001805480602002602001604051908101604052809291908181526020018280548015611fb457602002820191906000526020600020905b815481526020019060010190808311611fa0575b50505050509050919050565b6000611fcc8383611e2d565b61202557826000018290806001815401808255809150506001900390600052602060002001600090919091909150558260000180549050836001016000848152602001908152602001600020819055506001905061202a565b600090505b92915050565b6000604051905090565b600080fd5b600080fd5b60007fffffffff0000000000000000000000000000000000000000000000000000000082169050919050565b61207981612044565b811461208457600080fd5b50565b60008135905061209681612070565b92915050565b6000602082840312156120b2576120b161203a565b5b60006120c084828501612087565b91505092915050565b60008115159050919050565b6120de816120c9565b82525050565b60006020820190506120f960008301846120d5565b92915050565b600081519050919050565b600082825260208201905092915050565b60005b8381101561213957808201518184015260208101905061211e565b60008484015250505050565b6000601f19601f8301169050919050565b6000612161826120ff565b61216b818561210a565b935061217b81856020860161211b565b61218481612145565b840191505092915050565b600060208201905081810360008301526121a98184612156565b905092915050565b600073ffffffffffffffffffffffffffffffffffffffff82169050919050565b60006121dc826121b1565b9050919050565b6121ec816121d1565b81146121f757600080fd5b50565b600081359050612209816121e3565b92915050565b6000819050919050565b6122228161220f565b811461222d57600080fd5b50565b60008135905061223f81612219565b92915050565b6000806040838503121561225c5761225b61203a565b5b600061226a858286016121fa565b925050602061227b85828601612230565b9150509250929050565b61228e8161220f565b82525050565b60006020820190506122a96000830184612285565b92915050565b6000806000606084860312156122c8576122c761203a565b5b60006122d6868287016121fa565b93505060206122e7868287016121fa565b92505060406122f886828701612230565b9150509250925092565b600060ff82169050919050565b61231881612302565b82525050565b6000602082019050612333600083018461230f565b92915050565b600080fd5b600080fd5b7f4e487b7100000000000000000000000000000000000000000000000000000000600052604160045260246000fd5b61237b82612145565b810181811067ffffffffffffffff8211171561239a57612399612343565b5b80604052505050565b60006123ad612030565b90506123b98282612372565b919050565b600067ffffffffffffffff8211156123d9576123d8612343565b5b6123e282612145565b9050602081019050919050565b82818337600083830152505050565b600061241161240c846123be565b6123a3565b90508281526020810184848401111561242d5761242c61233e565b5b6124388482856123ef565b509392505050565b600082601f83011261245557612454612339565b5b81356124658482602086016123fe565b91505092915050565b6000806000606084860312156124875761248661203a565b5b6000612495868287016121fa565b93505060206124a686828701612230565b925050604084013567ffffffffffffffff8111156124c7576124c661203f565b5b6124d386828701612440565b9150509250925092565b6000602082840312156124f3576124f261203a565b5b600061250184828501612230565b91505092915050565b6000602082840312156125205761251f61203a565b5b600061252e848285016121fa565b91505092915050565b600081519050919050565b600082825260208201905092915050565b6000819050602082019050919050565b61256c816121d1565b82525050565b600061257e8383612563565b60208301905092915050565b6000602082019050919050565b60006125a282612537565b6125ac8185612542565b93506125b783612553565b8060005b838110156125e85781516125cf8882612572565b97506125da8361258a565b9250506001810190506125bb565b5085935050505092915050565b6000602082019050818103600083015261260f8184612597565b905092915050565b612620816121d1565b82525050565b600060208201905061263b6000830184612617565b92915050565b600080604083850312156126585761265761203a565b5b6000612666858286016121fa565b9250506020612677858286016121fa565b9150509250929050565b7f4e487b7100000000000000000000000000000000000000000000000000000000600052602260045260246000fd5b600060028204905060018216806126c857607f821691505b6020821081036126db576126da612681565b5b50919050565b7f4e487b7100000000000000000000000000000000000000000000000000000000600052601160045260246000fd5b600061271b8261220f565b91506127268361220f565b925082820190508082111561273e5761273d6126e1565b5b92915050565b600081519050919050565b600082825260208201905092915050565b600061276b82612744565b612775818561274f565b935061278581856020860161211b565b61278e81612145565b840191505092915050565b60006040820190506127ae6000830185612285565b81810360208301526127c08184612760565b90509392505050565b60006060820190506127de6000830186612617565b6127eb6020830185612285565b81810360408301526127fd8184612760565b9050949350505050565b7f4d7573742062652070726f706f736564206f776e657200000000000000000000600082015250565b600061283d60168361210a565b915061284882612807565b602082019050919050565b6000602082019050818103600083015261286c81612830565b9050919050565b7f45524332303a2064656372656173656420616c6c6f77616e63652062656c6f7760008201527f207a65726f000000000000000000000000000000000000000000000000000000602082015250565b60006128cf60258361210a565b91506128da82612873565b604082019050919050565b600060208201905081810360008301526128fe816128c2565b9050919050565b7f45524332303a20696e73756666696369656e7420616c6c6f77616e6365000000600082015250565b600061293b601d8361210a565b915061294682612905565b602082019050919050565b6000602082019050818103600083015261296a8161292e565b9050919050565b7f45524332303a206d696e7420746f20746865207a65726f206164647265737300600082015250565b60006129a7601f8361210a565b91506129b282612971565b602082019050919050565b600060208201905081810360008301526129d68161299a565b9050919050565b7f4f6e6c792063616c6c61626c65206279206f776e657200000000000000000000600082015250565b6000612a1360168361210a565b9150612a1e826129dd565b602082019050919050565b60006020820190508181036000830152612a4281612a06565b9050919050565b7f43616e6e6f74207472616e7366657220746f2073656c66000000000000000000600082015250565b6000612a7f60178361210a565b9150612a8a82612a49565b602082019050919050565b60006020820190508181036000830152612aae81612a72565b9050919050565b7f45524332303a20617070726f76652066726f6d20746865207a65726f2061646460008201527f7265737300000000000000000000000000000000000000000000000000000000602082015250565b6000612b1160248361210a565b9150612b1c82612ab5565b604082019050919050565b60006020820190508181036000830152612b4081612b04565b9050919050565b7f45524332303a20617070726f766520746f20746865207a65726f20616464726560008201527f7373000000000000000000000000000000000000000000000000000000000000602082015250565b6000612ba360228361210a565b9150612bae82612b47565b604082019050919050565b60006020820190508181036000830152612bd281612b96565b9050919050565b7f45524332303a207472616e736665722066726f6d20746865207a65726f20616460008201527f6472657373000000000000000000000000000000000000000000000000000000602082015250565b6000612c3560258361210a565b9150612c4082612bd9565b604082019050919050565b60006020820190508181036000830152612c6481612c28565b9050919050565b7f45524332303a207472616e7366657220746f20746865207a65726f206164647260008201527f6573730000000000000000000000000000000000000000000000000000000000602082015250565b6000612cc760238361210a565b9150612cd282612c6b565b604082019050919050565b60006020820190508181036000830152612cf681612cba565b9050919050565b7f45524332303a207472616e7366657220616d6f756e742065786365656473206260008201527f616c616e63650000000000000000000000000000000000000000000000000000602082015250565b6000612d5960268361210a565b9150612d6482612cfd565b604082019050919050565b60006020820190508181036000830152612d8881612d4c565b9050919050565b7f45524332303a206275726e2066726f6d20746865207a65726f2061646472657360008201527f7300000000000000000000000000000000000000000000000000000000000000602082015250565b6000612deb60218361210a565b9150612df682612d8f565b604082019050919050565b60006020820190508181036000830152612e1a81612dde565b9050919050565b7f45524332303a206275726e20616d6f756e7420657863656564732062616c616e60008201527f6365000000000000000000000000000000000000000000000000000000000000602082015250565b6000612e7d60228361210a565b9150612e8882612e21565b604082019050919050565b60006020820190508181036000830152612eac81612e70565b9050919050565b6000612ebe8261220f565b9150612ec98361220f565b9250828203905081811115612ee157612ee06126e1565b5b92915050565b7f4e487b7100000000000000000000000000000000000000000000000000000000600052603260045260246000fd5b7f4e487b7100000000000000000000000000000000000000000000000000000000600052603160045260246000fdfea2646970667358221220a65480a51891970a0d4d1d2fd6d59f15b9992605a61a2af1f2ffa05ac6a11bad64736f6c63430008130033","linkReferences":{}},"methodIdentifiers":{"acceptOwnership()":"79ba5097","allowance(address,address)":"dd62ed3e","approve(address,uint256)":"095ea7b3","balanceOf(address)":"70a08231","burn(address,uint256)":"9dc29fac","burn(uint256)":"42966c68","burnFrom(address,uint256)":"79cc6790","decimals()":"313ce567","decreaseAllowance(address,uint256)":"a457c2d7","decreaseApproval(address,uint256)":"66188463","drip(address)":"67a5cd06","getBurners()":"86fe8b43","getMinters()":"6b32810b","grantBurnRole(address)":"c64d0ebc","grantMintAndBurnRoles(address)":"c630948d","grantMintRole(address)":"c2e3273d","increaseAllowance(address,uint256)":"39509351","increaseApproval(address,uint256)":"d73dd623","isBurner(address)":"4334614a","isMinter(address)":"aa271e1a","maxSupply()":"d5abeb01","mint(address,uint256)":"40c10f19","name()":"06fdde03","owner()":"8da5cb5b","revokeBurnRole(address)":"4f5632f8","revokeMintRole(address)":"f81094f3","supportsInterface(bytes4)":"01ffc9a7","symbol()":"95d89b41","totalSupply()":"18160ddd","transfer(address,uint256)":"a9059cbb","transferAndCall(address,uint256,bytes)":"4000aea0","transferFrom(address,address,uint256)":"23b872dd","transferOwnership(address)":"f2fde38b"},"id":68}